{
  "contractName": "JAave",
  "abi": [
    {
      "anonymous": false,
      "inputs": [
        {
          "indexed": true,
          "internalType": "address",
          "name": "previousOwner",
          "type": "address"
        },
        {
          "indexed": true,
          "internalType": "address",
          "name": "newOwner",
          "type": "address"
        }
      ],
      "name": "OwnershipTransferred",
      "type": "event"
    },
    {
      "anonymous": false,
      "inputs": [
        {
          "indexed": false,
          "internalType": "uint256",
          "name": "trancheNum",
          "type": "uint256"
        },
        {
          "indexed": false,
          "internalType": "address",
          "name": "buyer",
          "type": "address"
        },
        {
          "indexed": false,
          "internalType": "uint256",
          "name": "amount",
          "type": "uint256"
        },
        {
          "indexed": false,
          "internalType": "uint256",
          "name": "taAmount",
          "type": "uint256"
        }
      ],
      "name": "TrancheATokenMinted",
      "type": "event"
    },
    {
      "anonymous": false,
      "inputs": [
        {
          "indexed": false,
          "internalType": "uint256",
          "name": "trancheNum",
          "type": "uint256"
        },
        {
          "indexed": false,
          "internalType": "address",
          "name": "burner",
          "type": "address"
        },
        {
          "indexed": false,
          "internalType": "uint256",
          "name": "amount",
          "type": "uint256"
        },
        {
          "indexed": false,
          "internalType": "uint256",
          "name": "userAmount",
          "type": "uint256"
        },
        {
          "indexed": false,
          "internalType": "uint256",
          "name": "feesAmount",
          "type": "uint256"
        }
      ],
      "name": "TrancheATokenRedemption",
      "type": "event"
    },
    {
      "anonymous": false,
      "inputs": [
        {
          "indexed": false,
          "internalType": "uint256",
          "name": "trancheNum",
          "type": "uint256"
        },
        {
          "indexed": false,
          "internalType": "address",
          "name": "trancheA",
          "type": "address"
        },
        {
          "indexed": false,
          "internalType": "address",
          "name": "trancheB",
          "type": "address"
        }
      ],
      "name": "TrancheAddedToProtocol",
      "type": "event"
    },
    {
      "anonymous": false,
      "inputs": [
        {
          "indexed": false,
          "internalType": "uint256",
          "name": "trancheNum",
          "type": "uint256"
        },
        {
          "indexed": false,
          "internalType": "address",
          "name": "buyer",
          "type": "address"
        },
        {
          "indexed": false,
          "internalType": "uint256",
          "name": "amount",
          "type": "uint256"
        },
        {
          "indexed": false,
          "internalType": "uint256",
          "name": "tbAmount",
          "type": "uint256"
        }
      ],
      "name": "TrancheBTokenMinted",
      "type": "event"
    },
    {
      "anonymous": false,
      "inputs": [
        {
          "indexed": false,
          "internalType": "uint256",
          "name": "trancheNum",
          "type": "uint256"
        },
        {
          "indexed": false,
          "internalType": "address",
          "name": "burner",
          "type": "address"
        },
        {
          "indexed": false,
          "internalType": "uint256",
          "name": "amount",
          "type": "uint256"
        },
        {
          "indexed": false,
          "internalType": "uint256",
          "name": "userAmount",
          "type": "uint256"
        },
        {
          "indexed": false,
          "internalType": "uint256",
          "name": "feesAmount",
          "type": "uint256"
        }
      ],
      "name": "TrancheBTokenRedemption",
      "type": "event"
    },
    {
      "stateMutability": "payable",
      "type": "fallback"
    },
    {
      "inputs": [],
      "name": "AAVE_REFERRAL_CODE",
      "outputs": [
        {
          "internalType": "uint16",
          "name": "",
          "type": "uint16"
        }
      ],
      "stateMutability": "view",
      "type": "function"
    },
    {
      "inputs": [],
      "name": "ETH_ADDR",
      "outputs": [
        {
          "internalType": "address",
          "name": "",
          "type": "address"
        }
      ],
      "stateMutability": "view",
      "type": "function"
    },
    {
      "inputs": [],
      "name": "PERCENT_DIVIDER",
      "outputs": [
        {
          "internalType": "uint256",
          "name": "",
          "type": "uint256"
        }
      ],
      "stateMutability": "view",
      "type": "function"
    },
    {
      "inputs": [],
      "name": "aaveIncentiveControllerAddress",
      "outputs": [
        {
          "internalType": "address",
          "name": "",
          "type": "address"
        }
      ],
      "stateMutability": "view",
      "type": "function"
    },
    {
      "inputs": [],
      "name": "adminToolsAddress",
      "outputs": [
        {
          "internalType": "address",
          "name": "",
          "type": "address"
        }
      ],
      "stateMutability": "view",
      "type": "function"
    },
    {
      "inputs": [],
      "name": "feesCollectorAddress",
      "outputs": [
        {
          "internalType": "address",
          "name": "",
          "type": "address"
        }
      ],
      "stateMutability": "view",
      "type": "function"
    },
    {
      "inputs": [
        {
          "internalType": "address",
          "name": "",
          "type": "address"
        }
      ],
      "name": "lastActivity",
      "outputs": [
        {
          "internalType": "uint256",
          "name": "",
          "type": "uint256"
        }
      ],
      "stateMutability": "view",
      "type": "function"
    },
    {
      "inputs": [],
      "name": "lendingPoolAddressProvider",
      "outputs": [
        {
          "internalType": "address",
          "name": "",
          "type": "address"
        }
      ],
      "stateMutability": "view",
      "type": "function"
    },
    {
      "inputs": [],
      "name": "owner",
      "outputs": [
        {
          "internalType": "address",
          "name": "",
          "type": "address"
        }
      ],
      "stateMutability": "view",
      "type": "function"
    },
    {
      "inputs": [],
      "name": "redeemTimeout",
      "outputs": [
        {
          "internalType": "uint32",
          "name": "",
          "type": "uint32"
        }
      ],
      "stateMutability": "view",
      "type": "function"
    },
    {
      "inputs": [],
      "name": "renounceOwnership",
      "outputs": [],
      "stateMutability": "nonpayable",
      "type": "function"
    },
    {
      "inputs": [],
      "name": "rewardsToken",
      "outputs": [
        {
          "internalType": "address",
          "name": "",
          "type": "address"
        }
      ],
      "stateMutability": "view",
      "type": "function"
    },
    {
      "inputs": [],
      "name": "totalBlocksPerYear",
      "outputs": [
        {
          "internalType": "uint256",
          "name": "",
          "type": "uint256"
        }
      ],
      "stateMutability": "view",
      "type": "function"
    },
    {
      "inputs": [
        {
          "internalType": "uint256",
          "name": "",
          "type": "uint256"
        }
      ],
      "name": "trancheAddresses",
      "outputs": [
        {
          "internalType": "address",
          "name": "buyerCoinAddress",
          "type": "address"
        },
        {
          "internalType": "address",
          "name": "aTokenAddress",
          "type": "address"
        },
        {
          "internalType": "address",
          "name": "ATrancheAddress",
          "type": "address"
        },
        {
          "internalType": "address",
          "name": "BTrancheAddress",
          "type": "address"
        }
      ],
      "stateMutability": "view",
      "type": "function"
    },
    {
      "inputs": [
        {
          "internalType": "uint256",
          "name": "",
          "type": "uint256"
        }
      ],
      "name": "trancheDepositEnabled",
      "outputs": [
        {
          "internalType": "bool",
          "name": "",
          "type": "bool"
        }
      ],
      "stateMutability": "view",
      "type": "function"
    },
    {
      "inputs": [],
      "name": "tranchePairsCounter",
      "outputs": [
        {
          "internalType": "uint256",
          "name": "",
          "type": "uint256"
        }
      ],
      "stateMutability": "view",
      "type": "function"
    },
    {
      "inputs": [
        {
          "internalType": "uint256",
          "name": "",
          "type": "uint256"
        }
      ],
      "name": "trancheParameters",
      "outputs": [
        {
          "internalType": "uint256",
          "name": "trancheAFixedPercentage",
          "type": "uint256"
        },
        {
          "internalType": "uint256",
          "name": "trancheALastActionBlock",
          "type": "uint256"
        },
        {
          "internalType": "uint256",
          "name": "storedTrancheAPrice",
          "type": "uint256"
        },
        {
          "internalType": "uint256",
          "name": "trancheACurrentRPB",
          "type": "uint256"
        },
        {
          "internalType": "uint16",
          "name": "redemptionPercentage",
          "type": "uint16"
        },
        {
          "internalType": "uint8",
          "name": "underlyingDecimals",
          "type": "uint8"
        }
      ],
      "stateMutability": "view",
      "type": "function"
    },
    {
      "inputs": [],
      "name": "tranchesDeployerAddress",
      "outputs": [
        {
          "internalType": "address",
          "name": "",
          "type": "address"
        }
      ],
      "stateMutability": "view",
      "type": "function"
    },
    {
      "inputs": [
        {
          "internalType": "address",
          "name": "newOwner",
          "type": "address"
        }
      ],
      "name": "transferOwnership",
      "outputs": [],
      "stateMutability": "nonpayable",
      "type": "function"
    },
    {
      "inputs": [],
      "name": "wethGatewayAddress",
      "outputs": [
        {
          "internalType": "address",
          "name": "",
          "type": "address"
        }
      ],
      "stateMutability": "view",
      "type": "function"
    },
    {
      "inputs": [],
      "name": "wrappedEthAddress",
      "outputs": [
        {
          "internalType": "address",
          "name": "",
          "type": "address"
        }
      ],
      "stateMutability": "view",
      "type": "function"
    },
    {
      "stateMutability": "payable",
      "type": "receive"
    },
    {
      "inputs": [
        {
          "internalType": "address",
          "name": "_adminTools",
          "type": "address"
        },
        {
          "internalType": "address",
          "name": "_feesCollector",
          "type": "address"
        },
        {
          "internalType": "address",
          "name": "_tranchesDepl",
          "type": "address"
        },
        {
          "internalType": "address",
          "name": "_aaveIncentiveController",
          "type": "address"
        },
        {
          "internalType": "address",
          "name": "_wethAddress",
          "type": "address"
        },
        {
          "internalType": "address",
          "name": "_rewardsToken",
          "type": "address"
        },
        {
          "internalType": "uint256",
          "name": "_blocksPerYear",
          "type": "uint256"
        }
      ],
      "name": "initialize",
      "outputs": [],
      "stateMutability": "nonpayable",
      "type": "function"
    },
    {
      "inputs": [
        {
          "internalType": "address",
          "name": "_adminTools",
          "type": "address"
        },
        {
          "internalType": "address",
          "name": "_feesCollector",
          "type": "address"
        },
        {
          "internalType": "address",
          "name": "_tranchesDepl",
          "type": "address"
        },
        {
          "internalType": "address",
          "name": "_aaveIncentiveController",
          "type": "address"
        },
        {
          "internalType": "address",
          "name": "_wethAddress",
          "type": "address"
        },
        {
          "internalType": "address",
          "name": "_rewardsToken",
          "type": "address"
        }
      ],
      "name": "setNewEnvironment",
      "outputs": [],
      "stateMutability": "nonpayable",
      "type": "function"
    },
    {
      "inputs": [
        {
          "internalType": "uint256",
          "name": "_newValue",
          "type": "uint256"
        }
      ],
      "name": "setBlocksPerYear",
      "outputs": [],
      "stateMutability": "nonpayable",
      "type": "function"
    },
    {
      "inputs": [
        {
          "internalType": "address",
          "name": "_addressProviderContract",
          "type": "address"
        }
      ],
      "name": "setAavePoolAddressProvider",
      "outputs": [],
      "stateMutability": "nonpayable",
      "type": "function"
    },
    {
      "inputs": [
        {
          "internalType": "address",
          "name": "_aaveIncentiveController",
          "type": "address"
        }
      ],
      "name": "setAaveIncentiveControllerAddress",
      "outputs": [],
      "stateMutability": "nonpayable",
      "type": "function"
    },
    {
      "inputs": [],
      "name": "getDataProvider",
      "outputs": [
        {
          "internalType": "contract IAaveProtocolDataProvider",
          "name": "",
          "type": "address"
        }
      ],
      "stateMutability": "view",
      "type": "function"
    },
    {
      "inputs": [],
      "name": "getAllATokens",
      "outputs": [
        {
          "components": [
            {
              "internalType": "string",
              "name": "symbol",
              "type": "string"
            },
            {
              "internalType": "address",
              "name": "tokenAddress",
              "type": "address"
            }
          ],
          "internalType": "struct IAaveProtocolDataProvider.TokenData[]",
          "name": "",
          "type": "tuple[]"
        }
      ],
      "stateMutability": "view",
      "type": "function"
    },
    {
      "inputs": [],
      "name": "getAllReservesTokens",
      "outputs": [
        {
          "components": [
            {
              "internalType": "string",
              "name": "symbol",
              "type": "string"
            },
            {
              "internalType": "address",
              "name": "tokenAddress",
              "type": "address"
            }
          ],
          "internalType": "struct IAaveProtocolDataProvider.TokenData[]",
          "name": "",
          "type": "tuple[]"
        }
      ],
      "stateMutability": "view",
      "type": "function"
    },
    {
      "inputs": [
        {
          "internalType": "uint256",
          "name": "_trancheNum",
          "type": "uint256"
        }
      ],
      "name": "getAaveReserveData",
      "outputs": [
        {
          "internalType": "uint256",
          "name": "availableLiquidity",
          "type": "uint256"
        },
        {
          "internalType": "uint256",
          "name": "totalStableDebt",
          "type": "uint256"
        },
        {
          "internalType": "uint256",
          "name": "totalVariableDebt",
          "type": "uint256"
        },
        {
          "internalType": "uint256",
          "name": "liquidityRate",
          "type": "uint256"
        },
        {
          "internalType": "uint256",
          "name": "variableBorrowRate",
          "type": "uint256"
        },
        {
          "internalType": "uint256",
          "name": "stableBorrowRate",
          "type": "uint256"
        },
        {
          "internalType": "uint256",
          "name": "averageStableBorrowRate",
          "type": "uint256"
        },
        {
          "internalType": "uint256",
          "name": "liquidityIndex",
          "type": "uint256"
        },
        {
          "internalType": "uint256",
          "name": "variableBorrowIndex",
          "type": "uint256"
        },
        {
          "internalType": "uint40",
          "name": "lastUpdateTimestamp",
          "type": "uint40"
        }
      ],
      "stateMutability": "view",
      "type": "function"
    },
    {
      "inputs": [],
      "name": "getLendingPool",
      "outputs": [
        {
          "internalType": "address",
          "name": "",
          "type": "address"
        }
      ],
      "stateMutability": "view",
      "type": "function"
    },
    {
      "inputs": [
        {
          "internalType": "address",
          "name": "_wethGatewayAddress",
          "type": "address"
        }
      ],
      "name": "setWETHGatewayAddress",
      "outputs": [],
      "stateMutability": "nonpayable",
      "type": "function"
    },
    {
      "inputs": [
        {
          "internalType": "uint256",
          "name": "_trancheNum",
          "type": "uint256"
        },
        {
          "internalType": "uint8",
          "name": "_underlyingDec",
          "type": "uint8"
        }
      ],
      "name": "setDecimals",
      "outputs": [],
      "stateMutability": "nonpayable",
      "type": "function"
    },
    {
      "inputs": [
        {
          "internalType": "uint256",
          "name": "_trancheNum",
          "type": "uint256"
        },
        {
          "internalType": "uint16",
          "name": "_redeemPercent",
          "type": "uint16"
        }
      ],
      "name": "setTrancheRedemptionPercentage",
      "outputs": [],
      "stateMutability": "nonpayable",
      "type": "function"
    },
    {
      "inputs": [
        {
          "internalType": "uint32",
          "name": "_blockNum",
          "type": "uint32"
        }
      ],
      "name": "setRedemptionTimeout",
      "outputs": [],
      "stateMutability": "nonpayable",
      "type": "function"
    },
    {
      "inputs": [
        {
          "internalType": "uint256",
          "name": "_trancheNum",
          "type": "uint256"
        },
        {
          "internalType": "uint256",
          "name": "_newTrAPercentage",
          "type": "uint256"
        }
      ],
      "name": "setTrancheAFixedPercentage",
      "outputs": [],
      "stateMutability": "nonpayable",
      "type": "function"
    },
    {
      "inputs": [
        {
          "internalType": "address",
          "name": "_buyerCoinAddress",
          "type": "address"
        },
        {
          "internalType": "address",
          "name": "_aTokenAddress",
          "type": "address"
        },
        {
          "internalType": "string",
          "name": "_nameA",
          "type": "string"
        },
        {
          "internalType": "string",
          "name": "_symbolA",
          "type": "string"
        },
        {
          "internalType": "string",
          "name": "_nameB",
          "type": "string"
        },
        {
          "internalType": "string",
          "name": "_symbolB",
          "type": "string"
        },
        {
          "internalType": "uint256",
          "name": "_fixedRpb",
          "type": "uint256"
        },
        {
          "internalType": "uint8",
          "name": "_underlyingDec",
          "type": "uint8"
        }
      ],
      "name": "addTrancheToProtocol",
      "outputs": [],
      "stateMutability": "nonpayable",
      "type": "function"
    },
    {
      "inputs": [
        {
          "internalType": "uint256",
          "name": "_trancheNum",
          "type": "uint256"
        },
        {
          "internalType": "bool",
          "name": "_enable",
          "type": "bool"
        }
      ],
      "name": "setTrancheDeposit",
      "outputs": [],
      "stateMutability": "nonpayable",
      "type": "function"
    },
    {
      "inputs": [
        {
          "internalType": "uint256",
          "name": "_trancheNum",
          "type": "uint256"
        }
      ],
      "name": "getTrancheAExchangeRate",
      "outputs": [
        {
          "internalType": "uint256",
          "name": "",
          "type": "uint256"
        }
      ],
      "stateMutability": "view",
      "type": "function"
    },
    {
      "inputs": [
        {
          "internalType": "uint256",
          "name": "_trancheNum",
          "type": "uint256"
        }
      ],
      "name": "getTrancheACurrentRPB",
      "outputs": [
        {
          "internalType": "uint256",
          "name": "",
          "type": "uint256"
        }
      ],
      "stateMutability": "view",
      "type": "function"
    },
    {
      "inputs": [
        {
          "internalType": "uint256",
          "name": "_trancheNum",
          "type": "uint256"
        }
      ],
      "name": "calcRPBFromPercentage",
      "outputs": [
        {
          "internalType": "uint256",
          "name": "",
          "type": "uint256"
        }
      ],
      "stateMutability": "nonpayable",
      "type": "function"
    },
    {
      "inputs": [
        {
          "internalType": "uint256",
          "name": "_trancheNum",
          "type": "uint256"
        }
      ],
      "name": "getTrAValue",
      "outputs": [
        {
          "internalType": "uint256",
          "name": "trANormValue",
          "type": "uint256"
        }
      ],
      "stateMutability": "view",
      "type": "function"
    },
    {
      "inputs": [
        {
          "internalType": "uint256",
          "name": "_trancheNum",
          "type": "uint256"
        }
      ],
      "name": "getTrBValue",
      "outputs": [
        {
          "internalType": "uint256",
          "name": "",
          "type": "uint256"
        }
      ],
      "stateMutability": "view",
      "type": "function"
    },
    {
      "inputs": [
        {
          "internalType": "uint256",
          "name": "_trancheNum",
          "type": "uint256"
        }
      ],
      "name": "getTotalValue",
      "outputs": [
        {
          "internalType": "uint256",
          "name": "",
          "type": "uint256"
        }
      ],
      "stateMutability": "view",
      "type": "function"
    },
    {
      "inputs": [
        {
          "internalType": "uint256",
          "name": "_trancheNum",
          "type": "uint256"
        },
        {
          "internalType": "uint256",
          "name": "_newAmount",
          "type": "uint256"
        }
      ],
      "name": "getTrancheBExchangeRate",
      "outputs": [
        {
          "internalType": "uint256",
          "name": "tbPrice",
          "type": "uint256"
        }
      ],
      "stateMutability": "view",
      "type": "function"
    },
    {
      "inputs": [
        {
          "internalType": "uint256",
          "name": "_trancheNum",
          "type": "uint256"
        },
        {
          "internalType": "uint256",
          "name": "_amount",
          "type": "uint256"
        }
      ],
      "name": "buyTrancheAToken",
      "outputs": [],
      "stateMutability": "payable",
      "type": "function"
    },
    {
      "inputs": [
        {
          "internalType": "uint256",
          "name": "_trancheNum",
          "type": "uint256"
        },
        {
          "internalType": "uint256",
          "name": "_amount",
          "type": "uint256"
        }
      ],
      "name": "redeemTrancheAToken",
      "outputs": [],
      "stateMutability": "nonpayable",
      "type": "function"
    },
    {
      "inputs": [
        {
          "internalType": "uint256",
          "name": "_trancheNum",
          "type": "uint256"
        },
        {
          "internalType": "uint256",
          "name": "_amount",
          "type": "uint256"
        }
      ],
      "name": "buyTrancheBToken",
      "outputs": [],
      "stateMutability": "payable",
      "type": "function"
    },
    {
      "inputs": [
        {
          "internalType": "uint256",
          "name": "_trancheNum",
          "type": "uint256"
        },
        {
          "internalType": "uint256",
          "name": "_amount",
          "type": "uint256"
        }
      ],
      "name": "redeemTrancheBToken",
      "outputs": [],
      "stateMutability": "nonpayable",
      "type": "function"
    },
    {
      "inputs": [
        {
          "internalType": "address",
          "name": "_tokenContract",
          "type": "address"
        }
      ],
      "name": "getTokenBalance",
      "outputs": [
        {
          "internalType": "uint256",
          "name": "",
          "type": "uint256"
        }
      ],
      "stateMutability": "view",
      "type": "function"
    },
    {
      "inputs": [],
      "name": "getEthBalance",
      "outputs": [
        {
          "internalType": "uint256",
          "name": "",
          "type": "uint256"
        }
      ],
      "stateMutability": "view",
      "type": "function"
    },
    {
      "inputs": [
        {
          "internalType": "address",
          "name": "_tokenContract",
          "type": "address"
        },
        {
          "internalType": "uint256",
          "name": "_amount",
          "type": "uint256"
        }
      ],
      "name": "transferTokenToFeesCollector",
      "outputs": [],
      "stateMutability": "nonpayable",
      "type": "function"
    },
    {
      "inputs": [
        {
          "internalType": "uint256",
          "name": "_amount",
          "type": "uint256"
        }
      ],
      "name": "withdrawEthToFeesCollector",
      "outputs": [],
      "stateMutability": "nonpayable",
      "type": "function"
    },
    {
      "inputs": [],
      "name": "getAaveUnclaimedRewards",
      "outputs": [
        {
          "internalType": "uint256",
          "name": "",
          "type": "uint256"
        }
      ],
      "stateMutability": "view",
      "type": "function"
    },
    {
      "inputs": [],
      "name": "claimAaveRewards",
      "outputs": [],
      "stateMutability": "nonpayable",
      "type": "function"
    },
    {
      "inputs": [
        {
          "internalType": "address",
          "name": "_assetToken",
          "type": "address"
        },
        {
          "internalType": "uint256",
          "name": "_amount",
          "type": "uint256"
        }
      ],
      "name": "claimAaveRewardsSingleAsset",
      "outputs": [],
      "stateMutability": "nonpayable",
      "type": "function"
    }
  ],
  "bytecode": "0x608060405234801561001057600080fd5b50614d9e806100206000396000f3fe60806040526004361061036f5760003560e01c80637753f47b116101c6578063d3dd2a14116100f7578063eba181e611610095578063f561ae411161006f578063f561ae4114610986578063f5bb31da1461099b578063fa37e9a0146109b0578063fc9a1623146109d057610376565b8063eba181e614610926578063f07e96b314610946578063f2fde38b1461096657610376565b8063d633590a116100d1578063d633590a146108bc578063e202e5ad146108d1578063e5fa2b70146108f1578063e66a46941461091157610376565b8063d3dd2a141461085c578063d41f283c1461087c578063d495ece01461089c57610376565b8063b316ff8911610164578063ce6ec5321161013e578063ce6ec532146107f2578063d184859a14610807578063d1af0c7d14610827578063d2db67331461083c57610376565b8063b316ff89146107a6578063c17c19ce146107c8578063cc8d383a146107dd57610376565b8063811f7faf116101a0578063811f7faf1461072a5780638da5cb5b1461074a57806393e3474c1461075f578063af45ba1e1461077457610376565b80637753f47b146106e05780637a13cdca146106f55780637afc66fc1461070a57610376565b806336c013e6116102a0578063633803001161023e57806370ed0ada1161021857806370ed0ada1461068e578063715018a6146106a357806372f8fb5c146106b85780637301e24e146106cb57610376565b8063633803001461063957806365e311971461064e5780636e98a04e1461066e57610376565b806341f003101161027a57806341f00310146105c65780634fe88929146105e65780635646c34b146106065780636125f2381461061957610376565b806336c013e614610561578063377d7c9f146105915780633aecd0e3146105a657610376565b8063169609231161030d5780632841653d116102e75780632841653d146104ec57806329fc7bd81461050c5780632f40d5e91461052157806334b002841461054157610376565b8063169609231461047d578063198d2d641461049f578063277e2ab6146104bf57610376565b80630787e6c7116103495780630787e6c7146103f25780630b7aeb411461041257806313863d82146104275780631460e3901461045d57610376565b80630261bf8b146103785780630409b157146103a357806305a363de146103d057610376565b3661037657005b005b34801561038457600080fd5b5061038d6109f0565b60405161039a9190614319565b60405180910390f35b3480156103af57600080fd5b506103c36103be366004614153565b610a72565b60405161039a91906144ea565b3480156103dc57600080fd5b506103e5610ac9565b60405161039a9190614bc4565b3480156103fe57600080fd5b5061037661040d366004613dc3565b610ace565b34801561041e57600080fd5b506103c3610b95565b34801561043357600080fd5b50610447610442366004614153565b610b9b565b60405161039a9a99989796959493929190614c71565b34801561046957600080fd5b50610376610478366004613e7c565b610cc7565b34801561048957600080fd5b50610492610dd2565b60405161039a9190614cbd565b3480156104ab57600080fd5b506103766104ba366004614284565b610dde565b3480156104cb57600080fd5b506104df6104da366004614153565b610ecc565b60405161039a91906144df565b3480156104f857600080fd5b50610376610507366004613dfb565b610ee1565b34801561051857600080fd5b506103c3610fdf565b34801561052d57600080fd5b5061037661053c366004613fef565b610fe5565b34801561054d57600080fd5b5061037661055c366004613fef565b61109d565b34801561056d57600080fd5b5061058161057c366004614153565b61117b565b60405161039a9493929190614360565b34801561059d57600080fd5b506103766111b3565b3480156105b257600080fd5b506103c36105c1366004613dc3565b6112f0565b3480156105d257600080fd5b506103766105e13660046142ad565b611375565b3480156105f257600080fd5b506103c3610601366004614153565b61142d565b6103766106143660046141dc565b611442565b34801561062557600080fd5b506103766106343660046141b2565b6118a8565b34801561064557600080fd5b5061038d61196b565b34801561065a57600080fd5b50610376610669366004614153565b61197a565b34801561067a57600080fd5b506103c3610689366004614153565b611a2f565b34801561069a57600080fd5b506103c3611b15565b3480156106af57600080fd5b50610376611b19565b6103766106c63660046141dc565b611ba2565b3480156106d757600080fd5b506103c361200a565b3480156106ec57600080fd5b5061038d61208b565b34801561070157600080fd5b5061038d6120a3565b34801561071657600080fd5b506103c36107253660046141dc565b6120b2565b34801561073657600080fd5b506103766107453660046141dc565b61224b565b34801561075657600080fd5b5061038d612577565b34801561076b57600080fd5b5061038d612586565b34801561078057600080fd5b5061079461078f366004614153565b612595565b60405161039a96959493929190614c42565b3480156107b257600080fd5b506107bb6125d3565b60405161039a9190614463565b3480156107d457600080fd5b506103c3612685565b3480156107e957600080fd5b5061038d61268b565b3480156107fe57600080fd5b5061038d61269a565b34801561081357600080fd5b506103c3610822366004614153565b6126a9565b34801561083357600080fd5b5061038d6126ea565b34801561084857600080fd5b50610376610857366004613dc3565b6126f9565b34801561086857600080fd5b506103c3610877366004614153565b6127b7565b34801561088857600080fd5b506103c3610897366004614153565b6127cc565b3480156108a857600080fd5b506103766108b73660046141dc565b6127f0565b3480156108c857600080fd5b5061038d6128bf565b3480156108dd57600080fd5b506103766108ec366004613dc3565b6128ce565b3480156108fd57600080fd5b5061037661090c366004614153565b61298c565b34801561091d57600080fd5b5061038d612a4d565b34801561093257600080fd5b506103766109413660046141dc565b612ac4565b34801561095257600080fd5b506103c3610961366004613dc3565b612dd1565b34801561097257600080fd5b50610376610981366004613dc3565b612de3565b34801561099257600080fd5b506107bb612ea4565b3480156109a757600080fd5b5061038d612f14565b3480156109bc57600080fd5b506103766109cb366004613f08565b612f23565b3480156109dc57600080fd5b506103766109eb366004614183565b6132e8565b609a5460408051630261bf8b60e01b815290516000926001600160a01b031691630261bf8b916004808301926020929190829003018186803b158015610a3557600080fd5b505afa158015610a49573d6000803e3d6000fd5b505050506040513d601f19601f82011682018060405250810190610a6d9190613ddf565b905090565b609f54600082815260a26020526040812080546002909101549192610aad92670de0b6b3a764000092610aa7929183916133a4565b906133e5565b600083815260a26020526040902060030181905590505b919050565b600081565b609754604051630935e01b60e21b81526001600160a01b03909116906324d7806c90610afe903390600401614319565b60206040518083038186803b158015610b1657600080fd5b505afa158015610b2a573d6000803e3d6000fd5b505050506040513d601f19601f82011682018060405250810190610b4e9190614137565b610b735760405162461bcd60e51b8152600401610b6a906145e6565b60405180910390fd5b609a80546001600160a01b0319166001600160a01b0392909216919091179055565b609e5481565b609a546000908190819081908190819081908190819081906001600160a01b0316610bd85760405162461bcd60e51b8152600401610b6a9061459e565b6000610be2612a4d565b60008d815260a160205260409020549091506001600160a01b031673eeeeeeeeeeeeeeeeeeeeeeeeeeeeeeeeeeeeeeee811415610c275750609d546001600160a01b03165b6040516335ea6a7560e01b81526001600160a01b038316906335ea6a7590610c53908490600401614319565b6101406040518083038186803b158015610c6c57600080fd5b505afa158015610c80573d6000803e3d6000fd5b505050506040513d601f19601f82011682018060405250810190610ca491906141fd565b9b509b509b509b509b509b509b509b509b509b5050509193959799509193959799565b600054610100900460ff1680610ce05750610ce0613417565b80610cee575060005460ff16155b610d0a5760405162461bcd60e51b8152600401610b6a906148a6565b600054610100900460ff16158015610d35576000805460ff1961ff0019909116610100171660011790555b610d3d613428565b609780546001600160a01b03808b166001600160a01b031992831617909255609880548a841690831617905560998054898416908316179055609c805488841690831617905560a0805463ffffffff19166003179055609d8054878416908316179055609f84905560a58054928616929091169190911790558015610dc8576000805461ff00191690555b5050505050505050565b60a05463ffffffff1681565b609754604051630935e01b60e21b81526001600160a01b03909116906324d7806c90610e0e903390600401614319565b60206040518083038186803b158015610e2657600080fd5b505afa158015610e3a573d6000803e3d6000fd5b505050506040513d601f19601f82011682018060405250810190610e5e9190614137565b610e7a5760405162461bcd60e51b8152600401610b6a906145e6565b60128160ff161115610e9e5760405162461bcd60e51b8152600401610b6a90614827565b600091825260a26020526040909120600401805460ff909216620100000262ff000019909216919091179055565b60a46020526000908152604090205460ff1681565b610ee96134ba565b6001600160a01b0316610efa612577565b6001600160a01b031614610f205760405162461bcd60e51b8152600401610b6a90614a02565b6001600160a01b03861615801590610f4057506001600160a01b03851615155b8015610f5457506001600160a01b03841615155b610f705760405162461bcd60e51b8152600401610b6a906147f7565b609780546001600160a01b03199081166001600160a01b03988916179091556098805482169688169690961790955560998054861694871694909417909355609c8054851692861692909217909155609d8054841691851691909117905560a580549092169216919091179055565b61271081565b609754604051630935e01b60e21b81526001600160a01b03909116906324d7806c90611015903390600401614319565b60206040518083038186803b15801561102d57600080fd5b505afa158015611041573d6000803e3d6000fd5b505050506040513d601f19601f820116820180604052508101906110659190614137565b6110815760405162461bcd60e51b8152600401610b6a906145e6565b6098546110999083906001600160a01b0316836134be565b5050565b6040805160018082528183019092526060916020808301908036833701905050905082816000815181106110cd57fe5b6001600160a01b0390921660209283029190910190910152811561117657609c54609854604051633111e7b360e01b81526001600160a01b0392831692633111e7b392611122928692889216906004016143ff565b602060405180830381600087803b15801561113c57600080fd5b505af1158015611150573d6000803e3d6000fd5b505050506040513d601f19601f82011682018060405250810190611174919061416b565b505b505050565b60a16020526000908152604090208054600182015460028301546003909301546001600160a01b039283169391831692918216911684565b6060609e5467ffffffffffffffff811180156111ce57600080fd5b506040519080825280602002602001820160405280156111f8578160200160208202803683370190505b50905060005b609e5481101561125457600081815260a1602052604090206001015482516001600160a01b039091169083908390811061123457fe5b6001600160a01b03909216602092830291909101909101526001016111fe565b50600061125f61200a565b9050801561109957609c54609854604051633111e7b360e01b81526001600160a01b0392831692633111e7b39261129e928792879216906004016143ff565b602060405180830381600087803b1580156112b857600080fd5b505af11580156112cc573d6000803e3d6000fd5b505050506040513d601f19601f82011682018060405250810190611176919061416b565b6040516370a0823160e01b81526000906001600160a01b038316906370a082319061131f903090600401614319565b60206040518083038186803b15801561133757600080fd5b505afa15801561134b573d6000803e3d6000fd5b505050506040513d601f19601f8201168201806040525081019061136f919061416b565b92915050565b609754604051630935e01b60e21b81526001600160a01b03909116906324d7806c906113a5903390600401614319565b60206040518083038186803b1580156113bd57600080fd5b505afa1580156113d1573d6000803e3d6000fd5b505050506040513d601f19601f820116820180604052508101906113f59190614137565b6114115760405162461bcd60e51b8152600401610b6a906145e6565b60a0805463ffffffff191663ffffffff92909216919091179055565b600090815260a2602052604090206002015490565b600260655414156114655760405162461bcd60e51b8152600401610b6a90614b37565b6002606555600082815260a4602052604090205460ff166114985760405162461bcd60e51b8152600401610b6a90614613565b600082815260a160205260408120600101546114bc906001600160a01b03166112f0565b90506000609a60009054906101000a90046001600160a01b03166001600160a01b0316630261bf8b6040518163ffffffff1660e01b815260040160206040518083038186803b15801561150e57600080fd5b505afa158015611522573d6000803e3d6000fd5b505050506040513d601f19601f820116820180604052508101906115469190613ddf565b600085815260a160205260409020549091506001600160a01b031673eeeeeeeeeeeeeeeeeeeeeeeeeeeeeeeeeeeeeeee8114156116195783341461159c5760405162461bcd60e51b8152600401610b6a90614715565b609b60009054906101000a90046001600160a01b03166001600160a01b031663f6326fb3346040518263ffffffff1660e01b81526004016000604051808303818588803b1580156115ec57600080fd5b505af1158015611600573d6000803e3d6000fd5b5050609d546001600160a01b031693506116c392505050565b604051636eb1769f60e11b815284906001600160a01b0383169063dd62ed3e90611649903390309060040161432d565b60206040518083038186803b15801561166157600080fd5b505afa158015611675573d6000803e3d6000fd5b505050506040513d601f19601f82011682018060405250810190611699919061416b565b10156116b75760405162461bcd60e51b8152600401610b6a90614aef565b6116c381333087613514565b6116ce818386613535565b60405163e8eda9df60e01b81526001600160a01b0383169063e8eda9df90611701908490889030906000906004016143d2565b600060405180830381600087803b15801561171b57600080fd5b505af115801561172f573d6000803e3d6000fd5b505050600086815260a16020526040812060010154909150611759906001600160a01b03166112f0565b9050611764866135f8565b5060008482111561184b57600087815260a260205260408120600401546117969060129062010000900460ff16613685565b905060006117a888600a84900a6133a4565b60008a815260a260205260409020600201549091506117d390610aa783670de0b6b3a76400006133a4565b60008a815260a16020526040908190206002015490516340c10f1960e01b81529194506001600160a01b0316906340c10f19906118169033908790600401614347565b600060405180830381600087803b15801561183057600080fd5b505af1158015611844573d6000803e3d6000fd5b5050505050505b33600081815260a3602052604090819020439055517f19f1e132571edb9da814c6ef6b15cfc69db767393405221724bf323db24459b891611892918a91908a908690614bd3565b60405180910390a1505060016065555050505050565b609754604051630935e01b60e21b81526001600160a01b03909116906324d7806c906118d8903390600401614319565b60206040518083038186803b1580156118f057600080fd5b505afa158015611904573d6000803e3d6000fd5b505050506040513d601f19601f820116820180604052508101906119289190614137565b6119445760405162461bcd60e51b8152600401610b6a906145e6565b600091825260a26020526040909120600401805461ffff191661ffff909216919091179055565b609a546001600160a01b031681565b609754604051630935e01b60e21b81526001600160a01b03909116906324d7806c906119aa903390600401614319565b60206040518083038186803b1580156119c257600080fd5b505afa1580156119d6573d6000803e3d6000fd5b505050506040513d601f19601f820116820180604052508101906119fa9190614137565b611a165760405162461bcd60e51b8152600401610b6a906145e6565b609854611a2c906001600160a01b0316826136ad565b50565b600081815260a1602090815260408083206002015481516318160ddd60e01b8152915184936001600160a01b03909216926318160ddd926004808301939192829003018186803b158015611a8257600080fd5b505afa158015611a96573d6000803e3d6000fd5b505050506040513d601f19601f82011682018060405250810190611aba919061416b565b600084815260a2602052604081206004015491925090611ae59060129062010000900460ff16613685565b9050611b0d81600a0a610aa7670de0b6b3a7640000610aa7611b068961142d565b87906133a4565b949350505050565b4790565b611b216134ba565b6001600160a01b0316611b32612577565b6001600160a01b031614611b585760405162461bcd60e51b8152600401610b6a90614a02565b6033546040516000916001600160a01b0316907f8be0079c531659141344cd1fd0a4f28419497f9722a3daafe3b4186f6b6457e0908390a3603380546001600160a01b0319169055565b60026065541415611bc55760405162461bcd60e51b8152600401610b6a90614b37565b6002606555600082815260a4602052604090205460ff16611bf85760405162461bcd60e51b8152600401610b6a90614613565b611c01826135f8565b50600082815260a26020526040812060040154611c299060129062010000900460ff16613685565b90506000611c3b83600a84900a6133a4565b90506000611c5e611c4c86866120b2565b610aa784670de0b6b3a76400006133a4565b600086815260a1602052604081206001015491925090611c86906001600160a01b03166112f0565b90506000609a60009054906101000a90046001600160a01b03166001600160a01b0316630261bf8b6040518163ffffffff1660e01b815260040160206040518083038186803b158015611cd857600080fd5b505afa158015611cec573d6000803e3d6000fd5b505050506040513d601f19601f82011682018060405250810190611d109190613ddf565b600088815260a160205260409020549091506001600160a01b031673eeeeeeeeeeeeeeeeeeeeeeeeeeeeeeeeeeeeeeee811415611de357863414611d665760405162461bcd60e51b8152600401610b6a90614715565b609b60009054906101000a90046001600160a01b03166001600160a01b031663f6326fb3346040518263ffffffff1660e01b81526004016000604051808303818588803b158015611db657600080fd5b505af1158015611dca573d6000803e3d6000fd5b5050609d546001600160a01b03169350611e8d92505050565b604051636eb1769f60e11b815287906001600160a01b0383169063dd62ed3e90611e13903390309060040161432d565b60206040518083038186803b158015611e2b57600080fd5b505afa158015611e3f573d6000803e3d6000fd5b505050506040513d601f19601f82011682018060405250810190611e63919061416b565b1015611e815760405162461bcd60e51b8152600401610b6a9061485e565b611e8d8133308a613514565b611e98818389613535565b60405163e8eda9df60e01b81526001600160a01b0383169063e8eda9df90611ecb9084908b9030906000906004016143d2565b600060405180830381600087803b158015611ee557600080fd5b505af1158015611ef9573d6000803e3d6000fd5b505050600089815260a16020526040812060010154909150611f23906001600160a01b03166112f0565b905083811115611fa657600089815260a16020526040908190206003015490516340c10f1960e01b81526001600160a01b03909116906340c10f1990611f6f9033908990600401614347565b600060405180830381600087803b158015611f8957600080fd5b505af1158015611f9d573d6000803e3d6000fd5b50505050611fab565b600094505b33600081815260a3602052604090819020439055517ff08a1bcb4ad0b6bbcc3885d1221ff0ebc1fb9a7b8abc59447a94e305cc2491e191611ff2918c91908c908a90614bd3565b60405180910390a15050600160655550505050505050565b609c54604051630cc7d40f60e11b81526000916001600160a01b03169063198fa81e9061203b903090600401614319565b60206040518083038186803b15801561205357600080fd5b505afa158015612067573d6000803e3d6000fd5b505050506040513d601f19601f82011682018060405250810190610a6d919061416b565b73eeeeeeeeeeeeeeeeeeeeeeeeeeeeeeeeeeeeeeee81565b609d546001600160a01b031681565b600082815260a1602090815260408083206003015481516318160ddd60e01b81529151849384936001600160a01b03909316926318160ddd9260048083019392829003018186803b15801561210657600080fd5b505afa15801561211a573d6000803e3d6000fd5b505050506040513d601f19601f8201168201806040525081019061213e919061416b565b600086815260a2602052604090206004015490915062010000900460ff168460128210156121815761217e612174601284613685565b8790600a0a6133a4565b90505b600061218d848361373a565b905060006121a48861219e8b6127cc565b9061373a565b905060006121b18a611a2f565b90508082106121cb576121c48282613685565b96506121d0565b600096505b6012851080156121e05750600087115b15612200576121fd6121f3601287613685565b8890600a0a6133a4565b96505b6000871180156122105750600083115b156122325761222b83610aa789670de0b6b3a76400006133a4565b975061223e565b670de0b6b3a764000097505b5050505050505092915050565b6002606554141561226e5760405162461bcd60e51b8152600401610b6a90614b37565b600260655560a05433600090815260a3602052604090205463ffffffff9182169161229b91439161368516565b10156122b95760405162461bcd60e51b8152600401610b6a90614690565b600082815260a1602052604090819020600201549051636eb1769f60e11b815282916001600160a01b03169063dd62ed3e906122fb903390309060040161432d565b60206040518083038186803b15801561231357600080fd5b505afa158015612327573d6000803e3d6000fd5b505050506040513d601f19601f8201168201806040525081019061234b919061416b565b10156123695760405162461bcd60e51b8152600401610b6a906148f4565b600082815260a16020526040902060020154612390906001600160a01b0316333084613514565b612399826135f8565b50600082815260a260205260408120600201546123c590670de0b6b3a764000090610aa79085906133a4565b600084815260a26020526040812060040154919250906123f09060129062010000900460ff16613685565b9050600061240283600a84900a6133e5565b9050600061240f86611a2f565b90508082111561241d578091505b600086815260a260205260408120600401546124469061271090610aa790869061ffff166133a4565b600088815260a1602052604090205490915061246c906001600160a01b0316823361375f565b60006124788483613685565b600089815260a160205260409020546098549192506124a5916001600160a01b039182169184911661375f565b600088815260a1602052604090819020600201549051630852cd8d60e31b81526001600160a01b03909116906342966c68906124e5908a906004016144ea565b600060405180830381600087803b1580156124ff57600080fd5b505af1158015612513573d6000803e3d6000fd5b505033600081815260a3602052604090819020439055517f34d60a41478d47b695f40c0225fdee00c6c598107d7ab9475382a02520cc5649935061256092508b91908b9087908790614bf7565b60405180910390a150506001606555505050505050565b6033546001600160a01b031690565b609c546001600160a01b031681565b60a260205260009081526040902080546001820154600283015460038401546004909401549293919290919061ffff81169062010000900460ff1686565b609a546060906001600160a01b03166125fe5760405162461bcd60e51b8152600401610b6a9061459e565b6000612608612a4d565b9050806001600160a01b031663b316ff896040518163ffffffff1660e01b815260040160006040518083038186803b15801561264357600080fd5b505afa158015612657573d6000803e3d6000fd5b505050506040513d6000823e601f3d908101601f1916820160405261267f919081019061401a565b91505090565b609f5481565b6098546001600160a01b031681565b6097546001600160a01b031681565b6000806126b5836127cc565b905060006126c284611a2f565b9050808211156126df576126d68282613685565b92505050610ac4565b600092505050610ac4565b60a5546001600160a01b031681565b609754604051630935e01b60e21b81526001600160a01b03909116906324d7806c90612729903390600401614319565b60206040518083038186803b15801561274157600080fd5b505afa158015612755573d6000803e3d6000fd5b505050506040513d601f19601f820116820180604052508101906127799190614137565b6127955760405162461bcd60e51b8152600401610b6a906145e6565b609c80546001600160a01b0319166001600160a01b0392909216919091179055565b600090815260a2602052604090206003015490565b600081815260a1602052604081206001015461136f906001600160a01b03166112f0565b609754604051630935e01b60e21b81526001600160a01b03909116906324d7806c90612820903390600401614319565b60206040518083038186803b15801561283857600080fd5b505afa15801561284c573d6000803e3d6000fd5b505050506040513d601f19601f820116820180604052508101906128709190614137565b61288c5760405162461bcd60e51b8152600401610b6a906145e6565b600082815260a2602052604090208190556128a6826135f8565b600092835260a260205260409092206002019190915550565b609b546001600160a01b031681565b609754604051630935e01b60e21b81526001600160a01b03909116906324d7806c906128fe903390600401614319565b60206040518083038186803b15801561291657600080fd5b505afa15801561292a573d6000803e3d6000fd5b505050506040513d601f19601f8201168201806040525081019061294e9190614137565b61296a5760405162461bcd60e51b8152600401610b6a906145e6565b609b80546001600160a01b0319166001600160a01b0392909216919091179055565b609754604051630935e01b60e21b81526001600160a01b03909116906324d7806c906129bc903390600401614319565b60206040518083038186803b1580156129d457600080fd5b505afa1580156129e8573d6000803e3d6000fd5b505050506040513d601f19601f82011682018060405250810190612a0c9190614137565b612a285760405162461bcd60e51b8152600401610b6a906145e6565b60008111612a485760405162461bcd60e51b8152600401610b6a906149cb565b609f55565b609a546000906001600160a01b0316612a785760405162461bcd60e51b8152600401610b6a9061459e565b609a546040516321f8a72160e01b81526001600160a01b03909116906321f8a72190612aac90600160f81b906004016144ea565b60206040518083038186803b158015610a3557600080fd5b60026065541415612ae75760405162461bcd60e51b8152600401610b6a90614b37565b600260655560a05433600090815260a3602052604090205463ffffffff91821691612b1491439161368516565b1015612b325760405162461bcd60e51b8152600401610b6a90614550565b600082815260a1602052604090819020600301549051636eb1769f60e11b815282916001600160a01b03169063dd62ed3e90612b74903390309060040161432d565b60206040518083038186803b158015612b8c57600080fd5b505afa158015612ba0573d6000803e3d6000fd5b505050506040513d601f19601f82011682018060405250810190612bc4919061416b565b1015612be25760405162461bcd60e51b8152600401610b6a9061493f565b600082815260a16020526040902060030154612c09906001600160a01b0316333084613514565b612c12826135f8565b506000612c36670de0b6b3a7640000610aa7612c2f8660006120b2565b85906133a4565b600084815260a2602052604081206004015491925090612c619060129062010000900460ff16613685565b90506000612c7383600a84900a6133e5565b90506000612c80866126a9565b905080821115612c8e578091505b600086815260a26020526040812060040154612cb79061271090610aa790869061ffff166133a4565b600088815260a16020526040902054909150612cdd906001600160a01b0316823361375f565b6000612ce98483613685565b600089815260a16020526040902054609854919250612d16916001600160a01b039182169184911661375f565b600088815260a1602052604090819020600301549051630852cd8d60e31b81526001600160a01b03909116906342966c6890612d56908a906004016144ea565b600060405180830381600087803b158015612d7057600080fd5b505af1158015612d84573d6000803e3d6000fd5b505033600081815260a3602052604090819020439055517f9c8ce079d38dc08e2831c9fa769dff19e30a8b2d69c4924a73129038eee8fcab935061256092508b91908b9087908790614bf7565b60a36020526000908152604090205481565b612deb6134ba565b6001600160a01b0316612dfc612577565b6001600160a01b031614612e225760405162461bcd60e51b8152600401610b6a90614a02565b6001600160a01b038116612e485760405162461bcd60e51b8152600401610b6a9061464a565b6033546040516001600160a01b038084169216907f8be0079c531659141344cd1fd0a4f28419497f9722a3daafe3b4186f6b6457e090600090a3603380546001600160a01b0319166001600160a01b0392909216919091179055565b609a546060906001600160a01b0316612ecf5760405162461bcd60e51b8152600401610b6a9061459e565b6000612ed9612a4d565b9050806001600160a01b031663f561ae416040518163ffffffff1660e01b815260040160006040518083038186803b15801561264357600080fd5b6099546001600160a01b031681565b609754604051630935e01b60e21b81526001600160a01b03909116906324d7806c90612f53903390600401614319565b60206040518083038186803b158015612f6b57600080fd5b505afa158015612f7f573d6000803e3d6000fd5b505050506040513d601f19601f82011682018060405250810190612fa39190614137565b612fbf5760405162461bcd60e51b8152600401610b6a906145e6565b60026065541415612fe25760405162461bcd60e51b8152600401610b6a90614b37565b60026065556099546001600160a01b031661300f5760405162461bcd60e51b8152600401610b6a90614a37565b609a546001600160a01b03166130375760405162461bcd60e51b8152600401610b6a9061459e565b609e8054600090815260a1602052604080822080546001600160a01b03808e166001600160a01b031992831617909255935483529181902060010180548b841694169390931790925560995460a554925163434761ed60e01b81529082169263434761ed926130b1928b928b923392911690600401614506565b602060405180830381600087803b1580156130cb57600080fd5b505af11580156130df573d6000803e3d6000fd5b505050506040513d601f19601f820116820180604052508101906131039190613ddf565b609e54600090815260a160205260409081902060020180546001600160a01b0319166001600160a01b0393841617905560995460a554915163877a5ebb60e01b81529083169263877a5ebb9261316492899289923392911690600401614506565b602060405180830381600087803b15801561317e57600080fd5b505af1158015613192573d6000803e3d6000fd5b505050506040513d601f19601f820116820180604052508101906131b69190613ddf565b609e8054600090815260a16020908152604080832060030180546001600160a01b0319166001600160a01b0396909616959095179094558254825260a290528281206004908101805462ff000019166201000060ff8816021790558254825283822086905582548252838220436001919091015582548252838220670de0b6b3a76400006002909101558254825292902090910180546126de61ffff199091161790555461326390610a72565b50609e54600081815260a1602052604090819020600281015460039091015491517f90c97ca7d521ad09559475598e9202d092b7388790513e364cdac53a45d8ce4a936132c09390926001600160a01b0390811692911690614c23565b60405180910390a1609e546132d690600161373a565b609e5550506001606555505050505050565b609754604051630935e01b60e21b81526001600160a01b03909116906324d7806c90613318903390600401614319565b60206040518083038186803b15801561333057600080fd5b505afa158015613344573d6000803e3d6000fd5b505050506040513d601f19601f820116820180604052508101906133689190614137565b6133845760405162461bcd60e51b8152600401610b6a906145e6565b600091825260a46020526040909120805460ff1916911515919091179055565b6000826133b35750600061136f565b828202828482816133c057fe5b04146133de5760405162461bcd60e51b8152600401610b6a9061498a565b9392505050565b60008082116134065760405162461bcd60e51b8152600401610b6a906147c0565b81838161340f57fe5b049392505050565b600061342230613a44565b15905090565b600054610100900460ff16806134415750613441613417565b8061344f575060005460ff16155b61346b5760405162461bcd60e51b8152600401610b6a906148a6565b600054610100900460ff16158015613496576000805460ff1961ff0019909116610100171660011790555b61349e613a4a565b6134a6613acb565b8015611a2c576000805461ff001916905550565b3390565b6111768363a9059cbb60e01b84846040516024016134dd929190614347565b60408051601f198184030181529190526020810180516001600160e01b03166001600160e01b031990931692909217909152613ba5565b611174846323b872dd60e01b8585856040516024016134dd9392919061438b565b8015806135bd5750604051636eb1769f60e11b81526001600160a01b0384169063dd62ed3e9061356b903090869060040161432d565b60206040518083038186803b15801561358357600080fd5b505afa158015613597573d6000803e3d6000fd5b505050506040513d601f19601f820116820180604052508101906135bb919061416b565b155b6135d95760405162461bcd60e51b8152600401610b6a90614b6e565b6111768363095ea7b360e01b84846040516024016134dd929190614347565b600061360382610a72565b50600082815260a26020526040812060010154613621904390613685565b600084815260a260205260408120600301549192509061364190836133a4565b600085815260a26020526040902060020154909150613660908261373a565b600085815260a260205260409020600281018290554360019091015592505050919050565b6000828211156136a75760405162461bcd60e51b8152600401610b6a90614759565b50900390565b604080516000808252602082019092526001600160a01b0384169083906040516136d791906142fd565b60006040518083038185875af1925050503d8060008114613714576040519150601f19603f3d011682016040523d82523d6000602084013e613719565b606091505b50509050806111765760405162461bcd60e51b8152600401610b6a90614790565b6000828201838110156133de5760405162461bcd60e51b8152600401610b6a906146de565b609a5460408051630261bf8b60e01b815290516000926001600160a01b031691630261bf8b916004808301926020929190829003018186803b1580156137a457600080fd5b505afa1580156137b8573d6000803e3d6000fd5b505050506040513d601f19601f820116820180604052508101906137dc9190613ddf565b90506137e784613c34565b609d5490945060009081906001600160a01b03808816911614156139b85761380d611b15565b604051631a4ca37b60e21b81529092506001600160a01b038416906369328dec90613840908990899030906004016143af565b602060405180830381600087803b15801561385a57600080fd5b505af115801561386e573d6000803e3d6000fd5b505050506040513d601f19601f82011682018060405250810190613892919061416b565b50609d546040516370a0823160e01b81526000916001600160a01b0316906370a08231906138c4903090600401614319565b60206040518083038186803b1580156138dc57600080fd5b505afa1580156138f0573d6000803e3d6000fd5b505050506040513d601f19601f82011682018060405250810190613914919061416b565b609d54609b54919250613934916001600160a01b039182169116836134be565b609b546040516378a1085360e11b81526001600160a01b039091169063f14210a6906139649084906004016144ea565b600060405180830381600087803b15801561397e57600080fd5b505af1158015613992573d6000803e3d6000fd5b5050505061399e611b15565b9150828211156139b2576139b285876136ad565b50613a3c565b604051631a4ca37b60e21b81526001600160a01b038416906369328dec906139e8908990899089906004016143af565b602060405180830381600087803b158015613a0257600080fd5b505af1158015613a16573d6000803e3d6000fd5b505050506040513d601f19601f82011682018060405250810190613a3a919061416b565b505b505050505050565b3b151590565b600054610100900460ff1680613a635750613a63613417565b80613a71575060005460ff16155b613a8d5760405162461bcd60e51b8152600401610b6a906148a6565b600054610100900460ff161580156134a6576000805460ff1961ff0019909116610100171660011790558015611a2c576000805461ff001916905550565b600054610100900460ff1680613ae45750613ae4613417565b80613af2575060005460ff16155b613b0e5760405162461bcd60e51b8152600401610b6a906148a6565b600054610100900460ff16158015613b39576000805460ff1961ff0019909116610100171660011790555b6000613b436134ba565b603380546001600160a01b0319166001600160a01b038316908117909155604051919250906000907f8be0079c531659141344cd1fd0a4f28419497f9722a3daafe3b4186f6b6457e0908290a3508015611a2c576000805461ff001916905550565b6060613bfa826040518060400160405280602081526020017f5361666545524332303a206c6f772d6c6576656c2063616c6c206661696c6564815250856001600160a01b0316613c719092919063ffffffff16565b8051909150156111765780806020019051810190613c189190614137565b6111765760405162461bcd60e51b8152600401610b6a90614aa5565b60006001600160a01b03821673eeeeeeeeeeeeeeeeeeeeeeeeeeeeeeeeeeeeeeee1415613c6d5750609d546001600160a01b0316610ac4565b5090565b6060611b0d848460008585613c8585613a44565b613ca15760405162461bcd60e51b8152600401610b6a90614a6e565b60006060866001600160a01b03168587604051613cbe91906142fd565b60006040518083038185875af1925050503d8060008114613cfb576040519150601f19603f3d011682016040523d82523d6000602084013e613d00565b606091505b5091509150613d10828286613d1b565b979650505050505050565b60608315613d2a5750816133de565b825115613d3a5782518084602001fd5b8160405162461bcd60e51b8152600401610b6a91906144f3565b803561136f81614d45565b600082601f830112613d6f578081fd5b8135613d82613d7d82614cf5565b614cce565b9150808252836020828501011115613d9957600080fd5b8060208401602084013760009082016020015292915050565b803560ff8116811461136f57600080fd5b600060208284031215613dd4578081fd5b81356133de81614d45565b600060208284031215613df0578081fd5b81516133de81614d45565b60008060008060008060c08789031215613e13578182fd5b8635613e1e81614d45565b95506020870135613e2e81614d45565b94506040870135613e3e81614d45565b93506060870135613e4e81614d45565b92506080870135613e5e81614d45565b915060a0870135613e6e81614d45565b809150509295509295509295565b600080600080600080600060e0888a031215613e96578081fd5b8735613ea181614d45565b96506020880135613eb181614d45565b95506040880135613ec181614d45565b94506060880135613ed181614d45565b93506080880135613ee181614d45565b925060a0880135613ef181614d45565b8092505060c0880135905092959891949750929550565b600080600080600080600080610100898b031215613f24578081fd5b613f2e8a8a613d54565b9750613f3d8a60208b01613d54565b9650604089013567ffffffffffffffff80821115613f59578283fd5b613f658c838d01613d5f565b975060608b0135915080821115613f7a578283fd5b613f868c838d01613d5f565b965060808b0135915080821115613f9b578283fd5b613fa78c838d01613d5f565b955060a08b0135915080821115613fbc578283fd5b50613fc98b828c01613d5f565b93505060c08901359150613fe08a60e08b01613db2565b90509295985092959890939650565b60008060408385031215614001578182fd5b823561400c81614d45565b946020939093013593505050565b6000602080838503121561402c578182fd5b825167ffffffffffffffff80821115614043578384fd5b818501915085601f830112614056578384fd5b815181811115614064578485fd5b6140718485830201614cce565b81815284810190848601875b8481101561412857815187016040818d03601f1901121561409c57898afd5b6140a66040614cce565b89820151888111156140b6578b8cfd5b8201603f81018e136140c6578b8cfd5b8a8101516140d6613d7d82614cf5565b8181528f60408385010111156140ea578d8efd5b6140fa828e830160408601614d19565b83525050604091909101519061410f82614d45565b808a01919091528452928701929087019060010161407d565b50909998505050505050505050565b600060208284031215614148578081fd5b81516133de81614d5a565b600060208284031215614164578081fd5b5035919050565b60006020828403121561417c578081fd5b5051919050565b60008060408385031215614195578182fd5b8235915060208301356141a781614d5a565b809150509250929050565b600080604083850312156141c4578182fd5b82359150602083013561ffff811681146141a7578182fd5b600080604083850312156141ee578182fd5b50508035926020909101359150565b6000806000806000806000806000806101408b8d03121561421c578384fd5b8a51995060208b0151985060408b0151975060608b0151965060808b0151955060a08b0151945060c08b0151935060e08b015192506101008b015191506101208b015164ffffffffff81168114614271578182fd5b809150509295989b9194979a5092959850565b60008060408385031215614296578182fd5b82359150602083013560ff811681146141a7578182fd5b6000602082840312156142be578081fd5b813563ffffffff811681146133de578182fd5b600081518084526142e9816020860160208601614d19565b601f01601f19169290920160200192915050565b6000825161430f818460208701614d19565b9190910192915050565b6001600160a01b0391909116815260200190565b6001600160a01b0392831681529116602082015260400190565b6001600160a01b03929092168252602082015260400190565b6001600160a01b03948516815292841660208401529083166040830152909116606082015260800190565b6001600160a01b039384168152919092166020820152604081019190915260600190565b6001600160a01b0393841681526020810192909252909116604082015260600190565b6001600160a01b03948516815260208101939093529216604082015261ffff909116606082015260800190565b606080825284519082018190526000906020906080840190828801845b828110156144415781516001600160a01b03168452928401929084019060010161441c565b50505090830194909452506001600160a01b0391909116604090910152919050565b60208082528251828201819052600091906040908185019080840286018301878501865b838110156144d157888303603f19018552815180518785526144ab888601826142d1565b918901516001600160a01b03169489019490945294870194925090860190600101614487565b509098975050505050505050565b901515815260200190565b90815260200190565b6000602082526133de60208301846142d1565b60006080825261451960808301876142d1565b828103602084015261452b81876142d1565b6001600160a01b03958616604085015293909416606090920191909152509392505050565b6020808252602e908201527f4a416176653a2072656465656d2074696d656f7574206e6f742065787069726560408201526d321037b7103a3930b731b432902160911b606082015260800190565b60208082526028908201527f4a416176653a20736574206c656e64696e6720706f6f6c206164647265737320604082015267383937bb34b232b960c11b606082015260800190565b6020808252601390820152722520b0bb329d103737ba1030b71020b236b4b760691b604082015260600190565b6020808252601f908201527f4a416176653a207472616e636865206465706f7369742064697361626c656400604082015260600190565b60208082526026908201527f4f776e61626c653a206e6577206f776e657220697320746865207a65726f206160408201526564647265737360d01b606082015260800190565b6020808252602e908201527f4a416176653a2072656465656d2074696d656f7574206e6f742065787069726560408201526d64206f6e207472616e636865204160901b606082015260800190565b6020808252601b908201527f536166654d6174683a206164646974696f6e206f766572666c6f770000000000604082015260600190565b60208082526024908201527f4a416176653a206d73672e76616c7565206e6f7420657175616c20746f20616d6040820152631bdd5b9d60e21b606082015260800190565b6020808252601e908201527f536166654d6174683a207375627472616374696f6e206f766572666c6f770000604082015260600190565b60208082526016908201527515120811551217d514905394d1915497d1905253115160521b604082015260600190565b6020808252601a908201527f536166654d6174683a206469766973696f6e206279207a65726f000000000000604082015260600190565b6020808252601690820152754a416176653a20636865636b2061646472657373657360501b604082015260600190565b60208082526018908201527f4a416176653a20746f6f206d616e7920646563696d616c730000000000000000604082015260600190565b60208082526028908201527f4a416176653a20616c6c6f77616e6365206661696c656420627579696e6720746040820152673930b731b432902160c11b606082015260800190565b6020808252602e908201527f496e697469616c697a61626c653a20636f6e747261637420697320616c72656160408201526d191e481a5b9a5d1a585b1a5e995960921b606082015260800190565b6020808252602b908201527f4a416176653a20616c6c6f77616e6365206661696c65642072656465656d696e60408201526a67207472616e636865204160a81b606082015260800190565b6020808252602b908201527f4a416176653a20616c6c6f77616e6365206661696c65642072656465656d696e60408201526a33903a3930b731b432902160a91b606082015260800190565b60208082526021908201527f536166654d6174683a206d756c7469706c69636174696f6e206f766572666c6f6040820152607760f81b606082015260800190565b6020808252601c908201527f4a416176653a206e65772076616c7565206e6f7420616c6c6f77656400000000604082015260600190565b6020808252818101527f4f776e61626c653a2063616c6c6572206973206e6f7420746865206f776e6572604082015260600190565b6020808252601f908201527f4a416176653a20736574207472616e63686520657468206465706c6f79657200604082015260600190565b6020808252601d908201527f416464726573733a2063616c6c20746f206e6f6e2d636f6e7472616374000000604082015260600190565b6020808252602a908201527f5361666545524332303a204552433230206f7065726174696f6e20646964206e6040820152691bdd081cdd58d8d9595960b21b606082015260800190565b60208082526028908201527f4a416176653a20616c6c6f77616e6365206661696c656420627579696e67207460408201526772616e636865204160c01b606082015260800190565b6020808252601f908201527f5265656e7472616e637947756172643a207265656e7472616e742063616c6c00604082015260600190565b60208082526036908201527f5361666545524332303a20617070726f76652066726f6d206e6f6e2d7a65726f60408201527520746f206e6f6e2d7a65726f20616c6c6f77616e636560501b606082015260800190565b61ffff91909116815260200190565b9384526001600160a01b039290921660208401526040830152606082015260800190565b9485526001600160a01b0393909316602085015260408401919091526060830152608082015260a00190565b9283526001600160a01b03918216602084015216604082015260600190565b95865260208601949094526040850192909252606084015261ffff16608083015260ff1660a082015260c00190565b998a5260208a019890985260408901969096526060880194909452608087019290925260a086015260c085015260e084015261010083015264ffffffffff166101208201526101400190565b63ffffffff91909116815260200190565b60405181810167ffffffffffffffff81118282101715614ced57600080fd5b604052919050565b600067ffffffffffffffff821115614d0b578081fd5b50601f01601f191660200190565b60005b83811015614d34578181015183820152602001614d1c565b838111156111745750506000910152565b6001600160a01b0381168114611a2c57600080fd5b8015158114611a2c57600080fdfea2646970667358221220c0b1bd2f27f2db97aa9830ce204a5bf353808e6a4408e1d8233ee55b4be0a82964736f6c634300060c0033",
  "immutableReferences": {},
  "source": "// SPDX-License-Identifier: MIT\n/**\n * Created on 2021-02-11\n * @summary: Jibrel Aave Tranche Protocol\n * @author: Jibrel Team\n */\npragma solidity 0.6.12;\npragma experimental ABIEncoderV2; // needed for getAllAtokens and getAllReservesTokens\n\nimport \"@openzeppelin/contracts-upgradeable/token/ERC20/SafeERC20Upgradeable.sol\";\nimport \"@openzeppelin/contracts-upgradeable/utils/ReentrancyGuardUpgradeable.sol\";\nimport \"./interfaces/IAaveProtocolDataProvider.sol\";\nimport \"./interfaces/ILendingPool.sol\";\nimport \"./interfaces/ILendingPoolAddressesProvider.sol\";\nimport \"./TransferETHHelper.sol\";\nimport \"./interfaces/IJAdminTools.sol\";\nimport \"./interfaces/IJTrancheTokens.sol\";\nimport \"./interfaces/IJTranchesDeployer.sol\";\nimport \"./JAaveStorage.sol\";\nimport \"./interfaces/IJAave.sol\";\nimport \"./TokenInterface.sol\";\nimport \"./interfaces/IWETHGateway.sol\";\nimport \"./interfaces/IAaveIncentivesController.sol\";\n\n\ncontract JAave is OwnableUpgradeable, ReentrancyGuardUpgradeable, JAaveStorage, IJAave {\n    using SafeMathUpgradeable for uint256;\n\n    /**\n     * @dev contract initializer\n     * @param _adminTools price oracle address\n     * @param _feesCollector fees collector contract address\n     * @param _tranchesDepl tranches deployer contract address\n     * @param _aaveIncentiveController Aave incentive controller address (mainnet: 0xd784927Ff2f95ba542BfC824c8a8a98F3495f6b5)\n     * @param _wethAddress weth / wmatic contract address\n     * @param _rewardsToken rewards token address (slice token address)\n     * @param _blocksPerYear blocks / year\n     */\n    function initialize(address _adminTools, \n            address _feesCollector, \n            address _tranchesDepl,\n            address _aaveIncentiveController,\n            address _wethAddress,\n            address _rewardsToken,\n            uint256 _blocksPerYear) external initializer() {\n        OwnableUpgradeable.__Ownable_init();\n        adminToolsAddress = _adminTools;\n        feesCollectorAddress = _feesCollector;\n        tranchesDeployerAddress = _tranchesDepl;\n        aaveIncentiveControllerAddress = _aaveIncentiveController;\n        redeemTimeout = 3; //default\n        wrappedEthAddress = _wethAddress;\n        totalBlocksPerYear = _blocksPerYear;\n        rewardsToken = _rewardsToken;\n    }\n\n    /**\n     * @dev admins modifiers\n     */\n    modifier onlyAdmins() {\n        require(IJAdminTools(adminToolsAddress).isAdmin(msg.sender), \"JAave: not an Admin\");\n        _;\n    }\n\n    fallback() external payable {}\n    receive() external payable {}\n\n    /**\n     * @dev set new addresses for price oracle, fees collector and tranche deployer \n     * @param _adminTools price oracle address\n     * @param _feesCollector fees collector contract address\n     * @param _tranchesDepl tranches deployer contract address\n     */\n    function setNewEnvironment(address _adminTools, \n            address _feesCollector, \n            address _tranchesDepl,\n            address _aaveIncentiveController,\n            address _wethAddress,\n            address _rewardsToken) external onlyOwner{\n        require((_adminTools != address(0)) && (_feesCollector != address(0)) && (_tranchesDepl != address(0)), \"JAave: check addresses\");\n        adminToolsAddress = _adminTools;\n        feesCollectorAddress = _feesCollector;\n        tranchesDeployerAddress = _tranchesDepl;\n        aaveIncentiveControllerAddress = _aaveIncentiveController;\n        wrappedEthAddress = _wethAddress;\n        rewardsToken = _rewardsToken;\n    }\n\n    /**\n     * @dev set how many blocks will be produced per year on the blockchain \n     * @param _newValue new value\n     */\n    function setBlocksPerYear(uint256 _newValue) external onlyAdmins {\n        require(_newValue > 0, \"JAave: new value not allowed\");\n        totalBlocksPerYear = _newValue;\n    }\n\n    /**\n     * @dev set Aave Pool Address Provider\n     * @param _addressProviderContract aave lending pool address provider contract address\n     */\n    function setAavePoolAddressProvider(address _addressProviderContract) external onlyAdmins {\n        lendingPoolAddressProvider = _addressProviderContract;\n    }\n\n    /**\n     * @dev set Aave Pool Address Provider\n     * @param _aaveIncentiveController aave incentive controller address\n     */\n    function setAaveIncentiveControllerAddress(address _aaveIncentiveController) external onlyAdmins {\n        aaveIncentiveControllerAddress = _aaveIncentiveController;\n    }\n\n    /**\n     * @dev get Aave Pool Address Provider starting from lending pool address provider\n     */\n    function getDataProvider() public view returns(IAaveProtocolDataProvider) {\n        require(lendingPoolAddressProvider != address(0), \"JAave: set lending pool address provider\");\n        return IAaveProtocolDataProvider(ILendingPoolAddressesProvider(lendingPoolAddressProvider)\n                    .getAddress(0x0100000000000000000000000000000000000000000000000000000000000000));\n    }\n\n    /**\n     * @dev get Aave all tokens\n     */\n    function getAllATokens() external view returns(IAaveProtocolDataProvider.TokenData[] memory) {\n        require(lendingPoolAddressProvider != address(0), \"JAave: set lending pool address provider\");\n        IAaveProtocolDataProvider aaveProtocolDataProvider = getDataProvider();\n        return aaveProtocolDataProvider.getAllATokens();\n    }\n\n    /**\n     * @dev get Aave all reserved tokens\n     */\n    function getAllReservesTokens() external view returns(IAaveProtocolDataProvider.TokenData[] memory) {\n        require(lendingPoolAddressProvider != address(0), \"JAave: set lending pool address provider\");\n        IAaveProtocolDataProvider aaveProtocolDataProvider = getDataProvider();\n        return aaveProtocolDataProvider.getAllReservesTokens();\n    }\n\n    /**\n     * @dev get Aave reserve Data for an asset\n     * liquidityRate is the return percentage for that asset (multiply by 10^27)\n     */\n    function getAaveReserveData(uint256 _trancheNum) external view returns(uint256 availableLiquidity, uint256 totalStableDebt,\n            uint256 totalVariableDebt, uint256 liquidityRate, uint256 variableBorrowRate, uint256 stableBorrowRate,\n            uint256 averageStableBorrowRate, uint256 liquidityIndex, uint256 variableBorrowIndex,\n            uint40 lastUpdateTimestamp) {\n        require(lendingPoolAddressProvider != address(0), \"JAave: set lending pool address provider\");\n        IAaveProtocolDataProvider aaveProtocolDataProvider = getDataProvider();\n        address asset = trancheAddresses[_trancheNum].buyerCoinAddress;\n        if (asset == ETH_ADDR)\n            asset = wrappedEthAddress;\n        return aaveProtocolDataProvider.getReserveData(asset);\n    }\n\n    function getLendingPool() external view returns (address) {\n        return ILendingPoolAddressesProvider(lendingPoolAddressProvider).getLendingPool();\n    }\n\n    function changeToWeth(address _token) private view returns(address) {\n        if (_token == ETH_ADDR) {\n            return wrappedEthAddress;\n        }\n        return _token;\n    }\n\n    /**\n     * @dev set Weth Gateway contract address\n     * @param _wethGatewayAddress weth gateway contract address\n     */\n    function setWETHGatewayAddress(address _wethGatewayAddress) external onlyAdmins {\n        wethGatewayAddress = _wethGatewayAddress;\n    }\n\n    /** \n     * @dev User withdraws tokens from the Aave protocol\n     * @param _tokenAddr The address of the token to be withdrawn\n     * @param _amount Amount of tokens to be withdrawn\n     * @param _to receiver address\n     */ \n    function aaveWithdraw(address _tokenAddr, uint256 _amount, address _to) internal {\n        address lendingPool = ILendingPoolAddressesProvider(lendingPoolAddressProvider).getLendingPool();\n        _tokenAddr = changeToWeth(_tokenAddr);\n\n        uint256 oldBalance;\n        uint256 newBalance;\n        if (_tokenAddr == wrappedEthAddress) {\n            // get eth balance\n            oldBalance = getEthBalance();\n            // if weth, pull to proxy and return ETH to user\n            ILendingPool(lendingPool).withdraw(_tokenAddr, _amount, address(this));\n            // from Weth to Eth, all the Weth balance --> no Weth in contract\n            uint256 wethBal = IERC20Upgradeable(wrappedEthAddress).balanceOf(address(this));\n            SafeERC20Upgradeable.safeTransfer(IERC20Upgradeable(wrappedEthAddress), wethGatewayAddress, wethBal);\n            IWETHGateway(wethGatewayAddress).withdrawETH(wethBal);\n            // get new eth balance\n            newBalance = getEthBalance();\n            if (newBalance > oldBalance)\n                TransferETHHelper.safeTransferETH(_to, _amount);\n        } else {\n            // if not eth send directly to user\n            ILendingPool(lendingPool).withdraw(_tokenAddr, _amount, _to);\n        }\n    }\n\n    /**\n     * @dev set decimals on the underlying token of a tranche\n     * @param _trancheNum tranche number\n     * @param _underlyingDec underlying token decimals\n     */\n    function setDecimals(uint256 _trancheNum, uint8 _underlyingDec) external onlyAdmins {\n        require(_underlyingDec <= 18, \"JAave: too many decimals\");\n        trancheParameters[_trancheNum].underlyingDecimals = _underlyingDec;\n    }\n\n    /**\n     * @dev set tranche redemption percentage\n     * @param _trancheNum tranche number\n     * @param _redeemPercent user redemption percent\n     */\n    function setTrancheRedemptionPercentage(uint256 _trancheNum, uint16 _redeemPercent) external onlyAdmins {\n        trancheParameters[_trancheNum].redemptionPercentage = _redeemPercent;\n    }\n\n    /**\n     * @dev set redemption timeout\n     * @param _blockNum timeout (in block numbers)\n     */\n    function setRedemptionTimeout(uint32 _blockNum) external onlyAdmins {\n        redeemTimeout = _blockNum;\n    }\n\n    /**\n     * @dev set tranche redemption percentage scaled by 1e18\n     * @param _trancheNum tranche number\n     * @param _newTrAPercentage new tranche A RPB\n     */\n    function setTrancheAFixedPercentage(uint256 _trancheNum, uint256 _newTrAPercentage) external onlyAdmins {\n        trancheParameters[_trancheNum].trancheAFixedPercentage = _newTrAPercentage;\n        trancheParameters[_trancheNum].storedTrancheAPrice = setTrancheAExchangeRate(_trancheNum);\n    }\n\n    function addTrancheToProtocol(address _buyerCoinAddress, \n            address _aTokenAddress, \n            string memory _nameA, \n            string memory _symbolA, \n            string memory _nameB, \n            string memory _symbolB, \n            uint256 _fixedRpb, \n            uint8 _underlyingDec) external onlyAdmins nonReentrant {\n        require(tranchesDeployerAddress != address(0), \"JAave: set tranche eth deployer\");\n        require(lendingPoolAddressProvider != address(0), \"JAave: set lending pool address provider\");\n\n        trancheAddresses[tranchePairsCounter].buyerCoinAddress = _buyerCoinAddress;\n        trancheAddresses[tranchePairsCounter].aTokenAddress = _aTokenAddress;\n        trancheAddresses[tranchePairsCounter].ATrancheAddress = \n                IJTranchesDeployer(tranchesDeployerAddress).deployNewTrancheATokens(_nameA, _symbolA, msg.sender, rewardsToken);\n        trancheAddresses[tranchePairsCounter].BTrancheAddress = \n                IJTranchesDeployer(tranchesDeployerAddress).deployNewTrancheBTokens(_nameB, _symbolB, msg.sender, rewardsToken); \n        \n        trancheParameters[tranchePairsCounter].underlyingDecimals = _underlyingDec;\n        trancheParameters[tranchePairsCounter].trancheAFixedPercentage = _fixedRpb;\n        trancheParameters[tranchePairsCounter].trancheALastActionBlock = block.number;\n        // if we would like to have always 18 decimals\n        trancheParameters[tranchePairsCounter].storedTrancheAPrice = uint256(1e18);\n\n        trancheParameters[tranchePairsCounter].redemptionPercentage = 9950;  //default value 99.5%\n\n        calcRPBFromPercentage(tranchePairsCounter); // initialize tranche A RPB\n\n        emit TrancheAddedToProtocol(tranchePairsCounter, trancheAddresses[tranchePairsCounter].ATrancheAddress, trancheAddresses[tranchePairsCounter].BTrancheAddress);\n\n        tranchePairsCounter = tranchePairsCounter.add(1);\n    } \n\n    /**\n     * @dev enables or disables tranche deposit (default: disabled)\n     * @param _trancheNum tranche number\n     * @param _enable true or false\n     */\n    function setTrancheDeposit(uint256 _trancheNum, bool _enable) external onlyAdmins {\n        trancheDepositEnabled[_trancheNum] = _enable;\n    }\n    \n    /**\n     * @dev set Tranche A exchange rate\n     * @param _trancheNum tranche number\n     * @return tranche A token current price\n     */\n    function setTrancheAExchangeRate(uint256 _trancheNum) internal returns (uint256) {\n        calcRPBFromPercentage(_trancheNum);\n        uint256 deltaBlocks = (block.number).sub(trancheParameters[_trancheNum].trancheALastActionBlock);\n        uint256 deltaPrice = (trancheParameters[_trancheNum].trancheACurrentRPB).mul(deltaBlocks);\n        trancheParameters[_trancheNum].storedTrancheAPrice = (trancheParameters[_trancheNum].storedTrancheAPrice).add(deltaPrice);\n        trancheParameters[_trancheNum].trancheALastActionBlock = block.number;\n        return trancheParameters[_trancheNum].storedTrancheAPrice;\n    }\n\n    /**\n     * @dev get Tranche A exchange rate\n     * @param _trancheNum tranche number\n     * @return tranche A token current price\n     */\n    function getTrancheAExchangeRate(uint256 _trancheNum) public view returns (uint256) {\n        return trancheParameters[_trancheNum].storedTrancheAPrice;\n    }\n\n    /**\n     * @dev get RPB for a given percentage (expressed in 1e18)\n     * @param _trancheNum tranche number\n     * @return RPB for a fixed percentage\n     */\n    function getTrancheACurrentRPB(uint256 _trancheNum) external view returns (uint256) {\n        return trancheParameters[_trancheNum].trancheACurrentRPB;\n    }\n\n    /**\n     * @dev get Tranche A exchange rate (tokens with 18 decimals)\n     * @param _trancheNum tranche number\n     * @return tranche A token current price\n     */\n    function calcRPBFromPercentage(uint256 _trancheNum) public returns (uint256) {\n        // if normalized price in tranche A price, everything should be scaled to 1e18 \n        trancheParameters[_trancheNum].trancheACurrentRPB = trancheParameters[_trancheNum].storedTrancheAPrice\n                        .mul(trancheParameters[_trancheNum].trancheAFixedPercentage).div(totalBlocksPerYear).div(1e18);\n        return trancheParameters[_trancheNum].trancheACurrentRPB;\n    }\n\n    /**\n     * @dev get Tranche A value in underlying tokens\n     * @param _trancheNum tranche number\n     * @return trANormValue tranche A value in underlying tokens\n     */\n    function getTrAValue(uint256 _trancheNum) public view returns (uint256 trANormValue) {\n        uint256 totASupply = IERC20Upgradeable(trancheAddresses[_trancheNum].ATrancheAddress).totalSupply();\n        uint256 diffDec = uint256(18).sub(uint256(trancheParameters[_trancheNum].underlyingDecimals));\n        // if (diffDec > 0)\n            trANormValue = totASupply.mul(getTrancheAExchangeRate(_trancheNum)).div(1e18).div(10 ** diffDec);\n        // else    \n        //     trANormValue = totASupply.mul(getTrancheAExchangeRate(_trancheNum)).div(1e18);\n        return trANormValue;\n    }\n\n    /**\n     * @dev get Tranche B value in underlying tokens\n     * @param _trancheNum tranche number\n     * @return tranche B value in underlying tokens\n     */\n    function getTrBValue(uint256 _trancheNum) public view returns (uint256) {\n        uint256 totProtValue = getTotalValue(_trancheNum);\n        uint256 totTrAValue = getTrAValue(_trancheNum);\n        if (totProtValue > totTrAValue) {\n            return totProtValue.sub(totTrAValue);\n        } else\n            return 0;\n    }\n\n    /**\n     * @dev get Tranche total value in underlying tokens\n     * @param _trancheNum tranche number\n     * @return tranche total value in underlying tokens\n     */\n    function getTotalValue(uint256 _trancheNum) public view returns (uint256) {\n        return getTokenBalance(trancheAddresses[_trancheNum].aTokenAddress);\n    }\n\n    /**\n     * @dev get Tranche B exchange rate\n     * @param _trancheNum tranche number\n     * @param _newAmount new amount entering tranche B (underlying token decimals)\n     * @return tbPrice tranche B token current price\n     */\n    function getTrancheBExchangeRate(uint256 _trancheNum, uint256 _newAmount) public view returns (uint256 tbPrice) {\n        // set amount of tokens to be minted via taToken price\n        // Current tbDai price = ((aDai-(aSupply X taPrice)) / bSupply)\n        // where: aDai = How much aDai we hold in the protocol\n        // aSupply = Total number of taDai in protocol\n        // taPrice = taDai / Dai price\n        // bSupply = Total number of tbDai in protocol\n        uint256 totTrBValue;\n\n        uint256 totBSupply = IERC20Upgradeable(trancheAddresses[_trancheNum].BTrancheAddress).totalSupply(); // 18 decimals\n        // if normalized price in tranche A price, everything should be scaled to 1e18 \n        uint256 underlyingDec = uint256(trancheParameters[_trancheNum].underlyingDecimals);\n        uint256 normAmount = _newAmount;\n        if (underlyingDec < 18)\n            normAmount = _newAmount.mul(10 ** uint256(18).sub(underlyingDec));\n        uint256 newBSupply = totBSupply.add(normAmount); // 18 decimals\n\n        uint256 totProtValue = getTotalValue(_trancheNum).add(_newAmount); //underlying token decimals\n        uint256 totTrAValue = getTrAValue(_trancheNum); //underlying token decimals\n        if (totProtValue >= totTrAValue)\n            totTrBValue = totProtValue.sub(totTrAValue); //underlying token decimals\n        else\n            totTrBValue = 0;\n        // if normalized price in tranche A price, everything should be scaled to 1e18 \n        if (underlyingDec < 18 && totTrBValue > 0) {\n            totTrBValue = totTrBValue.mul(10 ** (uint256(18).sub(underlyingDec)));\n        }\n\n        if (totTrBValue > 0 && newBSupply > 0) {\n            // if normalized price in tranche A price, everything should be scaled to 1e18 \n            tbPrice = totTrBValue.mul(1e18).div(newBSupply);\n        } else\n            // if normalized price in tranche A price, everything should be scaled to 1e18 \n            tbPrice = uint256(1e18);\n\n        return tbPrice;\n    }\n\n    /**\n     * @dev buy Tranche A Tokens\n     * @param _trancheNum tranche number\n     * @param _amount amount of stable coins sent by buyer\n     */\n    function buyTrancheAToken(uint256 _trancheNum, uint256 _amount) external payable nonReentrant {\n        require(trancheDepositEnabled[_trancheNum], \"JAave: tranche deposit disabled\");\n        uint256 prevAaveTokenBalance = getTokenBalance(trancheAddresses[_trancheNum].aTokenAddress);\n        address lendingPool = ILendingPoolAddressesProvider(lendingPoolAddressProvider).getLendingPool();\n        address _tokenAddr = trancheAddresses[_trancheNum].buyerCoinAddress;\n        if (_tokenAddr == ETH_ADDR) {\n            require(msg.value == _amount, \"JAave: msg.value not equal to amount\");\n            IWETHGateway(wethGatewayAddress).depositETH{value: msg.value}();\n            _tokenAddr = wrappedEthAddress;\n        } else {\n            // check approve\n            require(IERC20Upgradeable(_tokenAddr).allowance(msg.sender, address(this)) >= _amount, \"JAave: allowance failed buying tranche A\");\n            SafeERC20Upgradeable.safeTransferFrom(IERC20Upgradeable(_tokenAddr), msg.sender, address(this), _amount);\n        }\n\n        SafeERC20Upgradeable.safeApprove(IERC20Upgradeable(_tokenAddr), lendingPool, _amount);\n        ILendingPool(lendingPool).deposit(_tokenAddr, _amount, address(this), AAVE_REFERRAL_CODE);\n        \n        uint256 newAaveTokenBalance = getTokenBalance(trancheAddresses[_trancheNum].aTokenAddress);\n        setTrancheAExchangeRate(_trancheNum);\n        uint256 taAmount;\n        if (newAaveTokenBalance > prevAaveTokenBalance) {\n            // set amount of tokens to be minted calculate taToken amount via taToken price\n            // if normalized price in tranche A price, everything should be scaled to 1e18 \n            uint256 diffDec = uint256(18).sub(uint256(trancheParameters[_trancheNum].underlyingDecimals));\n            uint256 normAmount = _amount.mul(10 ** diffDec);\n            taAmount = normAmount.mul(1e18).div(trancheParameters[_trancheNum].storedTrancheAPrice);\n            //Mint trancheA tokens and send them to msg.sender;\n            IJTrancheTokens(trancheAddresses[_trancheNum].ATrancheAddress).mint(msg.sender, taAmount);\n        }\n\n        lastActivity[msg.sender] = block.number;\n        emit TrancheATokenMinted(_trancheNum, msg.sender, _amount, taAmount);\n    }\n\n    /**\n     * @dev redeem Tranche A Tokens\n     * @param _trancheNum tranche number\n     * @param _amount amount of stable coins sent by buyer\n     */\n    function redeemTrancheAToken(uint256 _trancheNum, uint256 _amount) external nonReentrant {\n        require((block.number).sub(lastActivity[msg.sender]) >= redeemTimeout, \"JAave: redeem timeout not expired on tranche A\");\n        // check approve\n        require(IERC20Upgradeable(trancheAddresses[_trancheNum].ATrancheAddress).allowance(msg.sender, address(this)) >= _amount, \"JAave: allowance failed redeeming tranche A\");\n        //Transfer DAI from msg.sender to protocol;\n        SafeERC20Upgradeable.safeTransferFrom(IERC20Upgradeable(trancheAddresses[_trancheNum].ATrancheAddress), msg.sender, address(this), _amount);\n\n        setTrancheAExchangeRate(_trancheNum);\n\n        uint256 taAmount = _amount.mul(trancheParameters[_trancheNum].storedTrancheAPrice).div(1e18);\n        // if normalized price in tranche A price, everything should be scaled to 1e18 \n        uint256 diffDec = uint256(18).sub(uint256(trancheParameters[_trancheNum].underlyingDecimals));\n        uint256 normAmount = taAmount.div(10 ** diffDec);\n        // not sure about this, but it should be checked\n        uint256 taTotAmount = getTrAValue(_trancheNum);\n        if (normAmount > taTotAmount)\n            normAmount = taTotAmount;\n\n        uint256 userAmount = normAmount.mul(trancheParameters[_trancheNum].redemptionPercentage).div(PERCENT_DIVIDER);\n        aaveWithdraw(trancheAddresses[_trancheNum].buyerCoinAddress, userAmount, msg.sender);\n        uint256 feesAmount = normAmount.sub(userAmount);\n        aaveWithdraw(trancheAddresses[_trancheNum].buyerCoinAddress, feesAmount, feesCollectorAddress);\n        \n        IJTrancheTokens(trancheAddresses[_trancheNum].ATrancheAddress).burn(_amount);\n        lastActivity[msg.sender] = block.number;\n        emit TrancheATokenRedemption(_trancheNum, msg.sender, _amount, userAmount, feesAmount);\n    }\n\n    /**\n     * @dev buy Tranche B Tokens\n     * @param _trancheNum tranche number\n     * @param _amount amount of stable coins sent by buyer\n     */\n    function buyTrancheBToken(uint256 _trancheNum, uint256 _amount) external payable nonReentrant {\n        require(trancheDepositEnabled[_trancheNum], \"JAave: tranche deposit disabled\");\n        // refresh value for tranche A\n        setTrancheAExchangeRate(_trancheNum);\n        // get tranche B exchange rate\n        // if normalized price in tranche B price, everything should be scaled to 1e18 \n        uint256 diffDec = uint256(18).sub(uint256(trancheParameters[_trancheNum].underlyingDecimals));\n        uint256 normAmount = _amount.mul(10 ** diffDec);\n        uint256 tbAmount = normAmount.mul(1e18).div(getTrancheBExchangeRate(_trancheNum, _amount));\n        uint256 prevAaveTokenBalance = getTokenBalance(trancheAddresses[_trancheNum].aTokenAddress);\n        address lendingPool = ILendingPoolAddressesProvider(lendingPoolAddressProvider).getLendingPool();\n        address _tokenAddr = trancheAddresses[_trancheNum].buyerCoinAddress;\n        if (_tokenAddr == ETH_ADDR) {\n            require(msg.value == _amount, \"JAave: msg.value not equal to amount\");\n            IWETHGateway(wethGatewayAddress).depositETH{value: msg.value}();\n            _tokenAddr = wrappedEthAddress;\n        } else {\n            // check approve\n            require(IERC20Upgradeable(_tokenAddr).allowance(msg.sender, address(this)) >= _amount, \"JAave: allowance failed buying tranche B\");\n            SafeERC20Upgradeable.safeTransferFrom(IERC20Upgradeable(_tokenAddr), msg.sender, address(this), _amount);\n        }\n\n        SafeERC20Upgradeable.safeApprove(IERC20Upgradeable(_tokenAddr), lendingPool, _amount);\n        ILendingPool(lendingPool).deposit(_tokenAddr, _amount, address(this), AAVE_REFERRAL_CODE);\n\n        uint256 newAaveTokenBalance = getTokenBalance(trancheAddresses[_trancheNum].aTokenAddress);\n        if (newAaveTokenBalance > prevAaveTokenBalance) {\n            //Mint trancheB tokens and send them to msg.sender;\n            IJTrancheTokens(trancheAddresses[_trancheNum].BTrancheAddress).mint(msg.sender, tbAmount);\n        } else \n            tbAmount = 0;\n\n        lastActivity[msg.sender] = block.number;\n        emit TrancheBTokenMinted(_trancheNum, msg.sender, _amount, tbAmount);\n    }\n\n    /**\n     * @dev redeem Tranche B Tokens\n     * @param _trancheNum tranche number\n     * @param _amount amount of stable coins sent by buyer\n     */\n    function redeemTrancheBToken(uint256 _trancheNum, uint256 _amount) external nonReentrant {\n        require((block.number).sub(lastActivity[msg.sender]) >= redeemTimeout, \"JAave: redeem timeout not expired on tranche B\");\n        // check approve\n        require(IERC20Upgradeable(trancheAddresses[_trancheNum].BTrancheAddress).allowance(msg.sender, address(this)) >= _amount, \"JAave: allowance failed redeeming tranche B\");\n        //Transfer DAI from msg.sender to protocol;\n        SafeERC20Upgradeable.safeTransferFrom(IERC20Upgradeable(trancheAddresses[_trancheNum].BTrancheAddress), msg.sender, address(this), _amount);\n\n        // update tranche A price\n        setTrancheAExchangeRate(_trancheNum);\n        // get tranche B exchange rate\n        uint256 tbAmount = _amount.mul(getTrancheBExchangeRate(_trancheNum, 0)).div(1e18);\n        uint256 diffDec = uint256(18).sub(uint256(trancheParameters[_trancheNum].underlyingDecimals));\n        uint256 normAmount = tbAmount.div(10 ** diffDec);\n        // not sure about this, but it should be checked\n        uint256 tbTotAmount = getTrBValue(_trancheNum);\n        if (normAmount > tbTotAmount)\n            normAmount = tbTotAmount;\n\n        uint256 userAmount = normAmount.mul(trancheParameters[_trancheNum].redemptionPercentage).div(PERCENT_DIVIDER);\n        aaveWithdraw(trancheAddresses[_trancheNum].buyerCoinAddress, userAmount, msg.sender);\n        uint256 feesAmount = normAmount.sub(userAmount);\n        aaveWithdraw(trancheAddresses[_trancheNum].buyerCoinAddress, feesAmount, feesCollectorAddress);\n\n        IJTrancheTokens(trancheAddresses[_trancheNum].BTrancheAddress).burn(_amount);\n        lastActivity[msg.sender] = block.number;\n        emit TrancheBTokenRedemption(_trancheNum, msg.sender, _amount, userAmount, feesAmount);\n    }\n\n    /**\n     * @dev get every token balance in this contract\n     * @param _tokenContract token contract address\n     */\n    function getTokenBalance(address _tokenContract) public view returns (uint256) {\n        return IERC20Upgradeable(_tokenContract).balanceOf(address(this));\n    }\n\n    /**\n     * @dev get eth balance on this contract\n     */\n    function getEthBalance() public view returns (uint256) {\n        return address(this).balance;\n    }\n\n    /**\n     * @dev transfer tokens in this contract to fees collector contract\n     * @param _tokenContract token contract address\n     * @param _amount token amount to be transferred \n     */\n    function transferTokenToFeesCollector(address _tokenContract, uint256 _amount) external onlyAdmins {\n        SafeERC20Upgradeable.safeTransfer(IERC20Upgradeable(_tokenContract), feesCollectorAddress, _amount);\n    }\n\n    /**\n     * @dev transfer ethers in this contract to fees collector contract\n     * @param _amount ethers amount to be transferred \n     */\n    function withdrawEthToFeesCollector(uint256 _amount) external onlyAdmins {\n        TransferETHHelper.safeTransferETH(feesCollectorAddress, _amount);\n    }\n\n    /**\n     * @dev get token rewards amount\n     * @return amount of unclaimed tokens\n     */\n    function getAaveUnclaimedRewards() public view returns(uint256) {\n        return IAaveIncentivesController(aaveIncentiveControllerAddress).getUserUnclaimedRewards(address(this));\n    }\n\n    /**\n     * @dev claim token rewards from all assets in protocol and transfer them to fees collector\n     */\n    function claimAaveRewards(/*address _rewardToken, uint256 _amount*/) external {\n        address[] memory assets = new address[](tranchePairsCounter);\n        for (uint256 i = 0; i < tranchePairsCounter; i++) {\n            assets[i] = trancheAddresses[i].aTokenAddress;\n        }\n\n        uint256 claimableRewards = getAaveUnclaimedRewards();\n        if (claimableRewards > 0)\n            IAaveIncentivesController(aaveIncentiveControllerAddress).claimRewards(assets, claimableRewards, feesCollectorAddress);\n    }\n\n    /**\n     * @dev claim token rewards from a single assets (aToken) and transfer them to fees collector\n     * @param _assetToken asset token address (aToken)\n     * @param _amount amount of rewards token to claim \n     */\n    function claimAaveRewardsSingleAsset(address _assetToken, uint256 _amount) external {\n        address[] memory assets = new address[](1);\n        assets[0] = _assetToken;\n        if (_amount > 0)\n            IAaveIncentivesController(aaveIncentiveControllerAddress).claimRewards(assets, _amount, feesCollectorAddress);\n    }\n\n}",
  "sourcePath": "/Users/himanshugoyal/Documents/DeFi/tranche-aave-protocol/contracts/JAave.sol",
  "compiler": {
    "name": "solc",
    "version": "0.6.12+commit.27d51765.Emscripten.clang"
  },
  "schemaVersion": "3.2.4",
  "updatedAt": "2022-02-17T06:35:55.364Z",
  "devdoc": {
    "kind": "dev",
    "methods": {
      "buyTrancheAToken(uint256,uint256)": {
        "details": "buy Tranche A Tokens",
        "params": {
          "_amount": "amount of stable coins sent by buyer",
          "_trancheNum": "tranche number"
        }
      },
      "buyTrancheBToken(uint256,uint256)": {
        "details": "buy Tranche B Tokens",
        "params": {
          "_amount": "amount of stable coins sent by buyer",
          "_trancheNum": "tranche number"
        }
      },
      "calcRPBFromPercentage(uint256)": {
        "details": "get Tranche A exchange rate (tokens with 18 decimals)",
        "params": {
          "_trancheNum": "tranche number"
        },
        "returns": {
          "_0": "tranche A token current price"
        }
      },
      "claimAaveRewards()": {
        "details": "claim token rewards from all assets in protocol and transfer them to fees collector"
      },
      "claimAaveRewardsSingleAsset(address,uint256)": {
        "details": "claim token rewards from a single assets (aToken) and transfer them to fees collector",
        "params": {
          "_amount": "amount of rewards token to claim ",
          "_assetToken": "asset token address (aToken)"
        }
      },
      "getAaveReserveData(uint256)": {
        "details": "get Aave reserve Data for an asset liquidityRate is the return percentage for that asset (multiply by 10^27)"
      },
      "getAaveUnclaimedRewards()": {
        "details": "get token rewards amount",
        "returns": {
          "_0": "amount of unclaimed tokens"
        }
      },
      "getAllATokens()": {
        "details": "get Aave all tokens"
      },
      "getAllReservesTokens()": {
        "details": "get Aave all reserved tokens"
      },
      "getDataProvider()": {
        "details": "get Aave Pool Address Provider starting from lending pool address provider"
      },
      "getEthBalance()": {
        "details": "get eth balance on this contract"
      },
      "getTokenBalance(address)": {
        "details": "get every token balance in this contract",
        "params": {
          "_tokenContract": "token contract address"
        }
      },
      "getTotalValue(uint256)": {
        "details": "get Tranche total value in underlying tokens",
        "params": {
          "_trancheNum": "tranche number"
        },
        "returns": {
          "_0": "tranche total value in underlying tokens"
        }
      },
      "getTrAValue(uint256)": {
        "details": "get Tranche A value in underlying tokens",
        "params": {
          "_trancheNum": "tranche number"
        },
        "returns": {
          "trANormValue": "tranche A value in underlying tokens"
        }
      },
      "getTrBValue(uint256)": {
        "details": "get Tranche B value in underlying tokens",
        "params": {
          "_trancheNum": "tranche number"
        },
        "returns": {
          "_0": "tranche B value in underlying tokens"
        }
      },
      "getTrancheACurrentRPB(uint256)": {
        "details": "get RPB for a given percentage (expressed in 1e18)",
        "params": {
          "_trancheNum": "tranche number"
        },
        "returns": {
          "_0": "RPB for a fixed percentage"
        }
      },
      "getTrancheAExchangeRate(uint256)": {
        "details": "get Tranche A exchange rate",
        "params": {
          "_trancheNum": "tranche number"
        },
        "returns": {
          "_0": "tranche A token current price"
        }
      },
      "getTrancheBExchangeRate(uint256,uint256)": {
        "details": "get Tranche B exchange rate",
        "params": {
          "_newAmount": "new amount entering tranche B (underlying token decimals)",
          "_trancheNum": "tranche number"
        },
        "returns": {
          "tbPrice": "tranche B token current price"
        }
      },
      "initialize(address,address,address,address,address,address,uint256)": {
        "details": "contract initializer",
        "params": {
          "_aaveIncentiveController": "Aave incentive controller address (mainnet: 0xd784927Ff2f95ba542BfC824c8a8a98F3495f6b5)",
          "_adminTools": "price oracle address",
          "_blocksPerYear": "blocks / year",
          "_feesCollector": "fees collector contract address",
          "_rewardsToken": "rewards token address (slice token address)",
          "_tranchesDepl": "tranches deployer contract address",
          "_wethAddress": "weth / wmatic contract address"
        }
      },
      "owner()": {
        "details": "Returns the address of the current owner."
      },
      "redeemTrancheAToken(uint256,uint256)": {
        "details": "redeem Tranche A Tokens",
        "params": {
          "_amount": "amount of stable coins sent by buyer",
          "_trancheNum": "tranche number"
        }
      },
      "redeemTrancheBToken(uint256,uint256)": {
        "details": "redeem Tranche B Tokens",
        "params": {
          "_amount": "amount of stable coins sent by buyer",
          "_trancheNum": "tranche number"
        }
      },
      "renounceOwnership()": {
        "details": "Leaves the contract without owner. It will not be possible to call `onlyOwner` functions anymore. Can only be called by the current owner. NOTE: Renouncing ownership will leave the contract without an owner, thereby removing any functionality that is only available to the owner."
      },
      "setAaveIncentiveControllerAddress(address)": {
        "details": "set Aave Pool Address Provider",
        "params": {
          "_aaveIncentiveController": "aave incentive controller address"
        }
      },
      "setAavePoolAddressProvider(address)": {
        "details": "set Aave Pool Address Provider",
        "params": {
          "_addressProviderContract": "aave lending pool address provider contract address"
        }
      },
      "setBlocksPerYear(uint256)": {
        "details": "set how many blocks will be produced per year on the blockchain ",
        "params": {
          "_newValue": "new value"
        }
      },
      "setDecimals(uint256,uint8)": {
        "details": "set decimals on the underlying token of a tranche",
        "params": {
          "_trancheNum": "tranche number",
          "_underlyingDec": "underlying token decimals"
        }
      },
      "setNewEnvironment(address,address,address,address,address,address)": {
        "details": "set new addresses for price oracle, fees collector and tranche deployer ",
        "params": {
          "_adminTools": "price oracle address",
          "_feesCollector": "fees collector contract address",
          "_tranchesDepl": "tranches deployer contract address"
        }
      },
      "setRedemptionTimeout(uint32)": {
        "details": "set redemption timeout",
        "params": {
          "_blockNum": "timeout (in block numbers)"
        }
      },
      "setTrancheAFixedPercentage(uint256,uint256)": {
        "details": "set tranche redemption percentage scaled by 1e18",
        "params": {
          "_newTrAPercentage": "new tranche A RPB",
          "_trancheNum": "tranche number"
        }
      },
      "setTrancheDeposit(uint256,bool)": {
        "details": "enables or disables tranche deposit (default: disabled)",
        "params": {
          "_enable": "true or false",
          "_trancheNum": "tranche number"
        }
      },
      "setTrancheRedemptionPercentage(uint256,uint16)": {
        "details": "set tranche redemption percentage",
        "params": {
          "_redeemPercent": "user redemption percent",
          "_trancheNum": "tranche number"
        }
      },
      "setWETHGatewayAddress(address)": {
        "details": "set Weth Gateway contract address",
        "params": {
          "_wethGatewayAddress": "weth gateway contract address"
        }
      },
      "transferOwnership(address)": {
        "details": "Transfers ownership of the contract to a new account (`newOwner`). Can only be called by the current owner."
      },
      "transferTokenToFeesCollector(address,uint256)": {
        "details": "transfer tokens in this contract to fees collector contract",
        "params": {
          "_amount": "token amount to be transferred ",
          "_tokenContract": "token contract address"
        }
      },
      "withdrawEthToFeesCollector(uint256)": {
        "details": "transfer ethers in this contract to fees collector contract",
        "params": {
          "_amount": "ethers amount to be transferred "
        }
      }
    },
    "version": 1
  },
  "userdoc": {
    "kind": "user",
    "methods": {},
    "version": 1
  }
}