{
  "contractName": "JAave",
  "abi": [
    {
      "anonymous": false,
      "inputs": [
        {
          "indexed": true,
          "internalType": "address",
          "name": "previousOwner",
          "type": "address"
        },
        {
          "indexed": true,
          "internalType": "address",
          "name": "newOwner",
          "type": "address"
        }
      ],
      "name": "OwnershipTransferred",
      "type": "event"
    },
    {
      "anonymous": false,
      "inputs": [
        {
          "indexed": false,
          "internalType": "uint256",
          "name": "trancheNum",
          "type": "uint256"
        },
        {
          "indexed": false,
          "internalType": "address",
          "name": "buyer",
          "type": "address"
        },
        {
          "indexed": false,
          "internalType": "uint256",
          "name": "amount",
          "type": "uint256"
        },
        {
          "indexed": false,
          "internalType": "uint256",
          "name": "taAmount",
          "type": "uint256"
        }
      ],
      "name": "TrancheATokenMinted",
      "type": "event"
    },
    {
      "anonymous": false,
      "inputs": [
        {
          "indexed": false,
          "internalType": "uint256",
          "name": "trancheNum",
          "type": "uint256"
        },
        {
          "indexed": false,
          "internalType": "address",
          "name": "burner",
          "type": "address"
        },
        {
          "indexed": false,
          "internalType": "uint256",
          "name": "amount",
          "type": "uint256"
        },
        {
          "indexed": false,
          "internalType": "uint256",
          "name": "userAmount",
          "type": "uint256"
        },
        {
          "indexed": false,
          "internalType": "uint256",
          "name": "feesAmount",
          "type": "uint256"
        }
      ],
      "name": "TrancheATokenRedemption",
      "type": "event"
    },
    {
      "anonymous": false,
      "inputs": [
        {
          "indexed": false,
          "internalType": "uint256",
          "name": "trancheNum",
          "type": "uint256"
        },
        {
          "indexed": false,
          "internalType": "address",
          "name": "trancheA",
          "type": "address"
        },
        {
          "indexed": false,
          "internalType": "address",
          "name": "trancheB",
          "type": "address"
        }
      ],
      "name": "TrancheAddedToProtocol",
      "type": "event"
    },
    {
      "anonymous": false,
      "inputs": [
        {
          "indexed": false,
          "internalType": "uint256",
          "name": "trancheNum",
          "type": "uint256"
        },
        {
          "indexed": false,
          "internalType": "address",
          "name": "buyer",
          "type": "address"
        },
        {
          "indexed": false,
          "internalType": "uint256",
          "name": "amount",
          "type": "uint256"
        },
        {
          "indexed": false,
          "internalType": "uint256",
          "name": "tbAmount",
          "type": "uint256"
        }
      ],
      "name": "TrancheBTokenMinted",
      "type": "event"
    },
    {
      "anonymous": false,
      "inputs": [
        {
          "indexed": false,
          "internalType": "uint256",
          "name": "trancheNum",
          "type": "uint256"
        },
        {
          "indexed": false,
          "internalType": "address",
          "name": "burner",
          "type": "address"
        },
        {
          "indexed": false,
          "internalType": "uint256",
          "name": "amount",
          "type": "uint256"
        },
        {
          "indexed": false,
          "internalType": "uint256",
          "name": "userAmount",
          "type": "uint256"
        },
        {
          "indexed": false,
          "internalType": "uint256",
          "name": "feesAmount",
          "type": "uint256"
        }
      ],
      "name": "TrancheBTokenRedemption",
      "type": "event"
    },
    {
      "stateMutability": "payable",
      "type": "fallback",
      "payable": true
    },
    {
      "inputs": [],
      "name": "AAVE_REFERRAL_CODE",
      "outputs": [
        {
          "internalType": "uint16",
          "name": "",
          "type": "uint16"
        }
      ],
      "stateMutability": "view",
      "type": "function",
      "constant": true
    },
    {
      "inputs": [],
      "name": "ETH_ADDR",
      "outputs": [
        {
          "internalType": "address",
          "name": "",
          "type": "address"
        }
      ],
      "stateMutability": "view",
      "type": "function",
      "constant": true
    },
    {
      "inputs": [],
      "name": "PERCENT_DIVIDER",
      "outputs": [
        {
          "internalType": "uint256",
          "name": "",
          "type": "uint256"
        }
      ],
      "stateMutability": "view",
      "type": "function",
      "constant": true
    },
    {
      "inputs": [],
      "name": "WETH_ADDRESS",
      "outputs": [
        {
          "internalType": "address",
          "name": "",
          "type": "address"
        }
      ],
      "stateMutability": "view",
      "type": "function",
      "constant": true
    },
    {
      "inputs": [],
      "name": "aaveIncentiveControllerAddress",
      "outputs": [
        {
          "internalType": "address",
          "name": "",
          "type": "address"
        }
      ],
      "stateMutability": "view",
      "type": "function",
      "constant": true
    },
    {
      "inputs": [],
      "name": "fLock",
      "outputs": [
        {
          "internalType": "bool",
          "name": "",
          "type": "bool"
        }
      ],
      "stateMutability": "view",
      "type": "function",
      "constant": true
    },
    {
      "inputs": [],
      "name": "feesCollectorAddress",
      "outputs": [
        {
          "internalType": "address",
          "name": "",
          "type": "address"
        }
      ],
      "stateMutability": "view",
      "type": "function",
      "constant": true
    },
    {
      "inputs": [
        {
          "internalType": "address",
          "name": "",
          "type": "address"
        }
      ],
      "name": "lastActivity",
      "outputs": [
        {
          "internalType": "uint256",
          "name": "",
          "type": "uint256"
        }
      ],
      "stateMutability": "view",
      "type": "function",
      "constant": true
    },
    {
      "inputs": [],
      "name": "lendingPoolAddressProvider",
      "outputs": [
        {
          "internalType": "address",
          "name": "",
          "type": "address"
        }
      ],
      "stateMutability": "view",
      "type": "function",
      "constant": true
    },
    {
      "inputs": [],
      "name": "owner",
      "outputs": [
        {
          "internalType": "address",
          "name": "",
          "type": "address"
        }
      ],
      "stateMutability": "view",
      "type": "function",
      "constant": true
    },
    {
      "inputs": [],
      "name": "priceOracleAddress",
      "outputs": [
        {
          "internalType": "address",
          "name": "",
          "type": "address"
        }
      ],
      "stateMutability": "view",
      "type": "function",
      "constant": true
    },
    {
      "inputs": [],
      "name": "redeemTimeout",
      "outputs": [
        {
          "internalType": "uint32",
          "name": "",
          "type": "uint32"
        }
      ],
      "stateMutability": "view",
      "type": "function",
      "constant": true
    },
    {
      "inputs": [],
      "name": "renounceOwnership",
      "outputs": [],
      "stateMutability": "nonpayable",
      "type": "function"
    },
    {
      "inputs": [],
      "name": "totalBlocksPerYear",
      "outputs": [
        {
          "internalType": "uint256",
          "name": "",
          "type": "uint256"
        }
      ],
      "stateMutability": "view",
      "type": "function",
      "constant": true
    },
    {
      "inputs": [
        {
          "internalType": "uint256",
          "name": "",
          "type": "uint256"
        }
      ],
      "name": "trancheAddresses",
      "outputs": [
        {
          "internalType": "address",
          "name": "buyerCoinAddress",
          "type": "address"
        },
        {
          "internalType": "address",
          "name": "aTokenAddress",
          "type": "address"
        },
        {
          "internalType": "address",
          "name": "ATrancheAddress",
          "type": "address"
        },
        {
          "internalType": "address",
          "name": "BTrancheAddress",
          "type": "address"
        }
      ],
      "stateMutability": "view",
      "type": "function",
      "constant": true
    },
    {
      "inputs": [],
      "name": "tranchePairsCounter",
      "outputs": [
        {
          "internalType": "uint256",
          "name": "",
          "type": "uint256"
        }
      ],
      "stateMutability": "view",
      "type": "function",
      "constant": true
    },
    {
      "inputs": [
        {
          "internalType": "uint256",
          "name": "",
          "type": "uint256"
        }
      ],
      "name": "trancheParameters",
      "outputs": [
        {
          "internalType": "uint256",
          "name": "trancheAFixedPercentage",
          "type": "uint256"
        },
        {
          "internalType": "uint256",
          "name": "trancheALastActionBlock",
          "type": "uint256"
        },
        {
          "internalType": "uint256",
          "name": "storedTrancheAPrice",
          "type": "uint256"
        },
        {
          "internalType": "uint256",
          "name": "trancheACurrentRPB",
          "type": "uint256"
        },
        {
          "internalType": "uint16",
          "name": "redemptionPercentage",
          "type": "uint16"
        },
        {
          "internalType": "uint8",
          "name": "underlyingDecimals",
          "type": "uint8"
        }
      ],
      "stateMutability": "view",
      "type": "function",
      "constant": true
    },
    {
      "inputs": [],
      "name": "tranchesDeployerAddress",
      "outputs": [
        {
          "internalType": "address",
          "name": "",
          "type": "address"
        }
      ],
      "stateMutability": "view",
      "type": "function",
      "constant": true
    },
    {
      "inputs": [
        {
          "internalType": "address",
          "name": "newOwner",
          "type": "address"
        }
      ],
      "name": "transferOwnership",
      "outputs": [],
      "stateMutability": "nonpayable",
      "type": "function"
    },
    {
      "inputs": [],
      "name": "wethGatewayAddress",
      "outputs": [
        {
          "internalType": "address",
          "name": "",
          "type": "address"
        }
      ],
      "stateMutability": "view",
      "type": "function",
      "constant": true
    },
    {
      "stateMutability": "payable",
      "type": "receive",
      "payable": true
    },
    {
      "inputs": [
        {
          "internalType": "address",
          "name": "_priceOracle",
          "type": "address"
        },
        {
          "internalType": "address",
          "name": "_feesCollector",
          "type": "address"
        },
        {
          "internalType": "address",
          "name": "_tranchesDepl",
          "type": "address"
        },
        {
          "internalType": "address",
          "name": "_aaveIncentiveController",
          "type": "address"
        }
      ],
      "name": "initialize",
      "outputs": [],
      "stateMutability": "nonpayable",
      "type": "function"
    },
    {
      "inputs": [
        {
          "internalType": "address",
          "name": "_priceOracle",
          "type": "address"
        },
        {
          "internalType": "address",
          "name": "_feesCollector",
          "type": "address"
        },
        {
          "internalType": "address",
          "name": "_tranchesDepl",
          "type": "address"
        }
      ],
      "name": "setNewEnvironment",
      "outputs": [],
      "stateMutability": "nonpayable",
      "type": "function"
    },
    {
      "inputs": [
        {
          "internalType": "uint256",
          "name": "_newValue",
          "type": "uint256"
        }
      ],
      "name": "setBlocksPerYear",
      "outputs": [],
      "stateMutability": "nonpayable",
      "type": "function"
    },
    {
      "inputs": [
        {
          "internalType": "address",
          "name": "_addressProviderContract",
          "type": "address"
        }
      ],
      "name": "setAavePoolAddressProvider",
      "outputs": [],
      "stateMutability": "nonpayable",
      "type": "function"
    },
    {
      "inputs": [],
      "name": "getDataProvider",
      "outputs": [
        {
          "internalType": "contract IAaveProtocolDataProvider",
          "name": "",
          "type": "address"
        }
      ],
      "stateMutability": "view",
      "type": "function",
      "constant": true
    },
    {
      "inputs": [],
      "name": "getAllATokens",
      "outputs": [
        {
          "components": [
            {
              "internalType": "string",
              "name": "symbol",
              "type": "string"
            },
            {
              "internalType": "address",
              "name": "tokenAddress",
              "type": "address"
            }
          ],
          "internalType": "struct IAaveProtocolDataProvider.TokenData[]",
          "name": "",
          "type": "tuple[]"
        }
      ],
      "stateMutability": "view",
      "type": "function",
      "constant": true
    },
    {
      "inputs": [],
      "name": "getAllReservesTokens",
      "outputs": [
        {
          "components": [
            {
              "internalType": "string",
              "name": "symbol",
              "type": "string"
            },
            {
              "internalType": "address",
              "name": "tokenAddress",
              "type": "address"
            }
          ],
          "internalType": "struct IAaveProtocolDataProvider.TokenData[]",
          "name": "",
          "type": "tuple[]"
        }
      ],
      "stateMutability": "view",
      "type": "function",
      "constant": true
    },
    {
      "inputs": [
        {
          "internalType": "uint256",
          "name": "_trancheNum",
          "type": "uint256"
        }
      ],
      "name": "getAaveReserveData",
      "outputs": [
        {
          "internalType": "uint256",
          "name": "availableLiquidity",
          "type": "uint256"
        },
        {
          "internalType": "uint256",
          "name": "totalStableDebt",
          "type": "uint256"
        },
        {
          "internalType": "uint256",
          "name": "totalVariableDebt",
          "type": "uint256"
        },
        {
          "internalType": "uint256",
          "name": "liquidityRate",
          "type": "uint256"
        },
        {
          "internalType": "uint256",
          "name": "variableBorrowRate",
          "type": "uint256"
        },
        {
          "internalType": "uint256",
          "name": "stableBorrowRate",
          "type": "uint256"
        },
        {
          "internalType": "uint256",
          "name": "averageStableBorrowRate",
          "type": "uint256"
        },
        {
          "internalType": "uint256",
          "name": "liquidityIndex",
          "type": "uint256"
        },
        {
          "internalType": "uint256",
          "name": "variableBorrowIndex",
          "type": "uint256"
        },
        {
          "internalType": "uint40",
          "name": "lastUpdateTimestamp",
          "type": "uint40"
        }
      ],
      "stateMutability": "view",
      "type": "function",
      "constant": true
    },
    {
      "inputs": [],
      "name": "getLendingPool",
      "outputs": [
        {
          "internalType": "address",
          "name": "",
          "type": "address"
        }
      ],
      "stateMutability": "view",
      "type": "function",
      "constant": true
    },
    {
      "inputs": [
        {
          "internalType": "address",
          "name": "_wethGatewayAddress",
          "type": "address"
        }
      ],
      "name": "setWETHGatewayAddress",
      "outputs": [],
      "stateMutability": "nonpayable",
      "type": "function"
    },
    {
      "inputs": [
        {
          "internalType": "uint256",
          "name": "_trancheNum",
          "type": "uint256"
        },
        {
          "internalType": "uint8",
          "name": "_underlyingDec",
          "type": "uint8"
        }
      ],
      "name": "setDecimals",
      "outputs": [],
      "stateMutability": "nonpayable",
      "type": "function"
    },
    {
      "inputs": [
        {
          "internalType": "uint256",
          "name": "_trancheNum",
          "type": "uint256"
        },
        {
          "internalType": "uint16",
          "name": "_redeemPercent",
          "type": "uint16"
        }
      ],
      "name": "setTrancheRedemptionPercentage",
      "outputs": [],
      "stateMutability": "nonpayable",
      "type": "function"
    },
    {
      "inputs": [
        {
          "internalType": "uint32",
          "name": "_blockNum",
          "type": "uint32"
        }
      ],
      "name": "setRedemptionTimeout",
      "outputs": [],
      "stateMutability": "nonpayable",
      "type": "function"
    },
    {
      "inputs": [
        {
          "internalType": "uint256",
          "name": "_trancheNum",
          "type": "uint256"
        },
        {
          "internalType": "uint256",
          "name": "_newTrAPercentage",
          "type": "uint256"
        }
      ],
      "name": "setTrancheAFixedPercentage",
      "outputs": [],
      "stateMutability": "nonpayable",
      "type": "function"
    },
    {
      "inputs": [
        {
          "internalType": "address",
          "name": "_buyerCoinAddress",
          "type": "address"
        },
        {
          "internalType": "address",
          "name": "_aTokenAddress",
          "type": "address"
        },
        {
          "internalType": "string",
          "name": "_nameA",
          "type": "string"
        },
        {
          "internalType": "string",
          "name": "_symbolA",
          "type": "string"
        },
        {
          "internalType": "string",
          "name": "_nameB",
          "type": "string"
        },
        {
          "internalType": "string",
          "name": "_symbolB",
          "type": "string"
        },
        {
          "internalType": "uint256",
          "name": "_fixedRpb",
          "type": "uint256"
        },
        {
          "internalType": "uint8",
          "name": "_underlyingDec",
          "type": "uint8"
        }
      ],
      "name": "addTrancheToProtocol",
      "outputs": [],
      "stateMutability": "nonpayable",
      "type": "function"
    },
    {
      "inputs": [
        {
          "internalType": "uint256",
          "name": "_trancheNum",
          "type": "uint256"
        }
      ],
      "name": "setTrancheAExchangeRate",
      "outputs": [
        {
          "internalType": "uint256",
          "name": "",
          "type": "uint256"
        }
      ],
      "stateMutability": "nonpayable",
      "type": "function"
    },
    {
      "inputs": [
        {
          "internalType": "uint256",
          "name": "_trancheNum",
          "type": "uint256"
        }
      ],
      "name": "getTrancheAExchangeRate",
      "outputs": [
        {
          "internalType": "uint256",
          "name": "",
          "type": "uint256"
        }
      ],
      "stateMutability": "view",
      "type": "function",
      "constant": true
    },
    {
      "inputs": [
        {
          "internalType": "uint256",
          "name": "_trancheNum",
          "type": "uint256"
        }
      ],
      "name": "getTrancheACurrentRPB",
      "outputs": [
        {
          "internalType": "uint256",
          "name": "",
          "type": "uint256"
        }
      ],
      "stateMutability": "view",
      "type": "function",
      "constant": true
    },
    {
      "inputs": [
        {
          "internalType": "uint256",
          "name": "_trancheNum",
          "type": "uint256"
        }
      ],
      "name": "calcRPBFromPercentage",
      "outputs": [
        {
          "internalType": "uint256",
          "name": "",
          "type": "uint256"
        }
      ],
      "stateMutability": "nonpayable",
      "type": "function"
    },
    {
      "inputs": [
        {
          "internalType": "uint256",
          "name": "_trancheNum",
          "type": "uint256"
        }
      ],
      "name": "getTrAValue",
      "outputs": [
        {
          "internalType": "uint256",
          "name": "trANormValue",
          "type": "uint256"
        }
      ],
      "stateMutability": "view",
      "type": "function",
      "constant": true
    },
    {
      "inputs": [
        {
          "internalType": "uint256",
          "name": "_trancheNum",
          "type": "uint256"
        }
      ],
      "name": "getTrBValue",
      "outputs": [
        {
          "internalType": "uint256",
          "name": "",
          "type": "uint256"
        }
      ],
      "stateMutability": "view",
      "type": "function",
      "constant": true
    },
    {
      "inputs": [
        {
          "internalType": "uint256",
          "name": "_trancheNum",
          "type": "uint256"
        }
      ],
      "name": "getTotalValue",
      "outputs": [
        {
          "internalType": "uint256",
          "name": "",
          "type": "uint256"
        }
      ],
      "stateMutability": "view",
      "type": "function",
      "constant": true
    },
    {
      "inputs": [
        {
          "internalType": "uint256",
          "name": "_trancheNum",
          "type": "uint256"
        },
        {
          "internalType": "uint256",
          "name": "_newAmount",
          "type": "uint256"
        }
      ],
      "name": "getTrancheBExchangeRate",
      "outputs": [
        {
          "internalType": "uint256",
          "name": "tbPrice",
          "type": "uint256"
        }
      ],
      "stateMutability": "view",
      "type": "function",
      "constant": true
    },
    {
      "inputs": [
        {
          "internalType": "uint256",
          "name": "_trancheNum",
          "type": "uint256"
        },
        {
          "internalType": "uint256",
          "name": "_amount",
          "type": "uint256"
        }
      ],
      "name": "buyTrancheAToken",
      "outputs": [],
      "stateMutability": "payable",
      "type": "function",
      "payable": true
    },
    {
      "inputs": [
        {
          "internalType": "uint256",
          "name": "_trancheNum",
          "type": "uint256"
        },
        {
          "internalType": "uint256",
          "name": "_amount",
          "type": "uint256"
        }
      ],
      "name": "redeemTrancheAToken",
      "outputs": [],
      "stateMutability": "nonpayable",
      "type": "function"
    },
    {
      "inputs": [
        {
          "internalType": "uint256",
          "name": "_trancheNum",
          "type": "uint256"
        },
        {
          "internalType": "uint256",
          "name": "_amount",
          "type": "uint256"
        }
      ],
      "name": "buyTrancheBToken",
      "outputs": [],
      "stateMutability": "payable",
      "type": "function",
      "payable": true
    },
    {
      "inputs": [
        {
          "internalType": "uint256",
          "name": "_trancheNum",
          "type": "uint256"
        },
        {
          "internalType": "uint256",
          "name": "_amount",
          "type": "uint256"
        }
      ],
      "name": "redeemTrancheBToken",
      "outputs": [],
      "stateMutability": "nonpayable",
      "type": "function"
    },
    {
      "inputs": [
        {
          "internalType": "address",
          "name": "_tokenContract",
          "type": "address"
        }
      ],
      "name": "getTokenBalance",
      "outputs": [
        {
          "internalType": "uint256",
          "name": "",
          "type": "uint256"
        }
      ],
      "stateMutability": "view",
      "type": "function",
      "constant": true
    },
    {
      "inputs": [],
      "name": "getEthBalance",
      "outputs": [
        {
          "internalType": "uint256",
          "name": "",
          "type": "uint256"
        }
      ],
      "stateMutability": "view",
      "type": "function",
      "constant": true
    },
    {
      "inputs": [
        {
          "internalType": "address",
          "name": "_tokenContract",
          "type": "address"
        },
        {
          "internalType": "uint256",
          "name": "_amount",
          "type": "uint256"
        }
      ],
      "name": "transferTokenToFeesCollector",
      "outputs": [],
      "stateMutability": "nonpayable",
      "type": "function"
    },
    {
      "inputs": [
        {
          "internalType": "uint256",
          "name": "_amount",
          "type": "uint256"
        }
      ],
      "name": "withdrawEthToFeesCollector",
      "outputs": [],
      "stateMutability": "nonpayable",
      "type": "function"
    },
    {
      "inputs": [],
      "name": "getAaveUnclaimedRewards",
      "outputs": [
        {
          "internalType": "uint256",
          "name": "",
          "type": "uint256"
        }
      ],
      "stateMutability": "view",
      "type": "function",
      "constant": true
    },
    {
      "inputs": [
        {
          "internalType": "address",
          "name": "_rewardToken",
          "type": "address"
        },
        {
          "internalType": "uint256",
          "name": "_amount",
          "type": "uint256"
        }
      ],
      "name": "claimAaveRewards",
      "outputs": [],
      "stateMutability": "nonpayable",
      "type": "function"
    }
  ],
  "bytecode": "0x608060405234801561001057600080fd5b506149d8806100206000396000f3fe60806040526004361061031e5760003560e01c80637afc66fc116101ab578063d495ece0116100f7578063f07e96b311610095578063f5bb31da1161006f578063f5bb31da146108d3578063f8c8765e146108e8578063f97107a914610908578063fa37e9a01461092a57610325565b8063f07e96b31461087e578063f2fde38b1461089e578063f561ae41146108be57610325565b8063e202e5ad116100d1578063e202e5ad14610809578063e5fa2b7014610829578063e66a469414610849578063eba181e61461085e57610325565b8063d495ece0146107b4578063d633590a146107d4578063da325204146107e957610325565b8063b316ff8911610164578063cc8d383a1161013e578063cc8d383a1461073f578063d184859a14610754578063d3dd2a1414610774578063d41f283c1461079457610325565b8063b316ff89146106e8578063bf20a2e01461070a578063c17c19ce1461072a57610325565b80637afc66fc1461062c578063811f7faf1461064c5780638da5cb5b1461066c57806393e3474c146106815780639e173b3014610696578063af45ba1e146106b657610325565b80633aecd0e31161026a57806365e3119711610223578063715018a6116101fd578063715018a6146105da57806372f8fb5c146105ef5780637301e24e146106025780637753f47b1461061757610325565b806365e31197146105855780636e98a04e146105a557806370ed0ada146105c557610325565b80633aecd0e3146104dd57806341f00310146104fd5780634fe889291461051d5780635646c34b1461053d5780636125f23814610550578063633803001461057057610325565b806313863d82116102d757806329fc7bd8116102b157806329fc7bd8146104635780632bc51c6d146104785780632f40d5e91461048d57806336c013e6146104ad57610325565b806313863d82146103eb5780631696092314610421578063198d2d641461044357610325565b80630261bf8b14610327578063040141e5146103525780630409b1571461036757806305a363de146103945780630787e6c7146103b65780630b7aeb41146103d657610325565b3661032557005b005b34801561033357600080fd5b5061033c61094a565b6040516103499190613fcc565b60405180910390f35b34801561035e57600080fd5b5061033c6109cc565b34801561037357600080fd5b50610387610382366004613e2a565b6109e4565b604051610349919061419d565b3480156103a057600080fd5b506103a9610a3b565b604051610349919061480c565b3480156103c257600080fd5b506103256103d1366004613b3b565b610a40565b3480156103e257600080fd5b50610387610b07565b3480156103f757600080fd5b5061040b610406366004613e2a565b610b0d565b6040516103499a999897969594939291906148b9565b34801561042d57600080fd5b50610436610c42565b6040516103499190614905565b34801561044f57600080fd5b5061032561045e366004613f37565b610c4e565b34801561046f57600080fd5b50610387610d3c565b34801561048457600080fd5b5061033c610d42565b34801561049957600080fd5b506103256104a8366004613cff565b610d51565b3480156104b957600080fd5b506104cd6104c8366004613e2a565b610e09565b6040516103499493929190614013565b3480156104e957600080fd5b506103876104f8366004613b3b565b610e41565b34801561050957600080fd5b50610325610518366004613f60565b610ec6565b34801561052957600080fd5b50610387610538366004613e2a565b610f7e565b61032561054b366004613e8f565b610f93565b34801561055c57600080fd5b5061032561056b366004613e5a565b6113f0565b34801561057c57600080fd5b5061033c6114b3565b34801561059157600080fd5b506103256105a0366004613e2a565b6114c2565b3480156105b157600080fd5b506103876105c0366004613e2a565b611577565b3480156105d157600080fd5b5061038761168b565b3480156105e657600080fd5b5061032561168f565b6103256105fd366004613e8f565b611718565b34801561060e57600080fd5b50610387611b64565b34801561062357600080fd5b5061033c611be5565b34801561063857600080fd5b50610387610647366004613e8f565b611bfd565b34801561065857600080fd5b50610325610667366004613e8f565b611d96565b34801561067857600080fd5b5061033c6120de565b34801561068d57600080fd5b5061033c6120ed565b3480156106a257600080fd5b506103256106b1366004613cff565b6120fc565b3480156106c257600080fd5b506106d66106d1366004613e2a565b61224b565b6040516103499695949392919061488a565b3480156106f457600080fd5b506106fd612289565b6040516103499190614116565b34801561071657600080fd5b50610387610725366004613e2a565b61233b565b34801561073657600080fd5b506103876123c0565b34801561074b57600080fd5b5061033c6123c6565b34801561076057600080fd5b5061038761076f366004613e2a565b6123d5565b34801561078057600080fd5b5061038761078f366004613e2a565b612416565b3480156107a057600080fd5b506103876107af366004613e2a565b61242b565b3480156107c057600080fd5b506103256107cf366004613e8f565b61244f565b3480156107e057600080fd5b5061033c612524565b3480156107f557600080fd5b50610325610804366004613b73565b612533565b34801561081557600080fd5b50610325610824366004613b3b565b612601565b34801561083557600080fd5b50610325610844366004613e2a565b6126bf565b34801561085557600080fd5b5061033c612760565b34801561086a57600080fd5b50610325610879366004613e8f565b6127d7565b34801561088a57600080fd5b50610387610899366004613b3b565b612ade565b3480156108aa57600080fd5b506103256108b9366004613b3b565b612af0565b3480156108ca57600080fd5b506106fd612bb1565b3480156108df57600080fd5b5061033c612c21565b3480156108f457600080fd5b50610325610903366004613bbd565b612c30565b34801561091457600080fd5b5061091d612d20565b6040516103499190614192565b34801561093657600080fd5b50610325610945366004613c18565b612d30565b60685460408051630261bf8b60e01b815290516000926001600160a01b031691630261bf8b916004808301926020929190829003018186803b15801561098f57600080fd5b505afa1580156109a3573d6000803e3d6000fd5b505050506040513d601f19601f820116820180604052508101906109c79190613b57565b905090565b73d0a1e359811322d97991e03f863a0c30c2cf029c81565b606c546000828152606f6020526040812080546002909101549192610a1f92670de0b6b3a764000092610a19929183916130f1565b90613132565b6000838152606f6020526040902060030181905590505b919050565b600081565b606554604051630935e01b60e21b81526001600160a01b03909116906324d7806c90610a70903390600401613fcc565b60206040518083038186803b158015610a8857600080fd5b505afa158015610a9c573d6000803e3d6000fd5b505050506040513d601f19601f82011682018060405250810190610ac09190613e0a565b610ae55760405162461bcd60e51b8152600401610adc9061428d565b60405180910390fd5b606880546001600160a01b0319166001600160a01b0392909216919091179055565b606b5481565b6068546000908190819081908190819081908190819081906001600160a01b0316610b4a5760405162461bcd60e51b8152600401610adc90614245565b6000610b54612760565b60008d8152606e60205260409020549091506001600160a01b031673eeeeeeeeeeeeeeeeeeeeeeeeeeeeeeeeeeeeeeee811415610ba2575073d0a1e359811322d97991e03f863a0c30c2cf029c5b6040516335ea6a7560e01b81526001600160a01b038316906335ea6a7590610bce908490600401613fcc565b6101406040518083038186803b158015610be757600080fd5b505afa158015610bfb573d6000803e3d6000fd5b505050506040513d601f19601f82011682018060405250810190610c1f9190613eb0565b9b509b509b509b509b509b509b509b509b509b5050509193959799509193959799565b606d5463ffffffff1681565b606554604051630935e01b60e21b81526001600160a01b03909116906324d7806c90610c7e903390600401613fcc565b60206040518083038186803b158015610c9657600080fd5b505afa158015610caa573d6000803e3d6000fd5b505050506040513d601f19601f82011682018060405250810190610cce9190613e0a565b610cea5760405162461bcd60e51b8152600401610adc9061428d565b60128160ff161115610d0e5760405162461bcd60e51b8152600401610adc906144dd565b6000918252606f6020526040909120600401805460ff909216620100000262ff000019909216919091179055565b61271081565b6065546001600160a01b031681565b606554604051630935e01b60e21b81526001600160a01b03909116906324d7806c90610d81903390600401613fcc565b60206040518083038186803b158015610d9957600080fd5b505afa158015610dad573d6000803e3d6000fd5b505050506040513d601f19601f82011682018060405250810190610dd19190613e0a565b610ded5760405162461bcd60e51b8152600401610adc9061428d565b606654610e059083906001600160a01b031683613164565b5050565b606e6020526000908152604090208054600182015460028301546003909301546001600160a01b039283169391831692918216911684565b6040516370a0823160e01b81526000906001600160a01b038316906370a0823190610e70903090600401613fcc565b60206040518083038186803b158015610e8857600080fd5b505afa158015610e9c573d6000803e3d6000fd5b505050506040513d601f19601f82011682018060405250810190610ec09190613e42565b92915050565b606554604051630935e01b60e21b81526001600160a01b03909116906324d7806c90610ef6903390600401613fcc565b60206040518083038186803b158015610f0e57600080fd5b505afa158015610f22573d6000803e3d6000fd5b505050506040513d601f19601f82011682018060405250810190610f469190613e0a565b610f625760405162461bcd60e51b8152600401610adc9061428d565b606d805463ffffffff191663ffffffff92909216919091179055565b6000908152606f602052604090206002015490565b606d54600160201b900460ff1615610faa57600080fd5b606d805460ff60201b1916600160201b1790556000828152606e6020526040812060010154610fe1906001600160a01b0316610e41565b90506000606860009054906101000a90046001600160a01b03166001600160a01b0316630261bf8b6040518163ffffffff1660e01b815260040160206040518083038186803b15801561103357600080fd5b505afa158015611047573d6000803e3d6000fd5b505050506040513d601f19601f8201168201806040525081019061106b9190613b57565b6000858152606e60205260409020549091506001600160a01b031673eeeeeeeeeeeeeeeeeeeeeeeeeeeeeeeeeeeeeeee811415611146578334146110c15760405162461bcd60e51b8152600401610adc90614385565b606960009054906101000a90046001600160a01b03166001600160a01b031663f6326fb3346040518263ffffffff1660e01b81526004016000604051808303818588803b15801561111157600080fd5b505af1158015611125573d6000803e3d6000fd5b505050505073d0a1e359811322d97991e03f863a0c30c2cf029c90506111f0565b604051636eb1769f60e11b815284906001600160a01b0383169063dd62ed3e906111769033903090600401613fe0565b60206040518083038186803b15801561118e57600080fd5b505afa1580156111a2573d6000803e3d6000fd5b505050506040513d601f19601f820116820180604052508101906111c69190613e42565b10156111e45760405162461bcd60e51b8152600401610adc9061476e565b6111f0813330876131bf565b6111fb8183866131e0565b60405163e8eda9df60e01b81526001600160a01b0383169063e8eda9df9061122e90849088903090600090600401614085565b600060405180830381600087803b15801561124857600080fd5b505af115801561125c573d6000803e3d6000fd5b5050506000868152606e6020526040812060010154909150611286906001600160a01b0316610e41565b90506112918661233b565b50600084821115611378576000878152606f60205260408120600401546112c39060129062010000900460ff166132a3565b905060006112d588600a84900a6130f1565b60008a8152606f602052604090206002015490915061130090610a1983670de0b6b3a76400006130f1565b60008a8152606e6020526040908190206002015490516340c10f1960e01b81529194506001600160a01b0316906340c10f19906113439033908790600401613ffa565b600060405180830381600087803b15801561135d57600080fd5b505af1158015611371573d6000803e3d6000fd5b5050505050505b33600081815260706020908152604080832043908190558b8452606f9092529182902060010155517f19f1e132571edb9da814c6ef6b15cfc69db767393405221724bf323db24459b8916113d2918a91908a90869061481b565b60405180910390a15050606d805460ff60201b191690555050505050565b606554604051630935e01b60e21b81526001600160a01b03909116906324d7806c90611420903390600401613fcc565b60206040518083038186803b15801561143857600080fd5b505afa15801561144c573d6000803e3d6000fd5b505050506040513d601f19601f820116820180604052508101906114709190613e0a565b61148c5760405162461bcd60e51b8152600401610adc9061428d565b6000918252606f6020526040909120600401805461ffff191661ffff909216919091179055565b6068546001600160a01b031681565b606554604051630935e01b60e21b81526001600160a01b03909116906324d7806c906114f2903390600401613fcc565b60206040518083038186803b15801561150a57600080fd5b505afa15801561151e573d6000803e3d6000fd5b505050506040513d601f19601f820116820180604052508101906115429190613e0a565b61155e5760405162461bcd60e51b8152600401610adc9061428d565b606654611574906001600160a01b0316826132cb565b50565b6000818152606e602090815260408083206002015481516318160ddd60e01b8152915184936001600160a01b03909216926318160ddd926004808301939192829003018186803b1580156115ca57600080fd5b505afa1580156115de573d6000803e3d6000fd5b505050506040513d601f19601f820116820180604052508101906116029190613e42565b6000848152606f60205260408120600401549192509061162d9060129062010000900460ff166132a3565b905080156116625761165b81600a0a610a19670de0b6b3a7640000610a1961165489610f7e565b87906130f1565b9250611684565b611681670de0b6b3a7640000610a1961167a87610f7e565b85906130f1565b92505b5050919050565b4790565b611697613358565b6001600160a01b03166116a86120de565b6001600160a01b0316146116ce5760405162461bcd60e51b8152600401610adc90614681565b6033546040516000916001600160a01b0316907f8be0079c531659141344cd1fd0a4f28419497f9722a3daafe3b4186f6b6457e0908390a3603380546001600160a01b0319169055565b606d54600160201b900460ff161561172f57600080fd5b606d805460ff60201b1916600160201b17905561174b8261233b565b506000828152606f60205260408120600401546117739060129062010000900460ff166132a3565b9050600061178583600a84900a6130f1565b905060006117a86117968686611bfd565b610a1984670de0b6b3a76400006130f1565b6000868152606e6020526040812060010154919250906117d0906001600160a01b0316610e41565b90506000606860009054906101000a90046001600160a01b03166001600160a01b0316630261bf8b6040518163ffffffff1660e01b815260040160206040518083038186803b15801561182257600080fd5b505afa158015611836573d6000803e3d6000fd5b505050506040513d601f19601f8201168201806040525081019061185a9190613b57565b6000888152606e60205260409020549091506001600160a01b031673eeeeeeeeeeeeeeeeeeeeeeeeeeeeeeeeeeeeeeee811415611935578634146118b05760405162461bcd60e51b8152600401610adc90614385565b606960009054906101000a90046001600160a01b03166001600160a01b031663f6326fb3346040518263ffffffff1660e01b81526004016000604051808303818588803b15801561190057600080fd5b505af1158015611914573d6000803e3d6000fd5b505050505073d0a1e359811322d97991e03f863a0c30c2cf029c90506119df565b604051636eb1769f60e11b815287906001600160a01b0383169063dd62ed3e906119659033903090600401613fe0565b60206040518083038186803b15801561197d57600080fd5b505afa158015611991573d6000803e3d6000fd5b505050506040513d601f19601f820116820180604052508101906119b59190613e42565b10156119d35760405162461bcd60e51b8152600401610adc90614514565b6119df8133308a6131bf565b6119ea8183896131e0565b60405163e8eda9df60e01b81526001600160a01b0383169063e8eda9df90611a1d9084908b903090600090600401614085565b600060405180830381600087803b158015611a3757600080fd5b505af1158015611a4b573d6000803e3d6000fd5b5050506000898152606e6020526040812060010154909150611a75906001600160a01b0316610e41565b905083811115611af8576000898152606e6020526040908190206003015490516340c10f1960e01b81526001600160a01b03909116906340c10f1990611ac19033908990600401613ffa565b600060405180830381600087803b158015611adb57600080fd5b505af1158015611aef573d6000803e3d6000fd5b50505050611afd565b600094505b3360008181526070602052604090819020439055517ff08a1bcb4ad0b6bbcc3885d1221ff0ebc1fb9a7b8abc59447a94e305cc2491e191611b44918c91908c908a9061481b565b60405180910390a15050606d805460ff60201b1916905550505050505050565b606a54604051630cc7d40f60e11b81526000916001600160a01b03169063198fa81e90611b95903090600401613fcc565b60206040518083038186803b158015611bad57600080fd5b505afa158015611bc1573d6000803e3d6000fd5b505050506040513d601f19601f820116820180604052508101906109c79190613e42565b73eeeeeeeeeeeeeeeeeeeeeeeeeeeeeeeeeeeeeeee81565b6000828152606e602090815260408083206003015481516318160ddd60e01b81529151849384936001600160a01b03909316926318160ddd9260048083019392829003018186803b158015611c5157600080fd5b505afa158015611c65573d6000803e3d6000fd5b505050506040513d601f19601f82011682018060405250810190611c899190613e42565b6000868152606f602052604090206004015490915062010000900460ff16846012821015611ccc57611cc9611cbf6012846132a3565b8790600a0a6130f1565b90505b6000611cd8848361335c565b90506000611cef88611ce98b61242b565b9061335c565b90506000611cfc8a611577565b9050808210611d1657611d0f82826132a3565b9650611d1b565b600096505b601285108015611d2b5750600087115b15611d4b57611d48611d3e6012876132a3565b8890600a0a6130f1565b96505b600087118015611d5b5750600083115b15611d7d57611d7683610a1989670de0b6b3a76400006130f1565b9750611d89565b670de0b6b3a764000097505b5050505050505092915050565b606d54600160201b900460ff1615611dad57600080fd5b606d805460ff60201b1916600160201b17908190553360009081526070602052604090205463ffffffff91821691611de79143916132a316565b1015611e055760405162461bcd60e51b8152600401610adc90614300565b6000828152606e602052604090819020600201549051636eb1769f60e11b815282916001600160a01b03169063dd62ed3e90611e479033903090600401613fe0565b60206040518083038186803b158015611e5f57600080fd5b505afa158015611e73573d6000803e3d6000fd5b505050506040513d601f19601f82011682018060405250810190611e979190613e42565b1015611eb55760405162461bcd60e51b8152600401610adc906145aa565b6000828152606e6020526040902060020154611edc906001600160a01b03163330846131bf565b611ee58261233b565b506000828152606f6020526040812060020154611f1190670de0b6b3a764000090610a199085906130f1565b6000848152606f602052604081206004015491925090611f3c9060129062010000900460ff166132a3565b90506000611f4e83600a84900a613132565b90506000611f5b86611577565b905080821115611f69578091505b6000868152606f6020526040812060040154611f929061271090610a1990869061ffff166130f1565b6000888152606e6020526040902054909150611fb8906001600160a01b03168233613381565b6000611fc484836132a3565b6000898152606e6020526040902054606654919250611ff1916001600160a01b0391821691849116613381565b6000888152606e602052604090819020600201549051630852cd8d60e31b81526001600160a01b03909116906342966c6890612031908a9060040161419d565b600060405180830381600087803b15801561204b57600080fd5b505af115801561205f573d6000803e3d6000fd5b505033600081815260706020908152604080832043908190558e8452606f9092529182902060010155517f34d60a41478d47b695f40c0225fdee00c6c598107d7ab9475382a02520cc564993506120bf92508b91908b908790879061483f565b60405180910390a15050606d805460ff60201b19169055505050505050565b6033546001600160a01b031690565b606a546001600160a01b031681565b6060606b5467ffffffffffffffff8111801561211757600080fd5b50604051908082528060200260200182016040528015612141578160200160208202803683370190505b50905060005b606b5481101561219d576000818152606e602052604090206001015482516001600160a01b039091169083908390811061217d57fe5b6001600160a01b0390921660209283029190910190910152600101612147565b50606a54604051633111e7b360e01b81526000916001600160a01b031690633111e7b3906121d3908590879030906004016140b2565b602060405180830381600087803b1580156121ed57600080fd5b505af1158015612201573d6000803e3d6000fd5b505050506040513d601f19601f820116820180604052508101906122259190613e42565b90508015612245576066546122459085906001600160a01b031683613164565b50505050565b606f60205260009081526040902080546001820154600283015460038401546004909401549293919290919061ffff81169062010000900460ff1686565b6068546060906001600160a01b03166122b45760405162461bcd60e51b8152600401610adc90614245565b60006122be612760565b9050806001600160a01b031663b316ff896040518163ffffffff1660e01b815260040160006040518083038186803b1580156122f957600080fd5b505afa15801561230d573d6000803e3d6000fd5b505050506040513d6000823e601f3d908101601f191682016040526123359190810190613d2a565b91505090565b6000612346826109e4565b506000828152606f60205260408120600101546123649043906132a3565b6000848152606f60205260408120600301549192509061238490836130f1565b6000858152606f60205260409020600201549091506123a3908261335c565b6000858152606f6020526040902060020181905592505050919050565b606c5481565b6066546001600160a01b031681565b6000806123e18361242b565b905060006123ee84611577565b90508082111561240b5761240282826132a3565b92505050610a36565b600092505050610a36565b6000908152606f602052604090206003015490565b6000818152606e6020526040812060010154610ec0906001600160a01b0316610e41565b606554604051630935e01b60e21b81526001600160a01b03909116906324d7806c9061247f903390600401613fcc565b60206040518083038186803b15801561249757600080fd5b505afa1580156124ab573d6000803e3d6000fd5b505050506040513d601f19601f820116820180604052508101906124cf9190613e0a565b6124eb5760405162461bcd60e51b8152600401610adc9061428d565b6000828152606f6020526040902043600182015581905561250b8261233b565b6000928352606f60205260409092206002019190915550565b6069546001600160a01b031681565b61253b613358565b6001600160a01b031661254c6120de565b6001600160a01b0316146125725760405162461bcd60e51b8152600401610adc90614681565b6001600160a01b0383161580159061259257506001600160a01b03821615155b80156125a657506001600160a01b03811615155b6125c25760405162461bcd60e51b8152600401610adc906144ad565b606580546001600160a01b039485166001600160a01b031991821617909155606680549385169382169390931790925560678054919093169116179055565b606554604051630935e01b60e21b81526001600160a01b03909116906324d7806c90612631903390600401613fcc565b60206040518083038186803b15801561264957600080fd5b505afa15801561265d573d6000803e3d6000fd5b505050506040513d601f19601f820116820180604052508101906126819190613e0a565b61269d5760405162461bcd60e51b8152600401610adc9061428d565b606980546001600160a01b0319166001600160a01b0392909216919091179055565b606554604051630935e01b60e21b81526001600160a01b03909116906324d7806c906126ef903390600401613fcc565b60206040518083038186803b15801561270757600080fd5b505afa15801561271b573d6000803e3d6000fd5b505050506040513d601f19601f8201168201806040525081019061273f9190613e0a565b61275b5760405162461bcd60e51b8152600401610adc9061428d565b606c55565b6068546000906001600160a01b031661278b5760405162461bcd60e51b8152600401610adc90614245565b6068546040516321f8a72160e01b81526001600160a01b03909116906321f8a721906127bf90600160f81b9060040161419d565b60206040518083038186803b15801561098f57600080fd5b606d54600160201b900460ff16156127ee57600080fd5b606d805460ff60201b1916600160201b17908190553360009081526070602052604090205463ffffffff918216916128289143916132a316565b10156128465760405162461bcd60e51b8152600401610adc906141f7565b6000828152606e602052604090819020600301549051636eb1769f60e11b815282916001600160a01b03169063dd62ed3e906128889033903090600401613fe0565b60206040518083038186803b1580156128a057600080fd5b505afa1580156128b4573d6000803e3d6000fd5b505050506040513d601f19601f820116820180604052508101906128d89190613e42565b10156128f65760405162461bcd60e51b8152600401610adc906145f5565b6000828152606e602052604090206003015461291d906001600160a01b03163330846131bf565b6129268261233b565b506000612943670de0b6b3a7640000610a1961167a866000611bfd565b6000848152606f60205260408120600401549192509061296e9060129062010000900460ff166132a3565b9050600061298083600a84900a613132565b9050600061298d866123d5565b90508082111561299b578091505b6000868152606f60205260408120600401546129c49061271090610a1990869061ffff166130f1565b6000888152606e60205260409020549091506129ea906001600160a01b03168233613381565b60006129f684836132a3565b6000898152606e6020526040902054606654919250612a23916001600160a01b0391821691849116613381565b6000888152606e602052604090819020600301549051630852cd8d60e31b81526001600160a01b03909116906342966c6890612a63908a9060040161419d565b600060405180830381600087803b158015612a7d57600080fd5b505af1158015612a91573d6000803e3d6000fd5b50503360008181526070602052604090819020439055517f9c8ce079d38dc08e2831c9fa769dff19e30a8b2d69c4924a73129038eee8fcab93506120bf92508b91908b908790879061483f565b60706020526000908152604090205481565b612af8613358565b6001600160a01b0316612b096120de565b6001600160a01b031614612b2f5760405162461bcd60e51b8152600401610adc90614681565b6001600160a01b038116612b555760405162461bcd60e51b8152600401610adc906142ba565b6033546040516001600160a01b038084169216907f8be0079c531659141344cd1fd0a4f28419497f9722a3daafe3b4186f6b6457e090600090a3603380546001600160a01b0319166001600160a01b0392909216919091179055565b6068546060906001600160a01b0316612bdc5760405162461bcd60e51b8152600401610adc90614245565b6000612be6612760565b9050806001600160a01b031663f561ae416040518163ffffffff1660e01b815260040160006040518083038186803b1580156122f957600080fd5b6067546001600160a01b031681565b600054610100900460ff1680612c495750612c4961368a565b80612c57575060005460ff16155b612c735760405162461bcd60e51b8152600401610adc9061455c565b600054610100900460ff16158015612c9e576000805460ff1961ff0019909116610100171660011790555b612ca661369b565b606580546001600160a01b038088166001600160a01b0319928316179092556066805487841690831617905560678054868416908316179055606a805492851692909116919091179055606d805463ffffffff1916600317905562243394606c558015612d19576000805461ff00191690555b5050505050565b606d54600160201b900460ff1681565b606554604051630935e01b60e21b81526001600160a01b03909116906324d7806c90612d60903390600401613fcc565b60206040518083038186803b158015612d7857600080fd5b505afa158015612d8c573d6000803e3d6000fd5b505050506040513d601f19601f82011682018060405250810190612db09190613e0a565b612dcc5760405162461bcd60e51b8152600401610adc9061428d565b606d54600160201b900460ff1615612de357600080fd5b606d805460ff60201b1916600160201b1790556067546001600160a01b0316612e1e5760405162461bcd60e51b8152600401610adc906146b6565b6068546001600160a01b0316612e465760405162461bcd60e51b8152600401610adc90614245565b606b80546000908152606e602052604080822080546001600160a01b03808e166001600160a01b031992831617909255935483529181902060010180548b841694169390931790925560675491516346845d6f60e11b8152911690638d08bade90612eb9908990899033906004016141b9565b602060405180830381600087803b158015612ed357600080fd5b505af1158015612ee7573d6000803e3d6000fd5b505050506040513d601f19601f82011682018060405250810190612f0b9190613b57565b606b546000908152606e60205260409081902060020180546001600160a01b0319166001600160a01b0393841617905560675490516311456f4f60e31b8152911690638a2b7a7890612f65908790879033906004016141b9565b602060405180830381600087803b158015612f7f57600080fd5b505af1158015612f93573d6000803e3d6000fd5b505050506040513d601f19601f82011682018060405250810190612fb79190613b57565b606b80546000908152606e6020908152604080832060030180546001600160a01b0319166001600160a01b03969096169590951790945582548252606f90528281206004908101805462ff000019166201000060ff8816021790558254825283822086905582548252838220436001919091015582548252838220670de0b6b3a76400006002909101558254825292902090910180546126de61ffff1990911617905554613064906109e4565b50606b546000818152606e602052604090819020600281015460039091015491517f90c97ca7d521ad09559475598e9202d092b7388790513e364cdac53a45d8ce4a936130c19390926001600160a01b039081169291169061486b565b60405180910390a1606b546130d790600161335c565b606b555050606d805460ff60201b19169055505050505050565b60008261310057506000610ec0565b8282028284828161310d57fe5b041461312b5760405162461bcd60e51b8152600401610adc90614640565b9392505050565b60008082116131535760405162461bcd60e51b8152600401610adc90614476565b81838161315c57fe5b049392505050565b6131ba8363a9059cbb60e01b8484604051602401613183929190613ffa565b60408051601f198184030181529190526020810180516001600160e01b03166001600160e01b03199093169290921790915261372d565b505050565b612245846323b872dd60e01b8585856040516024016131839392919061403e565b8015806132685750604051636eb1769f60e11b81526001600160a01b0384169063dd62ed3e906132169030908690600401613fe0565b60206040518083038186803b15801561322e57600080fd5b505afa158015613242573d6000803e3d6000fd5b505050506040513d601f19601f820116820180604052508101906132669190613e42565b155b6132845760405162461bcd60e51b8152600401610adc906147b6565b6131ba8363095ea7b360e01b8484604051602401613183929190613ffa565b6000828211156132c55760405162461bcd60e51b8152600401610adc906143c9565b50900390565b604080516000808252602082019092526001600160a01b0384169083906040516132f59190613fb0565b60006040518083038185875af1925050503d8060008114613332576040519150601f19603f3d011682016040523d82523d6000602084013e613337565b606091505b50509050806131ba5760405162461bcd60e51b8152600401610adc90614400565b3390565b60008282018381101561312b5760405162461bcd60e51b8152600401610adc9061434e565b60685460408051630261bf8b60e01b815290516000926001600160a01b031691630261bf8b916004808301926020929190829003018186803b1580156133c657600080fd5b505afa1580156133da573d6000803e3d6000fd5b505050506040513d601f19601f820116820180604052508101906133fe9190613b57565b9050613409846137bc565b93506000806001600160a01b03861673d0a1e359811322d97991e03f863a0c30c2cf029c14156135fe5761343b61168b565b604051631a4ca37b60e21b81529092506001600160a01b038416906369328dec9061346e90899089903090600401614062565b602060405180830381600087803b15801561348857600080fd5b505af115801561349c573d6000803e3d6000fd5b505050506040513d601f19601f820116820180604052508101906134c09190613e42565b506040516370a0823160e01b815260009073d0a1e359811322d97991e03f863a0c30c2cf029c906370a08231906134fb903090600401613fcc565b60206040518083038186803b15801561351357600080fd5b505afa158015613527573d6000803e3d6000fd5b505050506040513d601f19601f8201168201806040525081019061354b9190613e42565b60695490915061357a9073d0a1e359811322d97991e03f863a0c30c2cf029c906001600160a01b031683613164565b6069546040516378a1085360e11b81526001600160a01b039091169063f14210a6906135aa90849060040161419d565b600060405180830381600087803b1580156135c457600080fd5b505af11580156135d8573d6000803e3d6000fd5b505050506135e461168b565b9150828211156135f8576135f885876132cb565b50613682565b604051631a4ca37b60e21b81526001600160a01b038416906369328dec9061362e90899089908990600401614062565b602060405180830381600087803b15801561364857600080fd5b505af115801561365c573d6000803e3d6000fd5b505050506040513d601f19601f820116820180604052508101906136809190613e42565b505b505050505050565b600061369530613802565b15905090565b600054610100900460ff16806136b457506136b461368a565b806136c2575060005460ff16155b6136de5760405162461bcd60e51b8152600401610adc9061455c565b600054610100900460ff16158015613709576000805460ff1961ff0019909116610100171660011790555b613711613808565b613719613889565b8015611574576000805461ff001916905550565b6060613782826040518060400160405280602081526020017f5361666545524332303a206c6f772d6c6576656c2063616c6c206661696c6564815250856001600160a01b03166139639092919063ffffffff16565b8051909150156131ba57808060200190518101906137a09190613e0a565b6131ba5760405162461bcd60e51b8152600401610adc90614724565b60006001600160a01b03821673eeeeeeeeeeeeeeeeeeeeeeeeeeeeeeeeeeeeeeee14156137fe575073d0a1e359811322d97991e03f863a0c30c2cf029c610a36565b5090565b3b151590565b600054610100900460ff1680613821575061382161368a565b8061382f575060005460ff16155b61384b5760405162461bcd60e51b8152600401610adc9061455c565b600054610100900460ff16158015613719576000805460ff1961ff0019909116610100171660011790558015611574576000805461ff001916905550565b600054610100900460ff16806138a257506138a261368a565b806138b0575060005460ff16155b6138cc5760405162461bcd60e51b8152600401610adc9061455c565b600054610100900460ff161580156138f7576000805460ff1961ff0019909116610100171660011790555b6000613901613358565b603380546001600160a01b0319166001600160a01b038316908117909155604051919250906000907f8be0079c531659141344cd1fd0a4f28419497f9722a3daafe3b4186f6b6457e0908290a3508015611574576000805461ff001916905550565b6060613972848460008561397a565b949350505050565b60608247101561399c5760405162461bcd60e51b8152600401610adc90614430565b6139a585613802565b6139c15760405162461bcd60e51b8152600401610adc906146ed565b60006060866001600160a01b031685876040516139de9190613fb0565b60006040518083038185875af1925050503d8060008114613a1b576040519150601f19603f3d011682016040523d82523d6000602084013e613a20565b606091505b5091509150613a30828286613a3b565b979650505050505050565b60608315613a4a57508161312b565b825115613a5a5782518084602001fd5b8160405162461bcd60e51b8152600401610adc91906141a6565b8035610ec08161498d565b8051610ec08161498d565b600082601f830112613a9a578081fd5b8135613aad613aa88261493d565b614916565b9150808252836020828501011115613ac457600080fd5b8060208401602084013760009082016020015292915050565b600082601f830112613aed578081fd5b8151613afb613aa88261493d565b9150808252836020828501011115613b1257600080fd5b613b23816020840160208601614961565b5092915050565b803560ff81168114610ec057600080fd5b600060208284031215613b4c578081fd5b813561312b8161498d565b600060208284031215613b68578081fd5b815161312b8161498d565b600080600060608486031215613b87578182fd5b8335613b928161498d565b92506020840135613ba28161498d565b91506040840135613bb28161498d565b809150509250925092565b60008060008060808587031215613bd2578081fd5b8435613bdd8161498d565b93506020850135613bed8161498d565b92506040850135613bfd8161498d565b91506060850135613c0d8161498d565b939692955090935050565b600080600080600080600080610100898b031215613c34578384fd5b613c3e8a8a613a74565b9750613c4d8a60208b01613a74565b9650604089013567ffffffffffffffff80821115613c69578586fd5b613c758c838d01613a8a565b975060608b0135915080821115613c8a578586fd5b613c968c838d01613a8a565b965060808b0135915080821115613cab578586fd5b613cb78c838d01613a8a565b955060a08b0135915080821115613ccc578485fd5b50613cd98b828c01613a8a565b93505060c08901359150613cf08a60e08b01613b2a565b90509295985092959890939650565b60008060408385031215613d11578182fd5b8235613d1c8161498d565b946020939093013593505050565b60006020808385031215613d3c578182fd5b825167ffffffffffffffff80821115613d53578384fd5b818501915085601f830112613d66578384fd5b815181811115613d74578485fd5b613d818485830201614916565b81815284810190848601875b84811015613dfb5781518701604080601f19838f03011215613dad578a8bfd5b613db681614916565b8a83015189811115613dc6578c8dfd5b613dd48f8d83870101613add565b825250613de38e838501613a7f565b818c0152865250509287019290870190600101613d8d565b50909998505050505050505050565b600060208284031215613e1b578081fd5b8151801515811461312b578182fd5b600060208284031215613e3b578081fd5b5035919050565b600060208284031215613e53578081fd5b5051919050565b60008060408385031215613e6c578182fd5b82359150602083013561ffff81168114613e84578182fd5b809150509250929050565b60008060408385031215613ea1578182fd5b50508035926020909101359150565b6000806000806000806000806000806101408b8d031215613ecf578384fd5b8a51995060208b0151985060408b0151975060608b0151965060808b0151955060a08b0151945060c08b0151935060e08b015192506101008b015191506101208b015164ffffffffff81168114613f24578182fd5b809150509295989b9194979a5092959850565b60008060408385031215613f49578182fd5b82359150602083013560ff81168114613e84578182fd5b600060208284031215613f71578081fd5b813563ffffffff8116811461312b578182fd5b60008151808452613f9c816020860160208601614961565b601f01601f19169290920160200192915050565b60008251613fc2818460208701614961565b9190910192915050565b6001600160a01b0391909116815260200190565b6001600160a01b0392831681529116602082015260400190565b6001600160a01b03929092168252602082015260400190565b6001600160a01b03948516815292841660208401529083166040830152909116606082015260800190565b6001600160a01b039384168152919092166020820152604081019190915260600190565b6001600160a01b0393841681526020810192909252909116604082015260600190565b6001600160a01b03948516815260208101939093529216604082015261ffff909116606082015260800190565b606080825284519082018190526000906020906080840190828801845b828110156140f45781516001600160a01b0316845292840192908401906001016140cf565b50505090830194909452506001600160a01b0391909116604090910152919050565b60208082528251828201819052600091906040908185019080840286018301878501865b8381101561418457888303603f190185528151805187855261415e88860182613f84565b918901516001600160a01b0316948901949094529487019492509086019060010161413a565b509098975050505050505050565b901515815260200190565b90815260200190565b60006020825261312b6020830184613f84565b6000606082526141cc6060830186613f84565b82810360208401526141de8186613f84565b91505060018060a01b0383166040830152949350505050565b6020808252602e908201527f4a416176653a2072656465656d2074696d656f7574206e6f742065787069726560408201526d321037b7103a3930b731b432902160911b606082015260800190565b60208082526028908201527f4a416176653a20736574206c656e64696e6720706f6f6c206164647265737320604082015267383937bb34b232b960c11b606082015260800190565b6020808252601390820152722520b0bb329d103737ba1030b71020b236b4b760691b604082015260600190565b60208082526026908201527f4f776e61626c653a206e6577206f776e657220697320746865207a65726f206160408201526564647265737360d01b606082015260800190565b6020808252602e908201527f4a416176653a2072656465656d2074696d656f7574206e6f742065787069726560408201526d64206f6e207472616e636865204160901b606082015260800190565b6020808252601b908201527f536166654d6174683a206164646974696f6e206f766572666c6f770000000000604082015260600190565b60208082526024908201527f4a416176653a206d73672e76616c7565206e6f7420657175616c20746f20616d6040820152631bdd5b9d60e21b606082015260800190565b6020808252601e908201527f536166654d6174683a207375627472616374696f6e206f766572666c6f770000604082015260600190565b60208082526016908201527515120811551217d514905394d1915497d1905253115160521b604082015260600190565b60208082526026908201527f416464726573733a20696e73756666696369656e742062616c616e636520666f6040820152651c8818d85b1b60d21b606082015260800190565b6020808252601a908201527f536166654d6174683a206469766973696f6e206279207a65726f000000000000604082015260600190565b6020808252601690820152754a416176653a20636865636b2061646472657373657360501b604082015260600190565b60208082526018908201527f4a416176653a20746f6f206d616e7920646563696d616c730000000000000000604082015260600190565b60208082526028908201527f4a416176653a20616c6c6f77616e6365206661696c656420627579696e6720746040820152673930b731b432902160c11b606082015260800190565b6020808252602e908201527f496e697469616c697a61626c653a20636f6e747261637420697320616c72656160408201526d191e481a5b9a5d1a585b1a5e995960921b606082015260800190565b6020808252602b908201527f4a416176653a20616c6c6f77616e6365206661696c65642072656465656d696e60408201526a67207472616e636865204160a81b606082015260800190565b6020808252602b908201527f4a416176653a20616c6c6f77616e6365206661696c65642072656465656d696e60408201526a33903a3930b731b432902160a91b606082015260800190565b60208082526021908201527f536166654d6174683a206d756c7469706c69636174696f6e206f766572666c6f6040820152607760f81b606082015260800190565b6020808252818101527f4f776e61626c653a2063616c6c6572206973206e6f7420746865206f776e6572604082015260600190565b6020808252601f908201527f4a416176653a20736574207472616e63686520657468206465706c6f79657200604082015260600190565b6020808252601d908201527f416464726573733a2063616c6c20746f206e6f6e2d636f6e7472616374000000604082015260600190565b6020808252602a908201527f5361666545524332303a204552433230206f7065726174696f6e20646964206e6040820152691bdd081cdd58d8d9595960b21b606082015260800190565b60208082526028908201527f4a416176653a20616c6c6f77616e6365206661696c656420627579696e67207460408201526772616e636865204160c01b606082015260800190565b60208082526036908201527f5361666545524332303a20617070726f76652066726f6d206e6f6e2d7a65726f60408201527520746f206e6f6e2d7a65726f20616c6c6f77616e636560501b606082015260800190565b61ffff91909116815260200190565b9384526001600160a01b039290921660208401526040830152606082015260800190565b9485526001600160a01b0393909316602085015260408401919091526060830152608082015260a00190565b9283526001600160a01b03918216602084015216604082015260600190565b95865260208601949094526040850192909252606084015261ffff16608083015260ff1660a082015260c00190565b998a5260208a019890985260408901969096526060880194909452608087019290925260a086015260c085015260e084015261010083015264ffffffffff166101208201526101400190565b63ffffffff91909116815260200190565b60405181810167ffffffffffffffff8111828210171561493557600080fd5b604052919050565b600067ffffffffffffffff821115614953578081fd5b50601f01601f191660200190565b60005b8381101561497c578181015183820152602001614964565b838111156122455750506000910152565b6001600160a01b038116811461157457600080fdfea26469706673582212200d2e622ad0bac29206e863930c002f51733062732171c3f7494c1021d096673864736f6c634300060c0033",
  "immutableReferences": {},
  "source": "// SPDX-License-Identifier: MIT\n/**\n * Created on 2021-02-11\n * @summary: Jibrel Aave Tranche Protocol\n * @author: Jibrel Team\n */\npragma solidity ^0.6.12;\npragma experimental ABIEncoderV2; // needed for getAllAtokens and getAllReservesTokens\n\nimport \"@openzeppelin/contracts-upgradeable/token/ERC20/SafeERC20Upgradeable.sol\";\nimport \"./interfaces/IAaveProtocolDataProvider.sol\";\nimport \"./interfaces/ILendingPool.sol\";\nimport \"./interfaces/ILendingPoolAddressesProvider.sol\";\nimport \"./TransferETHHelper.sol\";\nimport \"./IJPriceOracle.sol\";\nimport \"./IJTrancheTokens.sol\";\nimport \"./IJTranchesDeployer.sol\";\nimport \"./JAaveStorage.sol\";\nimport \"./IJAave.sol\";\nimport \"./TokenInterface.sol\";\nimport \"./interfaces/IWETHGateway.sol\";\nimport \"./interfaces/IAaveIncentivesController.sol\";\n\n\ncontract JAave is OwnableUpgradeable, JAaveStorage, IJAave {\n    using SafeMathUpgradeable for uint256;\n\n    /**\n     * @dev contract initializer\n     * @param _priceOracle price oracle address\n     * @param _feesCollector fees collector contract address\n     * @param _tranchesDepl tranches deployer contract address\n     */\n    function initialize(address _priceOracle, \n            address _feesCollector, \n            address _tranchesDepl,\n            address _aaveIncentiveController) public initializer() {\n        OwnableUpgradeable.__Ownable_init();\n        priceOracleAddress = _priceOracle;\n        feesCollectorAddress = _feesCollector;\n        tranchesDeployerAddress = _tranchesDepl;\n        aaveIncentiveControllerAddress = _aaveIncentiveController;\n        redeemTimeout = 3; //default\n        totalBlocksPerYear = 2372500;\n    }\n\n    /**\n     * @dev admins modifiers\n     */\n    modifier onlyAdmins() {\n        require(IJPriceOracle(priceOracleAddress).isAdmin(msg.sender), \"JAave: not an Admin\");\n        _;\n    }\n\n    /**\n     * @dev locked modifiers\n     */\n    modifier locked() {\n        require(!fLock);\n        fLock = true;\n        _;\n        fLock = false;\n    }\n\n    fallback() external payable {}\n    receive() external payable {}\n\n    /**\n     * @dev set new addresses for price oracle, fees collector and tranche deployer \n     * @param _priceOracle price oracle address\n     * @param _feesCollector fees collector contract address\n     * @param _tranchesDepl tranches deployer contract address\n     */\n    function setNewEnvironment(address _priceOracle, \n            address _feesCollector, \n            address _tranchesDepl) external onlyOwner{\n        require((_priceOracle != address(0)) && (_feesCollector != address(0)) && (_tranchesDepl != address(0)), \"JAave: check addresses\");\n        priceOracleAddress = _priceOracle;\n        feesCollectorAddress = _feesCollector;\n        tranchesDeployerAddress = _tranchesDepl;\n    }\n\n    /**\n     * @dev set how many blocks will be produced per year on the blockchain \n     * @param _newValue new value\n     */\n    function setBlocksPerYear(uint256 _newValue) external onlyAdmins {\n        totalBlocksPerYear = _newValue;\n    }\n\n    /**\n     * @dev set Aave Pool Address Provider\n     * @param _addressProviderContract aave lending pool address provider contract address (kovan: 0x88757f2f99175387aB4C6a4b3067c77A695b0349)\n     */\n    function setAavePoolAddressProvider(address _addressProviderContract) external onlyAdmins {\n        lendingPoolAddressProvider = _addressProviderContract;\n    }\n\n    /**\n     * @dev get Aave Pool Address Provider starting from lending pool address provider\n     */\n    function getDataProvider() public view returns(IAaveProtocolDataProvider) {\n        require(lendingPoolAddressProvider != address(0), \"JAave: set lending pool address provider\");\n        return IAaveProtocolDataProvider(ILendingPoolAddressesProvider(lendingPoolAddressProvider)\n                    .getAddress(0x0100000000000000000000000000000000000000000000000000000000000000));\n    }\n\n    /**\n     * @dev get Aave all tokens\n     */\n    function getAllATokens() external view returns(IAaveProtocolDataProvider.TokenData[] memory) {\n        require(lendingPoolAddressProvider != address(0), \"JAave: set lending pool address provider\");\n        IAaveProtocolDataProvider aaveProtocolDataProvider = getDataProvider();\n        return aaveProtocolDataProvider.getAllATokens();\n    }\n\n    /**\n     * @dev get Aave all reserved tokens\n     */\n    function getAllReservesTokens() external view returns(IAaveProtocolDataProvider.TokenData[] memory) {\n        require(lendingPoolAddressProvider != address(0), \"JAave: set lending pool address provider\");\n        IAaveProtocolDataProvider aaveProtocolDataProvider = getDataProvider();\n        return aaveProtocolDataProvider.getAllReservesTokens();\n    }\n\n    /**\n     * @dev get Aave reserve Data for an asset\n     * liquidityRate is the return percentage for that asset (multiply by 10^27)\n     */\n    function getAaveReserveData(uint256 _trancheNum) external view returns(uint256 availableLiquidity, uint256 totalStableDebt,\n            uint256 totalVariableDebt, uint256 liquidityRate, uint256 variableBorrowRate, uint256 stableBorrowRate,\n            uint256 averageStableBorrowRate, uint256 liquidityIndex, uint256 variableBorrowIndex,\n            uint40 lastUpdateTimestamp) {\n        require(lendingPoolAddressProvider != address(0), \"JAave: set lending pool address provider\");\n        IAaveProtocolDataProvider aaveProtocolDataProvider = getDataProvider();\n        address asset = trancheAddresses[_trancheNum].buyerCoinAddress;\n        if (trancheAddresses[_trancheNum].buyerCoinAddress == ETH_ADDR)\n            asset = WETH_ADDRESS;\n        return aaveProtocolDataProvider.getReserveData(asset);\n    }\n\n    function getLendingPool() external view returns (address) {\n        return ILendingPoolAddressesProvider(lendingPoolAddressProvider).getLendingPool();\n    }\n/*\n    /**\n     *  @notice User deposits tokens to the Aave protocol\n     *  @dev User needs to approve the DSProxy to pull the _tokenAddr tokens\n     *  @param _tokenAddr The address of the token to be deposited\n     *  @param _amount Amount of tokens to be deposited\n     */\n/*    function aaveDeposit(address _tokenAddr, uint256 _amount) public payable {\n        address lendingPool = ILendingPoolAddressesProvider(lendingPoolAddressProvider).getLendingPool();\n\n        if (_tokenAddr == ETH_ADDR) {\n            require(msg.value == _amount);\n            TokenInterface(WETH_ADDRESS).deposit{value: _amount}();\n            _tokenAddr = WETH_ADDRESS;\n        } else {\n            SafeERC20Upgradeable.safeTransferFrom(IERC20Upgradeable(_tokenAddr), msg.sender, address(this), _amount);\n        }\n\n        SafeERC20Upgradeable.safeApprove(IERC20Upgradeable(_tokenAddr), lendingPool, _amount);\n        ILendingPool(lendingPool).deposit(_tokenAddr, _amount, address(this), AAVE_REFERRAL_CODE);\n    }\n*/\n    function changeToWeth(address _token) private pure returns(address) {\n        if (_token == ETH_ADDR) {\n            return WETH_ADDRESS;\n        }\n        return _token;\n    }\n\n    /**\n     * @dev set Weth Gateway contract address\n     * @param _wethGatewayAddress weth gateway contract address\n     */\n    function setWETHGatewayAddress(address _wethGatewayAddress) external onlyAdmins {\n        wethGatewayAddress = _wethGatewayAddress;\n    }\n\n    /** \n     * @dev User withdraws tokens from the Aave protocol\n     * @param _tokenAddr The address of the token to be withdrawn\n     * @param _amount Amount of tokens to be withdrawn\n     * @param _to receiver address\n     */ \n    function aaveWithdraw(address _tokenAddr, uint256 _amount, address _to) internal {\n        address lendingPool = ILendingPoolAddressesProvider(lendingPoolAddressProvider).getLendingPool();\n        _tokenAddr = changeToWeth(_tokenAddr);\n\n        uint256 oldBalance;\n        uint256 newBalance;\n        if (_tokenAddr == WETH_ADDRESS) {\n            // get eth balance\n            oldBalance = getEthBalance();\n            // if weth, pull to proxy and return ETH to user\n            ILendingPool(lendingPool).withdraw(_tokenAddr, _amount, address(this));\n            // from Weth to Eth, all the Weth balance --> no Weth in contract\n            // TokenInterface(WETH_ADDRESS).withdraw(IERC20Upgradeable(WETH_ADDRESS).balanceOf(address(this)));\n            uint256 wethBal = IERC20Upgradeable(WETH_ADDRESS).balanceOf(address(this));\n            SafeERC20Upgradeable.safeTransfer(IERC20Upgradeable(WETH_ADDRESS), wethGatewayAddress, wethBal);\n            IWETHGateway(wethGatewayAddress).withdrawETH(wethBal);\n            // get new eth balance\n            newBalance = getEthBalance();\n            if (newBalance > oldBalance)\n                TransferETHHelper.safeTransferETH(_to, _amount);\n        } else {\n            // if not eth send directly to user\n            ILendingPool(lendingPool).withdraw(_tokenAddr, _amount, _to);\n        }\n    }\n\n    /**\n     * @dev check if a cToken is allowed or not\n     * @param _trancheNum tranche number\n     * @param _underlyingDec underlying token decimals\n     */\n    function setDecimals(uint256 _trancheNum, uint8 _underlyingDec) external onlyAdmins {\n        require(_underlyingDec <= 18, \"JAave: too many decimals\");\n        trancheParameters[_trancheNum].underlyingDecimals = _underlyingDec;\n    }\n\n    /**\n     * @dev set tranche redemption percentage\n     * @param _trancheNum tranche number\n     * @param _redeemPercent user redemption percent\n     */\n    function setTrancheRedemptionPercentage(uint256 _trancheNum, uint16 _redeemPercent) external onlyAdmins {\n        trancheParameters[_trancheNum].redemptionPercentage = _redeemPercent;\n    }\n\n    /**\n     * @dev set redemption timeout\n     * @param _blockNum timeout (in block numbers)\n     */\n    function setRedemptionTimeout(uint32 _blockNum) external onlyAdmins {\n        redeemTimeout = _blockNum;\n    }\n\n    /**\n     * @dev set tranche redemption percentage scaled by 1e18\n     * @param _trancheNum tranche number\n     * @param _newTrAPercentage new tranche A RPB\n     */\n    function setTrancheAFixedPercentage(uint256 _trancheNum, uint256 _newTrAPercentage) external onlyAdmins {\n        trancheParameters[_trancheNum].trancheALastActionBlock = block.number;\n        trancheParameters[_trancheNum].trancheAFixedPercentage = _newTrAPercentage;\n        trancheParameters[_trancheNum].storedTrancheAPrice = setTrancheAExchangeRate(_trancheNum);\n    }\n\n    function addTrancheToProtocol(address _buyerCoinAddress, \n            address _aTokenAddress, \n            string memory _nameA, \n            string memory _symbolA, \n            string memory _nameB, \n            string memory _symbolB, \n            uint256 _fixedRpb, \n            uint8 _underlyingDec) external onlyAdmins locked {\n        require(tranchesDeployerAddress != address(0), \"JAave: set tranche eth deployer\");\n        require(lendingPoolAddressProvider != address(0), \"JAave: set lending pool address provider\");\n\n        trancheAddresses[tranchePairsCounter].buyerCoinAddress = _buyerCoinAddress;\n        trancheAddresses[tranchePairsCounter].aTokenAddress = _aTokenAddress;\n        trancheAddresses[tranchePairsCounter].ATrancheAddress = \n                IJTranchesDeployer(tranchesDeployerAddress).deployNewTrancheATokens(_nameA, _symbolA, msg.sender);\n        trancheAddresses[tranchePairsCounter].BTrancheAddress = \n                IJTranchesDeployer(tranchesDeployerAddress).deployNewTrancheBTokens(_nameB, _symbolB, msg.sender); \n        \n        trancheParameters[tranchePairsCounter].underlyingDecimals = _underlyingDec;\n        trancheParameters[tranchePairsCounter].trancheAFixedPercentage = _fixedRpb;\n        trancheParameters[tranchePairsCounter].trancheALastActionBlock = block.number;\n        // if we would like to have always 18 decimals\n        trancheParameters[tranchePairsCounter].storedTrancheAPrice = uint256(1e18);\n\n        trancheParameters[tranchePairsCounter].redemptionPercentage = 9950;  //default value 99.5%\n\n        calcRPBFromPercentage(tranchePairsCounter); // initialize tranche A RPB\n\n        emit TrancheAddedToProtocol(tranchePairsCounter, trancheAddresses[tranchePairsCounter].ATrancheAddress, trancheAddresses[tranchePairsCounter].BTrancheAddress);\n\n        tranchePairsCounter = tranchePairsCounter.add(1);\n    } \n\n    /**\n     * @dev get Tranche A exchange rate\n     * @param _trancheNum tranche number\n     * @return tranche A token current price\n     */\n    function setTrancheAExchangeRate(uint256 _trancheNum) public returns (uint256) {\n        calcRPBFromPercentage(_trancheNum);\n        uint256 deltaBlocks = (block.number).sub(trancheParameters[_trancheNum].trancheALastActionBlock);\n        uint256 deltaPrice = (trancheParameters[_trancheNum].trancheACurrentRPB).mul(deltaBlocks);\n        trancheParameters[_trancheNum].storedTrancheAPrice = (trancheParameters[_trancheNum].storedTrancheAPrice).add(deltaPrice);\n        return trancheParameters[_trancheNum].storedTrancheAPrice;\n    }\n\n    /**\n     * @dev get Tranche A exchange rate\n     * @param _trancheNum tranche number\n     * @return tranche A token current price\n     */\n    function getTrancheAExchangeRate(uint256 _trancheNum) public view returns (uint256) {\n        return trancheParameters[_trancheNum].storedTrancheAPrice;\n    }\n\n    /**\n     * @dev get RPB for a given percentage (expressed in 1e18)\n     * @param _trancheNum tranche number\n     * @return RPB for a fixed percentage\n     */\n    function getTrancheACurrentRPB(uint256 _trancheNum) external view returns (uint256) {\n        return trancheParameters[_trancheNum].trancheACurrentRPB;\n    }\n\n    /**\n     * @dev get Tranche A exchange rate (tokens with 18 decimals)\n     * @param _trancheNum tranche number\n     * @return tranche A token current price\n     */\n    function calcRPBFromPercentage(uint256 _trancheNum) public returns (uint256) {\n        // if normalized price in tranche A price, everything should be scaled to 1e18 \n        trancheParameters[_trancheNum].trancheACurrentRPB = trancheParameters[_trancheNum].storedTrancheAPrice\n                        .mul(trancheParameters[_trancheNum].trancheAFixedPercentage).div(totalBlocksPerYear).div(1e18);\n        return trancheParameters[_trancheNum].trancheACurrentRPB;\n    }\n\n    /**\n     * @dev get Tranche A value in underlying tokens\n     * @param _trancheNum tranche number\n     * @return trANormValue tranche A value in underlying tokens\n     */\n    function getTrAValue(uint256 _trancheNum) public view returns (uint256 trANormValue) {\n        uint256 totASupply = IERC20Upgradeable(trancheAddresses[_trancheNum].ATrancheAddress).totalSupply();\n        uint256 diffDec = uint256(18).sub(uint256(trancheParameters[_trancheNum].underlyingDecimals));\n        if (diffDec > 0)\n            trANormValue = totASupply.mul(getTrancheAExchangeRate(_trancheNum)).div(1e18).div(10 ** diffDec);\n        else    \n            trANormValue = totASupply.mul(getTrancheAExchangeRate(_trancheNum)).div(1e18);\n        return trANormValue;\n    }\n\n    /**\n     * @dev get Tranche B value in underlying tokens\n     * @param _trancheNum tranche number\n     * @return tranche B value in underlying tokens\n     */\n    function getTrBValue(uint256 _trancheNum) public view returns (uint256) {\n        uint256 totProtValue = getTotalValue(_trancheNum);\n        uint256 totTrAValue = getTrAValue(_trancheNum);\n        if (totProtValue > totTrAValue) {\n            return totProtValue.sub(totTrAValue);\n        } else\n            return 0;\n    }\n\n    /**\n     * @dev get Tranche total value in underlying tokens\n     * @param _trancheNum tranche number\n     * @return tranche total value in underlying tokens\n     */\n    function getTotalValue(uint256 _trancheNum) public view returns (uint256) {\n        return getTokenBalance(trancheAddresses[_trancheNum].aTokenAddress);\n    }\n\n    /**\n     * @dev get Tranche B exchange rate\n     * @param _trancheNum tranche number\n     * @param _newAmount new amount entering tranche B (underlying token decimals)\n     * @return tbPrice tranche B token current price\n     */\n    function getTrancheBExchangeRate(uint256 _trancheNum, uint256 _newAmount) public view returns (uint256 tbPrice) {\n        // set amount of tokens to be minted via taToken price\n        // Current tbDai price = ((aDai-(aSupply X taPrice)) / bSupply)\n        // where: aDai = How much aDai we hold in the protocol\n        // aSupply = Total number of taDai in protocol\n        // taPrice = taDai / Dai price\n        // bSupply = Total number of tbDai in protocol\n        uint256 totTrBValue;\n\n        uint256 totBSupply = IERC20Upgradeable(trancheAddresses[_trancheNum].BTrancheAddress).totalSupply(); // 18 decimals\n        // if normalized price in tranche A price, everything should be scaled to 1e18 \n        uint256 underlyingDec = uint256(trancheParameters[_trancheNum].underlyingDecimals);\n        uint256 normAmount = _newAmount;\n        if (underlyingDec < 18)\n            normAmount = _newAmount.mul(10 ** uint256(18).sub(underlyingDec));\n        uint256 newBSupply = totBSupply.add(normAmount); // 18 decimals\n\n        uint256 totProtValue = getTotalValue(_trancheNum).add(_newAmount); //underlying token decimals\n        uint256 totTrAValue = getTrAValue(_trancheNum); //underlying token decimals\n        if (totProtValue >= totTrAValue)\n            totTrBValue = totProtValue.sub(totTrAValue); //underlying token decimals\n        else\n            totTrBValue = 0;\n        // if normalized price in tranche A price, everything should be scaled to 1e18 \n        if (underlyingDec < 18 && totTrBValue > 0) {\n            totTrBValue = totTrBValue.mul(10 ** (uint256(18).sub(underlyingDec)));\n        }\n\n        if (totTrBValue > 0 && newBSupply > 0) {\n            // if normalized price in tranche A price, everything should be scaled to 1e18 \n            tbPrice = totTrBValue.mul(1e18).div(newBSupply);\n        } else\n            // if normalized price in tranche A price, everything should be scaled to 1e18 \n            tbPrice = uint256(1e18);\n\n        return tbPrice;\n    }\n\n    /**\n     * @dev buy Tranche A Tokens\n     * @param _trancheNum tranche number\n     * @param _amount amount of stable coins sent by buyer\n     */\n    function buyTrancheAToken(uint256 _trancheNum, uint256 _amount) external payable locked {\n        uint256 prevAaveTokenBalance = getTokenBalance(trancheAddresses[_trancheNum].aTokenAddress);\n        //aaveDeposit(trancheAddresses[_trancheNum].buyerCoinAddress, _amount);\n        address lendingPool = ILendingPoolAddressesProvider(lendingPoolAddressProvider).getLendingPool();\n        address _tokenAddr = trancheAddresses[_trancheNum].buyerCoinAddress;\n        if (_tokenAddr == ETH_ADDR) {\n            require(msg.value == _amount, \"JAave: msg.value not equal to amount\");\n            //uint256 wethBal = IERC20Upgradeable(WETH_ADDRESS).balanceOf(address(this));\n            IWETHGateway(wethGatewayAddress).depositETH{value: msg.value}();\n            //TokenInterface(WETH_ADDRESS).deposit{value: _amount}();\n            _tokenAddr = WETH_ADDRESS;\n        } else {\n            // check approve\n            require(IERC20Upgradeable(_tokenAddr).allowance(msg.sender, address(this)) >= _amount, \"JAave: allowance failed buying tranche A\");\n            SafeERC20Upgradeable.safeTransferFrom(IERC20Upgradeable(_tokenAddr), msg.sender, address(this), _amount);\n        }\n\n        SafeERC20Upgradeable.safeApprove(IERC20Upgradeable(_tokenAddr), lendingPool, _amount);\n        ILendingPool(lendingPool).deposit(_tokenAddr, _amount, address(this), AAVE_REFERRAL_CODE);\n        \n        uint256 newAaveTokenBalance = getTokenBalance(trancheAddresses[_trancheNum].aTokenAddress);\n        setTrancheAExchangeRate(_trancheNum);\n        uint256 taAmount;\n        if (newAaveTokenBalance > prevAaveTokenBalance) {\n            // set amount of tokens to be minted calculate taToken amount via taToken price\n            // if normalized price in tranche A price, everything should be scaled to 1e18 \n            uint256 diffDec = uint256(18).sub(uint256(trancheParameters[_trancheNum].underlyingDecimals));\n            uint256 normAmount = _amount.mul(10 ** diffDec);\n            taAmount = normAmount.mul(1e18).div(trancheParameters[_trancheNum].storedTrancheAPrice);\n            //Mint trancheA tokens and send them to msg.sender;\n            IJTrancheTokens(trancheAddresses[_trancheNum].ATrancheAddress).mint(msg.sender, taAmount);\n        }\n\n        lastActivity[msg.sender] = block.number;\n        trancheParameters[_trancheNum].trancheALastActionBlock = block.number;\n        emit TrancheATokenMinted(_trancheNum, msg.sender, _amount, taAmount);\n    }\n\n    /**\n     * @dev redeem Tranche A Tokens\n     * @param _trancheNum tranche number\n     * @param _amount amount of stable coins sent by buyer\n     */\n    function redeemTrancheAToken(uint256 _trancheNum, uint256 _amount) external locked {\n        require((block.number).sub(lastActivity[msg.sender]) >= redeemTimeout, \"JAave: redeem timeout not expired on tranche A\");\n        // check approve\n        require(IERC20Upgradeable(trancheAddresses[_trancheNum].ATrancheAddress).allowance(msg.sender, address(this)) >= _amount, \"JAave: allowance failed redeeming tranche A\");\n        //Transfer DAI from msg.sender to protocol;\n        SafeERC20Upgradeable.safeTransferFrom(IERC20Upgradeable(trancheAddresses[_trancheNum].ATrancheAddress), msg.sender, address(this), _amount);\n\n        setTrancheAExchangeRate(_trancheNum);\n\n        uint256 taAmount = _amount.mul(trancheParameters[_trancheNum].storedTrancheAPrice).div(1e18);\n        // if normalized price in tranche A price, everything should be scaled to 1e18 \n        uint256 diffDec = uint256(18).sub(uint256(trancheParameters[_trancheNum].underlyingDecimals));\n        uint256 normAmount = taAmount.div(10 ** diffDec);\n        // not sure about this, but it should be checked\n        uint256 taTotAmount = getTrAValue(_trancheNum);\n        if (normAmount > taTotAmount)\n            normAmount = taTotAmount;\n\n        uint256 userAmount = normAmount.mul(trancheParameters[_trancheNum].redemptionPercentage).div(PERCENT_DIVIDER);\n        aaveWithdraw(trancheAddresses[_trancheNum].buyerCoinAddress, userAmount, msg.sender);\n        uint256 feesAmount = normAmount.sub(userAmount);\n        aaveWithdraw(trancheAddresses[_trancheNum].buyerCoinAddress, feesAmount, feesCollectorAddress);\n        \n        IJTrancheTokens(trancheAddresses[_trancheNum].ATrancheAddress).burn(_amount);\n        lastActivity[msg.sender] = block.number;\n        trancheParameters[_trancheNum].trancheALastActionBlock = block.number;\n        emit TrancheATokenRedemption(_trancheNum, msg.sender, _amount, userAmount, feesAmount);\n    }\n\n    /**\n     * @dev buy Tranche B Tokens\n     * @param _trancheNum tranche number\n     * @param _amount amount of stable coins sent by buyer\n     */\n    function buyTrancheBToken(uint256 _trancheNum, uint256 _amount) external payable locked {\n        // refresh value for tranche A\n        setTrancheAExchangeRate(_trancheNum);\n        // get tranche B exchange rate\n        // if normalized price in tranche B price, everything should be scaled to 1e18 \n        uint256 diffDec = uint256(18).sub(uint256(trancheParameters[_trancheNum].underlyingDecimals));\n        uint256 normAmount = _amount.mul(10 ** diffDec);\n        uint256 tbAmount = normAmount.mul(1e18).div(getTrancheBExchangeRate(_trancheNum, _amount));\n        uint256 prevAaveTokenBalance = getTokenBalance(trancheAddresses[_trancheNum].aTokenAddress);\n        //aaveDeposit(trancheAddresses[_trancheNum].buyerCoinAddress, _amount);\n        address lendingPool = ILendingPoolAddressesProvider(lendingPoolAddressProvider).getLendingPool();\n        address _tokenAddr = trancheAddresses[_trancheNum].buyerCoinAddress;\n        if (_tokenAddr == ETH_ADDR) {\n            require(msg.value == _amount, \"JAave: msg.value not equal to amount\");\n            IWETHGateway(wethGatewayAddress).depositETH{value: msg.value}();\n            // TokenInterface(WETH_ADDRESS).deposit{value: _amount}();\n            _tokenAddr = WETH_ADDRESS;\n        } else {\n            // check approve\n            require(IERC20Upgradeable(_tokenAddr).allowance(msg.sender, address(this)) >= _amount, \"JAave: allowance failed buying tranche B\");\n            SafeERC20Upgradeable.safeTransferFrom(IERC20Upgradeable(_tokenAddr), msg.sender, address(this), _amount);\n        }\n\n        SafeERC20Upgradeable.safeApprove(IERC20Upgradeable(_tokenAddr), lendingPool, _amount);\n        ILendingPool(lendingPool).deposit(_tokenAddr, _amount, address(this), AAVE_REFERRAL_CODE);\n\n        uint256 newAaveTokenBalance = getTokenBalance(trancheAddresses[_trancheNum].aTokenAddress);\n        if (newAaveTokenBalance > prevAaveTokenBalance) {\n            //Mint trancheB tokens and send them to msg.sender;\n            IJTrancheTokens(trancheAddresses[_trancheNum].BTrancheAddress).mint(msg.sender, tbAmount);\n        } else \n            tbAmount = 0;\n\n        lastActivity[msg.sender] = block.number;\n        emit TrancheBTokenMinted(_trancheNum, msg.sender, _amount, tbAmount);\n    }\n\n    /**\n     * @dev redeem Tranche B Tokens\n     * @param _trancheNum tranche number\n     * @param _amount amount of stable coins sent by buyer\n     */\n    function redeemTrancheBToken(uint256 _trancheNum, uint256 _amount) external locked {\n        require((block.number).sub(lastActivity[msg.sender]) >= redeemTimeout, \"JAave: redeem timeout not expired on tranche B\");\n        // check approve\n        require(IERC20Upgradeable(trancheAddresses[_trancheNum].BTrancheAddress).allowance(msg.sender, address(this)) >= _amount, \"JAave: allowance failed redeeming tranche B\");\n        //Transfer DAI from msg.sender to protocol;\n        SafeERC20Upgradeable.safeTransferFrom(IERC20Upgradeable(trancheAddresses[_trancheNum].BTrancheAddress), msg.sender, address(this), _amount);\n\n        // update tranche A price\n        setTrancheAExchangeRate(_trancheNum);\n        // get tranche B exchange rate\n        uint256 tbAmount = _amount.mul(getTrancheBExchangeRate(_trancheNum, 0)).div(1e18);\n        uint256 diffDec = uint256(18).sub(uint256(trancheParameters[_trancheNum].underlyingDecimals));\n        uint256 normAmount = tbAmount.div(10 ** diffDec);\n        // not sure about this, but it should be checked\n        uint256 tbTotAmount = getTrBValue(_trancheNum);\n        if (normAmount > tbTotAmount)\n            normAmount = tbTotAmount;\n\n        uint256 userAmount = normAmount.mul(trancheParameters[_trancheNum].redemptionPercentage).div(PERCENT_DIVIDER);\n        aaveWithdraw(trancheAddresses[_trancheNum].buyerCoinAddress, userAmount, msg.sender);\n        uint256 feesAmount = normAmount.sub(userAmount);\n        aaveWithdraw(trancheAddresses[_trancheNum].buyerCoinAddress, feesAmount, feesCollectorAddress);\n\n        IJTrancheTokens(trancheAddresses[_trancheNum].BTrancheAddress).burn(_amount);\n        lastActivity[msg.sender] = block.number;\n        emit TrancheBTokenRedemption(_trancheNum, msg.sender, _amount, userAmount, feesAmount);\n    }\n\n    /**\n     * @dev get every token balance in this contract\n     * @param _tokenContract token contract address\n     */\n    function getTokenBalance(address _tokenContract) public view returns (uint256) {\n        return IERC20Upgradeable(_tokenContract).balanceOf(address(this));\n    }\n\n    /**\n     * @dev get eth balance on this contract\n     */\n    function getEthBalance() public view returns (uint256) {\n        return address(this).balance;\n    }\n\n    /**\n     * @dev transfer tokens in this contract to fees collector contract\n     * @param _tokenContract token contract address\n     * @param _amount token amount to be transferred \n     */\n    function transferTokenToFeesCollector(address _tokenContract, uint256 _amount) external onlyAdmins {\n        SafeERC20Upgradeable.safeTransfer(IERC20Upgradeable(_tokenContract), feesCollectorAddress, _amount);\n    }\n\n    /**\n     * @dev transfer ethers in this contract to fees collector contract\n     * @param _amount ethers amount to be transferred \n     */\n    function withdrawEthToFeesCollector(uint256 _amount) external onlyAdmins {\n        TransferETHHelper.safeTransferETH(feesCollectorAddress, _amount);\n    }\n\n    /**\n     * @dev get token rewards amount\n     * @return amount of unclaimed tokens\n     */\n    function getAaveUnclaimedRewards() external view returns(uint256) {\n        return IAaveIncentivesController(aaveIncentiveControllerAddress).getUserUnclaimedRewards(address(this));\n    }\n\n    /**\n     * @dev claim token rewards from all assets in protocol and transfer them to fees collector\n     * @param _rewardToken reward token address\n     * @param _amount amount of rewards token to claim (set it to 0 if you want to claim for all tokens)\n     */\n    function claimAaveRewards(address _rewardToken, uint256 _amount) external {\n        address[] memory assets = new address[](tranchePairsCounter);\n        for (uint256 i = 0; i < tranchePairsCounter; i++) {\n            assets[i] = trancheAddresses[i].aTokenAddress;\n        }\n        uint256 claimedRewards = IAaveIncentivesController(aaveIncentiveControllerAddress).claimRewards(assets,  _amount, address(this));\n        if (claimedRewards > 0) {\n            SafeERC20Upgradeable.safeTransfer(IERC20Upgradeable(_rewardToken), feesCollectorAddress, claimedRewards);\n        }\n    }\n\n}",
  "sourcePath": "C:/Users/saurabh/code/Jibrel/tranche-aave-protocol/contracts/JAave.sol",
  "compiler": {
    "name": "solc",
    "version": "0.6.12+commit.27d51765.Emscripten.clang"
  },
  "schemaVersion": "3.4.1",
  "updatedAt": "2021-05-10T10:40:05.471Z",
  "networkType": "ethereum",
  "devdoc": {
    "kind": "dev",
    "methods": {
      "buyTrancheAToken(uint256,uint256)": {
        "details": "buy Tranche A Tokens",
        "params": {
          "_amount": "amount of stable coins sent by buyer",
          "_trancheNum": "tranche number"
        }
      },
      "buyTrancheBToken(uint256,uint256)": {
        "details": "buy Tranche B Tokens",
        "params": {
          "_amount": "amount of stable coins sent by buyer",
          "_trancheNum": "tranche number"
        }
      },
      "calcRPBFromPercentage(uint256)": {
        "details": "get Tranche A exchange rate (tokens with 18 decimals)",
        "params": {
          "_trancheNum": "tranche number"
        },
        "returns": {
          "_0": "tranche A token current price"
        }
      },
      "claimAaveRewards(address,uint256)": {
        "details": "claim token rewards from all assets in protocol and transfer them to fees collector",
        "params": {
          "_amount": "amount of rewards token to claim (set it to 0 if you want to claim for all tokens)",
          "_rewardToken": "reward token address"
        }
      },
      "getAaveReserveData(uint256)": {
        "details": "get Aave reserve Data for an asset liquidityRate is the return percentage for that asset (multiply by 10^27)"
      },
      "getAaveUnclaimedRewards()": {
        "details": "get token rewards amount",
        "returns": {
          "_0": "amount of unclaimed tokens"
        }
      },
      "getAllATokens()": {
        "details": "get Aave all tokens"
      },
      "getAllReservesTokens()": {
        "details": "get Aave all reserved tokens"
      },
      "getDataProvider()": {
        "details": "get Aave Pool Address Provider starting from lending pool address provider"
      },
      "getEthBalance()": {
        "details": "get eth balance on this contract"
      },
      "getTokenBalance(address)": {
        "details": "get every token balance in this contract",
        "params": {
          "_tokenContract": "token contract address"
        }
      },
      "getTotalValue(uint256)": {
        "details": "get Tranche total value in underlying tokens",
        "params": {
          "_trancheNum": "tranche number"
        },
        "returns": {
          "_0": "tranche total value in underlying tokens"
        }
      },
      "getTrAValue(uint256)": {
        "details": "get Tranche A value in underlying tokens",
        "params": {
          "_trancheNum": "tranche number"
        },
        "returns": {
          "trANormValue": "tranche A value in underlying tokens"
        }
      },
      "getTrBValue(uint256)": {
        "details": "get Tranche B value in underlying tokens",
        "params": {
          "_trancheNum": "tranche number"
        },
        "returns": {
          "_0": "tranche B value in underlying tokens"
        }
      },
      "getTrancheACurrentRPB(uint256)": {
        "details": "get RPB for a given percentage (expressed in 1e18)",
        "params": {
          "_trancheNum": "tranche number"
        },
        "returns": {
          "_0": "RPB for a fixed percentage"
        }
      },
      "getTrancheAExchangeRate(uint256)": {
        "details": "get Tranche A exchange rate",
        "params": {
          "_trancheNum": "tranche number"
        },
        "returns": {
          "_0": "tranche A token current price"
        }
      },
      "getTrancheBExchangeRate(uint256,uint256)": {
        "details": "get Tranche B exchange rate",
        "params": {
          "_newAmount": "new amount entering tranche B (underlying token decimals)",
          "_trancheNum": "tranche number"
        },
        "returns": {
          "tbPrice": "tranche B token current price"
        }
      },
      "initialize(address,address,address,address)": {
        "details": "contract initializer",
        "params": {
          "_feesCollector": "fees collector contract address",
          "_priceOracle": "price oracle address",
          "_tranchesDepl": "tranches deployer contract address"
        }
      },
      "owner()": {
        "details": "Returns the address of the current owner."
      },
      "redeemTrancheAToken(uint256,uint256)": {
        "details": "redeem Tranche A Tokens",
        "params": {
          "_amount": "amount of stable coins sent by buyer",
          "_trancheNum": "tranche number"
        }
      },
      "redeemTrancheBToken(uint256,uint256)": {
        "details": "redeem Tranche B Tokens",
        "params": {
          "_amount": "amount of stable coins sent by buyer",
          "_trancheNum": "tranche number"
        }
      },
      "renounceOwnership()": {
        "details": "Leaves the contract without owner. It will not be possible to call `onlyOwner` functions anymore. Can only be called by the current owner. NOTE: Renouncing ownership will leave the contract without an owner, thereby removing any functionality that is only available to the owner."
      },
      "setAavePoolAddressProvider(address)": {
        "details": "set Aave Pool Address Provider",
        "params": {
          "_addressProviderContract": "aave lending pool address provider contract address (kovan: 0x88757f2f99175387aB4C6a4b3067c77A695b0349)"
        }
      },
      "setBlocksPerYear(uint256)": {
        "details": "set how many blocks will be produced per year on the blockchain ",
        "params": {
          "_newValue": "new value"
        }
      },
      "setDecimals(uint256,uint8)": {
        "details": "check if a cToken is allowed or not",
        "params": {
          "_trancheNum": "tranche number",
          "_underlyingDec": "underlying token decimals"
        }
      },
      "setNewEnvironment(address,address,address)": {
        "details": "set new addresses for price oracle, fees collector and tranche deployer ",
        "params": {
          "_feesCollector": "fees collector contract address",
          "_priceOracle": "price oracle address",
          "_tranchesDepl": "tranches deployer contract address"
        }
      },
      "setRedemptionTimeout(uint32)": {
        "details": "set redemption timeout",
        "params": {
          "_blockNum": "timeout (in block numbers)"
        }
      },
      "setTrancheAExchangeRate(uint256)": {
        "details": "get Tranche A exchange rate",
        "params": {
          "_trancheNum": "tranche number"
        },
        "returns": {
          "_0": "tranche A token current price"
        }
      },
      "setTrancheAFixedPercentage(uint256,uint256)": {
        "details": "set tranche redemption percentage scaled by 1e18",
        "params": {
          "_newTrAPercentage": "new tranche A RPB",
          "_trancheNum": "tranche number"
        }
      },
      "setTrancheRedemptionPercentage(uint256,uint16)": {
        "details": "set tranche redemption percentage",
        "params": {
          "_redeemPercent": "user redemption percent",
          "_trancheNum": "tranche number"
        }
      },
      "setWETHGatewayAddress(address)": {
        "details": "set Weth Gateway contract address",
        "params": {
          "_wethGatewayAddress": "weth gateway contract address"
        }
      },
      "transferOwnership(address)": {
        "details": "Transfers ownership of the contract to a new account (`newOwner`). Can only be called by the current owner."
      },
      "transferTokenToFeesCollector(address,uint256)": {
        "details": "transfer tokens in this contract to fees collector contract",
        "params": {
          "_amount": "token amount to be transferred ",
          "_tokenContract": "token contract address"
        }
      },
      "withdrawEthToFeesCollector(uint256)": {
        "details": "transfer ethers in this contract to fees collector contract",
        "params": {
          "_amount": "ethers amount to be transferred "
        }
      }
    },
    "version": 1
  },
  "userdoc": {
    "kind": "user",
    "methods": {},
    "version": 1
  }
}