{
  "contractName": "JBenQi",
  "abi": [
    {
      "anonymous": false,
      "inputs": [
        {
          "indexed": true,
          "internalType": "address",
          "name": "previousOwner",
          "type": "address"
        },
        {
          "indexed": true,
          "internalType": "address",
          "name": "newOwner",
          "type": "address"
        }
      ],
      "name": "OwnershipTransferred",
      "type": "event"
    },
    {
      "anonymous": false,
      "inputs": [
        {
          "indexed": false,
          "internalType": "uint256",
          "name": "trancheNum",
          "type": "uint256"
        },
        {
          "indexed": false,
          "internalType": "address",
          "name": "buyer",
          "type": "address"
        },
        {
          "indexed": false,
          "internalType": "uint256",
          "name": "amount",
          "type": "uint256"
        },
        {
          "indexed": false,
          "internalType": "uint256",
          "name": "taAmount",
          "type": "uint256"
        }
      ],
      "name": "TrancheATokenMinted",
      "type": "event"
    },
    {
      "anonymous": false,
      "inputs": [
        {
          "indexed": false,
          "internalType": "uint256",
          "name": "trancheNum",
          "type": "uint256"
        },
        {
          "indexed": false,
          "internalType": "address",
          "name": "burner",
          "type": "address"
        },
        {
          "indexed": false,
          "internalType": "uint256",
          "name": "amount",
          "type": "uint256"
        },
        {
          "indexed": false,
          "internalType": "uint256",
          "name": "userAmount",
          "type": "uint256"
        },
        {
          "indexed": false,
          "internalType": "uint256",
          "name": "feesAmount",
          "type": "uint256"
        }
      ],
      "name": "TrancheATokenRedemption",
      "type": "event"
    },
    {
      "anonymous": false,
      "inputs": [
        {
          "indexed": false,
          "internalType": "uint256",
          "name": "trancheNum",
          "type": "uint256"
        },
        {
          "indexed": false,
          "internalType": "address",
          "name": "trancheA",
          "type": "address"
        },
        {
          "indexed": false,
          "internalType": "address",
          "name": "trancheB",
          "type": "address"
        }
      ],
      "name": "TrancheAddedToProtocol",
      "type": "event"
    },
    {
      "anonymous": false,
      "inputs": [
        {
          "indexed": false,
          "internalType": "uint256",
          "name": "trancheNum",
          "type": "uint256"
        },
        {
          "indexed": false,
          "internalType": "address",
          "name": "buyer",
          "type": "address"
        },
        {
          "indexed": false,
          "internalType": "uint256",
          "name": "amount",
          "type": "uint256"
        },
        {
          "indexed": false,
          "internalType": "uint256",
          "name": "tbAmount",
          "type": "uint256"
        }
      ],
      "name": "TrancheBTokenMinted",
      "type": "event"
    },
    {
      "anonymous": false,
      "inputs": [
        {
          "indexed": false,
          "internalType": "uint256",
          "name": "trancheNum",
          "type": "uint256"
        },
        {
          "indexed": false,
          "internalType": "address",
          "name": "burner",
          "type": "address"
        },
        {
          "indexed": false,
          "internalType": "uint256",
          "name": "amount",
          "type": "uint256"
        },
        {
          "indexed": false,
          "internalType": "uint256",
          "name": "userAmount",
          "type": "uint256"
        },
        {
          "indexed": false,
          "internalType": "uint256",
          "name": "feesAmount",
          "type": "uint256"
        }
      ],
      "name": "TrancheBTokenRedemption",
      "type": "event"
    },
    {
      "stateMutability": "payable",
      "type": "fallback"
    },
    {
      "inputs": [],
      "name": "PERCENT_DIVIDER",
      "outputs": [
        {
          "internalType": "uint256",
          "name": "",
          "type": "uint256"
        }
      ],
      "stateMutability": "view",
      "type": "function"
    },
    {
      "inputs": [],
      "name": "adminToolsAddress",
      "outputs": [
        {
          "internalType": "address",
          "name": "",
          "type": "address"
        }
      ],
      "stateMutability": "view",
      "type": "function"
    },
    {
      "inputs": [],
      "name": "avaxGateway",
      "outputs": [
        {
          "internalType": "contract IAVAXGateway",
          "name": "",
          "type": "address"
        }
      ],
      "stateMutability": "view",
      "type": "function"
    },
    {
      "inputs": [],
      "name": "feesCollectorAddress",
      "outputs": [
        {
          "internalType": "address",
          "name": "",
          "type": "address"
        }
      ],
      "stateMutability": "view",
      "type": "function"
    },
    {
      "inputs": [],
      "name": "incentivesControllerAddress",
      "outputs": [
        {
          "internalType": "address",
          "name": "",
          "type": "address"
        }
      ],
      "stateMutability": "view",
      "type": "function"
    },
    {
      "inputs": [],
      "name": "jBenQiHelperAddress",
      "outputs": [
        {
          "internalType": "address",
          "name": "",
          "type": "address"
        }
      ],
      "stateMutability": "view",
      "type": "function"
    },
    {
      "inputs": [
        {
          "internalType": "address",
          "name": "",
          "type": "address"
        }
      ],
      "name": "lastActivity",
      "outputs": [
        {
          "internalType": "uint256",
          "name": "",
          "type": "uint256"
        }
      ],
      "stateMutability": "view",
      "type": "function"
    },
    {
      "inputs": [],
      "name": "owner",
      "outputs": [
        {
          "internalType": "address",
          "name": "",
          "type": "address"
        }
      ],
      "stateMutability": "view",
      "type": "function"
    },
    {
      "inputs": [],
      "name": "qiAVAXToken",
      "outputs": [
        {
          "internalType": "contract IQiAvax",
          "name": "",
          "type": "address"
        }
      ],
      "stateMutability": "view",
      "type": "function"
    },
    {
      "inputs": [],
      "name": "qiTokenAddress",
      "outputs": [
        {
          "internalType": "address",
          "name": "",
          "type": "address"
        }
      ],
      "stateMutability": "view",
      "type": "function"
    },
    {
      "inputs": [
        {
          "internalType": "address",
          "name": "",
          "type": "address"
        }
      ],
      "name": "qiTokenContracts",
      "outputs": [
        {
          "internalType": "address",
          "name": "",
          "type": "address"
        }
      ],
      "stateMutability": "view",
      "type": "function"
    },
    {
      "inputs": [],
      "name": "redeemTimeout",
      "outputs": [
        {
          "internalType": "uint32",
          "name": "",
          "type": "uint32"
        }
      ],
      "stateMutability": "view",
      "type": "function"
    },
    {
      "inputs": [],
      "name": "renounceOwnership",
      "outputs": [],
      "stateMutability": "nonpayable",
      "type": "function"
    },
    {
      "inputs": [],
      "name": "rewardsToken",
      "outputs": [
        {
          "internalType": "address",
          "name": "",
          "type": "address"
        }
      ],
      "stateMutability": "view",
      "type": "function"
    },
    {
      "inputs": [
        {
          "internalType": "address",
          "name": "",
          "type": "address"
        },
        {
          "internalType": "uint256",
          "name": "",
          "type": "uint256"
        }
      ],
      "name": "stakeCounterTrA",
      "outputs": [
        {
          "internalType": "uint256",
          "name": "",
          "type": "uint256"
        }
      ],
      "stateMutability": "view",
      "type": "function"
    },
    {
      "inputs": [
        {
          "internalType": "address",
          "name": "",
          "type": "address"
        },
        {
          "internalType": "uint256",
          "name": "",
          "type": "uint256"
        }
      ],
      "name": "stakeCounterTrB",
      "outputs": [
        {
          "internalType": "uint256",
          "name": "",
          "type": "uint256"
        }
      ],
      "stateMutability": "view",
      "type": "function"
    },
    {
      "inputs": [
        {
          "internalType": "address",
          "name": "",
          "type": "address"
        },
        {
          "internalType": "uint256",
          "name": "",
          "type": "uint256"
        },
        {
          "internalType": "uint256",
          "name": "",
          "type": "uint256"
        }
      ],
      "name": "stakingDetailsTrancheA",
      "outputs": [
        {
          "internalType": "uint256",
          "name": "startTime",
          "type": "uint256"
        },
        {
          "internalType": "uint256",
          "name": "amount",
          "type": "uint256"
        }
      ],
      "stateMutability": "view",
      "type": "function"
    },
    {
      "inputs": [
        {
          "internalType": "address",
          "name": "",
          "type": "address"
        },
        {
          "internalType": "uint256",
          "name": "",
          "type": "uint256"
        },
        {
          "internalType": "uint256",
          "name": "",
          "type": "uint256"
        }
      ],
      "name": "stakingDetailsTrancheB",
      "outputs": [
        {
          "internalType": "uint256",
          "name": "startTime",
          "type": "uint256"
        },
        {
          "internalType": "uint256",
          "name": "amount",
          "type": "uint256"
        }
      ],
      "stateMutability": "view",
      "type": "function"
    },
    {
      "inputs": [],
      "name": "totalBlocksPerYear",
      "outputs": [
        {
          "internalType": "uint256",
          "name": "",
          "type": "uint256"
        }
      ],
      "stateMutability": "view",
      "type": "function"
    },
    {
      "inputs": [
        {
          "internalType": "uint256",
          "name": "",
          "type": "uint256"
        }
      ],
      "name": "trancheAddresses",
      "outputs": [
        {
          "internalType": "address",
          "name": "buyerCoinAddress",
          "type": "address"
        },
        {
          "internalType": "address",
          "name": "qiTokenAddress",
          "type": "address"
        },
        {
          "internalType": "address",
          "name": "ATrancheAddress",
          "type": "address"
        },
        {
          "internalType": "address",
          "name": "BTrancheAddress",
          "type": "address"
        }
      ],
      "stateMutability": "view",
      "type": "function"
    },
    {
      "inputs": [
        {
          "internalType": "uint256",
          "name": "",
          "type": "uint256"
        }
      ],
      "name": "trancheDepositEnabled",
      "outputs": [
        {
          "internalType": "bool",
          "name": "",
          "type": "bool"
        }
      ],
      "stateMutability": "view",
      "type": "function"
    },
    {
      "inputs": [],
      "name": "tranchePairsCounter",
      "outputs": [
        {
          "internalType": "uint256",
          "name": "",
          "type": "uint256"
        }
      ],
      "stateMutability": "view",
      "type": "function"
    },
    {
      "inputs": [
        {
          "internalType": "uint256",
          "name": "",
          "type": "uint256"
        }
      ],
      "name": "trancheParameters",
      "outputs": [
        {
          "internalType": "uint256",
          "name": "trancheAFixedPercentage",
          "type": "uint256"
        },
        {
          "internalType": "uint256",
          "name": "trancheALastActionBlock",
          "type": "uint256"
        },
        {
          "internalType": "uint256",
          "name": "storedTrancheAPrice",
          "type": "uint256"
        },
        {
          "internalType": "uint256",
          "name": "trancheACurrentRPB",
          "type": "uint256"
        },
        {
          "internalType": "uint16",
          "name": "redemptionPercentage",
          "type": "uint16"
        },
        {
          "internalType": "uint8",
          "name": "qiTokenDecimals",
          "type": "uint8"
        },
        {
          "internalType": "uint8",
          "name": "underlyingDecimals",
          "type": "uint8"
        }
      ],
      "stateMutability": "view",
      "type": "function"
    },
    {
      "inputs": [],
      "name": "tranchesDeployerAddress",
      "outputs": [
        {
          "internalType": "address",
          "name": "",
          "type": "address"
        }
      ],
      "stateMutability": "view",
      "type": "function"
    },
    {
      "inputs": [
        {
          "internalType": "address",
          "name": "newOwner",
          "type": "address"
        }
      ],
      "name": "transferOwnership",
      "outputs": [],
      "stateMutability": "nonpayable",
      "type": "function"
    },
    {
      "inputs": [],
      "name": "trollerAddress",
      "outputs": [
        {
          "internalType": "address",
          "name": "",
          "type": "address"
        }
      ],
      "stateMutability": "view",
      "type": "function"
    },
    {
      "stateMutability": "payable",
      "type": "receive"
    },
    {
      "inputs": [
        {
          "internalType": "address",
          "name": "_adminTools",
          "type": "address"
        },
        {
          "internalType": "address",
          "name": "_feesCollector",
          "type": "address"
        },
        {
          "internalType": "address",
          "name": "_tranchesDepl",
          "type": "address"
        },
        {
          "internalType": "address",
          "name": "_qiTokenAddress",
          "type": "address"
        },
        {
          "internalType": "address",
          "name": "_comptrollAddress",
          "type": "address"
        },
        {
          "internalType": "address",
          "name": "_rewardsToken",
          "type": "address"
        }
      ],
      "name": "initialize",
      "outputs": [],
      "stateMutability": "nonpayable",
      "type": "function"
    },
    {
      "inputs": [
        {
          "internalType": "uint256",
          "name": "_trNum",
          "type": "uint256"
        },
        {
          "internalType": "uint16",
          "name": "_redemPerc",
          "type": "uint16"
        },
        {
          "internalType": "uint32",
          "name": "_redemTimeout",
          "type": "uint32"
        },
        {
          "internalType": "uint256",
          "name": "_blocksPerYear",
          "type": "uint256"
        }
      ],
      "name": "setConstantsValues",
      "outputs": [],
      "stateMutability": "nonpayable",
      "type": "function"
    },
    {
      "inputs": [
        {
          "internalType": "address",
          "name": "_avaxGateway",
          "type": "address"
        }
      ],
      "name": "setAVAXGateway",
      "outputs": [],
      "stateMutability": "nonpayable",
      "type": "function"
    },
    {
      "inputs": [
        {
          "internalType": "address",
          "name": "_incentivesController",
          "type": "address"
        }
      ],
      "name": "setIncentivesControllerAddress",
      "outputs": [],
      "stateMutability": "nonpayable",
      "type": "function"
    },
    {
      "inputs": [],
      "name": "getIncentivesControllerAddress",
      "outputs": [
        {
          "internalType": "address",
          "name": "",
          "type": "address"
        }
      ],
      "stateMutability": "view",
      "type": "function"
    },
    {
      "inputs": [
        {
          "internalType": "address",
          "name": "_helper",
          "type": "address"
        }
      ],
      "name": "setBenQiHelperAddress",
      "outputs": [],
      "stateMutability": "nonpayable",
      "type": "function"
    },
    {
      "inputs": [
        {
          "internalType": "address",
          "name": "_adminTools",
          "type": "address"
        },
        {
          "internalType": "address",
          "name": "_feesCollector",
          "type": "address"
        },
        {
          "internalType": "address",
          "name": "_tranchesDepl",
          "type": "address"
        },
        {
          "internalType": "address",
          "name": "_qiTokenAddress",
          "type": "address"
        },
        {
          "internalType": "address",
          "name": "_comptrollAddress",
          "type": "address"
        },
        {
          "internalType": "address",
          "name": "_rewardsToken",
          "type": "address"
        }
      ],
      "name": "setNewEnvironment",
      "outputs": [],
      "stateMutability": "nonpayable",
      "type": "function"
    },
    {
      "inputs": [
        {
          "internalType": "address",
          "name": "_QiAvaxContract",
          "type": "address"
        }
      ],
      "name": "setQiAvaxContract",
      "outputs": [],
      "stateMutability": "nonpayable",
      "type": "function"
    },
    {
      "inputs": [
        {
          "internalType": "address",
          "name": "_erc20Contract",
          "type": "address"
        },
        {
          "internalType": "address",
          "name": "_QiErc20Contract",
          "type": "address"
        }
      ],
      "name": "setQiTokenContract",
      "outputs": [],
      "stateMutability": "nonpayable",
      "type": "function"
    },
    {
      "inputs": [
        {
          "internalType": "address",
          "name": "_erc20Contract",
          "type": "address"
        }
      ],
      "name": "isQiTokenAllowed",
      "outputs": [
        {
          "internalType": "bool",
          "name": "",
          "type": "bool"
        }
      ],
      "stateMutability": "view",
      "type": "function"
    },
    {
      "inputs": [
        {
          "internalType": "uint256",
          "name": "_trancheNum",
          "type": "uint256"
        }
      ],
      "name": "getCompoundSupplyRPB",
      "outputs": [
        {
          "internalType": "uint256",
          "name": "",
          "type": "uint256"
        }
      ],
      "stateMutability": "view",
      "type": "function"
    },
    {
      "inputs": [
        {
          "internalType": "uint256",
          "name": "_trancheNum",
          "type": "uint256"
        },
        {
          "internalType": "uint8",
          "name": "_qiTokenDec",
          "type": "uint8"
        },
        {
          "internalType": "uint8",
          "name": "_underlyingDec",
          "type": "uint8"
        }
      ],
      "name": "setDecimals",
      "outputs": [],
      "stateMutability": "nonpayable",
      "type": "function"
    },
    {
      "inputs": [
        {
          "internalType": "uint256",
          "name": "_trancheNum",
          "type": "uint256"
        },
        {
          "internalType": "uint256",
          "name": "_newTrAPercentage",
          "type": "uint256"
        }
      ],
      "name": "setTrancheAFixedPercentage",
      "outputs": [],
      "stateMutability": "nonpayable",
      "type": "function"
    },
    {
      "inputs": [
        {
          "internalType": "address",
          "name": "_erc20Contract",
          "type": "address"
        },
        {
          "internalType": "string",
          "name": "_nameA",
          "type": "string"
        },
        {
          "internalType": "string",
          "name": "_symbolA",
          "type": "string"
        },
        {
          "internalType": "string",
          "name": "_nameB",
          "type": "string"
        },
        {
          "internalType": "string",
          "name": "_symbolB",
          "type": "string"
        },
        {
          "internalType": "uint256",
          "name": "_fixedRpb",
          "type": "uint256"
        },
        {
          "internalType": "uint8",
          "name": "_qiTokenDec",
          "type": "uint8"
        },
        {
          "internalType": "uint8",
          "name": "_underlyingDec",
          "type": "uint8"
        }
      ],
      "name": "addTrancheToProtocol",
      "outputs": [],
      "stateMutability": "nonpayable",
      "type": "function"
    },
    {
      "inputs": [
        {
          "internalType": "uint256",
          "name": "_trancheNum",
          "type": "uint256"
        },
        {
          "internalType": "bool",
          "name": "_enable",
          "type": "bool"
        }
      ],
      "name": "setTrancheDeposit",
      "outputs": [],
      "stateMutability": "nonpayable",
      "type": "function"
    },
    {
      "inputs": [
        {
          "internalType": "uint256",
          "name": "_trancheNum",
          "type": "uint256"
        }
      ],
      "name": "getTrancheAExchangeRate",
      "outputs": [
        {
          "internalType": "uint256",
          "name": "",
          "type": "uint256"
        }
      ],
      "stateMutability": "view",
      "type": "function"
    },
    {
      "inputs": [
        {
          "internalType": "uint256",
          "name": "_trancheNum",
          "type": "uint256"
        }
      ],
      "name": "getTrancheACurrentRPB",
      "outputs": [
        {
          "internalType": "uint256",
          "name": "",
          "type": "uint256"
        }
      ],
      "stateMutability": "view",
      "type": "function"
    },
    {
      "inputs": [
        {
          "internalType": "uint256",
          "name": "_trancheNum",
          "type": "uint256"
        }
      ],
      "name": "calcRPBFromPercentage",
      "outputs": [
        {
          "internalType": "uint256",
          "name": "",
          "type": "uint256"
        }
      ],
      "stateMutability": "nonpayable",
      "type": "function"
    },
    {
      "inputs": [
        {
          "internalType": "uint256",
          "name": "_trancheNum",
          "type": "uint256"
        }
      ],
      "name": "getTrAValue",
      "outputs": [
        {
          "internalType": "uint256",
          "name": "trANormValue",
          "type": "uint256"
        }
      ],
      "stateMutability": "view",
      "type": "function"
    },
    {
      "inputs": [
        {
          "internalType": "uint256",
          "name": "_trancheNum",
          "type": "uint256"
        }
      ],
      "name": "getTrBValue",
      "outputs": [
        {
          "internalType": "uint256",
          "name": "",
          "type": "uint256"
        }
      ],
      "stateMutability": "view",
      "type": "function"
    },
    {
      "inputs": [
        {
          "internalType": "uint256",
          "name": "_trancheNum",
          "type": "uint256"
        }
      ],
      "name": "getTotalValue",
      "outputs": [
        {
          "internalType": "uint256",
          "name": "",
          "type": "uint256"
        }
      ],
      "stateMutability": "view",
      "type": "function"
    },
    {
      "inputs": [
        {
          "internalType": "uint256",
          "name": "_trancheNum",
          "type": "uint256"
        },
        {
          "internalType": "uint256",
          "name": "_newAmount",
          "type": "uint256"
        }
      ],
      "name": "getTrancheBExchangeRate",
      "outputs": [
        {
          "internalType": "uint256",
          "name": "tbPrice",
          "type": "uint256"
        }
      ],
      "stateMutability": "view",
      "type": "function"
    },
    {
      "inputs": [
        {
          "internalType": "uint256",
          "name": "_trancheNum",
          "type": "uint256"
        },
        {
          "internalType": "address",
          "name": "_account",
          "type": "address"
        },
        {
          "internalType": "uint256",
          "name": "_stkNum",
          "type": "uint256"
        },
        {
          "internalType": "uint256",
          "name": "_amount",
          "type": "uint256"
        },
        {
          "internalType": "uint256",
          "name": "_time",
          "type": "uint256"
        }
      ],
      "name": "setTrAStakingDetails",
      "outputs": [],
      "stateMutability": "nonpayable",
      "type": "function"
    },
    {
      "inputs": [
        {
          "internalType": "address",
          "name": "_user",
          "type": "address"
        },
        {
          "internalType": "uint256",
          "name": "_trancheNum",
          "type": "uint256"
        }
      ],
      "name": "getSingleTrancheUserStakeCounterTrA",
      "outputs": [
        {
          "internalType": "uint256",
          "name": "",
          "type": "uint256"
        }
      ],
      "stateMutability": "view",
      "type": "function"
    },
    {
      "inputs": [
        {
          "internalType": "address",
          "name": "_user",
          "type": "address"
        },
        {
          "internalType": "uint256",
          "name": "_trancheNum",
          "type": "uint256"
        },
        {
          "internalType": "uint256",
          "name": "_num",
          "type": "uint256"
        }
      ],
      "name": "getSingleTrancheUserSingleStakeDetailsTrA",
      "outputs": [
        {
          "internalType": "uint256",
          "name": "",
          "type": "uint256"
        },
        {
          "internalType": "uint256",
          "name": "",
          "type": "uint256"
        }
      ],
      "stateMutability": "view",
      "type": "function"
    },
    {
      "inputs": [
        {
          "internalType": "uint256",
          "name": "_trancheNum",
          "type": "uint256"
        },
        {
          "internalType": "address",
          "name": "_account",
          "type": "address"
        },
        {
          "internalType": "uint256",
          "name": "_stkNum",
          "type": "uint256"
        },
        {
          "internalType": "uint256",
          "name": "_amount",
          "type": "uint256"
        },
        {
          "internalType": "uint256",
          "name": "_time",
          "type": "uint256"
        }
      ],
      "name": "setTrBStakingDetails",
      "outputs": [],
      "stateMutability": "nonpayable",
      "type": "function"
    },
    {
      "inputs": [
        {
          "internalType": "address",
          "name": "_user",
          "type": "address"
        },
        {
          "internalType": "uint256",
          "name": "_trancheNum",
          "type": "uint256"
        }
      ],
      "name": "getSingleTrancheUserStakeCounterTrB",
      "outputs": [
        {
          "internalType": "uint256",
          "name": "",
          "type": "uint256"
        }
      ],
      "stateMutability": "view",
      "type": "function"
    },
    {
      "inputs": [
        {
          "internalType": "address",
          "name": "_user",
          "type": "address"
        },
        {
          "internalType": "uint256",
          "name": "_trancheNum",
          "type": "uint256"
        },
        {
          "internalType": "uint256",
          "name": "_num",
          "type": "uint256"
        }
      ],
      "name": "getSingleTrancheUserSingleStakeDetailsTrB",
      "outputs": [
        {
          "internalType": "uint256",
          "name": "",
          "type": "uint256"
        },
        {
          "internalType": "uint256",
          "name": "",
          "type": "uint256"
        }
      ],
      "stateMutability": "view",
      "type": "function"
    },
    {
      "inputs": [
        {
          "internalType": "uint256",
          "name": "_trancheNum",
          "type": "uint256"
        },
        {
          "internalType": "uint256",
          "name": "_amount",
          "type": "uint256"
        }
      ],
      "name": "buyTrancheAToken",
      "outputs": [],
      "stateMutability": "payable",
      "type": "function"
    },
    {
      "inputs": [
        {
          "internalType": "uint256",
          "name": "_trancheNum",
          "type": "uint256"
        },
        {
          "internalType": "uint256",
          "name": "_amount",
          "type": "uint256"
        }
      ],
      "name": "redeemTrancheAToken",
      "outputs": [],
      "stateMutability": "nonpayable",
      "type": "function"
    },
    {
      "inputs": [
        {
          "internalType": "uint256",
          "name": "_trancheNum",
          "type": "uint256"
        },
        {
          "internalType": "uint256",
          "name": "_amount",
          "type": "uint256"
        }
      ],
      "name": "buyTrancheBToken",
      "outputs": [],
      "stateMutability": "payable",
      "type": "function"
    },
    {
      "inputs": [
        {
          "internalType": "uint256",
          "name": "_trancheNum",
          "type": "uint256"
        },
        {
          "internalType": "uint256",
          "name": "_amount",
          "type": "uint256"
        }
      ],
      "name": "redeemTrancheBToken",
      "outputs": [],
      "stateMutability": "nonpayable",
      "type": "function"
    },
    {
      "inputs": [
        {
          "internalType": "uint256",
          "name": "_trancheNum",
          "type": "uint256"
        },
        {
          "internalType": "uint256",
          "name": "_qiTokenAmount",
          "type": "uint256"
        }
      ],
      "name": "redeemQiTokenAmount",
      "outputs": [],
      "stateMutability": "nonpayable",
      "type": "function"
    },
    {
      "inputs": [
        {
          "internalType": "address",
          "name": "_tokenContract",
          "type": "address"
        }
      ],
      "name": "getTokenBalance",
      "outputs": [
        {
          "internalType": "uint256",
          "name": "",
          "type": "uint256"
        }
      ],
      "stateMutability": "view",
      "type": "function"
    },
    {
      "inputs": [],
      "name": "getEthBalance",
      "outputs": [
        {
          "internalType": "uint256",
          "name": "",
          "type": "uint256"
        }
      ],
      "stateMutability": "view",
      "type": "function"
    },
    {
      "inputs": [
        {
          "internalType": "address",
          "name": "_tokenContract",
          "type": "address"
        },
        {
          "internalType": "uint256",
          "name": "_amount",
          "type": "uint256"
        }
      ],
      "name": "transferTokenToFeesCollector",
      "outputs": [],
      "stateMutability": "nonpayable",
      "type": "function"
    },
    {
      "inputs": [
        {
          "internalType": "uint256",
          "name": "_amount",
          "type": "uint256"
        }
      ],
      "name": "withdrawAVAXToFeesCollector",
      "outputs": [],
      "stateMutability": "nonpayable",
      "type": "function"
    },
    {
      "inputs": [],
      "name": "getTotalQiAccrued",
      "outputs": [
        {
          "internalType": "uint256",
          "name": "",
          "type": "uint256"
        }
      ],
      "stateMutability": "view",
      "type": "function"
    },
    {
      "inputs": [
        {
          "internalType": "address",
          "name": "_receiver",
          "type": "address"
        }
      ],
      "name": "claimTotalQiAccruedToReceiver",
      "outputs": [],
      "stateMutability": "nonpayable",
      "type": "function"
    }
  ],
  "bytecode": "0x608060405234801561001057600080fd5b50615377806100206000396000f3fe6080604052600436106103a25760003560e01c80636bc73adf116101e5578063bcf8a6ce1161010c578063d3dd2a14116100a5578063eba181e611610077578063eba181e614610da3578063f07e96b314610dc3578063f2fde38b14610df0578063f5bb31da14610e10578063fc9a162314610e3057005b8063d3dd2a1414610d13578063d41f283c14610d43578063d495ece014610d63578063e780cd2a14610d8357005b8063cc8d383a116100de578063cc8d383a14610c93578063ce6ec53214610cb3578063d184859a14610cd3578063d1af0c7d14610cf357005b8063bcf8a6ce14610c1d578063bd95893714610c3d578063c17c19ce14610c5d578063cc2a9a5b14610c7357005b8063837e929d1161017e5780639490aec1116101505780639490aec114610b1b578063954cef2714610b3b578063a45ec1c014610b5b578063af45ba1e14610b7b57005b8063837e929d14610a5d5780638ab73a9214610aa25780638da5cb5b14610add57806392fddef814610afb57005b806372f8fb5c116101b757806372f8fb5c146109ea57806377914620146109fd5780637afc66fc14610a1d578063811f7faf14610a3d57005b80636bc73adf1461096a5780636e98a04e146109a257806370ed0ada146109c2578063715018a6146109d557005b80633aecd0e3116102c957806353ab1074116102625780636181a7eb116102345780636181a7eb146108a65780636202a676146108e95780636704888e1461092c5780636aed437d1461094a57005b806353ab10741461081b5780635646c34b1461083b5780635abec1381461084e5780635ac91ced1461086e57005b80634a7f92ae1161029b5780634a7f92ae1461078b5780634b2d726d146107ab5780634da32911146107cb5780634fe88929146107eb57005b80633aecd0e3146106e65780633fef0e211461070657806341a327f4146107265780634746e4c11461076b57005b80631a7fa8cc1161033b57806329fc7bd81161030d57806329fc7bd8146105d45780632f40d5e9146105ea57806336c013e61461060a5780633964ad721461069057005b80631a7fa8cc1461053f578063223d9f1614610554578063277e2ab6146105745780632841653d146105b457005b80630da99c04116103745780630da99c041461046257806315c7eca11461048257806316960923146104a257806317d5bf07146104d457005b80630409b157146103ab5780630886e3b1146103de57806309b8042f1461042c5780630b7aeb411461044c57005b366103a957005b005b3480156103b757600080fd5b506103cb6103c6366004614b1d565b610e50565b6040519081526020015b60405180910390f35b3480156103ea57600080fd5b506104146103f9366004614b5b565b60a0602052600090815260409020546001600160a01b031681565b6040516001600160a01b0390911681526020016103d5565b34801561043857600080fd5b5060a754610414906001600160a01b031681565b34801561045857600080fd5b506103cb609d5481565b34801561046e57600080fd5b50609b54610414906001600160a01b031681565b34801561048e57600080fd5b5060a554610414906001600160a01b031681565b3480156104ae57600080fd5b50609f546104bf9063ffffffff1681565b60405163ffffffff90911681526020016103d5565b3480156104e057600080fd5b5061052a6104ef366004614b78565b6001600160a01b0392909216600090815260ab6020908152604080832093835292815282822093825292909252902080546001909101549091565b604080519283526020830191909152016103d5565b34801561054b57600080fd5b506103cb610ea4565b34801561056057600080fd5b506103a961056f366004614b1d565b610fc5565b34801561058057600080fd5b506105a461058f366004614b1d565b60a66020526000908152604090205460ff1681565b60405190151581526020016103d5565b3480156105c057600080fd5b506103a96105cf366004614bad565b611075565b3480156105e057600080fd5b506103cb61271081565b3480156105f657600080fd5b506103a9610605366004614c2f565b6111a3565b34801561061657600080fd5b5061065d610625366004614b1d565b60a16020526000908152604090208054600182015460028301546003909301546001600160a01b039283169391831692918216911684565b604080516001600160a01b03958616815293851660208501529184169183019190915290911660608201526080016103d5565b34801561069c57600080fd5b5061052a6106ab366004614b78565b6001600160a01b0392909216600090815260aa6020908152604080832093835292815282822093825292909252902080546001909101549091565b3480156106f257600080fd5b506103cb610701366004614b5b565b611256565b34801561071257600080fd5b506103a9610721366004614c5b565b6112d6565b34801561073257600080fd5b5061052a610741366004614b78565b60ab6020908152600093845260408085208252928452828420905282529020805460019091015482565b34801561077757600080fd5b506103a9610786366004614c94565b61139b565b34801561079757600080fd5b506103a96107a6366004614b5b565b61147f565b3480156107b757600080fd5b506103a96107c6366004614d90565b611538565b3480156107d757600080fd5b5060ac54610414906001600160a01b031681565b3480156107f757600080fd5b506103cb610806366004614b1d565b600090815260a2602052604090206002015490565b34801561082757600080fd5b506103cb610836366004614b1d565b611a70565b6103a9610849366004614e79565b611b0a565b34801561085a57600080fd5b506103a9610869366004614c94565b611f71565b34801561087a57600080fd5b506103cb610889366004614c2f565b60a960209081526000928352604080842090915290825290205481565b3480156108b257600080fd5b506103cb6108c1366004614c2f565b6001600160a01b0391909116600090815260a960209081526040808320938352929052205490565b3480156108f557600080fd5b506103cb610904366004614c2f565b6001600160a01b0391909116600090815260a860209081526040808320938352929052205490565b34801561093857600080fd5b5060a7546001600160a01b0316610414565b34801561095657600080fd5b506103a9610965366004614e9b565b612055565b34801561097657600080fd5b506103cb610985366004614c2f565b60a860209081526000928352604080842090915290825290205481565b3480156109ae57600080fd5b506103cb6109bd366004614b1d565b612131565b3480156109ce57600080fd5b50476103cb565b3480156109e157600080fd5b506103a9612228565b6103a96109f8366004614e79565b61225e565b348015610a0957600080fd5b506103a9610a18366004614b5b565b6126dc565b348015610a2957600080fd5b506103cb610a38366004614e79565b6128ad565b348015610a4957600080fd5b506103a9610a58366004614e79565b612a50565b348015610a6957600080fd5b5061052a610a78366004614b78565b60aa6020908152600093845260408085208252928452828420905282529020805460019091015482565b348015610aae57600080fd5b506105a4610abd366004614b5b565b6001600160a01b03908116600090815260a0602052604090205416151590565b348015610ae957600080fd5b506033546001600160a01b0316610414565b348015610b0757600080fd5b506103a9610b16366004614b5b565b612fa4565b348015610b2757600080fd5b506103a9610b36366004614e79565b61305d565b348015610b4757600080fd5b50609a54610414906001600160a01b031681565b348015610b6757600080fd5b506103a9610b76366004614ef3565b613276565b348015610b8757600080fd5b50610bde610b96366004614b1d565b60a260205260009081526040902080546001820154600283015460038401546004909401549293919290919061ffff81169060ff620100008204811691630100000090041687565b60408051978852602088019690965294860193909352606085019190915261ffff16608084015260ff90811660a08401521660c082015260e0016103d5565b348015610c2957600080fd5b506103a9610c38366004614b5b565b61339c565b348015610c4957600080fd5b5060a454610414906001600160a01b031681565b348015610c6957600080fd5b506103cb609e5481565b348015610c7f57600080fd5b506103a9610c8e366004614bad565b613487565b348015610c9f57600080fd5b50609854610414906001600160a01b031681565b348015610cbf57600080fd5b50609754610414906001600160a01b031681565b348015610cdf57600080fd5b506103cb610cee366004614b1d565b61357d565b348015610cff57600080fd5b50609c54610414906001600160a01b031681565b348015610d1f57600080fd5b506103cb610d2e366004614b1d565b600090815260a2602052604090206003015490565b348015610d4f57600080fd5b506103cb610d5e366004614b1d565b6135bc565b348015610d6f57600080fd5b506103a9610d7e366004614e79565b613804565b348015610d8f57600080fd5b506103a9610d9e366004614b5b565b6138ce565b348015610daf57600080fd5b506103a9610dbe366004614e79565b613987565b348015610dcf57600080fd5b506103cb610dde366004614b5b565b60a36020526000908152604090205481565b348015610dfc57600080fd5b506103a9610e0b366004614b5b565b613e9e565b348015610e1c57600080fd5b50609954610414906001600160a01b031681565b348015610e3c57600080fd5b506103a9610e4b366004614f3d565b613f36565b609e54600082815260a26020526040812080546002909101549192610e8b92670de0b6b3a764000092610e8592918391613fed565b90613ff9565b600092835260a260205260409092206003018290555090565b609754604051630935e01b60e21b81523360048201526000916001600160a01b0316906324d7806c9060240160206040518083038186803b158015610ee857600080fd5b505afa158015610efc573d6000803e3d6000fd5b505050506040513d601f19601f82011682018060405250810190610f209190614f62565b610f455760405162461bcd60e51b8152600401610f3c90614f7f565b60405180910390fd5b609b5460405163331faf7160e21b81523060048201526001600160a01b039091169063cc7ebdc49060240160206040518083038186803b158015610f8857600080fd5b505afa158015610f9c573d6000803e3d6000fd5b505050506040513d601f19601f82011682018060405250810190610fc09190614f9f565b905090565b609754604051630935e01b60e21b81523360048201526001600160a01b03909116906324d7806c9060240160206040518083038186803b15801561100857600080fd5b505afa15801561101c573d6000803e3d6000fd5b505050506040513d601f19601f820116820180604052508101906110409190614f62565b61105c5760405162461bcd60e51b8152600401610f3c90614f7f565b609854611072906001600160a01b031682614005565b50565b6033546001600160a01b0316331461109f5760405162461bcd60e51b8152600401610f3c90614fb8565b6001600160a01b038616158015906110bf57506001600160a01b03851615155b80156110d357506001600160a01b03841615155b80156110e757506001600160a01b03821615155b80156110fb57506001600160a01b03831615155b6111345760405162461bcd60e51b815260206004820152600a60248201526943686b4164647265737360b01b6044820152606401610f3c565b609780546001600160a01b03199081166001600160a01b03988916179091556098805482169688169690961790955560998054861694871694909417909355609a8054851692861692909217909155609b80548416918516919091179055609c80549092169216919091179055565b609754604051630935e01b60e21b81523360048201526001600160a01b03909116906324d7806c9060240160206040518083038186803b1580156111e657600080fd5b505afa1580156111fa573d6000803e3d6000fd5b505050506040513d601f19601f8201168201806040525081019061121e9190614f62565b61123a5760405162461bcd60e51b8152600401610f3c90614f7f565b6098546112529083906001600160a01b0316836140c7565b5050565b6040516370a0823160e01b81523060048201526000906001600160a01b038316906370a082319060240160206040518083038186803b15801561129857600080fd5b505afa1580156112ac573d6000803e3d6000fd5b505050506040513d601f19601f820116820180604052508101906112d09190614f9f565b92915050565b609754604051630935e01b60e21b81523360048201526001600160a01b03909116906324d7806c9060240160206040518083038186803b15801561131957600080fd5b505afa15801561132d573d6000803e3d6000fd5b505050506040513d601f19601f820116820180604052508101906113519190614f62565b61136d5760405162461bcd60e51b8152600401610f3c90614f7f565b6001600160a01b03918216600090815260a06020526040902080546001600160a01b03191691909216179055565b609754604051630935e01b60e21b81523360048201526001600160a01b03909116906324d7806c9060240160206040518083038186803b1580156113de57600080fd5b505afa1580156113f2573d6000803e3d6000fd5b505050506040513d601f19601f820116820180604052508101906114169190614f62565b6114325760405162461bcd60e51b8152600401610f3c90614f7f565b6001600160a01b03909316600081815260a860209081526040808320888452825280832086905592825260aa81528282209682529586528181209381529290945292902090815560010155565b609754604051630935e01b60e21b81523360048201526001600160a01b03909116906324d7806c9060240160206040518083038186803b1580156114c257600080fd5b505afa1580156114d6573d6000803e3d6000fd5b505050506040513d601f19601f820116820180604052508101906114fa9190614f62565b6115165760405162461bcd60e51b8152600401610f3c90614f7f565b60ac80546001600160a01b0319166001600160a01b0392909216919091179055565b609754604051630935e01b60e21b81523360048201526001600160a01b03909116906324d7806c9060240160206040518083038186803b15801561157b57600080fd5b505afa15801561158f573d6000803e3d6000fd5b505050506040513d601f19601f820116820180604052508101906115b39190614f62565b6115cf5760405162461bcd60e51b8152600401610f3c90614f7f565b600260655414156115f25760405162461bcd60e51b8152600401610f3c90614fed565b60026065556099546001600160a01b03166116395760405162461bcd60e51b815260206004820152600760248201526608551c91195c1b60ca1b6044820152606401610f3c565b6001600160a01b03808916600090815260a06020526040902054166116895760405162461bcd60e51b815260206004820152600660248201526521416c6c6f7760d01b6044820152606401610f3c565b8760a16000609d54815260200190815260200160002060000160006101000a8154816001600160a01b0302191690836001600160a01b0316021790555060a06000896001600160a01b03166001600160a01b0316815260200190815260200160002060009054906101000a90046001600160a01b031660a16000609d54815260200190815260200160002060010160006101000a8154816001600160a01b0302191690836001600160a01b03160217905550609960009054906101000a90046001600160a01b03166001600160a01b0316639ad423998888609d546040518463ffffffff1660e01b81526004016117829392919061507c565b602060405180830381600087803b15801561179c57600080fd5b505af11580156117b0573d6000803e3d6000fd5b505050506040513d601f19601f820116820180604052508101906117d491906150b2565b609d8054600090815260a160205260409081902060020180546001600160a01b0319166001600160a01b039485161790556099549154905163d93c178360e01b8152919092169163d93c17839161183291899189919060040161507c565b602060405180830381600087803b15801561184c57600080fd5b505af1158015611860573d6000803e3d6000fd5b505050506040513d601f19601f8201168201806040525081019061188491906150b2565b609d8054600090815260a16020908152604080832060030180546001600160a01b0319166001600160a01b039687161790558354835260a282528083206004908101805462ff000019166201000060ff8b811691820292909217909255865486528386208301805463ff00000019166301000000928b16928302179055865486528386208b905595548552828520426001919091015560ac548f8816865260a090945293829020549151634ac0ac1960e11b815291861690820152602481019390935260448301919091529091169063958158329060640160206040518083038186803b15801561197457600080fd5b505afa158015611988573d6000803e3d6000fd5b505050506040513d601f19601f820116820180604052508101906119ac9190614f9f565b609d8054600090815260a26020526040808220600201939093558154815291909120600401805461ffff1916612710179055546119e890610e50565b50609d54600081815260a16020908152604091829020600281015460039091015483519485526001600160a01b03918216928501929092521682820152517f90c97ca7d521ad09559475598e9202d092b7388790513e364cdac53a45d8ce4a9181900360600190a1609d54611a5e90600161412a565b609d5550506001606555505050505050565b600081815260a160209081526040808320546001600160a01b03908116845260a08352818420548251630ae9d70b60e41b81529251911692839263ae9d70b09260048083019392829003018186803b158015611acb57600080fd5b505afa158015611adf573d6000803e3d6000fd5b505050506040513d601f19601f82011682018060405250810190611b039190614f9f565b9392505050565b60026065541415611b2d5760405162461bcd60e51b8152600401610f3c90614fed565b6002606555600082815260a6602052604090205460ff16611b7b5760405162461bcd60e51b81526020600482015260086024820152670851195c1bdcda5d60c21b6044820152606401610f3c565b600082815260a160205260408120600181015490546001600160a01b0391821692911690611ba883611256565b90506001600160a01b038216611c6957833414611bf15760405162461bcd60e51b815260206004820152600760248201526608505b5bdd5b9d60ca1b6044820152606401610f3c565b611bfb3085614005565b60a460009054906101000a90046001600160a01b03166001600160a01b0316631249c58b856040518263ffffffff1660e01b81526004016000604051808303818588803b158015611c4b57600080fd5b505af1158015611c5f573d6000803e3d6000fd5b5050505050611d1f565b604051636eb1769f60e11b815284906001600160a01b0384169063dd62ed3e90611c9990339030906004016150cf565b60206040518083038186803b158015611cb157600080fd5b505afa158015611cc5573d6000803e3d6000fd5b505050506040513d601f19601f82011682018060405250810190611ce99190614f9f565b1015611d075760405162461bcd60e51b8152600401610f3c906150e9565b611d1382333087614136565b611d1d8285614174565b505b6000611d2a84611256565b9050611d358661431b565b50600082821115611ea257600087815260a26020526040812060040154611d68906012906301000000900460ff166143bd565b90506000611d81611d7a83600a615207565b8990613fed565b60008a815260a26020526040902060020154909150611dac90610e8583670de0b6b3a7640000613fed565b60a75460008b815260a16020526040908190206002015490516399953dbf60e01b81529295506001600160a01b03918216926399953dbf92611df59233929116906004016150cf565b600060405180830381600087803b158015611e0f57600080fd5b505af1158015611e23573d6000803e3d6000fd5b50505060008a815260a16020526040908190206002015490516340c10f1960e01b8152336004820152602481018690526001600160a01b0390911691506340c10f1990604401600060405180830381600087803b158015611e8357600080fd5b505af1158015611e97573d6000803e3d6000fd5b505050505050611ea6565b5060005b33600090815260a8602090815260408083208a8452909152902054611ecc90600161412a565b33600081815260a8602090815260408083208c8452825280832085905583835260aa82528083208c845282528083209483529381528382204281556001810186905583835260a382529184902043905583518b815290810192909252918101889052606081018390527f19f1e132571edb9da814c6ef6b15cfc69db767393405221724bf323db24459b89060800160405180910390a150506001606555505050505050565b609754604051630935e01b60e21b81523360048201526001600160a01b03909116906324d7806c9060240160206040518083038186803b158015611fb457600080fd5b505afa158015611fc8573d6000803e3d6000fd5b505050506040513d601f19601f82011682018060405250810190611fec9190614f62565b6120085760405162461bcd60e51b8152600401610f3c90614f7f565b6001600160a01b03909316600081815260a960209081526040808320888452825280832086905592825260ab81528282209682529586528181209381529290945292902090815560010155565b609754604051630935e01b60e21b81523360048201526001600160a01b03909116906324d7806c9060240160206040518083038186803b15801561209857600080fd5b505afa1580156120ac573d6000803e3d6000fd5b505050506040513d601f19601f820116820180604052508101906120d09190614f62565b6120ec5760405162461bcd60e51b8152600401610f3c90614f7f565b600093845260a26020526040909320600401805461ffff191661ffff9390931692909217909155609f805463ffffffff191663ffffffff909216919091179055609e55565b600081815260a1602090815260408083206002015481516318160ddd60e01b8152915184936001600160a01b03909216926318160ddd926004808301939192829003018186803b15801561218457600080fd5b505afa158015612198573d6000803e3d6000fd5b505050506040513d601f19601f820116820180604052508101906121bc9190614f9f565b600084815260a26020526040812060040154919250906121e8906012906301000000900460ff166143bd565b600085815260a2602052604090206002015490915061221f61220b83600a615207565b610e85670de0b6b3a7640000818786613fed565b95945050505050565b6033546001600160a01b031633146122525760405162461bcd60e51b8152600401610f3c90614fb8565b61225c60006143c9565b565b600260655414156122815760405162461bcd60e51b8152600401610f3c90614fed565b6002606555600082815260a6602052604090205460ff166122cf5760405162461bcd60e51b81526020600482015260086024820152670851195c1bdcda5d60c21b6044820152606401610f3c565b600082815260a160205260408120600181015490546001600160a01b03918216929116906122fc83611256565b600086815260a160205260409020549091506001600160a01b0316612354578334146123545760405162461bcd60e51b815260206004820152600760248201526608505b5bdd5b9d60ca1b6044820152606401610f3c565b61235d8561431b565b50600085815260a26020526040812060040154612386906012906301000000900460ff166143bd565b9050600061239f61239883600a615207565b8790613fed565b905060006123c26123b089896128ad565b610e8584670de0b6b3a7640000613fed565b90506001600160a01b03851661244a576123dc3088614005565b60a460009054906101000a90046001600160a01b03166001600160a01b0316631249c58b886040518263ffffffff1660e01b81526004016000604051808303818588803b15801561242c57600080fd5b505af1158015612440573d6000803e3d6000fd5b5050505050612500565b604051636eb1769f60e11b815287906001600160a01b0387169063dd62ed3e9061247a90339030906004016150cf565b60206040518083038186803b15801561249257600080fd5b505afa1580156124a6573d6000803e3d6000fd5b505050506040513d601f19601f820116820180604052508101906124ca9190614f9f565b10156124e85760405162461bcd60e51b8152600401610f3c906150e9565b6124f48533308a614136565b6124fe8588614174565b505b600061250b87611256565b90508481111561260a5760a75460008a815260a160205260409081902060030154905160016242337160e11b031981526001600160a01b039283169263ff7b991e9261255f923392909116906004016150cf565b600060405180830381600087803b15801561257957600080fd5b505af115801561258d573d6000803e3d6000fd5b50505060008a815260a16020526040908190206003015490516340c10f1960e01b8152336004820152602481018590526001600160a01b0390911691506340c10f1990604401600060405180830381600087803b1580156125ed57600080fd5b505af1158015612601573d6000803e3d6000fd5b5050505061260f565b600091505b33600090815260a9602090815260408083208c845290915290205461263590600161412a565b33600081815260a9602090815260408083208e8452825280832085905583835260ab82528083208e845282528083209483529381528382204281556001810187905583835260a382529184902043905583518d8152908101929092529181018a9052606081018490527ff08a1bcb4ad0b6bbcc3885d1221ff0ebc1fb9a7b8abc59447a94e305cc2491e19060800160405180910390a1505060016065555050505050505050565b609754604051630935e01b60e21b81523360048201526001600160a01b03909116906324d7806c9060240160206040518083038186803b15801561271f57600080fd5b505afa158015612733573d6000803e3d6000fd5b505050506040513d601f19601f820116820180604052508101906127579190614f62565b6127735760405162461bcd60e51b8152600401610f3c90614f7f565b600260655414156127965760405162461bcd60e51b8152600401610f3c90614fed565b600260655560006127a5610ea4565b905080156128a457609b546040516374d7814960e11b81523060048201526001600160a01b039091169063e9af029290602401600060405180830381600087803b1580156127f257600080fd5b505af1158015612806573d6000803e3d6000fd5b5050609a546040516370a0823160e01b8152306004820152600093506001600160a01b0390911691506370a082319060240160206040518083038186803b15801561285057600080fd5b505afa158015612864573d6000803e3d6000fd5b505050506040513d601f19601f820116820180604052508101906128889190614f9f565b609a549091506128a2906001600160a01b031684836140c7565b505b50506001606555565b600082815260a1602090815260408083206003015481516318160ddd60e01b81529151849384936001600160a01b03909316926318160ddd9260048083019392829003018186803b15801561290157600080fd5b505afa158015612915573d6000803e3d6000fd5b505050506040513d601f19601f820116820180604052508101906129399190614f9f565b600086815260a260205260409020600401549091506301000000900460ff1684601282101561297e5761297b6129706012846143bd565b61239890600a615207565b90505b600061298a848361412a565b905060006129a18861299b8b6135bc565b9061412a565b905060006129ae8a612131565b90508082106129c8576129c182826143bd565b96506129cd565b600096505b6012851080156129dd5750600087115b15612a0557612a026129f06012876143bd565b6129fb90600a615207565b8890613fed565b96505b600087118015612a155750600083115b15612a3757612a3083610e8589670de0b6b3a7640000613fed565b9750612a43565b670de0b6b3a764000097505b5050505050505092915050565b60026065541415612a735760405162461bcd60e51b8152600401610f3c90614fed565b6002606555609f5433600090815260a3602052604090205463ffffffff91821691612aa09143916143bd16565b1015612ad95760405162461bcd60e51b815260206004820152600860248201526708551a5b595bdd5d60c21b6044820152606401610f3c565b600082815260a1602052604090819020600201549051636eb1769f60e11b815282916001600160a01b03169063dd62ed3e90612b1b90339030906004016150cf565b60206040518083038186803b158015612b3357600080fd5b505afa158015612b47573d6000803e3d6000fd5b505050506040513d601f19601f82011682018060405250810190612b6b9190614f9f565b1015612b895760405162461bcd60e51b8152600401610f3c906150e9565b600082815260a16020526040902060020154612bb0906001600160a01b0316333084614136565b600080600080612bbf8661431b565b50600086815260a26020526040812060020154612beb90670de0b6b3a764000090610e85908990613fed565b600088815260a2602052604081206004015491925090612c17906012906301000000900460ff166143bd565b90506000612c30612c2983600a615207565b8490613ff9565b60008a815260a160205260408120600101549192506001600160a01b0390911690612c5a82611256565b60008c815260a1602090815260408083205460a2909252909120600401549192506001600160a01b03169061ffff1681612d6d5760a554612ca69085906001600160a01b0316856140c7565b4760a554604051637c5a6d5560e01b8152919c506001600160a01b031690637c5a6d5590612cdf90889030906000908990600401615213565b600060405180830381600087803b158015612cf957600080fd5b505af1158015612d0d573d6000803e3d6000fd5b50505050612d228b612d1c4790565b906143bd565b9950612d34612710610e858c84613fed565b9850612d40338a614005565b612d4a8a8a6143bd565b97508715612d6857609854612d68906001600160a01b031689614005565b612df4565b612d7682611256565b9a506000612d868387600061441b565b90508015612d9c57612d9a8385600161441b565b505b612da98c612d1c85611256565b9a50612dbb612710610e858d85613fed565b9950612dc883338c6140c7565b612dd28b8b6143bd565b98508815612df257609854612df29084906001600160a01b03168b6140c7565b505b60a754604051632cd6c9c560e01b81523360048201526000916001600160a01b031690632cd6c9c590602401602060405180830381600087803b158015612e3a57600080fd5b505af1158015612e4e573d6000803e3d6000fd5b505050506040513d601f19601f82011682018060405250810190612e729190614f62565b9050808015612e81575060008d115b15612e9057612e908e8e61457d565b60008e815260a1602052604090819020600201549051630852cd8d60e31b8152600481018f90526001600160a01b03909116906342966c6890602401600060405180830381600087803b158015612ee657600080fd5b505af1158015612efa573d6000803e3d6000fd5b505050504360a36000336001600160a01b03166001600160a01b03168152602001908152602001600020819055507f34d60a41478d47b695f40c0225fdee00c6c598107d7ab9475382a02520cc56498e3360008d8d604051612f879594939291909485526001600160a01b0393909316602085015260408401919091526060830152608082015260a00190565b60405180910390a150506001606555505050505050505050505050565b609754604051630935e01b60e21b81523360048201526001600160a01b03909116906324d7806c9060240160206040518083038186803b158015612fe757600080fd5b505afa158015612ffb573d6000803e3d6000fd5b505050506040513d601f19601f8201168201806040525081019061301f9190614f62565b61303b5760405162461bcd60e51b8152600401610f3c90614f7f565b60a580546001600160a01b0319166001600160a01b0392909216919091179055565b609754604051630935e01b60e21b81523360048201526001600160a01b03909116906324d7806c9060240160206040518083038186803b1580156130a057600080fd5b505afa1580156130b4573d6000803e3d6000fd5b505050506040513d601f19601f820116820180604052508101906130d89190614f62565b6130f45760405162461bcd60e51b8152600401610f3c90614f7f565b600260655414156131175760405162461bcd60e51b8152600401610f3c90614fed565b6002606555600082815260a160205260408120805460019091015482916001600160a01b0390811691839161314c9116611256565b90506001600160a01b0382166131f0574760a554604051637c5a6d5560e01b81529195506001600160a01b031690637c5a6d559061319590889030906001908790600401615213565b600060405180830381600087803b1580156131af57600080fd5b505af11580156131c3573d6000803e3d6000fd5b505050506131d284612d1c4790565b6098549093506131eb906001600160a01b031684614005565b613269565b6131f982611256565b93506132078286600161441b565b156132455760405162461bcd60e51b815260206004820152600e60248201526d10b8b4aa37b5b2b720b739bbb2b960911b6044820152606401610f3c565b61324e82611256565b6098549093506132699083906001600160a01b0316856140c7565b5050600160655550505050565b609754604051630935e01b60e21b81523360048201526001600160a01b03909116906324d7806c9060240160206040518083038186803b1580156132b957600080fd5b505afa1580156132cd573d6000803e3d6000fd5b505050506040513d601f19601f820116820180604052508101906132f19190614f62565b61330d5760405162461bcd60e51b8152600401610f3c90614f7f565b60128260ff1611158015613325575060128160ff1611155b61335a5760405162461bcd60e51b8152600401610f3c906020808252600490820152634465637360e01b604082015260600190565b600092835260a26020526040909220600401805463ffff000019166201000060ff9384160263ff00000019161763010000009290931691909102919091179055565b609754604051630935e01b60e21b81523360048201526001600160a01b03909116906324d7806c9060240160206040518083038186803b1580156133df57600080fd5b505afa1580156133f3573d6000803e3d6000fd5b505050506040513d601f19601f820116820180604052508101906134179190614f62565b6134335760405162461bcd60e51b8152600401610f3c90614f7f565b60a480546001600160a01b039092166001600160a01b031992831681179091556000805260a06020527fb84a74ec6ef4d0e83b6006dfaa014ab4026f9f3b97d186e604d29998a4e808ea8054909216179055565b600054610100900460ff16806134a0575060005460ff16155b6134bc5760405162461bcd60e51b8152600401610f3c90615239565b600054610100900460ff161580156134de576000805461ffff19166101011790555b6134e6614636565b609780546001600160a01b03808a166001600160a01b0319928316179092556098805489841690831617905560998054888416908316179055609a8054878416908316179055609b8054868416908316179055609c805492851692909116919091179055609f805463ffffffff191660031790556301e187e0609e558015613574576000805461ff00191690555b50505050505050565b600080613589836135bc565b9050600061359684612131565b9050808211156135b2576135aa82826143bd565b949350505050565b5060009392505050565b600081815260a1602090815260408083206001015460a290925280832060049081015460ac549251634ac0ac1960e11b81526001600160a01b0394851692810183905260ff63010000008304811660248301819052620100009093041660448201819052929491938692169063958158329060640160206040518083038186803b15801561364957600080fd5b505afa15801561365d573d6000803e3d6000fd5b505050506040513d601f19601f820116820180604052508101906136819190614f9f565b60ac5460405163057dc5b560e11b815260048101869052602481018590529192506000916001600160a01b0390911690630afb8b6a9060440160206040518083038186803b1580156136d257600080fd5b505afa1580156136e6573d6000803e3d6000fd5b505050506040513d601f19601f8201168201806040525081019061370a9190614f9f565b9050601281101561373c576137356137236012836143bd565b61372e90600a615207565b8390613ff9565b91506137bc565b60ac54604051630869e04b60e11b81526001600160a01b038781166004830152909116906310d3c0969060240160206040518083038186803b15801561378157600080fd5b505afa158015613795573d6000803e3d6000fd5b505050506040513d601f19601f820116820180604052508101906137b99190614f9f565b91505b600087815260a160205260408120600101546137e0906001600160a01b0316611256565b90506137f8670de0b6b3a7640000610e858386613fed565b98975050505050505050565b609754604051630935e01b60e21b81523360048201526001600160a01b03909116906324d7806c9060240160206040518083038186803b15801561384757600080fd5b505afa15801561385b573d6000803e3d6000fd5b505050506040513d601f19601f8201168201806040525081019061387f9190614f62565b61389b5760405162461bcd60e51b8152600401610f3c90614f7f565b600082815260a2602052604090208190556138b58261431b565b600092835260a260205260409092206002019190915550565b609754604051630935e01b60e21b81523360048201526001600160a01b03909116906324d7806c9060240160206040518083038186803b15801561391157600080fd5b505afa158015613925573d6000803e3d6000fd5b505050506040513d601f19601f820116820180604052508101906139499190614f62565b6139655760405162461bcd60e51b8152600401610f3c90614f7f565b60a780546001600160a01b0319166001600160a01b0392909216919091179055565b600260655414156139aa5760405162461bcd60e51b8152600401610f3c90614fed565b6002606555609f5433600090815260a3602052604090205463ffffffff918216916139d79143916143bd16565b1015613a105760405162461bcd60e51b815260206004820152600860248201526708551a5b595bdd5d60c21b6044820152606401610f3c565b600082815260a1602052604090819020600301549051636eb1769f60e11b815282916001600160a01b03169063dd62ed3e90613a5290339030906004016150cf565b60206040518083038186803b158015613a6a57600080fd5b505afa158015613a7e573d6000803e3d6000fd5b505050506040513d601f19601f82011682018060405250810190613aa29190614f9f565b1015613ac05760405162461bcd60e51b8152600401610f3c906150e9565b600082815260a16020526040902060030154613ae7906001600160a01b0316333084614136565b600080600080613af68661431b565b506000613b13670de0b6b3a7640000610e85611d7a8a60006128ad565b600088815260a2602052604081206004015491925090613b3f906012906301000000900460ff166143bd565b90506000613b51612c2983600a615207565b60008a815260a160205260408120600101549192506001600160a01b0390911690613b7b82611256565b60008c815260a1602090815260408083205460a2909252909120600401549192506001600160a01b03169061ffff1681613c885760a554613bc79085906001600160a01b0316856140c7565b4760a554604051637c5a6d5560e01b8152919c506001600160a01b031690637c5a6d5590613c0090889030906000908990600401615213565b600060405180830381600087803b158015613c1a57600080fd5b505af1158015613c2e573d6000803e3d6000fd5b50505050613c3d8b612d1c4790565b9950613c4f612710610e858c84613fed565b9850613c5b338a614005565b613c658a8a6143bd565b97508715613c8357609854613c83906001600160a01b031689614005565b613d0b565b613c9182611256565b9a506000613ca18387600061441b565b90508015613cb757613cb58385600161441b565b505b613cc083611256565b9a50613cd2612710610e858d85613fed565b9950613cdf83338c6140c7565b613ce98b8b6143bd565b98508815613d0957609854613d099084906001600160a01b03168b6140c7565b505b60a754604051632cd6c9c560e01b81523360048201526000916001600160a01b031690632cd6c9c590602401602060405180830381600087803b158015613d5157600080fd5b505af1158015613d65573d6000803e3d6000fd5b505050506040513d601f19601f82011682018060405250810190613d899190614f62565b9050808015613d98575060008d115b15613da757613da78e8e6146b1565b60008e815260a1602052604090819020600301549051630852cd8d60e31b8152600481018f90526001600160a01b03909116906342966c6890602401600060405180830381600087803b158015613dfd57600080fd5b505af1158015613e11573d6000803e3d6000fd5b505050504360a36000336001600160a01b03166001600160a01b03168152602001908152602001600020819055507f9c8ce079d38dc08e2831c9fa769dff19e30a8b2d69c4924a73129038eee8fcab8e3360008d8d604051612f879594939291909485526001600160a01b0393909316602085015260408401919091526060830152608082015260a00190565b6033546001600160a01b03163314613ec85760405162461bcd60e51b8152600401610f3c90614fb8565b6001600160a01b038116613f2d5760405162461bcd60e51b815260206004820152602660248201527f4f776e61626c653a206e6577206f776e657220697320746865207a65726f206160448201526564647265737360d01b6064820152608401610f3c565b611072816143c9565b609754604051630935e01b60e21b81523360048201526001600160a01b03909116906324d7806c9060240160206040518083038186803b158015613f7957600080fd5b505afa158015613f8d573d6000803e3d6000fd5b505050506040513d601f19601f82011682018060405250810190613fb19190614f62565b613fcd5760405162461bcd60e51b8152600401610f3c90614f7f565b600091825260a66020526040909120805460ff1916911515919091179055565b6000611b038284615287565b6000611b0382846152a6565b604080516000808252602082019092526001600160a01b03841690839060405161402f91906152c8565b60006040518083038185875af1925050503d806000811461406c576040519150601f19603f3d011682016040523d82523d6000602084013e614071565b606091505b50509050806140c25760405162461bcd60e51b815260206004820152601760248201527f544820415641585f5452414e534645525f4641494c45440000000000000000006044820152606401610f3c565b505050565b6040516001600160a01b0383166024820152604481018290526140c290849063a9059cbb60e01b906064015b60408051601f198184030181529190526020810180516001600160e01b03166001600160e01b031990931692909217909152614763565b6000611b0382846152e4565b6040516001600160a01b038085166024830152831660448201526064810182905261416e9085906323b872dd60e01b906084016140f3565b50505050565b6001600160a01b03808316600090815260a06020526040812054909116806141c85760405162461bcd60e51b8152602060048201526007602482015266085058d8d95c1d60ca1b6044820152606401610f3c565b83816141d5828287614835565b604051636eb1769f60e11b815285906001600160a01b0384169063dd62ed3e9061420590309088906004016150cf565b60206040518083038186803b15801561421d57600080fd5b505afa158015614231573d6000803e3d6000fd5b505050506040513d601f19601f820116820180604052508101906142559190614f9f565b10156142935760405162461bcd60e51b815260206004820152600d60248201526c10a0b63637bba8b4aa37b5b2b760991b6044820152606401610f3c565b60405163140e25ad60e31b8152600481018690526000906001600160a01b0383169063a0712d6890602401602060405180830381600087803b1580156142d857600080fd5b505af11580156142ec573d6000803e3d6000fd5b505050506040513d601f19601f820116820180604052508101906143109190614f9f565b979650505050505050565b600061432682610e50565b50600082815260a260205260408120600101546143449042906143bd565b905080156143a657600083815260a260205260408120600301546143689083613fed565b600085815260a26020526040902060020154909150614387908261412a565b600085815260a260205260409020600281019190915542600190910155505b5050600090815260a2602052604090206002015490565b6000611b0382846152fc565b603380546001600160a01b038381166001600160a01b0319831681179093556040519116919082907f8be0079c531659141344cd1fd0a4f28419497f9722a3daafe3b4186f6b6457e090600090a35050565b6001600160a01b03808416600090815260a060205260408120549091168061446f5760405162461bcd60e51b8152602060048201526007602482015266085058d8d95c1d60ca1b6044820152606401610f3c565b8083156144f75760405163db006a7560e01b8152600481018690526001600160a01b0382169063db006a7590602401602060405180830381600087803b1580156144b857600080fd5b505af11580156144cc573d6000803e3d6000fd5b505050506040513d601f19601f820116820180604052508101906144f09190614f9f565b9250614574565b60405163852a12e360e01b8152600481018690526001600160a01b0382169063852a12e390602401602060405180830381600087803b15801561453957600080fd5b505af115801561454d573d6000803e3d6000fd5b505050506040513d601f19601f820116820180604052508101906145719190614f9f565b92505b50509392505050565b33600090815260a8602090815260408083208584529091529020548160015b82811161462f5733600090815260aa602090815260408083208884528252808320848452909152902060018101541561461157828160010154116145f85760018101546145ea9084906143bd565b600060018301559250614611565b600181015461460790846143bd565b6001820155600092505b8261461c575061462f565b508061462781615313565b91505061459c565b5050505050565b600054610100900460ff168061464f575060005460ff16155b61466b5760405162461bcd60e51b8152600401610f3c90615239565b600054610100900460ff1615801561468d576000805461ffff19166101011790555b614695614958565b61469d6149c2565b8015611072576000805461ff001916905550565b33600090815260a9602090815260408083208584529091529020548160015b82811161462f5733600090815260ab6020908152604080832088845282528083208484529091529020600181015415614745578281600101541161472c57600181015461471e9084906143bd565b600060018301559250614745565b600181015461473b90846143bd565b6001820155600092505b82614750575061462f565b508061475b81615313565b9150506146d0565b60006147b8826040518060400160405280602081526020017f5361666545524332303a206c6f772d6c6576656c2063616c6c206661696c6564815250856001600160a01b0316614a229092919063ffffffff16565b8051909150156140c257808060200190518101906147d69190614f62565b6140c25760405162461bcd60e51b815260206004820152602a60248201527f5361666545524332303a204552433230206f7065726174696f6e20646964206e6044820152691bdd081cdd58d8d9595960b21b6064820152608401610f3c565b8015806148bd5750604051636eb1769f60e11b81526001600160a01b0384169063dd62ed3e9061486b90309086906004016150cf565b60206040518083038186803b15801561488357600080fd5b505afa158015614897573d6000803e3d6000fd5b505050506040513d601f19601f820116820180604052508101906148bb9190614f9f565b155b6149285760405162461bcd60e51b815260206004820152603660248201527f5361666545524332303a20617070726f76652066726f6d206e6f6e2d7a65726f60448201527520746f206e6f6e2d7a65726f20616c6c6f77616e636560501b6064820152608401610f3c565b6040516001600160a01b0383166024820152604481018290526140c290849063095ea7b360e01b906064016140f3565b600054610100900460ff1680614971575060005460ff16155b61498d5760405162461bcd60e51b8152600401610f3c90615239565b600054610100900460ff1615801561469d576000805461ffff19166101011790558015611072576000805461ff001916905550565b600054610100900460ff16806149db575060005460ff16155b6149f75760405162461bcd60e51b8152600401610f3c90615239565b600054610100900460ff16158015614a19576000805461ffff19166101011790555b61469d336143c9565b60606135aa848460008585843b614a7b5760405162461bcd60e51b815260206004820152601d60248201527f416464726573733a2063616c6c20746f206e6f6e2d636f6e74726163740000006044820152606401610f3c565b600080866001600160a01b03168587604051614a9791906152c8565b60006040518083038185875af1925050503d8060008114614ad4576040519150601f19603f3d011682016040523d82523d6000602084013e614ad9565b606091505b509150915061431082828660608315614af3575081611b03565b825115614b035782518084602001fd5b8160405162461bcd60e51b8152600401610f3c919061532e565b600060208284031215614b2f57600080fd5b5035919050565b6001600160a01b038116811461107257600080fd5b8035614b5681614b36565b919050565b600060208284031215614b6d57600080fd5b8135611b0381614b36565b600080600060608486031215614b8d57600080fd5b8335614b9881614b36565b95602085013595506040909401359392505050565b60008060008060008060c08789031215614bc657600080fd5b8635614bd181614b36565b95506020870135614be181614b36565b94506040870135614bf181614b36565b93506060870135614c0181614b36565b92506080870135614c1181614b36565b915060a0870135614c2181614b36565b809150509295509295509295565b60008060408385031215614c4257600080fd5b8235614c4d81614b36565b946020939093013593505050565b60008060408385031215614c6e57600080fd5b8235614c7981614b36565b91506020830135614c8981614b36565b809150509250929050565b600080600080600060a08688031215614cac57600080fd5b853594506020860135614cbe81614b36565b94979496505050506040830135926060810135926080909101359150565b634e487b7160e01b600052604160045260246000fd5b600082601f830112614d0357600080fd5b813567ffffffffffffffff80821115614d1e57614d1e614cdc565b604051601f8301601f19908116603f01168101908282118183101715614d4657614d46614cdc565b81604052838152866020858801011115614d5f57600080fd5b836020870160208301376000602085830101528094505050505092915050565b803560ff81168114614b5657600080fd5b600080600080600080600080610100898b031215614dad57600080fd5b614db689614b4b565b9750602089013567ffffffffffffffff80821115614dd357600080fd5b614ddf8c838d01614cf2565b985060408b0135915080821115614df557600080fd5b614e018c838d01614cf2565b975060608b0135915080821115614e1757600080fd5b614e238c838d01614cf2565b965060808b0135915080821115614e3957600080fd5b50614e468b828c01614cf2565b94505060a08901359250614e5c60c08a01614d7f565b9150614e6a60e08a01614d7f565b90509295985092959890939650565b60008060408385031215614e8c57600080fd5b50508035926020909101359150565b60008060008060808587031215614eb157600080fd5b84359350602085013561ffff81168114614eca57600080fd5b9250604085013563ffffffff81168114614ee357600080fd5b9396929550929360600135925050565b600080600060608486031215614f0857600080fd5b83359250614f1860208501614d7f565b9150614f2660408501614d7f565b90509250925092565b801515811461107257600080fd5b60008060408385031215614f5057600080fd5b823591506020830135614c8981614f2f565b600060208284031215614f7457600080fd5b8151611b0381614f2f565b60208082526006908201526510a0b236b4b760d11b604082015260600190565b600060208284031215614fb157600080fd5b5051919050565b6020808252818101527f4f776e61626c653a2063616c6c6572206973206e6f7420746865206f776e6572604082015260600190565b6020808252601f908201527f5265656e7472616e637947756172643a207265656e7472616e742063616c6c00604082015260600190565b60005b8381101561503f578181015183820152602001615027565b8381111561416e5750506000910152565b60008151808452615068816020860160208601615024565b601f01601f19169290920160200192915050565b60608152600061508f6060830186615050565b82810360208401526150a18186615050565b915050826040830152949350505050565b6000602082840312156150c457600080fd5b8151611b0381614b36565b6001600160a01b0392831681529116602082015260400190565b6020808252600a908201526921416c6c6f77616e636560b01b604082015260600190565b634e487b7160e01b600052601160045260246000fd5b600181815b8085111561515e5781600019048211156151445761514461510d565b8085161561515157918102915b93841c9390800290615128565b509250929050565b600082615175575060016112d0565b81615182575060006112d0565b816001811461519857600281146151a2576151be565b60019150506112d0565b60ff8411156151b3576151b361510d565b50506001821b6112d0565b5060208310610133831016604e8410600b84101617156151e1575081810a6112d0565b6151eb8383615123565b80600019048211156151ff576151ff61510d565b029392505050565b6000611b038383615166565b9384526001600160a01b0392909216602084015215156040830152606082015260800190565b6020808252602e908201527f496e697469616c697a61626c653a20636f6e747261637420697320616c72656160408201526d191e481a5b9a5d1a585b1a5e995960921b606082015260800190565b60008160001904831182151516156152a1576152a161510d565b500290565b6000826152c357634e487b7160e01b600052601260045260246000fd5b500490565b600082516152da818460208701615024565b9190910192915050565b600082198211156152f7576152f761510d565b500190565b60008282101561530e5761530e61510d565b500390565b60006000198214156153275761532761510d565b5060010190565b602081526000611b03602083018461505056fea26469706673582212206912bfc6be3f5c4b7ff6942dbd52e5a3e5b3e6b9a1e84084ef54e29e7de7e80d64736f6c63430008080033",
  "immutableReferences": {},
  "source": "// SPDX-License-Identifier: MIT\n/**\n * Created on 2021-12-15\n * @summary: Jibrel BenQi Tranche Protocol\n * @author: Jibrel Team\n */\npragma solidity ^0.8.0;\n\nimport \"@openzeppelin/contracts-upgradeable/utils/math/SafeMathUpgradeable.sol\";\nimport \"@openzeppelin/contracts-upgradeable/token/ERC20/utils/SafeERC20Upgradeable.sol\";\nimport \"@openzeppelin/contracts-upgradeable/security/ReentrancyGuardUpgradeable.sol\";\nimport \"./interfaces/IJAdminTools.sol\";\nimport \"./interfaces/IJTrancheTokens.sol\";\nimport \"./interfaces/IJTranchesDeployer.sol\";\nimport \"./interfaces/IJBenQi.sol\";\nimport \"./interfaces/IQiErc20.sol\";\nimport \"./interfaces/IComptrollerLensInterface.sol\";\nimport \"./JBenQiStorage.sol\";\nimport \"./TransferAVAXHelper.sol\";\nimport \"./interfaces/IIncentivesController.sol\";\nimport \"./interfaces/IJBenQiHelper.sol\";\n\n\ncontract JBenQi is OwnableUpgradeable, ReentrancyGuardUpgradeable, JBenQiStorageV2, IJBenQi {\n    using SafeMathUpgradeable for uint256;\n\n    /**\n     * @dev contract initializer\n     * @param _adminTools price oracle address\n     * @param _feesCollector fees collector contract address\n     * @param _tranchesDepl tranches deployer contract address\n     * @param _qiTokenAddress COMP token contract address\n     * @param _comptrollAddress comptroller contract address\n     * @param _rewardsToken rewards token address (slice token address)\n     */\n    function initialize(address _adminTools, \n            address _feesCollector, \n            address _tranchesDepl,\n            address _qiTokenAddress,\n            address _comptrollAddress,\n            address _rewardsToken) external initializer() {\n        OwnableUpgradeable.__Ownable_init();\n        adminToolsAddress = _adminTools;\n        feesCollectorAddress = _feesCollector;\n        tranchesDeployerAddress = _tranchesDepl;\n        qiTokenAddress = _qiTokenAddress;\n        trollerAddress = _comptrollAddress;\n        rewardsToken = _rewardsToken;\n        redeemTimeout = 3; //default\n        // totalBlocksPerYear = 2102400; // same number like in BenQi protocol\n        totalBlocksPerYear = 31557600; // secondonds in 1 year\n    }\n\n    /**\n     * @dev admins modifiers\n     */\n    modifier onlyAdmins() {\n        require(IJAdminTools(adminToolsAddress).isAdmin(msg.sender), \"!Admin\");\n        _;\n    }\n\n    // This is needed to receive ETH\n    fallback() external payable {}\n    receive() external payable {}\n\n    /**\n     * @dev set constants for JBenQi\n     * @param _trNum tranche number\n     * @param _redemPerc redemption percentage (scaled by 1e4)\n     * @param _redemTimeout redemption timeout, in blocks\n     * @param _blocksPerYear blocks per year (31.557.600 seconds in 1 year)\n     */\n    function setConstantsValues(uint256 _trNum, uint16 _redemPerc, uint32 _redemTimeout, uint256 _blocksPerYear) external onlyAdmins {\n        trancheParameters[_trNum].redemptionPercentage = _redemPerc;\n        redeemTimeout = _redemTimeout;\n        totalBlocksPerYear = _blocksPerYear;\n    }\n\n    /**\n     * @dev set eth gateway \n     * @param _avaxGateway avaxGateway address\n     */\n    function setAVAXGateway(address _avaxGateway) external onlyAdmins {\n        avaxGateway = IAVAXGateway(_avaxGateway);\n    }\n\n    /**\n     * @dev set incentive rewards address\n     * @param _incentivesController incentives controller contract address\n     */\n    function setIncentivesControllerAddress(address _incentivesController) external override onlyAdmins {\n        incentivesControllerAddress = _incentivesController;\n    }\n\n    /**\n     * @dev get incentive rewards address\n     */\n    function getIncentivesControllerAddress() external view override returns (address) {\n        return incentivesControllerAddress;\n    }\n\n    /**\n     * @dev set incentive rewards address\n     * @param _helper JBenQi helper contract address\n     */\n    function setBenQiHelperAddress(address _helper) external onlyAdmins {\n        jBenQiHelperAddress = _helper;\n    }\n\n    /**\n     * @dev set new addresses for price oracle, fees collector and tranche deployer \n     * @param _adminTools price oracle address\n     * @param _feesCollector fees collector contract address\n     * @param _tranchesDepl tranches deployer contract address\n     * @param _qiTokenAddress COMP token contract address\n     * @param _comptrollAddress comptroller contract address\n     * @param _rewardsToken rewards token address (slice token address)\n     */\n    function setNewEnvironment(address _adminTools, \n            address _feesCollector, \n            address _tranchesDepl,\n            address _qiTokenAddress,\n            address _comptrollAddress,\n            address _rewardsToken) external onlyOwner {\n        require((_adminTools != address(0)) && (_feesCollector != address(0)) && \n            (_tranchesDepl != address(0)) && (_comptrollAddress != address(0)) && (_qiTokenAddress != address(0)), \"ChkAddress\");\n        adminToolsAddress = _adminTools;\n        feesCollectorAddress = _feesCollector;\n        tranchesDeployerAddress = _tranchesDepl;\n        qiTokenAddress = _qiTokenAddress;\n        trollerAddress = _comptrollAddress;\n        rewardsToken = _rewardsToken;\n    }\n\n    /**\n     * @dev set relationship between AVAX and the corresponding BenQi qiAVAX contract\n     * @param _QiAvaxContract BenQi token contract address\n     */\n    function setQiAvaxContract(address _QiAvaxContract) external onlyAdmins {\n        qiAVAXToken = IQiAvax(_QiAvaxContract);\n        qiTokenContracts[address(0)] = _QiAvaxContract;\n    }\n\n    /**\n     * @dev set relationship between a token and the corresponding BenQi qiToken contract\n     * @param _erc20Contract token contract address \n     * @param _QiErc20Contract BenQi token contract address \n     */\n    function setQiTokenContract(address _erc20Contract, address _QiErc20Contract) external onlyAdmins {\n        qiTokenContracts[_erc20Contract] = _QiErc20Contract;\n    }\n\n    /**\n     * @dev check if a qiToken is allowed or not\n     * @param _erc20Contract token contract address (i.e. DAI contract, on Kovan: 0x4f96fe3b7a6cf9725f59d353f723c1bdb64ca6aa)\n     * @return true or false\n     */\n    function isQiTokenAllowed(address _erc20Contract) public view returns (bool) {\n        return qiTokenContracts[_erc20Contract] != address(0);\n    }\n\n    /**\n     * @dev get RPB from compound\n     * @param _trancheNum tranche number\n     * @return qiToken compound supply RPB\n     */\n    function getCompoundSupplyRPB(uint256 _trancheNum) external view returns (uint256) {\n        IQiErc20 qiToken = IQiErc20(qiTokenContracts[trancheAddresses[_trancheNum].buyerCoinAddress]);\n        return qiToken.supplyRatePerBlock();\n    }\n\n    /**\n     * @dev check if a qiToken is allowed or not\n     * @param _trancheNum tranche number\n     * @param _qiTokenDec qiToken decimals\n     * @param _underlyingDec underlying token decimals\n     */\n    function setDecimals(uint256 _trancheNum, uint8 _qiTokenDec, uint8 _underlyingDec) external onlyAdmins {\n        require((_qiTokenDec <= 18) && (_underlyingDec <= 18), \"Decs\");\n        trancheParameters[_trancheNum].qiTokenDecimals = _qiTokenDec;\n        trancheParameters[_trancheNum].underlyingDecimals = _underlyingDec;\n    }\n\n    /**\n     * @dev set tranche A fixed percentage (scaled by 1e18)\n     * @param _trancheNum tranche number\n     * @param _newTrAPercentage new tranche A fixed percentage (scaled by 1e18)\n     */\n    function setTrancheAFixedPercentage(uint256 _trancheNum, uint256 _newTrAPercentage) external onlyAdmins {\n        trancheParameters[_trancheNum].trancheAFixedPercentage = _newTrAPercentage;\n        trancheParameters[_trancheNum].storedTrancheAPrice = setTrancheAExchangeRate(_trancheNum);\n    }\n\n    /**\n     * @dev add tranche in protocol\n     * @param _erc20Contract token contract address (0x0000000000000000000000000000000000000000 if eth)\n     * @param _nameA tranche A token name\n     * @param _symbolA tranche A token symbol\n     * @param _nameB tranche B token name\n     * @param _symbolB tranche B token symbol\n     * @param _fixedRpb tranche A percentage fixed compounded interest per year\n     * @param _qiTokenDec qiToken decimals\n     * @param _underlyingDec underlying token decimals\n     */\n    function addTrancheToProtocol(address _erc20Contract, string memory _nameA, string memory _symbolA, string memory _nameB, \n                string memory _symbolB, uint256 _fixedRpb, uint8 _qiTokenDec, uint8 _underlyingDec) external onlyAdmins nonReentrant {\n        require(tranchesDeployerAddress != address(0), \"!TrDepl\");\n        require(isQiTokenAllowed(_erc20Contract), \"!Allow\");\n\n        trancheAddresses[tranchePairsCounter].buyerCoinAddress = _erc20Contract;\n        trancheAddresses[tranchePairsCounter].qiTokenAddress = qiTokenContracts[_erc20Contract];\n        // our tokens always with 18 decimals\n        trancheAddresses[tranchePairsCounter].ATrancheAddress = \n                IJTranchesDeployer(tranchesDeployerAddress).deployNewTrancheATokens(_nameA, _symbolA, tranchePairsCounter);\n        trancheAddresses[tranchePairsCounter].BTrancheAddress = \n                IJTranchesDeployer(tranchesDeployerAddress).deployNewTrancheBTokens(_nameB, _symbolB, tranchePairsCounter);\n        \n        trancheParameters[tranchePairsCounter].qiTokenDecimals = _qiTokenDec;\n        trancheParameters[tranchePairsCounter].underlyingDecimals = _underlyingDec;\n        trancheParameters[tranchePairsCounter].trancheAFixedPercentage = _fixedRpb;\n        trancheParameters[tranchePairsCounter].trancheALastActionBlock = block.timestamp;\n        // if we would like to have always 18 decimals\n        trancheParameters[tranchePairsCounter].storedTrancheAPrice = \n            IJBenQiHelper(jBenQiHelperAddress).getBenQiPriceHelper(qiTokenContracts[_erc20Contract], _underlyingDec, _qiTokenDec);\n\n        trancheParameters[tranchePairsCounter].redemptionPercentage = 10000;  //default value 99.9%\n\n        calcRPBFromPercentage(tranchePairsCounter); // initialize tranche A RPB\n\n        emit TrancheAddedToProtocol(tranchePairsCounter, trancheAddresses[tranchePairsCounter].ATrancheAddress, trancheAddresses[tranchePairsCounter].BTrancheAddress);\n\n        tranchePairsCounter = tranchePairsCounter.add(1);\n    } \n\n    /**\n     * @dev enables or disables tranche deposit (default: disabled)\n     * @param _trancheNum tranche number\n     * @param _enable true or false\n     */\n    function setTrancheDeposit(uint256 _trancheNum, bool _enable) external onlyAdmins {\n        trancheDepositEnabled[_trancheNum] = _enable;\n    }\n\n    /**\n     * @dev send an amount of tokens to corresponding compound contract (it takes tokens from this contract). Only allowed token should be sent\n     * @param _erc20Contract token contract address\n     * @param _numTokensToSupply token amount to be sent\n     * @return mint result\n     */\n    function sendErc20ToCompound(address _erc20Contract, uint256 _numTokensToSupply) internal returns(uint256) {\n        address qiTokenAddress = qiTokenContracts[_erc20Contract];\n        require(qiTokenAddress != address(0), \"!Accept\");\n\n        IERC20Upgradeable underlying = IERC20Upgradeable(_erc20Contract);\n\n        IQiErc20 qiToken = IQiErc20(qiTokenAddress);\n\n        SafeERC20Upgradeable.safeApprove(underlying, qiTokenAddress, _numTokensToSupply);\n        require(underlying.allowance(address(this), qiTokenAddress) >= _numTokensToSupply, \"!AllowQiToken\");\n\n        uint256 mintResult = qiToken.mint(_numTokensToSupply);\n        return mintResult;\n    }\n\n    /**\n     * @dev redeem an amount of qiTokens to have back original tokens (tokens remains in this contract). Only allowed token should be sent\n     * @param _erc20Contract original token contract address\n     * @param _amount qiToken amount to be sent\n     * @param _redeemType true or false, normally true\n     */\n    function redeemQiErc20Tokens(address _erc20Contract, uint256 _amount, bool _redeemType) internal returns (uint256 redeemResult) {\n        address qiTokenAddress = qiTokenContracts[_erc20Contract];\n        require(qiTokenAddress != address(0),  \"!Accept\");\n\n        IQiErc20 qiToken = IQiErc20(qiTokenAddress);\n\n        if (_redeemType) {\n            // Retrieve your asset based on a qiToken amount\n            redeemResult = qiToken.redeem(_amount);\n        } else {\n            // Retrieve your asset based on an amount of the asset\n            redeemResult = qiToken.redeemUnderlying(_amount);\n        }\n        return redeemResult;\n    }\n\n    /**\n     * @dev get Tranche A exchange rate\n     * @param _trancheNum tranche number\n     * @return tranche A token stored price\n     */\n    function getTrancheAExchangeRate(uint256 _trancheNum) public view override returns (uint256) {\n        return trancheParameters[_trancheNum].storedTrancheAPrice;\n    }\n\n    /**\n     * @dev get RPB for a given percentage (expressed in 1e18)\n     * @param _trancheNum tranche number\n     * @return RPB for a fixed percentage\n     */\n    function getTrancheACurrentRPB(uint256 _trancheNum) external view override returns (uint256) {\n        return trancheParameters[_trancheNum].trancheACurrentRPB;\n    }\n\n    /**\n     * @dev set Tranche A exchange rate\n     * @param _trancheNum tranche number\n     * @return tranche A token stored price\n     */\n    function setTrancheAExchangeRate(uint256 _trancheNum) internal returns (uint256) {\n        calcRPBFromPercentage(_trancheNum);\n        // uint256 deltaBlocks = (block.number).sub(trancheParameters[_trancheNum].trancheALastActionBlock);\n        uint256 deltaTime = (block.timestamp).sub(trancheParameters[_trancheNum].trancheALastActionBlock);\n        if (deltaTime > 0) {\n            // uint256 deltaPrice = (trancheParameters[_trancheNum].trancheACurrentRPB).mul(deltaBlocks);\n            uint256 deltaPrice = (trancheParameters[_trancheNum].trancheACurrentRPB).mul(deltaTime);\n            trancheParameters[_trancheNum].storedTrancheAPrice = (trancheParameters[_trancheNum].storedTrancheAPrice).add(deltaPrice);\n            // trancheParameters[_trancheNum].trancheALastActionBlock = block.number;\n            trancheParameters[_trancheNum].trancheALastActionBlock = block.timestamp;\n        }\n        return trancheParameters[_trancheNum].storedTrancheAPrice;\n    }\n\n    /**\n     * @dev get Tranche A exchange rate (tokens with 18 decimals)\n     * @param _trancheNum tranche number\n     * @return tranche A token current price\n     */\n    function calcRPBFromPercentage(uint256 _trancheNum) public returns (uint256) {\n        // if normalized price in tranche A price, everything should be scaled to 1e18 \n        trancheParameters[_trancheNum].trancheACurrentRPB = trancheParameters[_trancheNum].storedTrancheAPrice\n            .mul(trancheParameters[_trancheNum].trancheAFixedPercentage).div(totalBlocksPerYear).div(1e18);\n        return trancheParameters[_trancheNum].trancheACurrentRPB;\n    }\n\n    /**\n     * @dev get Tranche A value in underlying tokens\n     * @param _trancheNum tranche number\n     * @return trANormValue tranche A value in underlying tokens\n     */\n    function getTrAValue(uint256 _trancheNum) public view override returns (uint256 trANormValue) {\n        uint256 totASupply = IERC20Upgradeable(trancheAddresses[_trancheNum].ATrancheAddress).totalSupply();\n        uint256 diffDec = uint256(18).sub(uint256(trancheParameters[_trancheNum].underlyingDecimals));\n        uint256 storedAPrice = trancheParameters[_trancheNum].storedTrancheAPrice;\n        trANormValue = totASupply.mul(storedAPrice).div(1e18).div(10 ** diffDec);\n        return trANormValue;\n    }\n\n    /**\n     * @dev get Tranche B value in underlying tokens\n     * @param _trancheNum tranche number\n     * @return tranche B valuein underlying tokens\n     */\n    function getTrBValue(uint256 _trancheNum) external view override returns (uint256) {\n        uint256 totProtValue = getTotalValue(_trancheNum);\n        uint256 totTrAValue = getTrAValue(_trancheNum);\n        if (totProtValue > totTrAValue) {\n            return totProtValue.sub(totTrAValue);\n        } else\n            return 0;\n    }\n\n    /**\n     * @dev get Tranche total value in underlying tokens\n     * @param _trancheNum tranche number\n     * @return tranche total value in underlying tokens\n     */\n    function getTotalValue(uint256 _trancheNum) public view override returns (uint256) {\n        address qiTokenAddress = trancheAddresses[_trancheNum].qiTokenAddress;\n        uint256 underDecs = uint256(trancheParameters[_trancheNum].underlyingDecimals);\n        uint256 qiTokenDecs = uint256(trancheParameters[_trancheNum].qiTokenDecimals);\n        uint256 compNormPrice = IJBenQiHelper(jBenQiHelperAddress).getBenQiPriceHelper(qiTokenAddress, underDecs, qiTokenDecs);\n        uint256 mantissa = IJBenQiHelper(jBenQiHelperAddress).getMantissaHelper(underDecs, qiTokenDecs);\n        if (mantissa < 18) {\n            compNormPrice = compNormPrice.div(10 ** (uint256(18).sub(mantissa)));\n        } else {\n            compNormPrice = IJBenQiHelper(jBenQiHelperAddress).getBenQiPurePriceHelper(qiTokenAddress);\n        }\n        uint256 totProtSupply = getTokenBalance(trancheAddresses[_trancheNum].qiTokenAddress);\n        return totProtSupply.mul(compNormPrice).div(1e18);\n    }\n\n    /**\n     * @dev get Tranche B exchange rate\n     * @param _trancheNum tranche number\n     * @param _newAmount new amount entering tranche B (in underlying tokens)\n     * @return tbPrice tranche B token current price\n     */\n    function getTrancheBExchangeRate(uint256 _trancheNum, uint256 _newAmount) public view override returns (uint256 tbPrice) {\n        // set amount of tokens to be minted via taToken price\n        // Current tbDai price = (((cDai X cPrice)-(aSupply X taPrice)) / bSupply)\n        // where: cDai = How much cDai we hold in the protocol\n        // cPrice = cDai / Dai price\n        // aSupply = Total number of taDai in protocol\n        // taPrice = taDai / Dai price\n        // bSupply = Total number of tbDai in protocol\n        uint256 totTrBValue;\n\n        uint256 totBSupply = IERC20Upgradeable(trancheAddresses[_trancheNum].BTrancheAddress).totalSupply(); // 18 decimals\n        // if normalized price in tranche A price, everything should be scaled to 1e18 \n        uint256 underlyingDec = uint256(trancheParameters[_trancheNum].underlyingDecimals);\n        uint256 normAmount = _newAmount;\n        if (underlyingDec < 18)\n            normAmount = _newAmount.mul(10 ** uint256(18).sub(underlyingDec));\n        uint256 newBSupply = totBSupply.add(normAmount); // 18 decimals\n\n        uint256 totProtValue = getTotalValue(_trancheNum).add(_newAmount); //underlying token decimals\n        uint256 totTrAValue = getTrAValue(_trancheNum); //underlying token decimals\n        if (totProtValue >= totTrAValue)\n            totTrBValue = totProtValue.sub(totTrAValue); //underlying token decimals\n        else\n            totTrBValue = 0;\n        // if normalized price in tranche A price, everything should be scaled to 1e18 \n        if (underlyingDec < 18 && totTrBValue > 0) {\n            totTrBValue = totTrBValue.mul(10 ** (uint256(18).sub(underlyingDec)));\n        }\n        if (totTrBValue > 0 && newBSupply > 0) {\n            // if normalized price in tranche A price, everything should be scaled to 1e18 \n            tbPrice = totTrBValue.mul(1e18).div(newBSupply);\n        } else\n            // if normalized price in tranche A price, everything should be scaled to 1e18 \n            tbPrice = uint256(1e18);\n\n        return tbPrice;\n    }\n\n    /**\n     * @dev set staking details for tranche A holders, with number, amount and time\n     * @param _trancheNum tranche number\n     * @param _account user's account\n     * @param _stkNum staking detail counter\n     * @param _amount amount of tranche A tokens\n     * @param _time time to be considered the deposit\n     */\n    function setTrAStakingDetails(uint256 _trancheNum, address _account, uint256 _stkNum, uint256 _amount, uint256 _time) external override onlyAdmins {\n        stakeCounterTrA[_account][_trancheNum] = _stkNum;\n        StakingDetails storage details = stakingDetailsTrancheA[_account][_trancheNum][_stkNum];\n        details.startTime = _time;\n        details.amount = _amount;\n    }\n\n    /**\n     * @dev when redemption occurs on tranche A, removing tranche A tokens from staking information (FIFO logic)\n     * @param _trancheNum tranche number\n     * @param _amount amount of redeemed tokens\n     */\n    function decreaseTrancheATokenFromStake(uint256 _trancheNum, uint256 _amount) internal {\n        uint256 senderCounter = stakeCounterTrA[msg.sender][_trancheNum];\n        uint256 tmpAmount = _amount;\n        for (uint i = 1; i <= senderCounter; i++) {\n            StakingDetails storage details = stakingDetailsTrancheA[msg.sender][_trancheNum][i];\n            if (details.amount > 0) {\n                if (details.amount <= tmpAmount) {\n                    tmpAmount = tmpAmount.sub(details.amount);\n                    details.amount = 0;\n                } else {\n                    details.amount = details.amount.sub(tmpAmount);\n                    tmpAmount = 0;\n                }\n            }\n            if (tmpAmount == 0)\n                break;\n        }\n    }\n\n    function getSingleTrancheUserStakeCounterTrA(address _user, uint256 _trancheNum) external view override returns (uint256) {\n        return stakeCounterTrA[_user][_trancheNum];\n    }\n\n    function getSingleTrancheUserSingleStakeDetailsTrA(address _user, uint256 _trancheNum, uint256 _num) external view override returns (uint256, uint256) {\n        return (stakingDetailsTrancheA[_user][_trancheNum][_num].startTime, stakingDetailsTrancheA[_user][_trancheNum][_num].amount);\n    }\n\n    /**\n     * @dev set staking details for tranche B holders, with number, amount and time\n     * @param _trancheNum tranche number\n     * @param _account user's account\n     * @param _stkNum staking detail counter\n     * @param _amount amount of tranche B tokens\n     * @param _time time to be considered the deposit\n     */\n    function setTrBStakingDetails(uint256 _trancheNum, address _account, uint256 _stkNum, uint256 _amount, uint256 _time) external override onlyAdmins {\n        stakeCounterTrB[_account][_trancheNum] = _stkNum;\n        StakingDetails storage details = stakingDetailsTrancheB[_account][_trancheNum][_stkNum];\n        details.startTime = _time;\n        details.amount = _amount; \n    }\n\n    /**\n     * @dev when redemption occurs on tranche B, removing tranche B tokens from staking information (FIFO logic)\n     * @param _trancheNum tranche number\n     * @param _amount amount of redeemed tokens\n     */\n    function decreaseTrancheBTokenFromStake(uint256 _trancheNum, uint256 _amount) internal {\n        uint256 senderCounter = stakeCounterTrB[msg.sender][_trancheNum];\n        uint256 tmpAmount = _amount;\n        for (uint i = 1; i <= senderCounter; i++) {\n            StakingDetails storage details = stakingDetailsTrancheB[msg.sender][_trancheNum][i];\n            if (details.amount > 0) {\n                if (details.amount <= tmpAmount) {\n                    tmpAmount = tmpAmount.sub(details.amount);\n                    details.amount = 0;\n                    //delete stakingDetailsTrancheB[msg.sender][_trancheNum][i];\n                    // update details number\n                    //stakeCounterTrB[msg.sender][_trancheNum] = stakeCounterTrB[msg.sender][_trancheNum].sub(1);\n                } else {\n                    details.amount = details.amount.sub(tmpAmount);\n                    tmpAmount = 0;\n                }\n            }\n            if (tmpAmount == 0)\n                break;\n        }\n    }\n\n    function getSingleTrancheUserStakeCounterTrB(address _user, uint256 _trancheNum) external view override returns (uint256) {\n        return stakeCounterTrB[_user][_trancheNum];\n    }\n\n    function getSingleTrancheUserSingleStakeDetailsTrB(address _user, uint256 _trancheNum, uint256 _num) external view override returns (uint256, uint256) {\n        return (stakingDetailsTrancheB[_user][_trancheNum][_num].startTime, stakingDetailsTrancheB[_user][_trancheNum][_num].amount);\n    }\n\n    /**\n     * @dev buy Tranche A Tokens\n     * @param _trancheNum tranche number\n     * @param _amount amount of stable coins sent by buyer\n     */\n    function buyTrancheAToken(uint256 _trancheNum, uint256 _amount) external payable nonReentrant {\n        require(trancheDepositEnabled[_trancheNum], \"!Deposit\");\n        address qiTokenAddress = trancheAddresses[_trancheNum].qiTokenAddress;\n        address underTokenAddress = trancheAddresses[_trancheNum].buyerCoinAddress;\n        uint256 prevCompTokenBalance = getTokenBalance(qiTokenAddress);\n        if (underTokenAddress == address(0)){\n            require(msg.value == _amount, \"!Amount\");\n            //Transfer ETH from msg.sender to protocol;\n            TransferAVAXHelper.safeTransferAVAX(address(this), _amount);\n            // transfer ETH to Coompound receiving qiAvax\n            qiAVAXToken.mint{value: _amount}();\n        } else {\n            // check approve\n            require(IERC20Upgradeable(underTokenAddress).allowance(msg.sender, address(this)) >= _amount, \"!Allowance\");\n            //Transfer DAI from msg.sender to protocol;\n            SafeERC20Upgradeable.safeTransferFrom(IERC20Upgradeable(underTokenAddress), msg.sender, address(this), _amount);\n            // transfer DAI to Coompound receiving cDai\n            sendErc20ToCompound(underTokenAddress, _amount);\n            // IJBenQiHelper(jBenQiHelperAddress).sendErc20ToCompoundHelper(underTokenAddress, qiTokenAddress, _amount);\n        }\n        uint256 newCompTokenBalance = getTokenBalance(qiTokenAddress);\n        // set amount of tokens to be minted calculate taToken amount via taToken price\n        setTrancheAExchangeRate(_trancheNum);\n        uint256 taAmount;\n        if (newCompTokenBalance > prevCompTokenBalance) {\n            // if normalized price in tranche A price, everything should be scaled to 1e18 \n            uint256 diffDec = uint256(18).sub(uint256(trancheParameters[_trancheNum].underlyingDecimals));\n            uint256 normAmount = _amount.mul(10 ** diffDec);\n            taAmount = normAmount.mul(1e18).div(trancheParameters[_trancheNum].storedTrancheAPrice);\n            //Mint trancheA tokens and send them to msg.sender and notify to incentive controller BEFORE totalSupply updates\n            IIncentivesController(incentivesControllerAddress).trancheANewEnter(msg.sender, trancheAddresses[_trancheNum].ATrancheAddress);\n            IJTrancheTokens(trancheAddresses[_trancheNum].ATrancheAddress).mint(msg.sender, taAmount);\n        } else {\n            taAmount = 0;\n        }\n\n        stakeCounterTrA[msg.sender][_trancheNum] = stakeCounterTrA[msg.sender][_trancheNum].add(1);\n        StakingDetails storage details = stakingDetailsTrancheA[msg.sender][_trancheNum][stakeCounterTrA[msg.sender][_trancheNum]];\n        details.startTime = block.timestamp;\n        details.amount = taAmount;\n\n        lastActivity[msg.sender] = block.number;\n        emit TrancheATokenMinted(_trancheNum, msg.sender, _amount, taAmount);\n    }\n\n    /**\n     * @dev redeem Tranche A Tokens\n     * @param _trancheNum tranche number\n     * @param _amount amount of stable coins sent by buyer\n     */\n    function redeemTrancheAToken(uint256 _trancheNum, uint256 _amount) external nonReentrant {\n        require((block.number).sub(lastActivity[msg.sender]) >= redeemTimeout, \"!Timeout\");\n        // check approve\n        // address aTrancheAddress = trancheAddresses[_trancheNum].ATrancheAddress;\n        require(IERC20Upgradeable(trancheAddresses[_trancheNum].ATrancheAddress).allowance(msg.sender, address(this)) >= _amount, \"!Allowance\");\n        //Transfer DAI from msg.sender to protocol;\n        SafeERC20Upgradeable.safeTransferFrom(IERC20Upgradeable(trancheAddresses[_trancheNum].ATrancheAddress), msg.sender, address(this), _amount);\n\n        uint256 oldBal;\n        uint256 diffBal;\n        uint256 userAmount;\n        uint256 feesAmount;\n        setTrancheAExchangeRate(_trancheNum);\n        // if normalized price in tranche A price, everything should be scaled to 1e18 \n        uint256 taAmount = _amount.mul(trancheParameters[_trancheNum].storedTrancheAPrice).div(1e18);\n        uint256 diffDec = uint256(18).sub(uint256(trancheParameters[_trancheNum].underlyingDecimals));\n        uint256 normAmount = taAmount.div(10 ** diffDec);\n\n        address qiTokenAddress = trancheAddresses[_trancheNum].qiTokenAddress;\n        uint256 qiTokenBal = getTokenBalance(qiTokenAddress); // needed for emergency\n        address underTokenAddress = trancheAddresses[_trancheNum].buyerCoinAddress;\n        uint256 redeemPerc = uint256(trancheParameters[_trancheNum].redemptionPercentage);\n        if (underTokenAddress == address(0)) {\n            SafeERC20Upgradeable.safeTransfer(IERC20Upgradeable(qiTokenAddress), address(avaxGateway), qiTokenBal);\n            // calculate taAmount via qiAvax price\n            oldBal = getEthBalance();\n            avaxGateway.withdrawAVAX(normAmount, address(this), false, qiTokenBal);\n            diffBal = getEthBalance().sub(oldBal);\n            userAmount = diffBal.mul(redeemPerc).div(PERCENT_DIVIDER);\n            TransferAVAXHelper.safeTransferAVAX(msg.sender, userAmount);\n            feesAmount = diffBal.sub(userAmount);\n            if (feesAmount > 0) {\n                // transfer fees to JFeesCollector\n                TransferAVAXHelper.safeTransferAVAX(feesCollectorAddress, feesAmount);\n            }   \n        } else {\n            // calculate taAmount via qiToken price\n            oldBal = getTokenBalance(underTokenAddress);\n            uint256 retCode = redeemQiErc20Tokens(underTokenAddress, normAmount, false);\n            if(retCode != 0) {\n                // emergency: send all qiTokens balance to compound \n                redeemQiErc20Tokens(underTokenAddress, qiTokenBal, true); \n            }\n            diffBal = getTokenBalance(underTokenAddress).sub(oldBal);\n            userAmount = diffBal.mul(redeemPerc).div(PERCENT_DIVIDER);\n            SafeERC20Upgradeable.safeTransfer(IERC20Upgradeable(underTokenAddress), msg.sender, userAmount);\n            feesAmount = diffBal.sub(userAmount);\n            if (feesAmount > 0) {\n                // transfer fees to JFeesCollector\n                SafeERC20Upgradeable.safeTransfer(IERC20Upgradeable(underTokenAddress), feesCollectorAddress, feesAmount);\n            }\n        }\n\n        // claim and transfer rewards to msg.sender. Be sure to wait for this function to be completed! \n        bool rewClaimCompleted = IIncentivesController(incentivesControllerAddress).claimRewardsAllMarkets(msg.sender);\n\n        // decrease tokens after claiming rewards\n        if (rewClaimCompleted && _amount > 0)\n           decreaseTrancheATokenFromStake(_trancheNum, _amount);\n     \n        IJTrancheTokens(trancheAddresses[_trancheNum].ATrancheAddress).burn(_amount);\n\n        lastActivity[msg.sender] = block.number;\n        emit TrancheATokenRedemption(_trancheNum, msg.sender, 0, userAmount, feesAmount);\n    }\n\n    /**\n     * @dev buy Tranche B Tokens\n     * @param _trancheNum tranche number\n     * @param _amount amount of stable coins sent by buyer\n     */\n    function buyTrancheBToken(uint256 _trancheNum, uint256 _amount) external payable nonReentrant {\n        require(trancheDepositEnabled[_trancheNum], \"!Deposit\");\n        address qiTokenAddress = trancheAddresses[_trancheNum].qiTokenAddress;\n        address underTokenAddress = trancheAddresses[_trancheNum].buyerCoinAddress;\n        uint256 prevCompTokenBalance = getTokenBalance(qiTokenAddress);\n        // if eth, ignore _amount parameter and set it to msg.value\n        if (trancheAddresses[_trancheNum].buyerCoinAddress == address(0)) {\n            require(msg.value == _amount, \"!Amount\");\n            //_amount = msg.value;\n        }\n        // refresh value for tranche A\n        setTrancheAExchangeRate(_trancheNum);\n        // get tranche B exchange rate\n        // if normalized price in tranche B price, everything should be scaled to 1e18 \n        uint256 diffDec = uint256(18).sub(uint256(trancheParameters[_trancheNum].underlyingDecimals));\n        uint256 normAmount = _amount.mul(10 ** diffDec);\n        uint256 tbAmount = normAmount.mul(1e18).div(getTrancheBExchangeRate(_trancheNum, _amount));\n        if (underTokenAddress == address(0)) {\n            TransferAVAXHelper.safeTransferAVAX(address(this), _amount);\n            // transfer ETH to Coompound receiving qiAvax\n            qiAVAXToken.mint{value: _amount}();\n        } else {\n            // check approve\n            require(IERC20Upgradeable(underTokenAddress).allowance(msg.sender, address(this)) >= _amount, \"!Allowance\");\n            //Transfer DAI from msg.sender to protocol;\n            SafeERC20Upgradeable.safeTransferFrom(IERC20Upgradeable(underTokenAddress), msg.sender, address(this), _amount);\n            // transfer DAI to Couompound receiving cDai\n            sendErc20ToCompound(underTokenAddress, _amount);\n            // IJBenQiHelper(jBenQiHelperAddress).sendErc20ToCompoundHelper(underTokenAddress, qiTokenAddress, _amount);\n        }\n        uint256 newCompTokenBalance = getTokenBalance(qiTokenAddress);\n        if (newCompTokenBalance > prevCompTokenBalance) {\n            //Mint trancheB tokens and send them to msg.sender and notify to incentive controller BEFORE totalSupply updates\n            IIncentivesController(incentivesControllerAddress).trancheBNewEnter(msg.sender, trancheAddresses[_trancheNum].BTrancheAddress);\n            IJTrancheTokens(trancheAddresses[_trancheNum].BTrancheAddress).mint(msg.sender, tbAmount);\n        } else \n            tbAmount = 0;\n\n        stakeCounterTrB[msg.sender][_trancheNum] = stakeCounterTrB[msg.sender][_trancheNum].add(1);\n        StakingDetails storage details = stakingDetailsTrancheB[msg.sender][_trancheNum][stakeCounterTrB[msg.sender][_trancheNum]];\n        details.startTime = block.timestamp;\n        details.amount = tbAmount;     \n\n        lastActivity[msg.sender] = block.number;\n        emit TrancheBTokenMinted(_trancheNum, msg.sender, _amount, tbAmount);\n    }\n\n    /**\n     * @dev redeem Tranche B Tokens\n     * @param _trancheNum tranche number\n     * @param _amount amount of stable coins sent by buyer\n     */\n    function redeemTrancheBToken(uint256 _trancheNum, uint256 _amount) external nonReentrant {\n        require((block.number).sub(lastActivity[msg.sender]) >= redeemTimeout, \"!Timeout\");\n        // check approve\n        // address bTrancheAddress = trancheAddresses[_trancheNum].BTrancheAddress;\n        require(IERC20Upgradeable(trancheAddresses[_trancheNum].BTrancheAddress).allowance(msg.sender, address(this)) >= _amount, \"!Allowance\");\n        //Transfer DAI from msg.sender to protocol;\n        SafeERC20Upgradeable.safeTransferFrom(IERC20Upgradeable(trancheAddresses[_trancheNum].BTrancheAddress), msg.sender, address(this), _amount);\n\n        uint256 oldBal;\n        uint256 diffBal;\n        uint256 userAmount;\n        uint256 feesAmount;\n        // refresh value for tranche A\n        setTrancheAExchangeRate(_trancheNum);\n        // get tranche B exchange rate\n        // if normalized price in tranche B price, everything should be scaled to 1e18 \n        uint256 tbAmount = _amount.mul(getTrancheBExchangeRate(_trancheNum, 0)).div(1e18);\n        uint256 diffDec = uint256(18).sub(uint256(trancheParameters[_trancheNum].underlyingDecimals));\n        uint256 normAmount = tbAmount.div(10 ** diffDec);\n\n        address qiTokenAddress = trancheAddresses[_trancheNum].qiTokenAddress;\n        uint256 qiTokenBal = getTokenBalance(qiTokenAddress); // needed for emergency\n        address underTokenAddress = trancheAddresses[_trancheNum].buyerCoinAddress;\n        uint256 redeemPerc = uint256(trancheParameters[_trancheNum].redemptionPercentage);\n        if (underTokenAddress == address(0)){\n            SafeERC20Upgradeable.safeTransfer(IERC20Upgradeable(qiTokenAddress), address(avaxGateway), qiTokenBal);\n            // calculate tbETH amount via qiAvax price\n            oldBal = getEthBalance();\n            avaxGateway.withdrawAVAX(normAmount, address(this), false, qiTokenBal);\n            diffBal = getEthBalance().sub(oldBal);\n            userAmount = diffBal.mul(redeemPerc).div(PERCENT_DIVIDER);\n            TransferAVAXHelper.safeTransferAVAX(msg.sender, userAmount);\n            feesAmount = diffBal.sub(userAmount);\n            if (feesAmount > 0) {\n                // transfer fees to JFeesCollector\n                TransferAVAXHelper.safeTransferAVAX(feesCollectorAddress, feesAmount);\n            }   \n        } else {\n            // calculate taToken amount via qiToken price\n            oldBal = getTokenBalance(underTokenAddress);\n            uint256 retCode = redeemQiErc20Tokens(underTokenAddress, normAmount, false);\n            if(retCode != 0) {\n                // emergency: send all qiTokens balance to compound \n                redeemQiErc20Tokens(underTokenAddress, qiTokenBal, true); \n            }\n            diffBal = getTokenBalance(underTokenAddress);\n            userAmount = diffBal.mul(redeemPerc).div(PERCENT_DIVIDER);\n            SafeERC20Upgradeable.safeTransfer(IERC20Upgradeable(underTokenAddress), msg.sender, userAmount);\n            feesAmount = diffBal.sub(userAmount);\n            if (feesAmount > 0) {\n                // transfer fees to JFeesCollector\n                SafeERC20Upgradeable.safeTransfer(IERC20Upgradeable(underTokenAddress), feesCollectorAddress, feesAmount);\n            }   \n        }\n\n        // claim and transfer rewards to msg.sender. Be sure to wait for this function to be completed! \n        bool rewClaimCompleted = IIncentivesController(incentivesControllerAddress).claimRewardsAllMarkets(msg.sender);\n\n        // decrease tokens after claiming rewards\n        if (rewClaimCompleted && _amount > 0)\n            decreaseTrancheBTokenFromStake(_trancheNum, _amount);\n\n        IJTrancheTokens(trancheAddresses[_trancheNum].BTrancheAddress).burn(_amount);\n\n        lastActivity[msg.sender] = block.number;\n        emit TrancheBTokenRedemption(_trancheNum, msg.sender, 0, userAmount, feesAmount);\n    }\n\n    /**\n     * @dev redeem every qiToken amount and send values to fees collector\n     * @param _trancheNum tranche number\n     * @param _qiTokenAmount qiToken amount to send to compound protocol\n     */\n    function redeemQiTokenAmount(uint256 _trancheNum, uint256 _qiTokenAmount) external onlyAdmins nonReentrant {\n        uint256 oldBal;\n        uint256 diffBal;\n        address underTokenAddress = trancheAddresses[_trancheNum].buyerCoinAddress;\n        uint256 qiTokenBal = getTokenBalance(trancheAddresses[_trancheNum].qiTokenAddress); // needed for emergency\n        if (underTokenAddress == address(0)) {\n            oldBal = getEthBalance();\n            avaxGateway.withdrawAVAX(_qiTokenAmount, address(this), true, qiTokenBal);\n            diffBal = getEthBalance().sub(oldBal);\n            TransferAVAXHelper.safeTransferAVAX(feesCollectorAddress, diffBal);\n        } else {\n            // calculate taToken amount via qiToken price\n            oldBal = getTokenBalance(underTokenAddress);\n            require(redeemQiErc20Tokens(underTokenAddress, _qiTokenAmount, true) == 0, \"!qiTokenAnswer\");\n            // address qiToken = qiTokenContracts[trancheAddresses[_trancheNum].buyerCoinAddress];\n            // uint256 compRetCode = IJBenQiHelper(jBenQiHelperAddress).redeemQiErc20TokensHelper(qiToken, _qiTokenAmount, false);\n            // require(compRetCode == 0, \"!qiTokenAnswer\");\n            diffBal = getTokenBalance(underTokenAddress);\n            SafeERC20Upgradeable.safeTransfer(IERC20Upgradeable(underTokenAddress), feesCollectorAddress, diffBal);\n        }\n    }\n\n    /**\n     * @dev get every token balance in this contract\n     * @param _tokenContract token contract address\n     */\n    function getTokenBalance(address _tokenContract) public view returns (uint256) {\n        return IERC20Upgradeable(_tokenContract).balanceOf(address(this));\n    }\n\n    /**\n     * @dev get eth balance on this contract\n     */\n    function getEthBalance() public view returns (uint256) {\n        return address(this).balance;\n    }\n\n    /**\n     * @dev transfer tokens in this contract to fees collector contract\n     * @param _tokenContract token contract address\n     * @param _amount token amount to be transferred \n     */\n    function transferTokenToFeesCollector(address _tokenContract, uint256 _amount) external onlyAdmins {\n        SafeERC20Upgradeable.safeTransfer(IERC20Upgradeable(_tokenContract), feesCollectorAddress, _amount);\n    }\n\n    /**\n     * @dev transfer ethers in this contract to fees collector contract\n     * @param _amount ethers amount to be transferred \n     */\n    function withdrawAVAXToFeesCollector(uint256 _amount) external onlyAdmins {\n        TransferAVAXHelper.safeTransferAVAX(feesCollectorAddress, _amount);\n    }\n\n    /**\n     * @dev get total accrued Comp token from all market in comptroller\n     * @return comp amount accrued\n     */\n    function getTotalQiAccrued() public view onlyAdmins returns (uint256) {\n        return IComptrollerLensInterface(trollerAddress).compAccrued(address(this));\n    }\n\n    /**\n     * @dev claim total accrued Comp token from all market in comptroller and transfer the amount to a receiver address\n     * @param _receiver destination address\n     */\n    function claimTotalQiAccruedToReceiver(address _receiver) external onlyAdmins nonReentrant {\n        uint256 totAccruedAmount = getTotalQiAccrued();\n        if (totAccruedAmount > 0) {\n            IComptrollerLensInterface(trollerAddress).claimComp(address(this));\n            uint256 amount = IERC20Upgradeable(qiTokenAddress).balanceOf(address(this));\n            SafeERC20Upgradeable.safeTransfer(IERC20Upgradeable(qiTokenAddress), _receiver, amount);\n        }\n    }\n\n}",
  "sourcePath": "/Users/himanshugoyal/Documents/DeFi/tranche-benqi-protocol/contracts/JBenQi.sol",
  "compiler": {
    "name": "solc",
    "version": "0.8.8+commit.dddeac2f.Emscripten.clang"
  },
  "schemaVersion": "3.2.4",
  "updatedAt": "2022-02-18T08:16:11.632Z",
  "devdoc": {
    "kind": "dev",
    "methods": {
      "addTrancheToProtocol(address,string,string,string,string,uint256,uint8,uint8)": {
        "details": "add tranche in protocol",
        "params": {
          "_erc20Contract": "token contract address (0x0000000000000000000000000000000000000000 if eth)",
          "_fixedRpb": "tranche A percentage fixed compounded interest per year",
          "_nameA": "tranche A token name",
          "_nameB": "tranche B token name",
          "_qiTokenDec": "qiToken decimals",
          "_symbolA": "tranche A token symbol",
          "_symbolB": "tranche B token symbol",
          "_underlyingDec": "underlying token decimals"
        }
      },
      "buyTrancheAToken(uint256,uint256)": {
        "details": "buy Tranche A Tokens",
        "params": {
          "_amount": "amount of stable coins sent by buyer",
          "_trancheNum": "tranche number"
        }
      },
      "buyTrancheBToken(uint256,uint256)": {
        "details": "buy Tranche B Tokens",
        "params": {
          "_amount": "amount of stable coins sent by buyer",
          "_trancheNum": "tranche number"
        }
      },
      "calcRPBFromPercentage(uint256)": {
        "details": "get Tranche A exchange rate (tokens with 18 decimals)",
        "params": {
          "_trancheNum": "tranche number"
        },
        "returns": {
          "_0": "tranche A token current price"
        }
      },
      "claimTotalQiAccruedToReceiver(address)": {
        "details": "claim total accrued Comp token from all market in comptroller and transfer the amount to a receiver address",
        "params": {
          "_receiver": "destination address"
        }
      },
      "getCompoundSupplyRPB(uint256)": {
        "details": "get RPB from compound",
        "params": {
          "_trancheNum": "tranche number"
        },
        "returns": {
          "_0": "qiToken compound supply RPB"
        }
      },
      "getEthBalance()": {
        "details": "get eth balance on this contract"
      },
      "getIncentivesControllerAddress()": {
        "details": "get incentive rewards address"
      },
      "getTokenBalance(address)": {
        "details": "get every token balance in this contract",
        "params": {
          "_tokenContract": "token contract address"
        }
      },
      "getTotalQiAccrued()": {
        "details": "get total accrued Comp token from all market in comptroller",
        "returns": {
          "_0": "comp amount accrued"
        }
      },
      "getTotalValue(uint256)": {
        "details": "get Tranche total value in underlying tokens",
        "params": {
          "_trancheNum": "tranche number"
        },
        "returns": {
          "_0": "tranche total value in underlying tokens"
        }
      },
      "getTrAValue(uint256)": {
        "details": "get Tranche A value in underlying tokens",
        "params": {
          "_trancheNum": "tranche number"
        },
        "returns": {
          "trANormValue": "tranche A value in underlying tokens"
        }
      },
      "getTrBValue(uint256)": {
        "details": "get Tranche B value in underlying tokens",
        "params": {
          "_trancheNum": "tranche number"
        },
        "returns": {
          "_0": "tranche B valuein underlying tokens"
        }
      },
      "getTrancheACurrentRPB(uint256)": {
        "details": "get RPB for a given percentage (expressed in 1e18)",
        "params": {
          "_trancheNum": "tranche number"
        },
        "returns": {
          "_0": "RPB for a fixed percentage"
        }
      },
      "getTrancheAExchangeRate(uint256)": {
        "details": "get Tranche A exchange rate",
        "params": {
          "_trancheNum": "tranche number"
        },
        "returns": {
          "_0": "tranche A token stored price"
        }
      },
      "getTrancheBExchangeRate(uint256,uint256)": {
        "details": "get Tranche B exchange rate",
        "params": {
          "_newAmount": "new amount entering tranche B (in underlying tokens)",
          "_trancheNum": "tranche number"
        },
        "returns": {
          "tbPrice": "tranche B token current price"
        }
      },
      "initialize(address,address,address,address,address,address)": {
        "details": "contract initializer",
        "params": {
          "_adminTools": "price oracle address",
          "_comptrollAddress": "comptroller contract address",
          "_feesCollector": "fees collector contract address",
          "_qiTokenAddress": "COMP token contract address",
          "_rewardsToken": "rewards token address (slice token address)",
          "_tranchesDepl": "tranches deployer contract address"
        }
      },
      "isQiTokenAllowed(address)": {
        "details": "check if a qiToken is allowed or not",
        "params": {
          "_erc20Contract": "token contract address (i.e. DAI contract, on Kovan: 0x4f96fe3b7a6cf9725f59d353f723c1bdb64ca6aa)"
        },
        "returns": {
          "_0": "true or false"
        }
      },
      "owner()": {
        "details": "Returns the address of the current owner."
      },
      "redeemQiTokenAmount(uint256,uint256)": {
        "details": "redeem every qiToken amount and send values to fees collector",
        "params": {
          "_qiTokenAmount": "qiToken amount to send to compound protocol",
          "_trancheNum": "tranche number"
        }
      },
      "redeemTrancheAToken(uint256,uint256)": {
        "details": "redeem Tranche A Tokens",
        "params": {
          "_amount": "amount of stable coins sent by buyer",
          "_trancheNum": "tranche number"
        }
      },
      "redeemTrancheBToken(uint256,uint256)": {
        "details": "redeem Tranche B Tokens",
        "params": {
          "_amount": "amount of stable coins sent by buyer",
          "_trancheNum": "tranche number"
        }
      },
      "renounceOwnership()": {
        "details": "Leaves the contract without owner. It will not be possible to call `onlyOwner` functions anymore. Can only be called by the current owner. NOTE: Renouncing ownership will leave the contract without an owner, thereby removing any functionality that is only available to the owner."
      },
      "setAVAXGateway(address)": {
        "details": "set eth gateway ",
        "params": {
          "_avaxGateway": "avaxGateway address"
        }
      },
      "setBenQiHelperAddress(address)": {
        "details": "set incentive rewards address",
        "params": {
          "_helper": "JBenQi helper contract address"
        }
      },
      "setConstantsValues(uint256,uint16,uint32,uint256)": {
        "details": "set constants for JBenQi",
        "params": {
          "_blocksPerYear": "blocks per year (31.557.600 seconds in 1 year)",
          "_redemPerc": "redemption percentage (scaled by 1e4)",
          "_redemTimeout": "redemption timeout, in blocks",
          "_trNum": "tranche number"
        }
      },
      "setDecimals(uint256,uint8,uint8)": {
        "details": "check if a qiToken is allowed or not",
        "params": {
          "_qiTokenDec": "qiToken decimals",
          "_trancheNum": "tranche number",
          "_underlyingDec": "underlying token decimals"
        }
      },
      "setIncentivesControllerAddress(address)": {
        "details": "set incentive rewards address",
        "params": {
          "_incentivesController": "incentives controller contract address"
        }
      },
      "setNewEnvironment(address,address,address,address,address,address)": {
        "details": "set new addresses for price oracle, fees collector and tranche deployer ",
        "params": {
          "_adminTools": "price oracle address",
          "_comptrollAddress": "comptroller contract address",
          "_feesCollector": "fees collector contract address",
          "_qiTokenAddress": "COMP token contract address",
          "_rewardsToken": "rewards token address (slice token address)",
          "_tranchesDepl": "tranches deployer contract address"
        }
      },
      "setQiAvaxContract(address)": {
        "details": "set relationship between AVAX and the corresponding BenQi qiAVAX contract",
        "params": {
          "_QiAvaxContract": "BenQi token contract address"
        }
      },
      "setQiTokenContract(address,address)": {
        "details": "set relationship between a token and the corresponding BenQi qiToken contract",
        "params": {
          "_QiErc20Contract": "BenQi token contract address ",
          "_erc20Contract": "token contract address "
        }
      },
      "setTrAStakingDetails(uint256,address,uint256,uint256,uint256)": {
        "details": "set staking details for tranche A holders, with number, amount and time",
        "params": {
          "_account": "user's account",
          "_amount": "amount of tranche A tokens",
          "_stkNum": "staking detail counter",
          "_time": "time to be considered the deposit",
          "_trancheNum": "tranche number"
        }
      },
      "setTrBStakingDetails(uint256,address,uint256,uint256,uint256)": {
        "details": "set staking details for tranche B holders, with number, amount and time",
        "params": {
          "_account": "user's account",
          "_amount": "amount of tranche B tokens",
          "_stkNum": "staking detail counter",
          "_time": "time to be considered the deposit",
          "_trancheNum": "tranche number"
        }
      },
      "setTrancheAFixedPercentage(uint256,uint256)": {
        "details": "set tranche A fixed percentage (scaled by 1e18)",
        "params": {
          "_newTrAPercentage": "new tranche A fixed percentage (scaled by 1e18)",
          "_trancheNum": "tranche number"
        }
      },
      "setTrancheDeposit(uint256,bool)": {
        "details": "enables or disables tranche deposit (default: disabled)",
        "params": {
          "_enable": "true or false",
          "_trancheNum": "tranche number"
        }
      },
      "transferOwnership(address)": {
        "details": "Transfers ownership of the contract to a new account (`newOwner`). Can only be called by the current owner."
      },
      "transferTokenToFeesCollector(address,uint256)": {
        "details": "transfer tokens in this contract to fees collector contract",
        "params": {
          "_amount": "token amount to be transferred ",
          "_tokenContract": "token contract address"
        }
      },
      "withdrawAVAXToFeesCollector(uint256)": {
        "details": "transfer ethers in this contract to fees collector contract",
        "params": {
          "_amount": "ethers amount to be transferred "
        }
      }
    },
    "version": 1
  },
  "userdoc": {
    "kind": "user",
    "methods": {},
    "version": 1
  }
}