{
  "contractName": "JCompound",
  "abi": [
    {
      "anonymous": false,
      "inputs": [
        {
          "indexed": true,
          "internalType": "address",
          "name": "previousOwner",
          "type": "address"
        },
        {
          "indexed": true,
          "internalType": "address",
          "name": "newOwner",
          "type": "address"
        }
      ],
      "name": "OwnershipTransferred",
      "type": "event"
    },
    {
      "anonymous": false,
      "inputs": [
        {
          "indexed": false,
          "internalType": "uint256",
          "name": "trancheNum",
          "type": "uint256"
        },
        {
          "indexed": false,
          "internalType": "address",
          "name": "buyer",
          "type": "address"
        },
        {
          "indexed": false,
          "internalType": "uint256",
          "name": "amount",
          "type": "uint256"
        },
        {
          "indexed": false,
          "internalType": "uint256",
          "name": "taAmount",
          "type": "uint256"
        }
      ],
      "name": "TrancheATokenMinted",
      "type": "event"
    },
    {
      "anonymous": false,
      "inputs": [
        {
          "indexed": false,
          "internalType": "uint256",
          "name": "trancheNum",
          "type": "uint256"
        },
        {
          "indexed": false,
          "internalType": "address",
          "name": "burner",
          "type": "address"
        },
        {
          "indexed": false,
          "internalType": "uint256",
          "name": "amount",
          "type": "uint256"
        },
        {
          "indexed": false,
          "internalType": "uint256",
          "name": "userAmount",
          "type": "uint256"
        },
        {
          "indexed": false,
          "internalType": "uint256",
          "name": "feesAmount",
          "type": "uint256"
        }
      ],
      "name": "TrancheATokenRedemption",
      "type": "event"
    },
    {
      "anonymous": false,
      "inputs": [
        {
          "indexed": false,
          "internalType": "uint256",
          "name": "trancheNum",
          "type": "uint256"
        },
        {
          "indexed": false,
          "internalType": "address",
          "name": "trancheA",
          "type": "address"
        },
        {
          "indexed": false,
          "internalType": "address",
          "name": "trancheB",
          "type": "address"
        }
      ],
      "name": "TrancheAddedToProtocol",
      "type": "event"
    },
    {
      "anonymous": false,
      "inputs": [
        {
          "indexed": false,
          "internalType": "uint256",
          "name": "trancheNum",
          "type": "uint256"
        },
        {
          "indexed": false,
          "internalType": "address",
          "name": "buyer",
          "type": "address"
        },
        {
          "indexed": false,
          "internalType": "uint256",
          "name": "amount",
          "type": "uint256"
        },
        {
          "indexed": false,
          "internalType": "uint256",
          "name": "tbAmount",
          "type": "uint256"
        }
      ],
      "name": "TrancheBTokenMinted",
      "type": "event"
    },
    {
      "anonymous": false,
      "inputs": [
        {
          "indexed": false,
          "internalType": "uint256",
          "name": "trancheNum",
          "type": "uint256"
        },
        {
          "indexed": false,
          "internalType": "address",
          "name": "burner",
          "type": "address"
        },
        {
          "indexed": false,
          "internalType": "uint256",
          "name": "amount",
          "type": "uint256"
        },
        {
          "indexed": false,
          "internalType": "uint256",
          "name": "userAmount",
          "type": "uint256"
        },
        {
          "indexed": false,
          "internalType": "uint256",
          "name": "feesAmount",
          "type": "uint256"
        }
      ],
      "name": "TrancheBTokenRedemption",
      "type": "event"
    },
    {
      "stateMutability": "payable",
      "type": "fallback",
      "payable": true
    },
    {
      "inputs": [],
      "name": "PERCENT_DIVIDER",
      "outputs": [
        {
          "internalType": "uint256",
          "name": "",
          "type": "uint256"
        }
      ],
      "stateMutability": "view",
      "type": "function",
      "constant": true
    },
    {
      "inputs": [],
      "name": "adminToolsAddress",
      "outputs": [
        {
          "internalType": "address",
          "name": "",
          "type": "address"
        }
      ],
      "stateMutability": "view",
      "type": "function",
      "constant": true
    },
    {
      "inputs": [],
      "name": "cEthToken",
      "outputs": [
        {
          "internalType": "contract ICEth",
          "name": "",
          "type": "address"
        }
      ],
      "stateMutability": "view",
      "type": "function",
      "constant": true
    },
    {
      "inputs": [
        {
          "internalType": "address",
          "name": "",
          "type": "address"
        }
      ],
      "name": "cTokenContracts",
      "outputs": [
        {
          "internalType": "address",
          "name": "",
          "type": "address"
        }
      ],
      "stateMutability": "view",
      "type": "function",
      "constant": true
    },
    {
      "inputs": [],
      "name": "compTokenAddress",
      "outputs": [
        {
          "internalType": "address",
          "name": "",
          "type": "address"
        }
      ],
      "stateMutability": "view",
      "type": "function",
      "constant": true
    },
    {
      "inputs": [],
      "name": "comptrollerAddress",
      "outputs": [
        {
          "internalType": "address",
          "name": "",
          "type": "address"
        }
      ],
      "stateMutability": "view",
      "type": "function",
      "constant": true
    },
    {
      "inputs": [],
      "name": "ethGateway",
      "outputs": [
        {
          "internalType": "contract IETHGateway",
          "name": "",
          "type": "address"
        }
      ],
      "stateMutability": "view",
      "type": "function",
      "constant": true
    },
    {
      "inputs": [],
      "name": "feesCollectorAddress",
      "outputs": [
        {
          "internalType": "address",
          "name": "",
          "type": "address"
        }
      ],
      "stateMutability": "view",
      "type": "function",
      "constant": true
    },
    {
      "inputs": [
        {
          "internalType": "address",
          "name": "",
          "type": "address"
        }
      ],
      "name": "lastActivity",
      "outputs": [
        {
          "internalType": "uint256",
          "name": "",
          "type": "uint256"
        }
      ],
      "stateMutability": "view",
      "type": "function",
      "constant": true
    },
    {
      "inputs": [],
      "name": "owner",
      "outputs": [
        {
          "internalType": "address",
          "name": "",
          "type": "address"
        }
      ],
      "stateMutability": "view",
      "type": "function",
      "constant": true
    },
    {
      "inputs": [],
      "name": "redeemTimeout",
      "outputs": [
        {
          "internalType": "uint32",
          "name": "",
          "type": "uint32"
        }
      ],
      "stateMutability": "view",
      "type": "function",
      "constant": true
    },
    {
      "inputs": [],
      "name": "renounceOwnership",
      "outputs": [],
      "stateMutability": "nonpayable",
      "type": "function"
    },
    {
      "inputs": [],
      "name": "rewardsToken",
      "outputs": [
        {
          "internalType": "address",
          "name": "",
          "type": "address"
        }
      ],
      "stateMutability": "view",
      "type": "function",
      "constant": true
    },
    {
      "inputs": [],
      "name": "totalBlocksPerYear",
      "outputs": [
        {
          "internalType": "uint256",
          "name": "",
          "type": "uint256"
        }
      ],
      "stateMutability": "view",
      "type": "function",
      "constant": true
    },
    {
      "inputs": [
        {
          "internalType": "uint256",
          "name": "",
          "type": "uint256"
        }
      ],
      "name": "trancheAddresses",
      "outputs": [
        {
          "internalType": "address",
          "name": "buyerCoinAddress",
          "type": "address"
        },
        {
          "internalType": "address",
          "name": "cTokenAddress",
          "type": "address"
        },
        {
          "internalType": "address",
          "name": "ATrancheAddress",
          "type": "address"
        },
        {
          "internalType": "address",
          "name": "BTrancheAddress",
          "type": "address"
        }
      ],
      "stateMutability": "view",
      "type": "function",
      "constant": true
    },
    {
      "inputs": [],
      "name": "tranchePairsCounter",
      "outputs": [
        {
          "internalType": "uint256",
          "name": "",
          "type": "uint256"
        }
      ],
      "stateMutability": "view",
      "type": "function",
      "constant": true
    },
    {
      "inputs": [
        {
          "internalType": "uint256",
          "name": "",
          "type": "uint256"
        }
      ],
      "name": "trancheParameters",
      "outputs": [
        {
          "internalType": "uint256",
          "name": "trancheAFixedPercentage",
          "type": "uint256"
        },
        {
          "internalType": "uint256",
          "name": "trancheALastActionBlock",
          "type": "uint256"
        },
        {
          "internalType": "uint256",
          "name": "storedTrancheAPrice",
          "type": "uint256"
        },
        {
          "internalType": "uint256",
          "name": "trancheACurrentRPB",
          "type": "uint256"
        },
        {
          "internalType": "uint16",
          "name": "redemptionPercentage",
          "type": "uint16"
        },
        {
          "internalType": "uint8",
          "name": "cTokenDecimals",
          "type": "uint8"
        },
        {
          "internalType": "uint8",
          "name": "underlyingDecimals",
          "type": "uint8"
        }
      ],
      "stateMutability": "view",
      "type": "function",
      "constant": true
    },
    {
      "inputs": [],
      "name": "tranchesDeployerAddress",
      "outputs": [
        {
          "internalType": "address",
          "name": "",
          "type": "address"
        }
      ],
      "stateMutability": "view",
      "type": "function",
      "constant": true
    },
    {
      "inputs": [
        {
          "internalType": "address",
          "name": "newOwner",
          "type": "address"
        }
      ],
      "name": "transferOwnership",
      "outputs": [],
      "stateMutability": "nonpayable",
      "type": "function"
    },
    {
      "stateMutability": "payable",
      "type": "receive",
      "payable": true
    },
    {
      "inputs": [
        {
          "internalType": "address",
          "name": "_adminTools",
          "type": "address"
        },
        {
          "internalType": "address",
          "name": "_feesCollector",
          "type": "address"
        },
        {
          "internalType": "address",
          "name": "_tranchesDepl",
          "type": "address"
        },
        {
          "internalType": "address",
          "name": "_compTokenAddress",
          "type": "address"
        },
        {
          "internalType": "address",
          "name": "_comptrollAddress",
          "type": "address"
        },
        {
          "internalType": "address",
          "name": "_rewardsToken",
          "type": "address"
        }
      ],
      "name": "initialize",
      "outputs": [],
      "stateMutability": "nonpayable",
      "type": "function"
    },
    {
      "inputs": [
        {
          "internalType": "address",
          "name": "_adminTools",
          "type": "address"
        },
        {
          "internalType": "address",
          "name": "_feesCollector",
          "type": "address"
        },
        {
          "internalType": "address",
          "name": "_tranchesDepl",
          "type": "address"
        },
        {
          "internalType": "address",
          "name": "_compTokenAddress",
          "type": "address"
        },
        {
          "internalType": "address",
          "name": "_comptrollAddress",
          "type": "address"
        },
        {
          "internalType": "address",
          "name": "_rewardsToken",
          "type": "address"
        }
      ],
      "name": "setNewEnvironment",
      "outputs": [],
      "stateMutability": "nonpayable",
      "type": "function"
    },
    {
      "inputs": [
        {
          "internalType": "uint256",
          "name": "_newValue",
          "type": "uint256"
        }
      ],
      "name": "setBlocksPerYear",
      "outputs": [],
      "stateMutability": "nonpayable",
      "type": "function"
    },
    {
      "inputs": [
        {
          "internalType": "address",
          "name": "_ethGateway",
          "type": "address"
        }
      ],
      "name": "setETHGateway",
      "outputs": [],
      "stateMutability": "nonpayable",
      "type": "function"
    },
    {
      "inputs": [
        {
          "internalType": "address",
          "name": "_cEtherContract",
          "type": "address"
        }
      ],
      "name": "setCEtherContract",
      "outputs": [],
      "stateMutability": "nonpayable",
      "type": "function"
    },
    {
      "inputs": [
        {
          "internalType": "address",
          "name": "_erc20Contract",
          "type": "address"
        },
        {
          "internalType": "address",
          "name": "_cErc20Contract",
          "type": "address"
        }
      ],
      "name": "setCTokenContract",
      "outputs": [],
      "stateMutability": "nonpayable",
      "type": "function"
    },
    {
      "inputs": [
        {
          "internalType": "address",
          "name": "_erc20Contract",
          "type": "address"
        }
      ],
      "name": "isCTokenAllowed",
      "outputs": [
        {
          "internalType": "bool",
          "name": "",
          "type": "bool"
        }
      ],
      "stateMutability": "view",
      "type": "function",
      "constant": true
    },
    {
      "inputs": [
        {
          "internalType": "uint256",
          "name": "_trancheNum",
          "type": "uint256"
        }
      ],
      "name": "getCompoundSupplyRPB",
      "outputs": [
        {
          "internalType": "uint256",
          "name": "",
          "type": "uint256"
        }
      ],
      "stateMutability": "view",
      "type": "function",
      "constant": true
    },
    {
      "inputs": [
        {
          "internalType": "uint256",
          "name": "_trancheNum",
          "type": "uint256"
        },
        {
          "internalType": "uint8",
          "name": "_cTokenDec",
          "type": "uint8"
        },
        {
          "internalType": "uint8",
          "name": "_underlyingDec",
          "type": "uint8"
        }
      ],
      "name": "setDecimals",
      "outputs": [],
      "stateMutability": "nonpayable",
      "type": "function"
    },
    {
      "inputs": [
        {
          "internalType": "uint256",
          "name": "_trancheNum",
          "type": "uint256"
        },
        {
          "internalType": "uint16",
          "name": "_redeemPercent",
          "type": "uint16"
        }
      ],
      "name": "setTrancheRedemptionPercentage",
      "outputs": [],
      "stateMutability": "nonpayable",
      "type": "function"
    },
    {
      "inputs": [
        {
          "internalType": "uint256",
          "name": "_trancheNum",
          "type": "uint256"
        },
        {
          "internalType": "uint256",
          "name": "_newTrAPercentage",
          "type": "uint256"
        }
      ],
      "name": "setTrancheAFixedPercentage",
      "outputs": [],
      "stateMutability": "nonpayable",
      "type": "function"
    },
    {
      "inputs": [
        {
          "internalType": "uint32",
          "name": "_blockNum",
          "type": "uint32"
        }
      ],
      "name": "setRedemptionTimeout",
      "outputs": [],
      "stateMutability": "nonpayable",
      "type": "function"
    },
    {
      "inputs": [
        {
          "internalType": "address",
          "name": "_erc20Contract",
          "type": "address"
        },
        {
          "internalType": "string",
          "name": "_nameA",
          "type": "string"
        },
        {
          "internalType": "string",
          "name": "_symbolA",
          "type": "string"
        },
        {
          "internalType": "string",
          "name": "_nameB",
          "type": "string"
        },
        {
          "internalType": "string",
          "name": "_symbolB",
          "type": "string"
        },
        {
          "internalType": "uint256",
          "name": "_fixedRpb",
          "type": "uint256"
        },
        {
          "internalType": "uint8",
          "name": "_cTokenDec",
          "type": "uint8"
        },
        {
          "internalType": "uint8",
          "name": "_underlyingDec",
          "type": "uint8"
        }
      ],
      "name": "addTrancheToProtocol",
      "outputs": [],
      "stateMutability": "nonpayable",
      "type": "function"
    },
    {
      "inputs": [],
      "name": "getCEthExchangeRate",
      "outputs": [
        {
          "internalType": "uint256",
          "name": "exchRateMantissa",
          "type": "uint256"
        }
      ],
      "stateMutability": "view",
      "type": "function",
      "constant": true
    },
    {
      "inputs": [
        {
          "internalType": "address",
          "name": "_tokenContract",
          "type": "address"
        }
      ],
      "name": "getCTokenExchangeRate",
      "outputs": [
        {
          "internalType": "uint256",
          "name": "exchRateMantissa",
          "type": "uint256"
        }
      ],
      "stateMutability": "view",
      "type": "function",
      "constant": true
    },
    {
      "inputs": [
        {
          "internalType": "uint256",
          "name": "_trancheNum",
          "type": "uint256"
        }
      ],
      "name": "getMantissa",
      "outputs": [
        {
          "internalType": "uint256",
          "name": "mantissa",
          "type": "uint256"
        }
      ],
      "stateMutability": "view",
      "type": "function",
      "constant": true
    },
    {
      "inputs": [
        {
          "internalType": "uint256",
          "name": "_trancheNum",
          "type": "uint256"
        }
      ],
      "name": "getCompoundPrice",
      "outputs": [
        {
          "internalType": "uint256",
          "name": "compNormPrice",
          "type": "uint256"
        }
      ],
      "stateMutability": "view",
      "type": "function",
      "constant": true
    },
    {
      "inputs": [
        {
          "internalType": "uint256",
          "name": "_trancheNum",
          "type": "uint256"
        }
      ],
      "name": "getTrancheAExchangeRate",
      "outputs": [
        {
          "internalType": "uint256",
          "name": "",
          "type": "uint256"
        }
      ],
      "stateMutability": "view",
      "type": "function",
      "constant": true
    },
    {
      "inputs": [
        {
          "internalType": "uint256",
          "name": "_trancheNum",
          "type": "uint256"
        }
      ],
      "name": "getTrancheACurrentRPB",
      "outputs": [
        {
          "internalType": "uint256",
          "name": "",
          "type": "uint256"
        }
      ],
      "stateMutability": "view",
      "type": "function",
      "constant": true
    },
    {
      "inputs": [
        {
          "internalType": "uint256",
          "name": "_trancheNum",
          "type": "uint256"
        }
      ],
      "name": "calcRPBFromPercentage",
      "outputs": [
        {
          "internalType": "uint256",
          "name": "",
          "type": "uint256"
        }
      ],
      "stateMutability": "nonpayable",
      "type": "function"
    },
    {
      "inputs": [
        {
          "internalType": "uint256",
          "name": "_trancheNum",
          "type": "uint256"
        }
      ],
      "name": "getTrAValue",
      "outputs": [
        {
          "internalType": "uint256",
          "name": "trANormValue",
          "type": "uint256"
        }
      ],
      "stateMutability": "view",
      "type": "function",
      "constant": true
    },
    {
      "inputs": [
        {
          "internalType": "uint256",
          "name": "_trancheNum",
          "type": "uint256"
        }
      ],
      "name": "getTrBValue",
      "outputs": [
        {
          "internalType": "uint256",
          "name": "",
          "type": "uint256"
        }
      ],
      "stateMutability": "view",
      "type": "function",
      "constant": true
    },
    {
      "inputs": [
        {
          "internalType": "uint256",
          "name": "_trancheNum",
          "type": "uint256"
        }
      ],
      "name": "getTotalValue",
      "outputs": [
        {
          "internalType": "uint256",
          "name": "",
          "type": "uint256"
        }
      ],
      "stateMutability": "view",
      "type": "function",
      "constant": true
    },
    {
      "inputs": [
        {
          "internalType": "uint256",
          "name": "_trancheNum",
          "type": "uint256"
        },
        {
          "internalType": "uint256",
          "name": "_newAmount",
          "type": "uint256"
        }
      ],
      "name": "getTrancheBExchangeRate",
      "outputs": [
        {
          "internalType": "uint256",
          "name": "tbPrice",
          "type": "uint256"
        }
      ],
      "stateMutability": "view",
      "type": "function",
      "constant": true
    },
    {
      "inputs": [
        {
          "internalType": "uint256",
          "name": "_trancheNum",
          "type": "uint256"
        },
        {
          "internalType": "uint256",
          "name": "_amount",
          "type": "uint256"
        }
      ],
      "name": "buyTrancheAToken",
      "outputs": [],
      "stateMutability": "payable",
      "type": "function",
      "payable": true
    },
    {
      "inputs": [
        {
          "internalType": "uint256",
          "name": "_trancheNum",
          "type": "uint256"
        },
        {
          "internalType": "uint256",
          "name": "_amount",
          "type": "uint256"
        }
      ],
      "name": "redeemTrancheAToken",
      "outputs": [],
      "stateMutability": "nonpayable",
      "type": "function"
    },
    {
      "inputs": [
        {
          "internalType": "uint256",
          "name": "_trancheNum",
          "type": "uint256"
        },
        {
          "internalType": "uint256",
          "name": "_amount",
          "type": "uint256"
        }
      ],
      "name": "buyTrancheBToken",
      "outputs": [],
      "stateMutability": "payable",
      "type": "function",
      "payable": true
    },
    {
      "inputs": [
        {
          "internalType": "uint256",
          "name": "_trancheNum",
          "type": "uint256"
        },
        {
          "internalType": "uint256",
          "name": "_amount",
          "type": "uint256"
        }
      ],
      "name": "redeemTrancheBToken",
      "outputs": [],
      "stateMutability": "nonpayable",
      "type": "function"
    },
    {
      "inputs": [
        {
          "internalType": "uint256",
          "name": "_trancheNum",
          "type": "uint256"
        },
        {
          "internalType": "uint256",
          "name": "_cTokenAmount",
          "type": "uint256"
        }
      ],
      "name": "redeemCTokenAmount",
      "outputs": [],
      "stateMutability": "nonpayable",
      "type": "function"
    },
    {
      "inputs": [
        {
          "internalType": "address",
          "name": "_tokenContract",
          "type": "address"
        }
      ],
      "name": "getTokenBalance",
      "outputs": [
        {
          "internalType": "uint256",
          "name": "",
          "type": "uint256"
        }
      ],
      "stateMutability": "view",
      "type": "function",
      "constant": true
    },
    {
      "inputs": [],
      "name": "getEthBalance",
      "outputs": [
        {
          "internalType": "uint256",
          "name": "",
          "type": "uint256"
        }
      ],
      "stateMutability": "view",
      "type": "function",
      "constant": true
    },
    {
      "inputs": [
        {
          "internalType": "address",
          "name": "_tokenContract",
          "type": "address"
        },
        {
          "internalType": "uint256",
          "name": "_amount",
          "type": "uint256"
        }
      ],
      "name": "transferTokenToFeesCollector",
      "outputs": [],
      "stateMutability": "nonpayable",
      "type": "function"
    },
    {
      "inputs": [
        {
          "internalType": "uint256",
          "name": "_amount",
          "type": "uint256"
        }
      ],
      "name": "withdrawEthToFeesCollector",
      "outputs": [],
      "stateMutability": "nonpayable",
      "type": "function"
    },
    {
      "inputs": [],
      "name": "getTotalCompAccrued",
      "outputs": [
        {
          "internalType": "uint256",
          "name": "",
          "type": "uint256"
        }
      ],
      "stateMutability": "view",
      "type": "function",
      "constant": true
    },
    {
      "inputs": [
        {
          "internalType": "address",
          "name": "_receiver",
          "type": "address"
        }
      ],
      "name": "claimTotalCompAccruedToReceiver",
      "outputs": [],
      "stateMutability": "nonpayable",
      "type": "function"
    },
    {
      "inputs": [
        {
          "internalType": "address",
          "name": "_trancheAddress",
          "type": "address"
        },
        {
          "internalType": "address",
          "name": "_token",
          "type": "address"
        },
        {
          "internalType": "address",
          "name": "_receiver",
          "type": "address"
        },
        {
          "internalType": "uint256",
          "name": "_amount",
          "type": "uint256"
        }
      ],
      "name": "emergencyRemoveTokensFromTranche",
      "outputs": [],
      "stateMutability": "nonpayable",
      "type": "function"
    }
  ],
  "bytecode": "0x608060405234801561001057600080fd5b5061576c806100206000396000f3fe6080604052600436106103545760003560e01c80637514d3b2116101c6578063cc8d383a116100f7578063e43e7b9411610095578063f07e96b31161006f578063f07e96b314610e7c578063f2fde38b14610eaf578063f5bb31da14610ee2578063fb19dcaa14610ef75761035b565b8063e43e7b9414610e0d578063e5fa2b7014610e22578063eba181e614610e4c5761035b565b8063d1af0c7d116100d1578063d1af0c7d14610d74578063d3dd2a1414610d89578063d41f283c14610db3578063d495ece014610ddd5761035b565b8063cc8d383a14610d20578063ce6ec53214610d35578063d184859a14610d4a5761035b565b8063a45ec1c011610164578063bcb9c48d1161013e578063bcb9c48d14610c52578063c17c19ce14610c67578063c26ff0ab14610c7c578063cc2a9a5b14610cc55761035b565b8063a45ec1c014610b78578063af45ba1e14610bb3578063b254384e14610c1f5761035b565b8063811f7faf116101a0578063811f7faf14610ad75780638c00ce7314610b075780638da5cb5b14610b1c5780638faf082514610b315761035b565b80637514d3b214610a5f5780637afc66fc14610a925780637cd3d2cd14610ac25761035b565b80634b2d726d116102a057806365e311971161023e5780636e98a04e116102185780636e98a04e146109e857806370ed0ada14610a12578063715018a614610a2757806372f8fb5c14610a3c5761035b565b806365e311971461097857806368bde41f146109a25780636a4447f1146109d35761035b565b806353ab10741161027a57806353ab1074146108cd5780635646c34b146108f75780636125f2381461091a57806362afb90e1461094e5761035b565b80634b2d726d146106115780634c04500d146108735780634fe88929146108a35761035b565b806329fc7bd81161030d57806336c013e6116102e757806336c013e61461051d5780633aecd0e31461057b5780633d1d31c7146105ae57806341f00310146105e15761035b565b806329fc7bd8146104a55780632f40d5e9146104ba578063356e5e80146104f35761035b565b80630409b1571461035d5780630b7aeb4114610399578063139cd475146103ae57806316960923146103e15780631c32a1cc1461040f5780632841653d1461044a5761035b565b3661035b57005b005b34801561036957600080fd5b506103876004803603602081101561038057600080fd5b5035610f2a565b60408051918252519081900360200190f35b3480156103a557600080fd5b50610387610f81565b3480156103ba57600080fd5b5061035b600480360360208110156103d157600080fd5b50356001600160a01b0316610f87565b3480156103ed57600080fd5b506103f661119c565b6040805163ffffffff9092168252519081900360200190f35b34801561041b57600080fd5b5061035b6004803603604081101561043257600080fd5b506001600160a01b03813581169160200135166111a8565b34801561045657600080fd5b5061035b600480360360c081101561046d57600080fd5b506001600160a01b038135811691602081013582169160408201358116916060810135821691608082013581169160a001351661128c565b3480156104b157600080fd5b5061038761141c565b3480156104c657600080fd5b5061035b600480360360408110156104dd57600080fd5b506001600160a01b038135169060200135611422565b3480156104ff57600080fd5b506103876004803603602081101561051657600080fd5b50356114f4565b34801561052957600080fd5b506105476004803603602081101561054057600080fd5b5035611535565b604080516001600160a01b039586168152938516602085015291841683830152909216606082015290519081900360800190f35b34801561058757600080fd5b506103876004803603602081101561059e57600080fd5b50356001600160a01b031661156d565b3480156105ba57600080fd5b5061035b600480360360208110156105d157600080fd5b50356001600160a01b03166115ee565b3480156105ed57600080fd5b5061035b6004803603602081101561060457600080fd5b503563ffffffff166116c6565b34801561061d57600080fd5b5061035b600480360361010081101561063557600080fd5b6001600160a01b038235169190810190604081016020820135600160201b81111561065f57600080fd5b82018360208201111561067157600080fd5b803590602001918460018302840111600160201b8311171561069257600080fd5b91908080601f0160208091040260200160405190810160405280939291908181526020018383808284376000920191909152509295949360208101935035915050600160201b8111156106e457600080fd5b8201836020820111156106f657600080fd5b803590602001918460018302840111600160201b8311171561071757600080fd5b91908080601f0160208091040260200160405190810160405280939291908181526020018383808284376000920191909152509295949360208101935035915050600160201b81111561076957600080fd5b82018360208201111561077b57600080fd5b803590602001918460018302840111600160201b8311171561079c57600080fd5b91908080601f0160208091040260200160405190810160405280939291908181526020018383808284376000920191909152509295949360208101935035915050600160201b8111156107ee57600080fd5b82018360208201111561080057600080fd5b803590602001918460018302840111600160201b8311171561082157600080fd5b91908080601f01602080910402602001604051908101604052809392919081815260200183838082843760009201919091525092955050823593505060ff602083013581169260400135169050611798565b34801561087f57600080fd5b5061035b6004803603604081101561089657600080fd5b5080359060200135611e69565b3480156108af57600080fd5b50610387600480360360208110156108c657600080fd5b503561213c565b3480156108d957600080fd5b50610387600480360360208110156108f057600080fd5b5035612151565b61035b6004803603604081101561090d57600080fd5b508035906020013561227f565b34801561092657600080fd5b5061035b6004803603604081101561093d57600080fd5b508035906020013561ffff1661264f565b34801561095a57600080fd5b506103876004803603602081101561097157600080fd5b503561272c565b34801561098457600080fd5b5061035b6004803603602081101561099b57600080fd5b503561278f565b3480156109ae57600080fd5b506109b761285e565b604080516001600160a01b039092168252519081900360200190f35b3480156109df57600080fd5b5061038761286d565b3480156109f457600080fd5b5061038760048036036020811015610a0b57600080fd5b50356128e3565b348015610a1e57600080fd5b506103876129ec565b348015610a3357600080fd5b5061035b6129f0565b61035b60048036036040811015610a5257600080fd5b5080359060200135612aae565b348015610a6b57600080fd5b506109b760048036036020811015610a8257600080fd5b50356001600160a01b0316612e99565b348015610a9e57600080fd5b5061038760048036036040811015610ab557600080fd5b5080359060200135612eb4565b348015610ace57600080fd5b506109b7613042565b348015610ae357600080fd5b5061035b60048036036040811015610afa57600080fd5b5080359060200135613051565b348015610b1357600080fd5b506109b76135e0565b348015610b2857600080fd5b506109b76135ef565b348015610b3d57600080fd5b50610b6460048036036020811015610b5457600080fd5b50356001600160a01b03166135fe565b604080519115158252519081900360200190f35b348015610b8457600080fd5b5061035b60048036036060811015610b9b57600080fd5b5080359060ff6020820135811691604001351661361e565b348015610bbf57600080fd5b50610bdd60048036036020811015610bd657600080fd5b503561377d565b60408051978852602088019690965286860194909452606086019290925261ffff16608085015260ff90811660a08501521660c0830152519081900360e00190f35b348015610c2b57600080fd5b5061038760048036036020811015610c4257600080fd5b50356001600160a01b03166137c5565b348015610c5e57600080fd5b5061038761384a565b348015610c7357600080fd5b5061038761394b565b348015610c8857600080fd5b5061035b60048036036080811015610c9f57600080fd5b506001600160a01b03813581169160208101358216916040820135169060600135613951565b348015610cd157600080fd5b5061035b600480360360c0811015610ce857600080fd5b506001600160a01b038135811691602081013582169160408201358116916060810135821691608082013581169160a0013516613acf565b348015610d2c57600080fd5b506109b7613bfa565b348015610d4157600080fd5b506109b7613c09565b348015610d5657600080fd5b5061038760048036036020811015610d6d57600080fd5b5035613c18565b348015610d8057600080fd5b506109b7613c59565b348015610d9557600080fd5b5061038760048036036020811015610dac57600080fd5b5035613c68565b348015610dbf57600080fd5b5061038760048036036020811015610dd657600080fd5b5035613c7d565b348015610de957600080fd5b5061035b60048036036040811015610e0057600080fd5b5080359060200135613d07565b348015610e1957600080fd5b506109b7613df0565b348015610e2e57600080fd5b5061035b60048036036020811015610e4557600080fd5b5035613dff565b348015610e5857600080fd5b5061035b60048036036040811015610e6f57600080fd5b5080359060200135613eba565b348015610e8857600080fd5b5061038760048036036020811015610e9f57600080fd5b50356001600160a01b0316614447565b348015610ebb57600080fd5b5061035b60048036036020811015610ed257600080fd5b50356001600160a01b0316614459565b348015610eee57600080fd5b506109b761456e565b348015610f0357600080fd5b5061035b60048036036020811015610f1a57600080fd5b50356001600160a01b031661457d565b609e54600082815260a26020526040812080546002909101549192610f6592670de0b6b3a764000092610f5f92918391614687565b906146e7565b600083815260a26020526040902060030181905590505b919050565b609d5481565b60975460408051630935e01b60e21b815233600482015290516001600160a01b03909216916324d7806c91602480820192602092909190829003018186803b158015610fd257600080fd5b505afa158015610fe6573d6000803e3d6000fd5b505050506040513d6020811015610ffc57600080fd5b505161103d576040805162461bcd60e51b81526020600482015260176024820152600080516020615660833981519152604482015290519081900360640190fd5b60026065541415611083576040805162461bcd60e51b815260206004820152601f6024820152600080516020615445833981519152604482015290519081900360640190fd5b6002606555600061109261384a565b9050801561119357609b54604080516374d7814960e11b815230600482015290516001600160a01b039092169163e9af02929160248082019260009290919082900301818387803b1580156110e657600080fd5b505af11580156110fa573d6000803e3d6000fd5b5050609a54604080516370a0823160e01b81523060048201529051600094506001600160a01b0390921692506370a08231916024808301926020929190829003018186803b15801561114b57600080fd5b505afa15801561115f573d6000803e3d6000fd5b505050506040513d602081101561117557600080fd5b5051609a54909150611191906001600160a01b0316848361474e565b505b50506001606555565b609f5463ffffffff1681565b60975460408051630935e01b60e21b815233600482015290516001600160a01b03909216916324d7806c91602480820192602092909190829003018186803b1580156111f357600080fd5b505afa158015611207573d6000803e3d6000fd5b505050506040513d602081101561121d57600080fd5b505161125e576040805162461bcd60e51b81526020600482015260176024820152600080516020615660833981519152604482015290519081900360640190fd5b6001600160a01b03918216600090815260a06020526040902080546001600160a01b03191691909216179055565b6112946147a5565b6001600160a01b03166112a56135ef565b6001600160a01b031614611300576040805162461bcd60e51b815260206004820181905260248201527f4f776e61626c653a2063616c6c6572206973206e6f7420746865206f776e6572604482015290519081900360640190fd5b6001600160a01b0386161580159061132057506001600160a01b03851615155b801561133457506001600160a01b03841615155b801561134857506001600160a01b03821615155b801561135c57506001600160a01b03831615155b6113ad576040805162461bcd60e51b815260206004820152601a60248201527f4a436f6d706f756e643a20636865636b20616464726573736573000000000000604482015290519081900360640190fd5b609780546001600160a01b03199081166001600160a01b03988916179091556098805482169688169690961790955560998054861694871694909417909355609a8054851692861692909217909155609b80548416918516919091179055609c80549092169216919091179055565b61271081565b60975460408051630935e01b60e21b815233600482015290516001600160a01b03909216916324d7806c91602480820192602092909190829003018186803b15801561146d57600080fd5b505afa158015611481573d6000803e3d6000fd5b505050506040513d602081101561149757600080fd5b50516114d8576040805162461bcd60e51b81526020600482015260176024820152600080516020615660833981519152604482015290519081900360640190fd5b6098546114f09083906001600160a01b03168361474e565b5050565b600081815260a2602052604081206004015461152f9060ff6201000082048116916115299163010000009091041660126147a9565b90614803565b92915050565b60a16020526000908152604090208054600182015460028301546003909301546001600160a01b039283169391831692918216911684565b6000816001600160a01b03166370a08231306040518263ffffffff1660e01b815260040180826001600160a01b0316815260200191505060206040518083038186803b1580156115bc57600080fd5b505afa1580156115d0573d6000803e3d6000fd5b505050506040513d60208110156115e657600080fd5b505192915050565b60975460408051630935e01b60e21b815233600482015290516001600160a01b03909216916324d7806c91602480820192602092909190829003018186803b15801561163957600080fd5b505afa15801561164d573d6000803e3d6000fd5b505050506040513d602081101561166357600080fd5b50516116a4576040805162461bcd60e51b81526020600482015260176024820152600080516020615660833981519152604482015290519081900360640190fd5b60a580546001600160a01b0319166001600160a01b0392909216919091179055565b60975460408051630935e01b60e21b815233600482015290516001600160a01b03909216916324d7806c91602480820192602092909190829003018186803b15801561171157600080fd5b505afa158015611725573d6000803e3d6000fd5b505050506040513d602081101561173b57600080fd5b505161177c576040805162461bcd60e51b81526020600482015260176024820152600080516020615660833981519152604482015290519081900360640190fd5b609f805463ffffffff191663ffffffff92909216919091179055565b60975460408051630935e01b60e21b815233600482015290516001600160a01b03909216916324d7806c91602480820192602092909190829003018186803b1580156117e357600080fd5b505afa1580156117f7573d6000803e3d6000fd5b505050506040513d602081101561180d57600080fd5b505161184e576040805162461bcd60e51b81526020600482015260176024820152600080516020615660833981519152604482015290519081900360640190fd5b60026065541415611894576040805162461bcd60e51b815260206004820152601f6024820152600080516020615445833981519152604482015290519081900360640190fd5b60026065556099546001600160a01b03166118e05760405162461bcd60e51b815260040180806020018281038252602381526020018061563d6023913960400191505060405180910390fd5b6118e9886135fe565b61193a576040805162461bcd60e51b815260206004820152601d60248201527f4a436f6d706f756e643a2063546f6b656e206e6f7420616c6c6f776564000000604482015290519081900360640190fd5b8760a16000609d54815260200190815260200160002060000160006101000a8154816001600160a01b0302191690836001600160a01b0316021790555060a06000896001600160a01b03166001600160a01b0316815260200190815260200160002060009054906101000a90046001600160a01b031660a16000609d54815260200190815260200160002060010160006101000a8154816001600160a01b0302191690836001600160a01b03160217905550609960009054906101000a90046001600160a01b03166001600160a01b031663434761ed888833609c60009054906101000a90046001600160a01b03166040518563ffffffff1660e01b8152600401808060200180602001856001600160a01b03168152602001846001600160a01b03168152602001838103835287818151815260200191508051906020019080838360005b83811015611a97578181015183820152602001611a7f565b50505050905090810190601f168015611ac45780820380516001836020036101000a031916815260200191505b50838103825286518152865160209182019188019080838360005b83811015611af7578181015183820152602001611adf565b50505050905090810190601f168015611b245780820380516001836020036101000a031916815260200191505b509650505050505050602060405180830381600087803b158015611b4757600080fd5b505af1158015611b5b573d6000803e3d6000fd5b505050506040513d6020811015611b7157600080fd5b5051609d54600090815260a16020908152604080832060020180546001600160a01b0319166001600160a01b03958616179055609954609c54915163877a5ebb60e01b81523360448201819052928616606482018190526080600483019081528c5160848401528c51939097169663877a5ebb968d968d9695939492938493602481019360a4909101928a0191908190849084905b83811015611c1e578181015183820152602001611c06565b50505050905090810190601f168015611c4b5780820380516001836020036101000a031916815260200191505b50838103825286518152865160209182019188019080838360005b83811015611c7e578181015183820152602001611c66565b50505050905090810190601f168015611cab5780820380516001836020036101000a031916815260200191505b509650505050505050602060405180830381600087803b158015611cce57600080fd5b505af1158015611ce2573d6000803e3d6000fd5b505050506040513d6020811015611cf857600080fd5b5051609d8054600090815260a16020908152604080832060030180546001600160a01b039096166001600160a01b0319909616959095179094558254825260a290528281206004908101805460ff808916620100000262ff0000199092169190911790915583548352848320909101805491861663010000000263ff00000019909216919091179055815481528281208690558154815291909120436001919091015554611da59061272c565b609d8054600090815260a26020526040808220600201939093558154815291909120600401805461ffff19166126de17905554611de190610f2a565b50609d54600081815260a16020908152604091829020600281015460039091015483519485526001600160a01b03918216928501929092521682820152517f90c97ca7d521ad09559475598e9202d092b7388790513e364cdac53a45d8ce4a9181900360600190a1609d54611e579060016147a9565b609d5550506001606555505050505050565b60975460408051630935e01b60e21b815233600482015290516001600160a01b03909216916324d7806c91602480820192602092909190829003018186803b158015611eb457600080fd5b505afa158015611ec8573d6000803e3d6000fd5b505050506040513d6020811015611ede57600080fd5b5051611f1f576040805162461bcd60e51b81526020600482015260176024820152600080516020615660833981519152604482015290519081900360640190fd5b60026065541415611f65576040805162461bcd60e51b815260206004820152601f6024820152600080516020615445833981519152604482015290519081900360640190fd5b6002606555600082815260a1602052604081206001015481908190611f92906001600160a01b031661156d565b600086815260a160205260409020549091506001600160a01b031661205f57611fb96129ec565b60a55460408051632511cebb60e01b815260048101889052306024820152600160448201526064810185905290519295506001600160a01b0390911691632511cebb9160848082019260009290919082900301818387803b15801561201d57600080fd5b505af1158015612031573d6000803e3d6000fd5b50505050612041836115296129ec565b60985490925061205a906001600160a01b031683614860565b612130565b600085815260a16020526040902054612080906001600160a01b031661156d565b600086815260a160205260409020549093506120a7906001600160a01b0316856001614962565b156120e35760405162461bcd60e51b81526004018080602001828103825260278152602001806154b76027913960400191505060405180910390fd5b600085815260a16020526040902054612104906001600160a01b031661156d565b600086815260a16020526040902054609854919350612130916001600160a01b0391821691168461474e565b50506001606555505050565b600090815260a2602052604090206002015490565b600081815260a160205260408120546001600160a01b03166121ee5760a460009054906101000a90046001600160a01b03166001600160a01b031663ae9d70b06040518163ffffffff1660e01b815260040160206040518083038186803b1580156121bb57600080fd5b505afa1580156121cf573d6000803e3d6000fd5b505050506040513d60208110156121e557600080fd5b50519050610f7c565b600082815260a160209081526040808320546001600160a01b03908116845260a0835292819020548151630ae9d70b60e41b81529151931692839263ae9d70b09260048082019391829003018186803b15801561224a57600080fd5b505afa15801561225e573d6000803e3d6000fd5b505050506040513d602081101561227457600080fd5b50519150610f7c9050565b600260655414156122c5576040805162461bcd60e51b815260206004820152601f6024820152600080516020615445833981519152604482015290519081900360640190fd5b6002606555600082815260a160205260408120600101546122ee906001600160a01b031661156d565b600084815260a160205260409020549091506001600160a01b03166123c35781341461234b5760405162461bcd60e51b81526004018080602001828103825260288152602001806156aa6028913960400191505060405180910390fd5b6123553083614860565b60a460009054906101000a90046001600160a01b03166001600160a01b0316631249c58b836040518263ffffffff1660e01b81526004016000604051808303818588803b1580156123a557600080fd5b505af11580156123b9573d6000803e3d6000fd5b50505050506124d0565b600083815260a16020908152604091829020548251636eb1769f60e11b8152336004820152306024820152925185936001600160a01b039092169263dd62ed3e9260448082019391829003018186803b15801561241f57600080fd5b505afa158015612433573d6000803e3d6000fd5b505050506040513d602081101561244957600080fd5b505110156124885760405162461bcd60e51b815260040180806020018281038252602c81526020018061548b602c913960400191505060405180910390fd5b600083815260a160205260409020546124ac906001600160a01b0316333085614adc565b600083815260a160205260409020546124ce906001600160a01b031683614b3c565b505b600083815260a160205260408120600101546124f4906001600160a01b031661156d565b90506124ff84614d1a565b506000828211156125e957600085815260a26020526040812060040154612532906012906301000000900460ff16614803565b9050600061254486600a84900a614687565b600088815260a2602052604090206002015490915061256f90610f5f83670de0b6b3a7640000614687565b600088815260a160205260408082206002015481516340c10f1960e01b81523360048201526024810185905291519396506001600160a01b0316926340c10f199260448084019391929182900301818387803b1580156125ce57600080fd5b505af11580156125e2573d6000803e3d6000fd5b5050505050505b33600081815260a3602090815260409182902043905581518881529081019290925281810186905260608201839052517f19f1e132571edb9da814c6ef6b15cfc69db767393405221724bf323db24459b89181900360800190a150506001606555505050565b60975460408051630935e01b60e21b815233600482015290516001600160a01b03909216916324d7806c91602480820192602092909190829003018186803b15801561269a57600080fd5b505afa1580156126ae573d6000803e3d6000fd5b505050506040513d60208110156126c457600080fd5b5051612705576040805162461bcd60e51b81526020600482015260176024820152600080516020615660833981519152604482015290519081900360640190fd5b600091825260a26020526040909120600401805461ffff191661ffff909216919091179055565b600061273782614dbc565b90506000612744836114f4565b9050601281101561276e5761276761275d601283614803565b8390600a0a614687565b9150612789565b61278661277c826012614803565b8390600a0a6146e7565b91505b50919050565b60975460408051630935e01b60e21b815233600482015290516001600160a01b03909216916324d7806c91602480820192602092909190829003018186803b1580156127da57600080fd5b505afa1580156127ee573d6000803e3d6000fd5b505050506040513d602081101561280457600080fd5b5051612845576040805162461bcd60e51b81526020600482015260176024820152600080516020615660833981519152604482015290519081900360640190fd5b60985461285b906001600160a01b031682614860565b50565b609b546001600160a01b031681565b60a4546040805163182df0f560e01b815290516000926001600160a01b03169163182df0f5916004808301926020929190829003018186803b1580156128b257600080fd5b505afa1580156128c6573d6000803e3d6000fd5b505050506040513d60208110156128dc57600080fd5b5051905090565b600081815260a1602090815260408083206002015481516318160ddd60e01b8152915184936001600160a01b03909216926318160ddd926004808301939192829003018186803b15801561293657600080fd5b505afa15801561294a573d6000803e3d6000fd5b505050506040513d602081101561296057600080fd5b5051600084815260a260205260408120600401549192509061298e906012906301000000900460ff16614803565b905080156129c3576129bc81600a0a610f5f670de0b6b3a7640000610f5f6129b58961213c565b8790614687565b92506129e5565b6129e2670de0b6b3a7640000610f5f6129db8761213c565b8590614687565b92505b5050919050565b4790565b6129f86147a5565b6001600160a01b0316612a096135ef565b6001600160a01b031614612a64576040805162461bcd60e51b815260206004820181905260248201527f4f776e61626c653a2063616c6c6572206973206e6f7420746865206f776e6572604482015290519081900360640190fd5b6033546040516000916001600160a01b0316907f8be0079c531659141344cd1fd0a4f28419497f9722a3daafe3b4186f6b6457e0908390a3603380546001600160a01b0319169055565b60026065541415612af4576040805162461bcd60e51b815260206004820152601f6024820152600080516020615445833981519152604482015290519081900360640190fd5b6002606555600082815260a16020526040812060010154612b1d906001600160a01b031661156d565b600084815260a160205260409020549091506001600160a01b0316612b7a57813414612b7a5760405162461bcd60e51b81526004018080602001828103825260288152602001806156aa6028913960400191505060405180910390fd5b612b8383614d1a565b50600083815260a26020526040812060040154612bac906012906301000000900460ff16614803565b90506000612bbe84600a84900a614687565b90506000612be1612bcf8787612eb4565b610f5f84670de0b6b3a7640000614687565b600087815260a160205260409020549091506001600160a01b0316612c7857612c0a3086614860565b60a460009054906101000a90046001600160a01b03166001600160a01b0316631249c58b866040518263ffffffff1660e01b81526004016000604051808303818588803b158015612c5a57600080fd5b505af1158015612c6e573d6000803e3d6000fd5b5050505050612d85565b600086815260a16020908152604091829020548251636eb1769f60e11b8152336004820152306024820152925188936001600160a01b039092169263dd62ed3e9260448082019391829003018186803b158015612cd457600080fd5b505afa158015612ce8573d6000803e3d6000fd5b505050506040513d6020811015612cfe57600080fd5b50511015612d3d5760405162461bcd60e51b815260040180806020018281038252602c815260200180615536602c913960400191505060405180910390fd5b600086815260a16020526040902054612d61906001600160a01b0316333088614adc565b600086815260a16020526040902054612d83906001600160a01b031686614b3c565b505b600086815260a16020526040812060010154612da9906001600160a01b031661156d565b905084811115612e2c57600087815260a160205260408082206003015481516340c10f1960e01b81523360048201526024810186905291516001600160a01b03909116926340c10f19926044808201939182900301818387803b158015612e0f57600080fd5b505af1158015612e23573d6000803e3d6000fd5b50505050612e31565b600091505b33600081815260a3602090815260409182902043905581518a81529081019290925281810188905260608201849052517ff08a1bcb4ad0b6bbcc3885d1221ff0ebc1fb9a7b8abc59447a94e305cc2491e19181900360800190a1505060016065555050505050565b60a0602052600090815260409020546001600160a01b031681565b600082815260a1602090815260408083206003015481516318160ddd60e01b81529151849384936001600160a01b03909316926318160ddd9260048083019392829003018186803b158015612f0857600080fd5b505afa158015612f1c573d6000803e3d6000fd5b505050506040513d6020811015612f3257600080fd5b5051600086815260a260205260409020600401549091506301000000900460ff16846012821015612f7857612f75612f6b601284614803565b8790600a0a614687565b90505b6000612f8484836147a9565b90506000612f9b88612f958b613c7d565b906147a9565b90506000612fa88a6128e3565b9050808210612fc257612fbb8282614803565b9650612fc7565b600096505b601285108015612fd75750600087115b15612ff757612ff4612fea601287614803565b8890600a0a614687565b96505b6000871180156130075750600083115b156130295761302283610f5f89670de0b6b3a7640000614687565b9750613035565b670de0b6b3a764000097505b5050505050505092915050565b60a4546001600160a01b031681565b60026065541415613097576040805162461bcd60e51b815260206004820152601f6024820152600080516020615445833981519152604482015290519081900360640190fd5b6002606555609f5433600090815260a3602052604090205463ffffffff918216916130c491439161480316565b10156131015760405162461bcd60e51b81526004018080602001828103825260328152602001806155e06032913960400191505060405180910390fd5b600082815260a16020908152604091829020600201548251636eb1769f60e11b8152336004820152306024820152925184936001600160a01b039092169263dd62ed3e9260448082019391829003018186803b15801561316057600080fd5b505afa158015613174573d6000803e3d6000fd5b505050506040513d602081101561318a57600080fd5b505110156131c95760405162461bcd60e51b815260040180806020018281038252602f8152602001806156d2602f913960400191505060405180910390fd5b600082815260a160205260409020600201546131f0906001600160a01b0316333084614adc565b6000806000806131ff86614d1a565b50600086815260a2602052604081206002015461322b90670de0b6b3a764000090610f5f908990614687565b600088815260a2602052604081206004015491925090613257906012906301000000900460ff16614803565b9050600061326983600a84900a6146e7565b60008a815260a1602052604081206001015491925090613291906001600160a01b031661156d565b60008b815260a160205260409020549091506001600160a01b03166133d15760008a815260a1602052604090206001015460a5546132dc916001600160a01b0390811691168361474e565b6132e46129ec565b60a55460408051632511cebb60e01b815260048101869052306024820152600060448201819052606482018690529151939b506001600160a01b0390921692632511cebb92608480820193929182900301818387803b15801561334657600080fd5b505af115801561335a573d6000803e3d6000fd5b5050505061336a886115296129ec565b60008b815260a260205260409020600401549097506133969061271090610f5f908a9061ffff16614687565b95506133a23387614860565b8587146133cc576133b38787614803565b6098549095506133cc906001600160a01b031686614860565b6134ff565b60008a815260a160205260409020546133f2906001600160a01b031661156d565b60008b815260a1602052604081205491995090613419906001600160a01b03168483614962565b905080156134475760008b815260a16020526040902054613445906001600160a01b0316836001614962565b505b60008b815260a1602052604090205461346e908a90611529906001600160a01b031661156d565b60008c815260a2602052604090206004015490985061349a9061271090610f5f908b9061ffff16614687565b60008c815260a160205260409020549097506134c0906001600160a01b0316338961474e565b8688146134fd576134d18888614803565b60008c815260a160205260409020546098549197506134fd916001600160a01b0391821691168861474e565b505b60008a815260a16020526040808220600201548151630852cd8d60e31b8152600481018d905291516001600160a01b03909116926342966c68926024808201939182900301818387803b15801561355557600080fd5b505af1158015613569573d6000803e3d6000fd5b505033600081815260a3602090815260409182902043905581518f8152908101929092528181018d9052606082018a905260808201899052517f34d60a41478d47b695f40c0225fdee00c6c598107d7ab9475382a02520cc564993509081900360a0019150a1505060016065555050505050505050565b60a5546001600160a01b031681565b6033546001600160a01b031690565b6001600160a01b03908116600090815260a0602052604090205416151590565b60975460408051630935e01b60e21b815233600482015290516001600160a01b03909216916324d7806c91602480820192602092909190829003018186803b15801561366957600080fd5b505afa15801561367d573d6000803e3d6000fd5b505050506040513d602081101561369357600080fd5b50516136d4576040805162461bcd60e51b81526020600482015260176024820152600080516020615660833981519152604482015290519081900360640190fd5b60128260ff16111580156136ec575060128160ff1611155b61373d576040805162461bcd60e51b815260206004820152601c60248201527f4a436f6d706f756e643a20746f6f206d616e7920646563696d616c7300000000604482015290519081900360640190fd5b600092835260a26020526040909220600401805460ff93841663010000000263ff0000001994909316620100000262ff0000199091161792909216179055565b60a260205260009081526040902080546001820154600283015460038401546004909401549293919290919061ffff81169060ff620100008204811691630100000090041687565b6001600160a01b03808216600090815260a06020908152604080832054815163182df0f560e01b8152915193941692839263182df0f59260048082019391829003018186803b15801561381757600080fd5b505afa15801561382b573d6000803e3d6000fd5b505050506040513d602081101561384157600080fd5b50519392505050565b60975460408051630935e01b60e21b815233600482015290516000926001600160a01b0316916324d7806c916024808301926020929190829003018186803b15801561389557600080fd5b505afa1580156138a9573d6000803e3d6000fd5b505050506040513d60208110156138bf57600080fd5b5051613900576040805162461bcd60e51b81526020600482015260176024820152600080516020615660833981519152604482015290519081900360640190fd5b609b546040805163331faf7160e21b815230600482015290516001600160a01b039092169163cc7ebdc491602480820192602092909190829003018186803b1580156128b257600080fd5b609e5481565b60975460408051630935e01b60e21b815233600482015290516001600160a01b03909216916324d7806c91602480820192602092909190829003018186803b15801561399c57600080fd5b505afa1580156139b0573d6000803e3d6000fd5b505050506040513d60208110156139c657600080fd5b5051613a07576040805162461bcd60e51b81526020600482015260176024820152600080516020615660833981519152604482015290519081900360640190fd5b60026065541415613a4d576040805162461bcd60e51b815260206004820152601f6024820152600080516020615445833981519152604482015290519081900360640190fd5b60026065556040805163a3d5b25560e01b81526001600160a01b03858116600483015284811660248301526044820184905291519186169163a3d5b2559160648082019260009290919082900301818387803b158015613aac57600080fd5b505af1158015613ac0573d6000803e3d6000fd5b50506001606555505050505050565b600054610100900460ff1680613ae85750613ae8614e08565b80613af6575060005460ff16155b613b315760405162461bcd60e51b815260040180806020018281038252602e815260200180615562602e913960400191505060405180910390fd5b600054610100900460ff16158015613b5c576000805460ff1961ff0019909116610100171660011790555b613b64614e19565b609780546001600160a01b03808a166001600160a01b0319928316179092556098805489841690831617905560998054888416908316179055609a8054878416908316179055609b8054868416908316179055609c805492851692909116919091179055609f805463ffffffff1916600317905562201480609e558015613bf1576000805461ff00191690555b50505050505050565b6098546001600160a01b031681565b6097546001600160a01b031681565b600080613c2483613c7d565b90506000613c31846128e3565b905080821115613c4e57613c458282614803565b92505050610f7c565b600092505050610f7c565b609c546001600160a01b031681565b600090815260a2602052604090206003015490565b600080613c898361272c565b90506000613c96846114f4565b90506012811015613cb657613caf61277c601283614803565b9150613cc2565b613cbf84614dbc565b91505b600084815260a16020526040812060010154613ce6906001600160a01b031661156d565b9050613cfe670de0b6b3a7640000610f5f8386614687565b95945050505050565b60975460408051630935e01b60e21b815233600482015290516001600160a01b03909216916324d7806c91602480820192602092909190829003018186803b158015613d5257600080fd5b505afa158015613d66573d6000803e3d6000fd5b505050506040513d6020811015613d7c57600080fd5b5051613dbd576040805162461bcd60e51b81526020600482015260176024820152600080516020615660833981519152604482015290519081900360640190fd5b600082815260a260205260409020819055613dd782614d1a565b600092835260a260205260409092206002019190915550565b609a546001600160a01b031681565b60975460408051630935e01b60e21b815233600482015290516001600160a01b03909216916324d7806c91602480820192602092909190829003018186803b158015613e4a57600080fd5b505afa158015613e5e573d6000803e3d6000fd5b505050506040513d6020811015613e7457600080fd5b5051613eb5576040805162461bcd60e51b81526020600482015260176024820152600080516020615660833981519152604482015290519081900360640190fd5b609e55565b60026065541415613f00576040805162461bcd60e51b815260206004820152601f6024820152600080516020615445833981519152604482015290519081900360640190fd5b6002606555609f5433600090815260a3602052604090205463ffffffff91821691613f2d91439161480316565b1015613f6a5760405162461bcd60e51b81526004018080602001828103825260328152602001806154de6032913960400191505060405180910390fd5b600082815260a16020908152604091829020600301548251636eb1769f60e11b8152336004820152306024820152925184936001600160a01b039092169263dd62ed3e9260448082019391829003018186803b158015613fc957600080fd5b505afa158015613fdd573d6000803e3d6000fd5b505050506040513d6020811015613ff357600080fd5b505110156140325760405162461bcd60e51b815260040180806020018281038252602f8152602001806155b1602f913960400191505060405180910390fd5b600082815260a16020526040902060030154614059906001600160a01b0316333084614adc565b60008060008061406886614d1a565b50600061408c670de0b6b3a7640000610f5f6140858a6000612eb4565b8990614687565b600088815260a26020526040812060040154919250906140b8906012906301000000900460ff16614803565b905060006140ca83600a84900a6146e7565b60008a815260a16020526040812060010154919250906140f2906001600160a01b031661156d565b60008b815260a160205260409020549091506001600160a01b03166142325760008a815260a1602052604090206001015460a55461413d916001600160a01b0390811691168361474e565b6141456129ec565b60a55460408051632511cebb60e01b815260048101869052306024820152600060448201819052606482018690529151939b506001600160a01b0390921692632511cebb92608480820193929182900301818387803b1580156141a757600080fd5b505af11580156141bb573d6000803e3d6000fd5b505050506141cb886115296129ec565b60008b815260a260205260409020600401549097506141f79061271090610f5f908a9061ffff16614687565b95506142033387614860565b85871461422d576142148787614803565b60985490955061422d906001600160a01b031686614860565b614366565b60008a815260a16020526040902054614253906001600160a01b031661156d565b60008b815260a1602052604081205491995061427a916001600160a01b0316908490614962565b156142b65760405162461bcd60e51b81526004018080602001828103825260278152602001806154b76027913960400191505060405180910390fd5b60008a815260a160205260409020546142d7906001600160a01b031661156d565b60008b815260a260205260409020600401549097506143039061271090610f5f908a9061ffff16614687565b60008b815260a16020526040902054909650614329906001600160a01b0316338861474e565b8587146143665761433a8787614803565b60008b815260a16020526040902054609854919650614366916001600160a01b0391821691168761474e565b60008a815260a16020526040808220600301548151630852cd8d60e31b8152600481018d905291516001600160a01b03909116926342966c68926024808201939182900301818387803b1580156143bc57600080fd5b505af11580156143d0573d6000803e3d6000fd5b505033600081815260a3602090815260409182902043905581518f8152908101929092528181018d9052606082018a905260808201899052517f9c8ce079d38dc08e2831c9fa769dff19e30a8b2d69c4924a73129038eee8fcab93509081900360a0019150a1505060016065555050505050505050565b60a36020526000908152604090205481565b6144616147a5565b6001600160a01b03166144726135ef565b6001600160a01b0316146144cd576040805162461bcd60e51b815260206004820181905260248201527f4f776e61626c653a2063616c6c6572206973206e6f7420746865206f776e6572604482015290519081900360640190fd5b6001600160a01b0381166145125760405162461bcd60e51b81526004018080602001828103825260268152602001806154656026913960400191505060405180910390fd5b6033546040516001600160a01b038084169216907f8be0079c531659141344cd1fd0a4f28419497f9722a3daafe3b4186f6b6457e090600090a3603380546001600160a01b0319166001600160a01b0392909216919091179055565b6099546001600160a01b031681565b60975460408051630935e01b60e21b815233600482015290516001600160a01b03909216916324d7806c91602480820192602092909190829003018186803b1580156145c857600080fd5b505afa1580156145dc573d6000803e3d6000fd5b505050506040513d60208110156145f257600080fd5b5051614633576040805162461bcd60e51b81526020600482015260176024820152600080516020615660833981519152604482015290519081900360640190fd5b60a480546001600160a01b039092166001600160a01b031992831681179091556000805260a06020527fb84a74ec6ef4d0e83b6006dfaa014ab4026f9f3b97d186e604d29998a4e808ea8054909216179055565b6000826146965750600061152f565b828202828482816146a357fe5b04146146e05760405162461bcd60e51b81526004018080602001828103825260218152602001806155906021913960400191505060405180910390fd5b9392505050565b600080821161473d576040805162461bcd60e51b815260206004820152601a60248201527f536166654d6174683a206469766973696f6e206279207a65726f000000000000604482015290519081900360640190fd5b81838161474657fe5b049392505050565b604080516001600160a01b038416602482015260448082018490528251808303909101815260649091019091526020810180516001600160e01b031663a9059cbb60e01b1790526147a0908490614eca565b505050565b3390565b6000828201838110156146e0576040805162461bcd60e51b815260206004820152601b60248201527f536166654d6174683a206164646974696f6e206f766572666c6f770000000000604482015290519081900360640190fd5b60008282111561485a576040805162461bcd60e51b815260206004820152601e60248201527f536166654d6174683a207375627472616374696f6e206f766572666c6f770000604482015290519081900360640190fd5b50900390565b604080516000808252602082019092526001600160a01b0384169083906040518082805190602001908083835b602083106148ac5780518252601f19909201916020918201910161488d565b6001836020036101000a03801982511681845116808217855250505050505090500191505060006040518083038185875af1925050503d806000811461490e576040519150601f19603f3d011682016040523d82523d6000602084013e614913565b606091505b50509050806147a0576040805162461bcd60e51b815260206004820152601660248201527515120811551217d514905394d1915497d1905253115160521b604482015290519081900360640190fd5b6001600160a01b03838116600090815260a060205260408120549091166149c5576040805162461bcd60e51b81526020600482015260126024820152711d1bdad95b881b9bdd081858d8d95c1d195960721b604482015290519081900360640190fd5b6001600160a01b03808516600090815260a06020526040902054168215614a5f57806001600160a01b031663db006a75856040518263ffffffff1660e01b815260040180828152602001915050602060405180830381600087803b158015614a2c57600080fd5b505af1158015614a40573d6000803e3d6000fd5b505050506040513d6020811015614a5657600080fd5b50519150614ad4565b806001600160a01b031663852a12e3856040518263ffffffff1660e01b815260040180828152602001915050602060405180830381600087803b158015614aa557600080fd5b505af1158015614ab9573d6000803e3d6000fd5b505050506040513d6020811015614acf57600080fd5b505191505b509392505050565b604080516001600160a01b0380861660248301528416604482015260648082018490528251808303909101815260849091019091526020810180516001600160e01b03166323b872dd60e01b179052614b36908590614eca565b50505050565b6001600160a01b03828116600090815260a06020526040812054909116614baa576040805162461bcd60e51b815260206004820152601d60248201527f4a436f6d706f756e643a20746f6b656e206e6f74206163636570746564000000604482015290519081900360640190fd5b6001600160a01b03808416600090815260a06020526040902054849116614bd2828286614f7b565b6001600160a01b03858116600090815260a06020908152604091829020548251636eb1769f60e11b815230600482015290841660248201529151879386169263dd62ed3e926044808301939192829003018186803b158015614c3357600080fd5b505afa158015614c47573d6000803e3d6000fd5b505050506040513d6020811015614c5d57600080fd5b50511015614c9c5760405162461bcd60e51b815260040180806020018281038252602b815260200180615612602b913960400191505060405180910390fd5b6000816001600160a01b031663a0712d68866040518263ffffffff1660e01b815260040180828152602001915050602060405180830381600087803b158015614ce457600080fd5b505af1158015614cf8573d6000803e3d6000fd5b505050506040513d6020811015614d0e57600080fd5b50519695505050505050565b6000614d2582610f2a565b50600082815260a26020526040812060010154614d43904390614803565b90508015614da557600083815260a26020526040812060030154614d679083614687565b600085815260a26020526040902060020154909150614d8690826147a9565b600085815260a260205260409020600281019190915543600190910155505b5050600090815260a2602052604090206002015490565b600081815260a160205260408120546001600160a01b0316614de757614de061286d565b9050610f7c565b600082815260a1602052604090205461152f906001600160a01b03166137c5565b6000614e133061508e565b15905090565b600054610100900460ff1680614e325750614e32614e08565b80614e40575060005460ff16155b614e7b5760405162461bcd60e51b815260040180806020018281038252602e815260200180615562602e913960400191505060405180910390fd5b600054610100900460ff16158015614ea6576000805460ff1961ff0019909116610100171660011790555b614eae615094565b614eb6615134565b801561285b576000805461ff001916905550565b6060614f1f826040518060400160405280602081526020017f5361666545524332303a206c6f772d6c6576656c2063616c6c206661696c6564815250856001600160a01b031661522d9092919063ffffffff16565b8051909150156147a057808060200190516020811015614f3e57600080fd5b50516147a05760405162461bcd60e51b815260040180806020018281038252602a815260200180615680602a913960400191505060405180910390fd5b801580615001575060408051636eb1769f60e11b81523060048201526001600160a01b03848116602483015291519185169163dd62ed3e91604480820192602092909190829003018186803b158015614fd357600080fd5b505afa158015614fe7573d6000803e3d6000fd5b505050506040513d6020811015614ffd57600080fd5b5051155b61503c5760405162461bcd60e51b81526004018080602001828103825260368152602001806157016036913960400191505060405180910390fd5b604080516001600160a01b038416602482015260448082018490528251808303909101815260649091019091526020810180516001600160e01b031663095ea7b360e01b1790526147a0908490614eca565b3b151590565b600054610100900460ff16806150ad57506150ad614e08565b806150bb575060005460ff16155b6150f65760405162461bcd60e51b815260040180806020018281038252602e815260200180615562602e913960400191505060405180910390fd5b600054610100900460ff16158015614eb6576000805460ff1961ff001990911661010017166001179055801561285b576000805461ff001916905550565b600054610100900460ff168061514d575061514d614e08565b8061515b575060005460ff16155b6151965760405162461bcd60e51b815260040180806020018281038252602e815260200180615562602e913960400191505060405180910390fd5b600054610100900460ff161580156151c1576000805460ff1961ff0019909116610100171660011790555b60006151cb6147a5565b603380546001600160a01b0319166001600160a01b038316908117909155604051919250906000907f8be0079c531659141344cd1fd0a4f28419497f9722a3daafe3b4186f6b6457e0908290a350801561285b576000805461ff001916905550565b606061523c8484600085615244565b949350505050565b6060824710156152855760405162461bcd60e51b81526004018080602001828103825260268152602001806155106026913960400191505060405180910390fd5b61528e8561508e565b6152df576040805162461bcd60e51b815260206004820152601d60248201527f416464726573733a2063616c6c20746f206e6f6e2d636f6e7472616374000000604482015290519081900360640190fd5b60006060866001600160a01b031685876040518082805190602001908083835b6020831061531e5780518252601f1990920191602091820191016152ff565b6001836020036101000a03801982511681845116808217855250505050505090500191505060006040518083038185875af1925050503d8060008114615380576040519150601f19603f3d011682016040523d82523d6000602084013e615385565b606091505b50915091506153958282866153a0565b979650505050505050565b606083156153af5750816146e0565b8251156153bf5782518084602001fd5b8160405162461bcd60e51b81526004018080602001828103825283818151815260200191508051906020019080838360005b838110156154095781810151838201526020016153f1565b50505050905090810190601f1680156154365780820380516001836020036101000a031916815260200191505b509250505060405180910390fdfe5265656e7472616e637947756172643a207265656e7472616e742063616c6c004f776e61626c653a206e6577206f776e657220697320746865207a65726f20616464726573734a436f6d706f756e643a20616c6c6f77616e6365206661696c656420627579696e67207472616e63686520414a436f6d706f756e643a20696e636f727265637420616e737765722066726f6d2063546f6b656e4a436f6d706f756e643a2072656465656d2074696d656f7574206e6f742065787069726564206f6e207472616e6368652042416464726573733a20696e73756666696369656e742062616c616e636520666f722063616c6c4a436f6d706f756e643a20616c6c6f77616e6365206661696c656420627579696e67207472616e6368652042496e697469616c697a61626c653a20636f6e747261637420697320616c726561647920696e697469616c697a6564536166654d6174683a206d756c7469706c69636174696f6e206f766572666c6f774a436f6d706f756e643a20616c6c6f77616e6365206661696c65642072656465656d696e67207472616e63686520424a436f6d706f756e643a2072656465656d2074696d656f7574206e6f742065787069726564206f6e207472616e63686520414a436f6d706f756e643a2063616e6e6f742073656e6420746f20636f6d706f756e6420636f6e74726163744a436f6d706f756e643a20736574207472616e63686520657468206465706c6f7965724a436f6d706f756e643a206e6f7420616e2041646d696e0000000000000000005361666545524332303a204552433230206f7065726174696f6e20646964206e6f7420737563636565644a436f6d706f756e643a206d73672e76616c7565206e6f7420657175616c20746f20616d6f756e744a436f6d706f756e643a20616c6c6f77616e6365206661696c65642072656465656d696e67207472616e63686520415361666545524332303a20617070726f76652066726f6d206e6f6e2d7a65726f20746f206e6f6e2d7a65726f20616c6c6f77616e6365a26469706673582212208deb6dbad46b545db4aa592b849b7726c920c7c992476be56dae2e6cd64e451e64736f6c634300060c0033",
  "immutableReferences": {},
  "source": "// SPDX-License-Identifier: MIT\n/**\n * Created on 2021-02-11\n * @summary: Jibrel Compound Tranche Protocol\n * @author: Jibrel Team\n */\npragma solidity 0.6.12;\n\nimport \"@openzeppelin/contracts-upgradeable/math/SafeMathUpgradeable.sol\";\nimport \"@openzeppelin/contracts-upgradeable/token/ERC20/SafeERC20Upgradeable.sol\";\nimport \"@openzeppelin/contracts-upgradeable/utils/ReentrancyGuardUpgradeable.sol\";\nimport \"./interfaces/IJAdminTools.sol\";\nimport \"./interfaces/IJTrancheTokens.sol\";\nimport \"./interfaces/IJTranchesDeployer.sol\";\nimport \"./interfaces/IJCompound.sol\";\nimport \"./interfaces/ICErc20.sol\";\nimport \"./interfaces/IComptrollerLensInterface.sol\";\nimport \"./JCompoundStorage.sol\";\nimport \"./TransferETHHelper.sol\";\n\n\ncontract JCompound is OwnableUpgradeable, ReentrancyGuardUpgradeable, JCompoundStorage, IJCompound {\n    using SafeMathUpgradeable for uint256;\n\n    /**\n     * @dev contract initializer\n     * @param _adminTools price oracle address\n     * @param _feesCollector fees collector contract address\n     * @param _tranchesDepl tranches deployer contract address\n     * @param _compTokenAddress COMP token contract address\n     * @param _comptrollAddress comptroller contract address\n     * @param _rewardsToken rewards token address (slice token address)\n     */\n    function initialize(address _adminTools, \n            address _feesCollector, \n            address _tranchesDepl,\n            address _compTokenAddress,\n            address _comptrollAddress,\n            address _rewardsToken) external initializer() {\n        OwnableUpgradeable.__Ownable_init();\n        adminToolsAddress = _adminTools;\n        feesCollectorAddress = _feesCollector;\n        tranchesDeployerAddress = _tranchesDepl;\n        compTokenAddress = _compTokenAddress;\n        comptrollerAddress = _comptrollAddress;\n        rewardsToken = _rewardsToken;\n        redeemTimeout = 3; //default\n        totalBlocksPerYear = 2102400; // same number like in Compound protocol\n    }\n\n    /**\n     * @dev admins modifiers\n     */\n    modifier onlyAdmins() {\n        require(IJAdminTools(adminToolsAddress).isAdmin(msg.sender), \"JCompound: not an Admin\");\n        _;\n    }\n\n    // This is needed to receive ETH\n    fallback() external payable {}\n    receive() external payable {}\n\n    /**\n     * @dev set new addresses for price oracle, fees collector and tranche deployer \n     * @param _adminTools price oracle address\n     * @param _feesCollector fees collector contract address\n     * @param _tranchesDepl tranches deployer contract address\n     * @param _compTokenAddress COMP token contract address\n     * @param _comptrollAddress comptroller contract address\n     * @param _rewardsToken rewards token address (slice token address)\n     */\n    function setNewEnvironment(address _adminTools, \n            address _feesCollector, \n            address _tranchesDepl,\n            address _compTokenAddress,\n            address _comptrollAddress,\n            address _rewardsToken) external onlyOwner {\n        require((_adminTools != address(0)) && (_feesCollector != address(0)) && \n            (_tranchesDepl != address(0)) && (_comptrollAddress != address(0)) && (_compTokenAddress != address(0)), \"JCompound: check addresses\");\n        adminToolsAddress = _adminTools;\n        feesCollectorAddress = _feesCollector;\n        tranchesDeployerAddress = _tranchesDepl;\n        compTokenAddress = _compTokenAddress;\n        comptrollerAddress = _comptrollAddress;\n        rewardsToken = _rewardsToken;\n    }\n\n    /**\n     * @dev set how many blocks will be produced per year on the blockchain \n     * @param _newValue new value (Compound blocksPerYear = 2102400)\n     */\n    function setBlocksPerYear(uint256 _newValue) external onlyAdmins {\n        totalBlocksPerYear = _newValue;\n    }\n\n    /**\n     * @dev set eth gateway \n     * @param _ethGateway ethGateway address\n     */\n    function setETHGateway(address _ethGateway) external onlyAdmins {\n        ethGateway = IETHGateway(_ethGateway);\n    }\n\n    /**\n     * @dev set relationship between ethers and the corresponding Compound cETH contract\n     * @param _cEtherContract compound token contract address (cETH contract, on Kovan: 0x41b5844f4680a8c38fbb695b7f9cfd1f64474a72)\n     */\n    function setCEtherContract(address _cEtherContract) external onlyAdmins {\n        cEthToken = ICEth(_cEtherContract);\n        cTokenContracts[address(0)] = _cEtherContract;\n    }\n\n    /**\n     * @dev set relationship between a token and the corresponding Compound cToken contract\n     * @param _erc20Contract token contract address (i.e. DAI contract, on Kovan: 0x4f96fe3b7a6cf9725f59d353f723c1bdb64ca6aa)\n     * @param _cErc20Contract compound token contract address (i.e. cDAI contract, on Kovan: 0xf0d0eb522cfa50b716b3b1604c4f0fa6f04376ad)\n     */\n    function setCTokenContract(address _erc20Contract, address _cErc20Contract) external onlyAdmins {\n        cTokenContracts[_erc20Contract] = _cErc20Contract;\n    }\n\n    /**\n     * @dev check if a cToken is allowed or not\n     * @param _erc20Contract token contract address (i.e. DAI contract, on Kovan: 0x4f96fe3b7a6cf9725f59d353f723c1bdb64ca6aa)\n     * @return true or false\n     */\n    function isCTokenAllowed(address _erc20Contract) public view returns (bool) {\n        return cTokenContracts[_erc20Contract] != address(0);\n    }\n\n    /**\n     * @dev get RPB from compound\n     * @param _trancheNum tranche number\n     * @return cToken compound supply RPB\n     */\n    function getCompoundSupplyRPB(uint256 _trancheNum) external view returns (uint256) {\n        if (trancheAddresses[_trancheNum].buyerCoinAddress == address(0)) {\n            return cEthToken.supplyRatePerBlock();\n        } else {\n            ICErc20 cToken = ICErc20(cTokenContracts[trancheAddresses[_trancheNum].buyerCoinAddress]);\n            return cToken.supplyRatePerBlock();\n        }\n    }\n\n    /**\n     * @dev check if a cToken is allowed or not\n     * @param _trancheNum tranche number\n     * @param _cTokenDec cToken decimals\n     * @param _underlyingDec underlying token decimals\n     */\n    function setDecimals(uint256 _trancheNum, uint8 _cTokenDec, uint8 _underlyingDec) external onlyAdmins {\n        require((_cTokenDec <= 18) && (_underlyingDec <= 18), \"JCompound: too many decimals\");\n        trancheParameters[_trancheNum].cTokenDecimals = _cTokenDec;\n        trancheParameters[_trancheNum].underlyingDecimals = _underlyingDec;\n    }\n\n    /**\n     * @dev set tranche redemption percentage\n     * @param _trancheNum tranche number\n     * @param _redeemPercent user redemption percent\n     */\n    function setTrancheRedemptionPercentage(uint256 _trancheNum, uint16 _redeemPercent) external onlyAdmins {\n        trancheParameters[_trancheNum].redemptionPercentage = _redeemPercent;\n    }\n\n    /**\n     * @dev set tranche redemption percentage\n     * @param _trancheNum tranche number\n     * @param _newTrAPercentage new tranche A RPB\n     */\n    function setTrancheAFixedPercentage(uint256 _trancheNum, uint256 _newTrAPercentage) external onlyAdmins {\n        trancheParameters[_trancheNum].trancheAFixedPercentage = _newTrAPercentage;\n        trancheParameters[_trancheNum].storedTrancheAPrice = setTrancheAExchangeRate(_trancheNum);\n    }\n\n    /**\n     * @dev set redemption timeout\n     * @param _blockNum timeout (in block numbers)\n     */\n    function setRedemptionTimeout(uint32 _blockNum) external onlyAdmins {\n        redeemTimeout = _blockNum;\n    }\n\n    /**\n     * @dev add tranche in protocol\n     * @param _erc20Contract token contract address (0x0000000000000000000000000000000000000000 if eth)\n     * @param _nameA tranche A token name\n     * @param _symbolA tranche A token symbol\n     * @param _nameB tranche B token name\n     * @param _symbolB tranche B token symbol\n     * @param _fixedRpb tranche A percentage fixed compounded interest per year\n     * @param _cTokenDec cToken decimals\n     * @param _underlyingDec underlying token decimals\n     */\n    function addTrancheToProtocol(address _erc20Contract, string memory _nameA, string memory _symbolA, string memory _nameB, \n                string memory _symbolB, uint256 _fixedRpb, uint8 _cTokenDec, uint8 _underlyingDec) external onlyAdmins nonReentrant {\n        require(tranchesDeployerAddress != address(0), \"JCompound: set tranche eth deployer\");\n        require(isCTokenAllowed(_erc20Contract), \"JCompound: cToken not allowed\");\n\n        trancheAddresses[tranchePairsCounter].buyerCoinAddress = _erc20Contract;\n        trancheAddresses[tranchePairsCounter].cTokenAddress = cTokenContracts[_erc20Contract];\n        // our tokens always with 18 decimals\n        trancheAddresses[tranchePairsCounter].ATrancheAddress = \n                IJTranchesDeployer(tranchesDeployerAddress).deployNewTrancheATokens(_nameA, _symbolA, msg.sender, rewardsToken);\n        trancheAddresses[tranchePairsCounter].BTrancheAddress = \n                IJTranchesDeployer(tranchesDeployerAddress).deployNewTrancheBTokens(_nameB, _symbolB, msg.sender, rewardsToken);\n        \n        trancheParameters[tranchePairsCounter].cTokenDecimals = _cTokenDec;\n        trancheParameters[tranchePairsCounter].underlyingDecimals = _underlyingDec;\n        trancheParameters[tranchePairsCounter].trancheAFixedPercentage = _fixedRpb;\n        trancheParameters[tranchePairsCounter].trancheALastActionBlock = block.number;\n        // if we would like to have always 18 decimals\n        trancheParameters[tranchePairsCounter].storedTrancheAPrice = getCompoundPrice(tranchePairsCounter);\n\n        trancheParameters[tranchePairsCounter].redemptionPercentage = 9950;  //default value 99.5%\n\n        calcRPBFromPercentage(tranchePairsCounter); // initialize tranche A RPB\n\n        emit TrancheAddedToProtocol(tranchePairsCounter, trancheAddresses[tranchePairsCounter].ATrancheAddress, trancheAddresses[tranchePairsCounter].BTrancheAddress);\n\n        tranchePairsCounter = tranchePairsCounter.add(1);\n    } \n\n    /**\n     * @dev send an amount of tokens to corresponding compound contract (it takes tokens from this contract). Only allowed token should be sent\n     * @param _erc20Contract token contract address\n     * @param _numTokensToSupply token amount to be sent\n     * @return mint result\n     */\n    function sendErc20ToCompound(address _erc20Contract, uint256 _numTokensToSupply) internal returns(uint256) {\n        require(cTokenContracts[_erc20Contract] != address(0), \"JCompound: token not accepted\");\n        // i.e. DAI contract, on Kovan: 0x4f96fe3b7a6cf9725f59d353f723c1bdb64ca6aa\n        IERC20Upgradeable underlying = IERC20Upgradeable(_erc20Contract);\n\n        // i.e. cDAI contract, on Kovan: 0xf0d0eb522cfa50b716b3b1604c4f0fa6f04376ad\n        ICErc20 cToken = ICErc20(cTokenContracts[_erc20Contract]);\n\n        SafeERC20Upgradeable.safeApprove(underlying, cTokenContracts[_erc20Contract], _numTokensToSupply);\n        require(underlying.allowance(address(this), cTokenContracts[_erc20Contract]) >= _numTokensToSupply, \"JCompound: cannot send to compound contract\");\n\n        uint256 mintResult = cToken.mint(_numTokensToSupply);\n        return mintResult;\n    }\n\n    /**\n     * @dev redeem an amount of cTokens to have back original tokens (tokens remains in this contract). Only allowed token should be sent\n     * @param _erc20Contract original token contract address\n     * @param _amount cToken amount to be sent\n     * @param _redeemType true or false, normally true\n     */\n    function redeemCErc20Tokens(address _erc20Contract, uint256 _amount, bool _redeemType) internal returns (uint256 redeemResult) {\n        require(cTokenContracts[_erc20Contract] != address(0), \"token not accepted\");\n        // i.e. cDAI contract, on Kovan: 0xf0d0eb522cfa50b716b3b1604c4f0fa6f04376ad\n        ICErc20 cToken = ICErc20(cTokenContracts[_erc20Contract]);\n\n        if (_redeemType) {\n            // Retrieve your asset based on a cToken amount\n            redeemResult = cToken.redeem(_amount);\n        } else {\n            // Retrieve your asset based on an amount of the asset\n            redeemResult = cToken.redeemUnderlying(_amount);\n        }\n        return redeemResult;\n    }\n\n    /**\n     * @dev get cETH stored exchange rate from compound contract\n     * @return exchRateMantissa exchange rate cEth mantissa\n     */\n    function getCEthExchangeRate() public view returns (uint256 exchRateMantissa) {\n        // Amount of current exchange rate from cToken to underlying\n        return exchRateMantissa = cEthToken.exchangeRateStored(); // it returns something like 200335783821833335165549849\n    }\n/*\n    /**\n     * @dev get cETH current exchange rate from compound contract\n     * @return exchRateMantissa exchange rate cEth mantissa\n     */\n/*    function getCEthExchangeRateCurrent() public returns (uint256 exchRateMantissa) {\n        // Amount of current exchange rate from cToken to underlying\n        return exchRateMantissa = cEthToken.exchangeRateCurrent(); // it returns something like 200335783821833335165549849\n    }\n*/\n    /**\n     * @dev get cETH stored exchange rate from compound contract\n     * @param _tokenContract tranche number\n     * @return exchRateMantissa exchange rate cToken mantissa\n     */\n    function getCTokenExchangeRate(address _tokenContract) public view returns (uint256 exchRateMantissa) {\n        ICErc20 cToken = ICErc20(cTokenContracts[_tokenContract]);\n        // Amount of current exchange rate from cToken to underlying\n        return exchRateMantissa = cToken.exchangeRateStored(); // it returns something like 210615675702828777787378059 (cDAI contract) or 209424757650257 (cUSDT contract)\n    }\n/*\n    /**\n     * @dev get cETH current exchange rate from compound contract\n     * @param _tokenContract tranche number\n     * @return exchRateMantissa exchange rate cToken mantissa\n     */\n/*    function getCTokenExchangeRateCurrent(address _tokenContract) public returns (uint256 exchRateMantissa) {\n        ICErc20 cToken = ICErc20(cTokenContracts[_tokenContract]);\n        // Amount of current exchange rate from cToken to underlying\n        return exchRateMantissa = cToken.exchangeRateCurrent(); // it returns something like 210615675702828777787378059 (cDAI contract) or 209424757650257 (cUSDT contract)\n    }\n*/\n    /**\n     * @dev get tranche mantissa\n     * @param _trancheNum tranche number\n     * @return mantissa tranche mantissa (from 16 to 28 decimals)\n     */\n    function getMantissa(uint256 _trancheNum) public view returns (uint256 mantissa) {\n        mantissa = (uint256(trancheParameters[_trancheNum].underlyingDecimals)).add(18).sub(uint256(trancheParameters[_trancheNum].cTokenDecimals));\n        return mantissa;\n    }\n\n    /**\n     * @dev get compound pure price for a single tranche\n     * @param _trancheNum tranche number\n     * @return compoundPrice compound current pure price\n     */\n    function getCompoundPurePrice(uint256 _trancheNum) internal view returns (uint256 compoundPrice) {\n        if (trancheAddresses[_trancheNum].buyerCoinAddress == address(0)) {\n            compoundPrice = getCEthExchangeRate();\n        } else {\n            compoundPrice = getCTokenExchangeRate(trancheAddresses[_trancheNum].buyerCoinAddress);\n        }\n        return compoundPrice;\n    }\n\n    /**\n     * @dev get compound price for a single tranche scaled by 1e18\n     * @param _trancheNum tranche number\n     * @return compNormPrice compound current normalized price\n     */\n    function getCompoundPrice(uint256 _trancheNum) public view returns (uint256 compNormPrice) {\n        compNormPrice = getCompoundPurePrice(_trancheNum);\n\n        uint256 mantissa = getMantissa(_trancheNum);\n        if (mantissa < 18) {\n            compNormPrice = compNormPrice.mul(10 ** uint256(18).sub(mantissa));\n        } else {\n            compNormPrice = compNormPrice.div(10 ** mantissa.sub(uint256(18)));\n        }\n        return compNormPrice;\n    }\n\n    /**\n     * @dev set Tranche A exchange rate\n     * @param _trancheNum tranche number\n     * @return tranche A token stored price\n     */\n    function setTrancheAExchangeRate(uint256 _trancheNum) internal returns (uint256) {\n        calcRPBFromPercentage(_trancheNum);\n        uint256 deltaBlocks = (block.number).sub(trancheParameters[_trancheNum].trancheALastActionBlock);\n        if (deltaBlocks > 0) {\n            uint256 deltaPrice = (trancheParameters[_trancheNum].trancheACurrentRPB).mul(deltaBlocks);\n            trancheParameters[_trancheNum].storedTrancheAPrice = (trancheParameters[_trancheNum].storedTrancheAPrice).add(deltaPrice);\n            trancheParameters[_trancheNum].trancheALastActionBlock = block.number;\n        }\n        return trancheParameters[_trancheNum].storedTrancheAPrice;\n    }\n\n    /**\n     * @dev get Tranche A exchange rate\n     * @param _trancheNum tranche number\n     * @return tranche A token stored price\n     */\n    function getTrancheAExchangeRate(uint256 _trancheNum) public view returns (uint256) {\n        return trancheParameters[_trancheNum].storedTrancheAPrice;\n    }\n\n    /**\n     * @dev get RPB for a given percentage (expressed in 1e18)\n     * @param _trancheNum tranche number\n     * @return RPB for a fixed percentage\n     */\n    function getTrancheACurrentRPB(uint256 _trancheNum) external view returns (uint256) {\n        return trancheParameters[_trancheNum].trancheACurrentRPB;\n    }\n\n    /**\n     * @dev get Tranche A exchange rate (tokens with 18 decimals)\n     * @param _trancheNum tranche number\n     * @return tranche A token current price\n     */\n    function calcRPBFromPercentage(uint256 _trancheNum) public returns (uint256) {\n        // if normalized price in tranche A price, everything should be scaled to 1e18 \n        trancheParameters[_trancheNum].trancheACurrentRPB = trancheParameters[_trancheNum].storedTrancheAPrice\n            .mul(trancheParameters[_trancheNum].trancheAFixedPercentage).div(totalBlocksPerYear).div(1e18);\n        return trancheParameters[_trancheNum].trancheACurrentRPB;\n    }\n\n    /**\n     * @dev get Tranche A value in underlying tokens\n     * @param _trancheNum tranche number\n     * @return trANormValue tranche A value in underlying tokens\n     */\n    function getTrAValue(uint256 _trancheNum) public view returns (uint256 trANormValue) {\n        uint256 totASupply = IERC20Upgradeable(trancheAddresses[_trancheNum].ATrancheAddress).totalSupply();\n        uint256 diffDec = uint256(18).sub(uint256(trancheParameters[_trancheNum].underlyingDecimals));\n        if (diffDec > 0)\n            trANormValue = totASupply.mul(getTrancheAExchangeRate(_trancheNum)).div(1e18).div(10 ** diffDec);\n        else    \n            trANormValue = totASupply.mul(getTrancheAExchangeRate(_trancheNum)).div(1e18);\n        return trANormValue;\n    }\n\n    /**\n     * @dev get Tranche B value in underlying tokens\n     * @param _trancheNum tranche number\n     * @return tranche B valuein underlying tokens\n     */\n    function getTrBValue(uint256 _trancheNum) external view returns (uint256) {\n        uint256 totProtValue = getTotalValue(_trancheNum);\n        uint256 totTrAValue = getTrAValue(_trancheNum);\n        if (totProtValue > totTrAValue) {\n            return totProtValue.sub(totTrAValue);\n        } else\n            return 0;\n    }\n\n    /**\n     * @dev get Tranche total value in underlying tokens\n     * @param _trancheNum tranche number\n     * @return tranche total value in underlying tokens\n     */\n    function getTotalValue(uint256 _trancheNum) public view returns (uint256) {\n        uint256 compNormPrice = getCompoundPrice(_trancheNum);\n        uint256 mantissa = getMantissa(_trancheNum);\n        if (mantissa < 18) {\n            compNormPrice = compNormPrice.div(10 ** uint256(18).sub(mantissa));\n        } else {\n            compNormPrice = getCompoundPurePrice(_trancheNum);\n        }\n        uint256 totProtSupply = getTokenBalance(trancheAddresses[_trancheNum].cTokenAddress);\n        return totProtSupply.mul(compNormPrice).div(1e18);\n    }\n\n    /**\n     * @dev get Tranche B exchange rate\n     * @param _trancheNum tranche number\n     * @param _newAmount new amount entering tranche B (in underlying tokens)\n     * @return tbPrice tranche B token current price\n     */\n    function getTrancheBExchangeRate(uint256 _trancheNum, uint256 _newAmount) public view returns (uint256 tbPrice) {\n        // set amount of tokens to be minted via taToken price\n        // Current tbDai price = (((cDai X cPrice)-(aSupply X taPrice)) / bSupply)\n        // where: cDai = How much cDai we hold in the protocol\n        // cPrice = cDai / Dai price\n        // aSupply = Total number of taDai in protocol\n        // taPrice = taDai / Dai price\n        // bSupply = Total number of tbDai in protocol\n        uint256 totTrBValue;\n\n        uint256 totBSupply = IERC20Upgradeable(trancheAddresses[_trancheNum].BTrancheAddress).totalSupply(); // 18 decimals\n        // if normalized price in tranche A price, everything should be scaled to 1e18 \n        uint256 underlyingDec = uint256(trancheParameters[_trancheNum].underlyingDecimals);\n        uint256 normAmount = _newAmount;\n        if (underlyingDec < 18)\n            normAmount = _newAmount.mul(10 ** uint256(18).sub(underlyingDec));\n        uint256 newBSupply = totBSupply.add(normAmount); // 18 decimals\n\n        uint256 totProtValue = getTotalValue(_trancheNum).add(_newAmount); //underlying token decimals\n        uint256 totTrAValue = getTrAValue(_trancheNum); //underlying token decimals\n        if (totProtValue >= totTrAValue)\n            totTrBValue = totProtValue.sub(totTrAValue); //underlying token decimals\n        else\n            totTrBValue = 0;\n        // if normalized price in tranche A price, everything should be scaled to 1e18 \n        if (underlyingDec < 18 && totTrBValue > 0) {\n            totTrBValue = totTrBValue.mul(10 ** (uint256(18).sub(underlyingDec)));\n        }\n        if (totTrBValue > 0 && newBSupply > 0) {\n            // if normalized price in tranche A price, everything should be scaled to 1e18 \n            tbPrice = totTrBValue.mul(1e18).div(newBSupply);\n        } else\n            // if normalized price in tranche A price, everything should be scaled to 1e18 \n            tbPrice = uint256(1e18);\n\n        return tbPrice;\n    }\n\n    /**\n     * @dev buy Tranche A Tokens\n     * @param _trancheNum tranche number\n     * @param _amount amount of stable coins sent by buyer\n     */\n    function buyTrancheAToken(uint256 _trancheNum, uint256 _amount) external payable nonReentrant {\n        uint256 prevCompTokenBalance = getTokenBalance(trancheAddresses[_trancheNum].cTokenAddress);\n        if (trancheAddresses[_trancheNum].buyerCoinAddress == address(0)){\n            require(msg.value == _amount, \"JCompound: msg.value not equal to amount\");\n            //Transfer ETH from msg.sender to protocol;\n            TransferETHHelper.safeTransferETH(address(this), _amount);\n            // transfer ETH to Coompound receiving cETH\n            cEthToken.mint{value: _amount}();\n        } else {\n            // check approve\n            require(IERC20Upgradeable(trancheAddresses[_trancheNum].buyerCoinAddress).allowance(msg.sender, address(this)) >= _amount, \"JCompound: allowance failed buying tranche A\");\n            //Transfer DAI from msg.sender to protocol;\n            SafeERC20Upgradeable.safeTransferFrom(IERC20Upgradeable(trancheAddresses[_trancheNum].buyerCoinAddress), msg.sender, address(this), _amount);\n            // transfer DAI to Coompound receiving cDai\n            sendErc20ToCompound(trancheAddresses[_trancheNum].buyerCoinAddress, _amount);\n        }\n        uint256 newCompTokenBalance = getTokenBalance(trancheAddresses[_trancheNum].cTokenAddress);\n        // set amount of tokens to be minted calculate taToken amount via taToken price\n        setTrancheAExchangeRate(_trancheNum);\n        uint256 taAmount;\n        if (newCompTokenBalance > prevCompTokenBalance) {\n            // if normalized price in tranche A price, everything should be scaled to 1e18 \n            uint256 diffDec = uint256(18).sub(uint256(trancheParameters[_trancheNum].underlyingDecimals));\n            uint256 normAmount = _amount.mul(10 ** diffDec);\n            taAmount = normAmount.mul(1e18).div(trancheParameters[_trancheNum].storedTrancheAPrice);\n            //Mint trancheA tokens and send them to msg.sender;\n            IJTrancheTokens(trancheAddresses[_trancheNum].ATrancheAddress).mint(msg.sender, taAmount);\n        }\n        \n        lastActivity[msg.sender] = block.number;\n        emit TrancheATokenMinted(_trancheNum, msg.sender, _amount, taAmount);\n    }\n\n    /**\n     * @dev redeem Tranche A Tokens\n     * @param _trancheNum tranche number\n     * @param _amount amount of stable coins sent by buyer\n     */\n    function redeemTrancheAToken(uint256 _trancheNum, uint256 _amount) external nonReentrant {\n        require((block.number).sub(lastActivity[msg.sender]) >= redeemTimeout, \"JCompound: redeem timeout not expired on tranche A\");\n        // check approve\n        require(IERC20Upgradeable(trancheAddresses[_trancheNum].ATrancheAddress).allowance(msg.sender, address(this)) >= _amount, \"JCompound: allowance failed redeeming tranche A\");\n        //Transfer DAI from msg.sender to protocol;\n        SafeERC20Upgradeable.safeTransferFrom(IERC20Upgradeable(trancheAddresses[_trancheNum].ATrancheAddress), msg.sender, address(this), _amount);\n\n        uint256 oldBal;\n        uint256 diffBal;\n        uint256 userAmount;\n        uint256 feesAmount;\n        setTrancheAExchangeRate(_trancheNum);\n        // if normalized price in tranche A price, everything should be scaled to 1e18 \n        uint256 taAmount = _amount.mul(trancheParameters[_trancheNum].storedTrancheAPrice).div(1e18);\n        uint256 diffDec = uint256(18).sub(uint256(trancheParameters[_trancheNum].underlyingDecimals));\n        uint256 normAmount = taAmount.div(10 ** diffDec);\n        uint256 cTokenBal = getTokenBalance(trancheAddresses[_trancheNum].cTokenAddress); // needed for emergency\n        if (trancheAddresses[_trancheNum].buyerCoinAddress == address(0)) {\n            SafeERC20Upgradeable.safeTransfer(IERC20Upgradeable(trancheAddresses[_trancheNum].cTokenAddress), address(ethGateway), cTokenBal);\n            // calculate taAmount via cETH price\n            oldBal = getEthBalance();\n            ethGateway.withdrawETH(normAmount, address(this), false, cTokenBal);\n            diffBal = getEthBalance().sub(oldBal);\n            userAmount = diffBal.mul(trancheParameters[_trancheNum].redemptionPercentage).div(PERCENT_DIVIDER);\n            TransferETHHelper.safeTransferETH(msg.sender, userAmount);\n            if (diffBal != userAmount) {\n                // transfer fees to JFeesCollector\n                feesAmount = diffBal.sub(userAmount);\n                TransferETHHelper.safeTransferETH(feesCollectorAddress, feesAmount);\n            }   \n        } else {\n            // calculate taAmount via cToken price\n            oldBal = getTokenBalance(trancheAddresses[_trancheNum].buyerCoinAddress);\n            uint256 compoundRetCode = redeemCErc20Tokens(trancheAddresses[_trancheNum].buyerCoinAddress, normAmount, false);\n            if(compoundRetCode != 0) {\n                // emergency: send all ctokens balance to compound \n                redeemCErc20Tokens(trancheAddresses[_trancheNum].buyerCoinAddress, cTokenBal, true);  \n            }\n            diffBal = getTokenBalance(trancheAddresses[_trancheNum].buyerCoinAddress).sub(oldBal);\n            userAmount = diffBal.mul(trancheParameters[_trancheNum].redemptionPercentage).div(PERCENT_DIVIDER);\n            SafeERC20Upgradeable.safeTransfer(IERC20Upgradeable(trancheAddresses[_trancheNum].buyerCoinAddress), msg.sender, userAmount);\n            if (diffBal != userAmount) {\n                // transfer fees to JFeesCollector\n                feesAmount = diffBal.sub(userAmount);\n                SafeERC20Upgradeable.safeTransfer(IERC20Upgradeable(trancheAddresses[_trancheNum].buyerCoinAddress), feesCollectorAddress, feesAmount);\n            }\n        }\n     \n        IJTrancheTokens(trancheAddresses[_trancheNum].ATrancheAddress).burn(_amount);\n        lastActivity[msg.sender] = block.number;\n        emit TrancheATokenRedemption(_trancheNum, msg.sender, _amount, userAmount, feesAmount);\n    }\n\n    /**\n     * @dev buy Tranche B Tokens\n     * @param _trancheNum tranche number\n     * @param _amount amount of stable coins sent by buyer\n     */\n    function buyTrancheBToken(uint256 _trancheNum, uint256 _amount) external payable nonReentrant {\n        uint256 prevCompTokenBalance = getTokenBalance(trancheAddresses[_trancheNum].cTokenAddress);\n        // if eth, ignore _amount parameter and set it to msg.value\n        if (trancheAddresses[_trancheNum].buyerCoinAddress == address(0)) {\n            require(msg.value == _amount, \"JCompound: msg.value not equal to amount\");\n            //_amount = msg.value;\n        }\n        // refresh value for tranche A\n        setTrancheAExchangeRate(_trancheNum);\n        // get tranche B exchange rate\n        // if normalized price in tranche B price, everything should be scaled to 1e18 \n        uint256 diffDec = uint256(18).sub(uint256(trancheParameters[_trancheNum].underlyingDecimals));\n        uint256 normAmount = _amount.mul(10 ** diffDec);\n        uint256 tbAmount = normAmount.mul(1e18).div(getTrancheBExchangeRate(_trancheNum, _amount));\n        if (trancheAddresses[_trancheNum].buyerCoinAddress == address(0)) {\n            TransferETHHelper.safeTransferETH(address(this), _amount);\n            // transfer ETH to Coompound receiving cETH\n            cEthToken.mint{value: _amount}();\n        } else {\n            // check approve\n            require(IERC20Upgradeable(trancheAddresses[_trancheNum].buyerCoinAddress).allowance(msg.sender, address(this)) >= _amount, \"JCompound: allowance failed buying tranche B\");\n            //Transfer DAI from msg.sender to protocol;\n            SafeERC20Upgradeable.safeTransferFrom(IERC20Upgradeable(trancheAddresses[_trancheNum].buyerCoinAddress), msg.sender, address(this), _amount);\n            // transfer DAI to Couompound receiving cDai\n            sendErc20ToCompound(trancheAddresses[_trancheNum].buyerCoinAddress, _amount);\n        }\n        uint256 newCompTokenBalance = getTokenBalance(trancheAddresses[_trancheNum].cTokenAddress);\n        if (newCompTokenBalance > prevCompTokenBalance) {\n            //Mint trancheB tokens and send them to msg.sender;\n            IJTrancheTokens(trancheAddresses[_trancheNum].BTrancheAddress).mint(msg.sender, tbAmount);\n        } else \n            tbAmount = 0;\n        lastActivity[msg.sender] = block.number;\n        emit TrancheBTokenMinted(_trancheNum, msg.sender, _amount, tbAmount);\n    }\n\n    /**\n     * @dev redeem Tranche B Tokens\n     * @param _trancheNum tranche number\n     * @param _amount amount of stable coins sent by buyer\n     */\n    function redeemTrancheBToken(uint256 _trancheNum, uint256 _amount) external nonReentrant {\n        require((block.number).sub(lastActivity[msg.sender]) >= redeemTimeout, \"JCompound: redeem timeout not expired on tranche B\");\n        // check approve\n        require(IERC20Upgradeable(trancheAddresses[_trancheNum].BTrancheAddress).allowance(msg.sender, address(this)) >= _amount, \"JCompound: allowance failed redeeming tranche B\");\n        //Transfer DAI from msg.sender to protocol;\n        SafeERC20Upgradeable.safeTransferFrom(IERC20Upgradeable(trancheAddresses[_trancheNum].BTrancheAddress), msg.sender, address(this), _amount);\n\n        uint256 oldBal;\n        uint256 diffBal;\n        uint256 userAmount;\n        uint256 feesAmount;\n        // refresh value for tranche A\n        setTrancheAExchangeRate(_trancheNum);\n        // get tranche B exchange rate\n        // if normalized price in tranche B price, everything should be scaled to 1e18 \n        uint256 tbAmount = _amount.mul(getTrancheBExchangeRate(_trancheNum, 0)).div(1e18);\n        uint256 diffDec = uint256(18).sub(uint256(trancheParameters[_trancheNum].underlyingDecimals));\n        uint256 normAmount = tbAmount.div(10 ** diffDec);\n        uint256 cTokenBal = getTokenBalance(trancheAddresses[_trancheNum].cTokenAddress); // needed for emergency\n        if (trancheAddresses[_trancheNum].buyerCoinAddress == address(0)){\n            SafeERC20Upgradeable.safeTransfer(IERC20Upgradeable(trancheAddresses[_trancheNum].cTokenAddress), address(ethGateway), cTokenBal);\n            // calculate tbETH amount via cETH price\n            oldBal = getEthBalance();\n            ethGateway.withdrawETH(normAmount, address(this), false, cTokenBal);\n            diffBal = getEthBalance().sub(oldBal);\n            userAmount = diffBal.mul(trancheParameters[_trancheNum].redemptionPercentage).div(PERCENT_DIVIDER);\n            TransferETHHelper.safeTransferETH(msg.sender, userAmount);\n            if (diffBal != userAmount) {\n                // transfer fees to JFeesCollector\n                feesAmount = diffBal.sub(userAmount);\n                TransferETHHelper.safeTransferETH(feesCollectorAddress, feesAmount);\n            }   \n        } else {\n            // calculate taToken amount via cToken price\n            oldBal = getTokenBalance(trancheAddresses[_trancheNum].buyerCoinAddress);\n            require(redeemCErc20Tokens(trancheAddresses[_trancheNum].buyerCoinAddress, normAmount, false) == 0, \"JCompound: incorrect answer from cToken\");\n            diffBal = getTokenBalance(trancheAddresses[_trancheNum].buyerCoinAddress);\n            userAmount = diffBal.mul(trancheParameters[_trancheNum].redemptionPercentage).div(PERCENT_DIVIDER);\n            SafeERC20Upgradeable.safeTransfer(IERC20Upgradeable(trancheAddresses[_trancheNum].buyerCoinAddress), msg.sender, userAmount);\n            if (diffBal != userAmount) {\n                // transfer fees to JFeesCollector\n                feesAmount = diffBal.sub(userAmount);\n                SafeERC20Upgradeable.safeTransfer(IERC20Upgradeable(trancheAddresses[_trancheNum].buyerCoinAddress), feesCollectorAddress, feesAmount);\n            }   \n        }\n        \n        IJTrancheTokens(trancheAddresses[_trancheNum].BTrancheAddress).burn(_amount);\n        lastActivity[msg.sender] = block.number;\n        \n        emit TrancheBTokenRedemption(_trancheNum, msg.sender, _amount,  userAmount, feesAmount);\n    }\n\n    /**\n     * @dev redeem every cToken amount and send values to fees collector\n     * @param _trancheNum tranche number\n     * @param _cTokenAmount cToken amount to send to compound protocol\n     */\n    function redeemCTokenAmount(uint256 _trancheNum, uint256 _cTokenAmount) external onlyAdmins nonReentrant {\n        uint256 oldBal;\n        uint256 diffBal;\n        uint256 cTokenBal = getTokenBalance(trancheAddresses[_trancheNum].cTokenAddress); // needed for emergency\n        if (trancheAddresses[_trancheNum].buyerCoinAddress == address(0)) {\n            oldBal = getEthBalance();\n            ethGateway.withdrawETH(_cTokenAmount, address(this), true, cTokenBal);\n            diffBal = getEthBalance().sub(oldBal);\n            TransferETHHelper.safeTransferETH(feesCollectorAddress, diffBal);\n        } else {\n            // calculate taToken amount via cToken price\n            oldBal = getTokenBalance(trancheAddresses[_trancheNum].buyerCoinAddress);\n            require(redeemCErc20Tokens(trancheAddresses[_trancheNum].buyerCoinAddress, _cTokenAmount, true) == 0, \"JCompound: incorrect answer from cToken\");\n            diffBal = getTokenBalance(trancheAddresses[_trancheNum].buyerCoinAddress);\n            SafeERC20Upgradeable.safeTransfer(IERC20Upgradeable(trancheAddresses[_trancheNum].buyerCoinAddress), feesCollectorAddress, diffBal);\n        }\n    }\n\n    /**\n     * @dev get every token balance in this contract\n     * @param _tokenContract token contract address\n     */\n    function getTokenBalance(address _tokenContract) public view returns (uint256) {\n        return IERC20Upgradeable(_tokenContract).balanceOf(address(this));\n    }\n\n    /**\n     * @dev get eth balance on this contract\n     */\n    function getEthBalance() public view returns (uint256) {\n        return address(this).balance;\n    }\n\n    /**\n     * @dev transfer tokens in this contract to fees collector contract\n     * @param _tokenContract token contract address\n     * @param _amount token amount to be transferred \n     */\n    function transferTokenToFeesCollector(address _tokenContract, uint256 _amount) external onlyAdmins {\n        SafeERC20Upgradeable.safeTransfer(IERC20Upgradeable(_tokenContract), feesCollectorAddress, _amount);\n    }\n\n    /**\n     * @dev transfer ethers in this contract to fees collector contract\n     * @param _amount ethers amount to be transferred \n     */\n    function withdrawEthToFeesCollector(uint256 _amount) external onlyAdmins {\n        TransferETHHelper.safeTransferETH(feesCollectorAddress, _amount);\n    }\n\n    /**\n     * @dev get total accrued Comp token from all market in comptroller\n     * @return comp amount accrued\n     */\n    function getTotalCompAccrued() public view onlyAdmins returns (uint256) {\n        return IComptrollerLensInterface(comptrollerAddress).compAccrued(address(this));\n    }\n/*\n    /**\n     * @dev claim total accrued Comp token from all market in comptroller and transfer the amount in fees collector\n     */\n/*    function claimTotalCompAccrued() external onlyAdmins locked {\n        uint256 totAccruedAmount = getTotalCompAccrued();\n        if (totAccruedAmount > 0) {\n            IComptrollerLensInterface(comptrollerAddress).claimComp(address(this));\n            uint256 amount = IERC20Upgradeable(compTokenAddress).balanceOf(address(this));\n            SafeERC20Upgradeable.safeTransfer(IERC20Upgradeable(compTokenAddress), feesCollectorAddress, amount);\n        }\n    }\n*/\n    /**\n     * @dev claim total accrued Comp token from all market in comptroller and transfer the amount to a receiver address\n     * @param _receiver destination address\n     */\n    function claimTotalCompAccruedToReceiver(address _receiver) external onlyAdmins nonReentrant {\n        uint256 totAccruedAmount = getTotalCompAccrued();\n        if (totAccruedAmount > 0) {\n            IComptrollerLensInterface(comptrollerAddress).claimComp(address(this));\n            uint256 amount = IERC20Upgradeable(compTokenAddress).balanceOf(address(this));\n            SafeERC20Upgradeable.safeTransfer(IERC20Upgradeable(compTokenAddress), _receiver, amount);\n        }\n    }\n\n    function emergencyRemoveTokensFromTranche(address _trancheAddress, address _token, address _receiver, uint256 _amount) external onlyAdmins nonReentrant {\n        IJTrancheTokens(_trancheAddress).emergencyTokenTransfer(_token, _receiver, _amount);\n    } \n\n}",
  "sourcePath": "/Users/himanshugoyal/Documents/DeFi/tranche-compound-protocol/contracts/JCompound.sol",
  "compiler": {
    "name": "solc",
    "version": "0.6.12+commit.27d51765.Emscripten.clang"
  },
  "schemaVersion": "3.2.4",
  "updatedAt": "2021-05-18T05:50:58.188Z",
  "networkType": "ethereum",
  "devdoc": {
    "kind": "dev",
    "methods": {
      "addTrancheToProtocol(address,string,string,string,string,uint256,uint8,uint8)": {
        "details": "add tranche in protocol",
        "params": {
          "_cTokenDec": "cToken decimals",
          "_erc20Contract": "token contract address (0x0000000000000000000000000000000000000000 if eth)",
          "_fixedRpb": "tranche A percentage fixed compounded interest per year",
          "_nameA": "tranche A token name",
          "_nameB": "tranche B token name",
          "_symbolA": "tranche A token symbol",
          "_symbolB": "tranche B token symbol",
          "_underlyingDec": "underlying token decimals"
        }
      },
      "buyTrancheAToken(uint256,uint256)": {
        "details": "buy Tranche A Tokens",
        "params": {
          "_amount": "amount of stable coins sent by buyer",
          "_trancheNum": "tranche number"
        }
      },
      "buyTrancheBToken(uint256,uint256)": {
        "details": "buy Tranche B Tokens",
        "params": {
          "_amount": "amount of stable coins sent by buyer",
          "_trancheNum": "tranche number"
        }
      },
      "calcRPBFromPercentage(uint256)": {
        "details": "get Tranche A exchange rate (tokens with 18 decimals)",
        "params": {
          "_trancheNum": "tranche number"
        },
        "returns": {
          "_0": "tranche A token current price"
        }
      },
      "claimTotalCompAccruedToReceiver(address)": {
        "details": "claim total accrued Comp token from all market in comptroller and transfer the amount to a receiver address",
        "params": {
          "_receiver": "destination address"
        }
      },
      "getCEthExchangeRate()": {
        "details": "get cETH stored exchange rate from compound contract",
        "returns": {
          "exchRateMantissa": "exchange rate cEth mantissa"
        }
      },
      "getCTokenExchangeRate(address)": {
        "details": "get cETH stored exchange rate from compound contract",
        "params": {
          "_tokenContract": "tranche number"
        },
        "returns": {
          "exchRateMantissa": "exchange rate cToken mantissa"
        }
      },
      "getCompoundPrice(uint256)": {
        "details": "get compound price for a single tranche scaled by 1e18",
        "params": {
          "_trancheNum": "tranche number"
        },
        "returns": {
          "compNormPrice": "compound current normalized price"
        }
      },
      "getCompoundSupplyRPB(uint256)": {
        "details": "get RPB from compound",
        "params": {
          "_trancheNum": "tranche number"
        },
        "returns": {
          "_0": "cToken compound supply RPB"
        }
      },
      "getEthBalance()": {
        "details": "get eth balance on this contract"
      },
      "getMantissa(uint256)": {
        "details": "get tranche mantissa",
        "params": {
          "_trancheNum": "tranche number"
        },
        "returns": {
          "mantissa": "tranche mantissa (from 16 to 28 decimals)"
        }
      },
      "getTokenBalance(address)": {
        "details": "get every token balance in this contract",
        "params": {
          "_tokenContract": "token contract address"
        }
      },
      "getTotalCompAccrued()": {
        "details": "get total accrued Comp token from all market in comptroller",
        "returns": {
          "_0": "comp amount accrued"
        }
      },
      "getTotalValue(uint256)": {
        "details": "get Tranche total value in underlying tokens",
        "params": {
          "_trancheNum": "tranche number"
        },
        "returns": {
          "_0": "tranche total value in underlying tokens"
        }
      },
      "getTrAValue(uint256)": {
        "details": "get Tranche A value in underlying tokens",
        "params": {
          "_trancheNum": "tranche number"
        },
        "returns": {
          "trANormValue": "tranche A value in underlying tokens"
        }
      },
      "getTrBValue(uint256)": {
        "details": "get Tranche B value in underlying tokens",
        "params": {
          "_trancheNum": "tranche number"
        },
        "returns": {
          "_0": "tranche B valuein underlying tokens"
        }
      },
      "getTrancheACurrentRPB(uint256)": {
        "details": "get RPB for a given percentage (expressed in 1e18)",
        "params": {
          "_trancheNum": "tranche number"
        },
        "returns": {
          "_0": "RPB for a fixed percentage"
        }
      },
      "getTrancheAExchangeRate(uint256)": {
        "details": "get Tranche A exchange rate",
        "params": {
          "_trancheNum": "tranche number"
        },
        "returns": {
          "_0": "tranche A token stored price"
        }
      },
      "getTrancheBExchangeRate(uint256,uint256)": {
        "details": "get Tranche B exchange rate",
        "params": {
          "_newAmount": "new amount entering tranche B (in underlying tokens)",
          "_trancheNum": "tranche number"
        },
        "returns": {
          "tbPrice": "tranche B token current price"
        }
      },
      "initialize(address,address,address,address,address,address)": {
        "details": "contract initializer",
        "params": {
          "_adminTools": "price oracle address",
          "_compTokenAddress": "COMP token contract address",
          "_comptrollAddress": "comptroller contract address",
          "_feesCollector": "fees collector contract address",
          "_rewardsToken": "rewards token address (slice token address)",
          "_tranchesDepl": "tranches deployer contract address"
        }
      },
      "isCTokenAllowed(address)": {
        "details": "check if a cToken is allowed or not",
        "params": {
          "_erc20Contract": "token contract address (i.e. DAI contract, on Kovan: 0x4f96fe3b7a6cf9725f59d353f723c1bdb64ca6aa)"
        },
        "returns": {
          "_0": "true or false"
        }
      },
      "owner()": {
        "details": "Returns the address of the current owner."
      },
      "redeemCTokenAmount(uint256,uint256)": {
        "details": "redeem every cToken amount and send values to fees collector",
        "params": {
          "_cTokenAmount": "cToken amount to send to compound protocol",
          "_trancheNum": "tranche number"
        }
      },
      "redeemTrancheAToken(uint256,uint256)": {
        "details": "redeem Tranche A Tokens",
        "params": {
          "_amount": "amount of stable coins sent by buyer",
          "_trancheNum": "tranche number"
        }
      },
      "redeemTrancheBToken(uint256,uint256)": {
        "details": "redeem Tranche B Tokens",
        "params": {
          "_amount": "amount of stable coins sent by buyer",
          "_trancheNum": "tranche number"
        }
      },
      "renounceOwnership()": {
        "details": "Leaves the contract without owner. It will not be possible to call `onlyOwner` functions anymore. Can only be called by the current owner. NOTE: Renouncing ownership will leave the contract without an owner, thereby removing any functionality that is only available to the owner."
      },
      "setBlocksPerYear(uint256)": {
        "details": "set how many blocks will be produced per year on the blockchain ",
        "params": {
          "_newValue": "new value (Compound blocksPerYear = 2102400)"
        }
      },
      "setCEtherContract(address)": {
        "details": "set relationship between ethers and the corresponding Compound cETH contract",
        "params": {
          "_cEtherContract": "compound token contract address (cETH contract, on Kovan: 0x41b5844f4680a8c38fbb695b7f9cfd1f64474a72)"
        }
      },
      "setCTokenContract(address,address)": {
        "details": "set relationship between a token and the corresponding Compound cToken contract",
        "params": {
          "_cErc20Contract": "compound token contract address (i.e. cDAI contract, on Kovan: 0xf0d0eb522cfa50b716b3b1604c4f0fa6f04376ad)",
          "_erc20Contract": "token contract address (i.e. DAI contract, on Kovan: 0x4f96fe3b7a6cf9725f59d353f723c1bdb64ca6aa)"
        }
      },
      "setDecimals(uint256,uint8,uint8)": {
        "details": "check if a cToken is allowed or not",
        "params": {
          "_cTokenDec": "cToken decimals",
          "_trancheNum": "tranche number",
          "_underlyingDec": "underlying token decimals"
        }
      },
      "setETHGateway(address)": {
        "details": "set eth gateway ",
        "params": {
          "_ethGateway": "ethGateway address"
        }
      },
      "setNewEnvironment(address,address,address,address,address,address)": {
        "details": "set new addresses for price oracle, fees collector and tranche deployer ",
        "params": {
          "_adminTools": "price oracle address",
          "_compTokenAddress": "COMP token contract address",
          "_comptrollAddress": "comptroller contract address",
          "_feesCollector": "fees collector contract address",
          "_rewardsToken": "rewards token address (slice token address)",
          "_tranchesDepl": "tranches deployer contract address"
        }
      },
      "setRedemptionTimeout(uint32)": {
        "details": "set redemption timeout",
        "params": {
          "_blockNum": "timeout (in block numbers)"
        }
      },
      "setTrancheAFixedPercentage(uint256,uint256)": {
        "details": "set tranche redemption percentage",
        "params": {
          "_newTrAPercentage": "new tranche A RPB",
          "_trancheNum": "tranche number"
        }
      },
      "setTrancheRedemptionPercentage(uint256,uint16)": {
        "details": "set tranche redemption percentage",
        "params": {
          "_redeemPercent": "user redemption percent",
          "_trancheNum": "tranche number"
        }
      },
      "transferOwnership(address)": {
        "details": "Transfers ownership of the contract to a new account (`newOwner`). Can only be called by the current owner."
      },
      "transferTokenToFeesCollector(address,uint256)": {
        "details": "transfer tokens in this contract to fees collector contract",
        "params": {
          "_amount": "token amount to be transferred ",
          "_tokenContract": "token contract address"
        }
      },
      "withdrawEthToFeesCollector(uint256)": {
        "details": "transfer ethers in this contract to fees collector contract",
        "params": {
          "_amount": "ethers amount to be transferred "
        }
      }
    },
    "version": 1
  },
  "userdoc": {
    "kind": "user",
    "methods": {},
    "version": 1
  }
}