{
  "contractName": "JYearn",
  "abi": [
    {
      "anonymous": false,
      "inputs": [
        {
          "indexed": true,
          "internalType": "address",
          "name": "previousOwner",
          "type": "address"
        },
        {
          "indexed": true,
          "internalType": "address",
          "name": "newOwner",
          "type": "address"
        }
      ],
      "name": "OwnershipTransferred",
      "type": "event"
    },
    {
      "anonymous": false,
      "inputs": [
        {
          "indexed": false,
          "internalType": "uint256",
          "name": "trancheNum",
          "type": "uint256"
        },
        {
          "indexed": false,
          "internalType": "address",
          "name": "buyer",
          "type": "address"
        },
        {
          "indexed": false,
          "internalType": "uint256",
          "name": "amount",
          "type": "uint256"
        },
        {
          "indexed": false,
          "internalType": "uint256",
          "name": "taAmount",
          "type": "uint256"
        }
      ],
      "name": "TrancheATokenMinted",
      "type": "event"
    },
    {
      "anonymous": false,
      "inputs": [
        {
          "indexed": false,
          "internalType": "uint256",
          "name": "trancheNum",
          "type": "uint256"
        },
        {
          "indexed": false,
          "internalType": "address",
          "name": "burner",
          "type": "address"
        },
        {
          "indexed": false,
          "internalType": "uint256",
          "name": "amount",
          "type": "uint256"
        },
        {
          "indexed": false,
          "internalType": "uint256",
          "name": "userAmount",
          "type": "uint256"
        },
        {
          "indexed": false,
          "internalType": "uint256",
          "name": "feesAmount",
          "type": "uint256"
        }
      ],
      "name": "TrancheATokenRedemption",
      "type": "event"
    },
    {
      "anonymous": false,
      "inputs": [
        {
          "indexed": false,
          "internalType": "uint256",
          "name": "trancheNum",
          "type": "uint256"
        },
        {
          "indexed": false,
          "internalType": "address",
          "name": "trancheA",
          "type": "address"
        },
        {
          "indexed": false,
          "internalType": "address",
          "name": "trancheB",
          "type": "address"
        }
      ],
      "name": "TrancheAddedToProtocol",
      "type": "event"
    },
    {
      "anonymous": false,
      "inputs": [
        {
          "indexed": false,
          "internalType": "uint256",
          "name": "trancheNum",
          "type": "uint256"
        },
        {
          "indexed": false,
          "internalType": "address",
          "name": "buyer",
          "type": "address"
        },
        {
          "indexed": false,
          "internalType": "uint256",
          "name": "amount",
          "type": "uint256"
        },
        {
          "indexed": false,
          "internalType": "uint256",
          "name": "tbAmount",
          "type": "uint256"
        }
      ],
      "name": "TrancheBTokenMinted",
      "type": "event"
    },
    {
      "anonymous": false,
      "inputs": [
        {
          "indexed": false,
          "internalType": "uint256",
          "name": "trancheNum",
          "type": "uint256"
        },
        {
          "indexed": false,
          "internalType": "address",
          "name": "burner",
          "type": "address"
        },
        {
          "indexed": false,
          "internalType": "uint256",
          "name": "amount",
          "type": "uint256"
        },
        {
          "indexed": false,
          "internalType": "uint256",
          "name": "userAmount",
          "type": "uint256"
        },
        {
          "indexed": false,
          "internalType": "uint256",
          "name": "feesAmount",
          "type": "uint256"
        }
      ],
      "name": "TrancheBTokenRedemption",
      "type": "event"
    },
    {
      "stateMutability": "payable",
      "type": "fallback"
    },
    {
      "inputs": [],
      "name": "PERCENT_DIVIDER",
      "outputs": [
        {
          "internalType": "uint256",
          "name": "",
          "type": "uint256"
        }
      ],
      "stateMutability": "view",
      "type": "function"
    },
    {
      "inputs": [],
      "name": "SECONDS_PER_YEAR",
      "outputs": [
        {
          "internalType": "uint256",
          "name": "",
          "type": "uint256"
        }
      ],
      "stateMutability": "view",
      "type": "function"
    },
    {
      "inputs": [],
      "name": "adminToolsAddress",
      "outputs": [
        {
          "internalType": "address",
          "name": "",
          "type": "address"
        }
      ],
      "stateMutability": "view",
      "type": "function"
    },
    {
      "inputs": [],
      "name": "feesCollectorAddress",
      "outputs": [
        {
          "internalType": "address",
          "name": "",
          "type": "address"
        }
      ],
      "stateMutability": "view",
      "type": "function"
    },
    {
      "inputs": [],
      "name": "incentivesControllerAddress",
      "outputs": [
        {
          "internalType": "address",
          "name": "",
          "type": "address"
        }
      ],
      "stateMutability": "view",
      "type": "function"
    },
    {
      "inputs": [
        {
          "internalType": "address",
          "name": "",
          "type": "address"
        }
      ],
      "name": "lastActivity",
      "outputs": [
        {
          "internalType": "uint256",
          "name": "",
          "type": "uint256"
        }
      ],
      "stateMutability": "view",
      "type": "function"
    },
    {
      "inputs": [],
      "name": "owner",
      "outputs": [
        {
          "internalType": "address",
          "name": "",
          "type": "address"
        }
      ],
      "stateMutability": "view",
      "type": "function"
    },
    {
      "inputs": [],
      "name": "redeemTimeout",
      "outputs": [
        {
          "internalType": "uint32",
          "name": "",
          "type": "uint32"
        }
      ],
      "stateMutability": "view",
      "type": "function"
    },
    {
      "inputs": [],
      "name": "renounceOwnership",
      "outputs": [],
      "stateMutability": "nonpayable",
      "type": "function"
    },
    {
      "inputs": [
        {
          "internalType": "address",
          "name": "",
          "type": "address"
        },
        {
          "internalType": "uint256",
          "name": "",
          "type": "uint256"
        }
      ],
      "name": "stakeCounterTrA",
      "outputs": [
        {
          "internalType": "uint256",
          "name": "",
          "type": "uint256"
        }
      ],
      "stateMutability": "view",
      "type": "function"
    },
    {
      "inputs": [
        {
          "internalType": "address",
          "name": "",
          "type": "address"
        },
        {
          "internalType": "uint256",
          "name": "",
          "type": "uint256"
        }
      ],
      "name": "stakeCounterTrB",
      "outputs": [
        {
          "internalType": "uint256",
          "name": "",
          "type": "uint256"
        }
      ],
      "stateMutability": "view",
      "type": "function"
    },
    {
      "inputs": [
        {
          "internalType": "address",
          "name": "",
          "type": "address"
        },
        {
          "internalType": "uint256",
          "name": "",
          "type": "uint256"
        },
        {
          "internalType": "uint256",
          "name": "",
          "type": "uint256"
        }
      ],
      "name": "stakingDetailsTrancheA",
      "outputs": [
        {
          "internalType": "uint256",
          "name": "startTime",
          "type": "uint256"
        },
        {
          "internalType": "uint256",
          "name": "amount",
          "type": "uint256"
        }
      ],
      "stateMutability": "view",
      "type": "function"
    },
    {
      "inputs": [
        {
          "internalType": "address",
          "name": "",
          "type": "address"
        },
        {
          "internalType": "uint256",
          "name": "",
          "type": "uint256"
        },
        {
          "internalType": "uint256",
          "name": "",
          "type": "uint256"
        }
      ],
      "name": "stakingDetailsTrancheB",
      "outputs": [
        {
          "internalType": "uint256",
          "name": "startTime",
          "type": "uint256"
        },
        {
          "internalType": "uint256",
          "name": "amount",
          "type": "uint256"
        }
      ],
      "stateMutability": "view",
      "type": "function"
    },
    {
      "inputs": [
        {
          "internalType": "uint256",
          "name": "",
          "type": "uint256"
        }
      ],
      "name": "trancheAddresses",
      "outputs": [
        {
          "internalType": "address",
          "name": "buyerCoinAddress",
          "type": "address"
        },
        {
          "internalType": "address",
          "name": "yTokenAddress",
          "type": "address"
        },
        {
          "internalType": "address",
          "name": "ATrancheAddress",
          "type": "address"
        },
        {
          "internalType": "address",
          "name": "BTrancheAddress",
          "type": "address"
        },
        {
          "internalType": "bool",
          "name": "isVault",
          "type": "bool"
        }
      ],
      "stateMutability": "view",
      "type": "function"
    },
    {
      "inputs": [
        {
          "internalType": "uint256",
          "name": "",
          "type": "uint256"
        }
      ],
      "name": "trancheDepositEnabled",
      "outputs": [
        {
          "internalType": "bool",
          "name": "",
          "type": "bool"
        }
      ],
      "stateMutability": "view",
      "type": "function"
    },
    {
      "inputs": [],
      "name": "tranchePairsCounter",
      "outputs": [
        {
          "internalType": "uint256",
          "name": "",
          "type": "uint256"
        }
      ],
      "stateMutability": "view",
      "type": "function"
    },
    {
      "inputs": [
        {
          "internalType": "uint256",
          "name": "",
          "type": "uint256"
        }
      ],
      "name": "trancheParameters",
      "outputs": [
        {
          "internalType": "uint256",
          "name": "trancheAFixedPercentage",
          "type": "uint256"
        },
        {
          "internalType": "uint256",
          "name": "trancheALastActionTime",
          "type": "uint256"
        },
        {
          "internalType": "uint256",
          "name": "storedTrancheAPrice",
          "type": "uint256"
        },
        {
          "internalType": "uint256",
          "name": "trancheACurrentRPS",
          "type": "uint256"
        },
        {
          "internalType": "uint16",
          "name": "redemptionPercentage",
          "type": "uint16"
        },
        {
          "internalType": "uint8",
          "name": "underlyingDecimals",
          "type": "uint8"
        }
      ],
      "stateMutability": "view",
      "type": "function"
    },
    {
      "inputs": [],
      "name": "tranchesDeployerAddress",
      "outputs": [
        {
          "internalType": "address",
          "name": "",
          "type": "address"
        }
      ],
      "stateMutability": "view",
      "type": "function"
    },
    {
      "inputs": [
        {
          "internalType": "address",
          "name": "newOwner",
          "type": "address"
        }
      ],
      "name": "transferOwnership",
      "outputs": [],
      "stateMutability": "nonpayable",
      "type": "function"
    },
    {
      "inputs": [],
      "name": "yfiRewardsAddress",
      "outputs": [
        {
          "internalType": "address",
          "name": "",
          "type": "address"
        }
      ],
      "stateMutability": "view",
      "type": "function"
    },
    {
      "inputs": [],
      "name": "yfiTokenAddress",
      "outputs": [
        {
          "internalType": "address",
          "name": "",
          "type": "address"
        }
      ],
      "stateMutability": "view",
      "type": "function"
    },
    {
      "stateMutability": "payable",
      "type": "receive"
    },
    {
      "inputs": [
        {
          "internalType": "address",
          "name": "_adminTools",
          "type": "address"
        },
        {
          "internalType": "address",
          "name": "_feesCollector",
          "type": "address"
        },
        {
          "internalType": "address",
          "name": "_tranchesDepl",
          "type": "address"
        }
      ],
      "name": "initialize",
      "outputs": [],
      "stateMutability": "nonpayable",
      "type": "function"
    },
    {
      "inputs": [
        {
          "internalType": "address",
          "name": "_adminTools",
          "type": "address"
        },
        {
          "internalType": "address",
          "name": "_feesCollector",
          "type": "address"
        },
        {
          "internalType": "address",
          "name": "_tranchesDepl",
          "type": "address"
        }
      ],
      "name": "setNewEnvironment",
      "outputs": [],
      "stateMutability": "nonpayable",
      "type": "function"
    },
    {
      "inputs": [
        {
          "internalType": "address",
          "name": "_incentivesController",
          "type": "address"
        }
      ],
      "name": "setincentivesControllerAddress",
      "outputs": [],
      "stateMutability": "nonpayable",
      "type": "function"
    },
    {
      "inputs": [],
      "name": "getSirControllerAddress",
      "outputs": [
        {
          "internalType": "address",
          "name": "",
          "type": "address"
        }
      ],
      "stateMutability": "view",
      "type": "function"
    },
    {
      "inputs": [
        {
          "internalType": "address",
          "name": "_yfiToken",
          "type": "address"
        },
        {
          "internalType": "address",
          "name": "_yfiRewards",
          "type": "address"
        }
      ],
      "name": "setYFIAddresses",
      "outputs": [],
      "stateMutability": "nonpayable",
      "type": "function"
    },
    {
      "inputs": [
        {
          "internalType": "uint256",
          "name": "_trancheNum",
          "type": "uint256"
        },
        {
          "internalType": "uint8",
          "name": "_underlyingDec",
          "type": "uint8"
        }
      ],
      "name": "setDecimals",
      "outputs": [],
      "stateMutability": "nonpayable",
      "type": "function"
    },
    {
      "inputs": [
        {
          "internalType": "uint256",
          "name": "_trancheNum",
          "type": "uint256"
        },
        {
          "internalType": "uint16",
          "name": "_redeemPercent",
          "type": "uint16"
        }
      ],
      "name": "setTrancheRedemptionPercentage",
      "outputs": [],
      "stateMutability": "nonpayable",
      "type": "function"
    },
    {
      "inputs": [
        {
          "internalType": "uint32",
          "name": "_blockNum",
          "type": "uint32"
        }
      ],
      "name": "setRedemptionTimeout",
      "outputs": [],
      "stateMutability": "nonpayable",
      "type": "function"
    },
    {
      "inputs": [
        {
          "internalType": "uint256",
          "name": "_trancheNum",
          "type": "uint256"
        },
        {
          "internalType": "address",
          "name": "_yTokenAddress",
          "type": "address"
        },
        {
          "internalType": "bool",
          "name": "_isVault",
          "type": "bool"
        }
      ],
      "name": "setNewYToken",
      "outputs": [],
      "stateMutability": "nonpayable",
      "type": "function"
    },
    {
      "inputs": [
        {
          "internalType": "uint256",
          "name": "_trancheNum",
          "type": "uint256"
        },
        {
          "internalType": "address",
          "name": "_newYTokenAddress",
          "type": "address"
        },
        {
          "internalType": "bool",
          "name": "_isVault",
          "type": "bool"
        }
      ],
      "name": "migrateYTranche",
      "outputs": [],
      "stateMutability": "nonpayable",
      "type": "function"
    },
    {
      "inputs": [
        {
          "internalType": "uint256",
          "name": "_trancheNum",
          "type": "uint256"
        },
        {
          "internalType": "uint256",
          "name": "_newTrAPercentage",
          "type": "uint256"
        }
      ],
      "name": "setTrancheAFixedPercentage",
      "outputs": [],
      "stateMutability": "nonpayable",
      "type": "function"
    },
    {
      "inputs": [
        {
          "internalType": "address",
          "name": "_buyerCoinAddress",
          "type": "address"
        },
        {
          "internalType": "address",
          "name": "_yTokenAddress",
          "type": "address"
        },
        {
          "internalType": "bool",
          "name": "_isVault",
          "type": "bool"
        },
        {
          "internalType": "string",
          "name": "_nameA",
          "type": "string"
        },
        {
          "internalType": "string",
          "name": "_symbolA",
          "type": "string"
        },
        {
          "internalType": "string",
          "name": "_nameB",
          "type": "string"
        },
        {
          "internalType": "string",
          "name": "_symbolB",
          "type": "string"
        },
        {
          "internalType": "uint256",
          "name": "_fixedRpb",
          "type": "uint256"
        },
        {
          "internalType": "uint8",
          "name": "_underlyingDec",
          "type": "uint8"
        }
      ],
      "name": "addTrancheToProtocol",
      "outputs": [],
      "stateMutability": "nonpayable",
      "type": "function"
    },
    {
      "inputs": [
        {
          "internalType": "uint256",
          "name": "_trancheNum",
          "type": "uint256"
        },
        {
          "internalType": "bool",
          "name": "_enable",
          "type": "bool"
        }
      ],
      "name": "setTrancheDeposit",
      "outputs": [],
      "stateMutability": "nonpayable",
      "type": "function"
    },
    {
      "inputs": [
        {
          "internalType": "uint256",
          "name": "_trancheNum",
          "type": "uint256"
        }
      ],
      "name": "getTrancheAExchangeRate",
      "outputs": [
        {
          "internalType": "uint256",
          "name": "",
          "type": "uint256"
        }
      ],
      "stateMutability": "view",
      "type": "function"
    },
    {
      "inputs": [
        {
          "internalType": "uint256",
          "name": "_trancheNum",
          "type": "uint256"
        }
      ],
      "name": "getTrancheACurrentRPS",
      "outputs": [
        {
          "internalType": "uint256",
          "name": "",
          "type": "uint256"
        }
      ],
      "stateMutability": "view",
      "type": "function"
    },
    {
      "inputs": [
        {
          "internalType": "uint256",
          "name": "_trancheNum",
          "type": "uint256"
        }
      ],
      "name": "calcRPSFromPercentage",
      "outputs": [
        {
          "internalType": "uint256",
          "name": "",
          "type": "uint256"
        }
      ],
      "stateMutability": "nonpayable",
      "type": "function"
    },
    {
      "inputs": [
        {
          "internalType": "uint256",
          "name": "_trancheNum",
          "type": "uint256"
        }
      ],
      "name": "getYTokenNormPrice",
      "outputs": [
        {
          "internalType": "uint256",
          "name": "",
          "type": "uint256"
        }
      ],
      "stateMutability": "view",
      "type": "function"
    },
    {
      "inputs": [
        {
          "internalType": "uint256",
          "name": "_trancheNum",
          "type": "uint256"
        }
      ],
      "name": "getYVaultNormPrice",
      "outputs": [
        {
          "internalType": "uint256",
          "name": "",
          "type": "uint256"
        }
      ],
      "stateMutability": "view",
      "type": "function"
    },
    {
      "inputs": [
        {
          "internalType": "uint256",
          "name": "_trancheNum",
          "type": "uint256"
        }
      ],
      "name": "getTrAValue",
      "outputs": [
        {
          "internalType": "uint256",
          "name": "trANormValue",
          "type": "uint256"
        }
      ],
      "stateMutability": "view",
      "type": "function"
    },
    {
      "inputs": [
        {
          "internalType": "uint256",
          "name": "_trancheNum",
          "type": "uint256"
        }
      ],
      "name": "getTrBValue",
      "outputs": [
        {
          "internalType": "uint256",
          "name": "",
          "type": "uint256"
        }
      ],
      "stateMutability": "view",
      "type": "function"
    },
    {
      "inputs": [
        {
          "internalType": "uint256",
          "name": "_trancheNum",
          "type": "uint256"
        }
      ],
      "name": "getTotalValue",
      "outputs": [
        {
          "internalType": "uint256",
          "name": "",
          "type": "uint256"
        }
      ],
      "stateMutability": "view",
      "type": "function"
    },
    {
      "inputs": [
        {
          "internalType": "uint256",
          "name": "_trancheNum",
          "type": "uint256"
        },
        {
          "internalType": "uint256",
          "name": "_newAmount",
          "type": "uint256"
        }
      ],
      "name": "getTrancheBExchangeRate",
      "outputs": [
        {
          "internalType": "uint256",
          "name": "tbPrice",
          "type": "uint256"
        }
      ],
      "stateMutability": "view",
      "type": "function"
    },
    {
      "inputs": [
        {
          "internalType": "uint256",
          "name": "_trancheNum",
          "type": "uint256"
        },
        {
          "internalType": "address",
          "name": "_account",
          "type": "address"
        },
        {
          "internalType": "uint256",
          "name": "_stkNum",
          "type": "uint256"
        },
        {
          "internalType": "uint256",
          "name": "_amount",
          "type": "uint256"
        },
        {
          "internalType": "uint256",
          "name": "_time",
          "type": "uint256"
        }
      ],
      "name": "setTrAStakingDetails",
      "outputs": [],
      "stateMutability": "nonpayable",
      "type": "function"
    },
    {
      "inputs": [
        {
          "internalType": "address",
          "name": "_user",
          "type": "address"
        },
        {
          "internalType": "uint256",
          "name": "_trancheNum",
          "type": "uint256"
        }
      ],
      "name": "getSingleTrancheUserStakeCounterTrA",
      "outputs": [
        {
          "internalType": "uint256",
          "name": "",
          "type": "uint256"
        }
      ],
      "stateMutability": "view",
      "type": "function"
    },
    {
      "inputs": [
        {
          "internalType": "address",
          "name": "_user",
          "type": "address"
        },
        {
          "internalType": "uint256",
          "name": "_trancheNum",
          "type": "uint256"
        },
        {
          "internalType": "uint256",
          "name": "_num",
          "type": "uint256"
        }
      ],
      "name": "getSingleTrancheUserSingleStakeDetailsTrA",
      "outputs": [
        {
          "internalType": "uint256",
          "name": "",
          "type": "uint256"
        },
        {
          "internalType": "uint256",
          "name": "",
          "type": "uint256"
        }
      ],
      "stateMutability": "view",
      "type": "function"
    },
    {
      "inputs": [
        {
          "internalType": "uint256",
          "name": "_trancheNum",
          "type": "uint256"
        },
        {
          "internalType": "address",
          "name": "_account",
          "type": "address"
        },
        {
          "internalType": "uint256",
          "name": "_stkNum",
          "type": "uint256"
        },
        {
          "internalType": "uint256",
          "name": "_amount",
          "type": "uint256"
        },
        {
          "internalType": "uint256",
          "name": "_time",
          "type": "uint256"
        }
      ],
      "name": "setTrBStakingDetails",
      "outputs": [],
      "stateMutability": "nonpayable",
      "type": "function"
    },
    {
      "inputs": [
        {
          "internalType": "address",
          "name": "_user",
          "type": "address"
        },
        {
          "internalType": "uint256",
          "name": "_trancheNum",
          "type": "uint256"
        }
      ],
      "name": "getSingleTrancheUserStakeCounterTrB",
      "outputs": [
        {
          "internalType": "uint256",
          "name": "",
          "type": "uint256"
        }
      ],
      "stateMutability": "view",
      "type": "function"
    },
    {
      "inputs": [
        {
          "internalType": "address",
          "name": "_user",
          "type": "address"
        },
        {
          "internalType": "uint256",
          "name": "_trancheNum",
          "type": "uint256"
        },
        {
          "internalType": "uint256",
          "name": "_num",
          "type": "uint256"
        }
      ],
      "name": "getSingleTrancheUserSingleStakeDetailsTrB",
      "outputs": [
        {
          "internalType": "uint256",
          "name": "",
          "type": "uint256"
        },
        {
          "internalType": "uint256",
          "name": "",
          "type": "uint256"
        }
      ],
      "stateMutability": "view",
      "type": "function"
    },
    {
      "inputs": [
        {
          "internalType": "uint256",
          "name": "_trancheNum",
          "type": "uint256"
        },
        {
          "internalType": "uint256",
          "name": "_amount",
          "type": "uint256"
        }
      ],
      "name": "buyTrancheAToken",
      "outputs": [],
      "stateMutability": "payable",
      "type": "function"
    },
    {
      "inputs": [
        {
          "internalType": "uint256",
          "name": "_trancheNum",
          "type": "uint256"
        },
        {
          "internalType": "uint256",
          "name": "_amount",
          "type": "uint256"
        }
      ],
      "name": "redeemTrancheAToken",
      "outputs": [],
      "stateMutability": "nonpayable",
      "type": "function"
    },
    {
      "inputs": [
        {
          "internalType": "uint256",
          "name": "_trancheNum",
          "type": "uint256"
        },
        {
          "internalType": "uint256",
          "name": "_amount",
          "type": "uint256"
        }
      ],
      "name": "buyTrancheBToken",
      "outputs": [],
      "stateMutability": "payable",
      "type": "function"
    },
    {
      "inputs": [
        {
          "internalType": "uint256",
          "name": "_trancheNum",
          "type": "uint256"
        },
        {
          "internalType": "uint256",
          "name": "_amount",
          "type": "uint256"
        }
      ],
      "name": "redeemTrancheBToken",
      "outputs": [],
      "stateMutability": "nonpayable",
      "type": "function"
    },
    {
      "inputs": [
        {
          "internalType": "address",
          "name": "_tokenContract",
          "type": "address"
        }
      ],
      "name": "getTokenBalance",
      "outputs": [
        {
          "internalType": "uint256",
          "name": "",
          "type": "uint256"
        }
      ],
      "stateMutability": "view",
      "type": "function"
    },
    {
      "inputs": [
        {
          "internalType": "address",
          "name": "_tokenContract",
          "type": "address"
        },
        {
          "internalType": "uint256",
          "name": "_amount",
          "type": "uint256"
        }
      ],
      "name": "transferTokenToFeesCollector",
      "outputs": [],
      "stateMutability": "nonpayable",
      "type": "function"
    },
    {
      "inputs": [],
      "name": "getYFIUnclaimedRewardShares",
      "outputs": [
        {
          "internalType": "uint256",
          "name": "",
          "type": "uint256"
        }
      ],
      "stateMutability": "view",
      "type": "function"
    },
    {
      "inputs": [
        {
          "internalType": "uint256",
          "name": "_amount",
          "type": "uint256"
        }
      ],
      "name": "claimYearnRewards",
      "outputs": [],
      "stateMutability": "nonpayable",
      "type": "function"
    }
  ],
  "bytecode": "0x608060405234801561001057600080fd5b50614d2d806100206000396000f3fe60806040526004361061037a5760003560e01c806372f8fb5c116101d1578063ccf9825711610102578063e6a69ab8116100a0578063f2fde38b1161006f578063f2fde38b14610d05578063f5bb31da14610d25578063fc9a162314610d45578063feb866ff14610d65576103c2565b8063e6a69ab814610c80578063eba181e614610c98578063f075117114610cb8578063f07e96b314610cd8576103c2565b8063d41f283c116100dc578063d41f283c14610c00578063d495ece014610c20578063da32520414610c40578063db6e46a914610c60576103c2565b8063ccf9825714610bab578063ce6ec53214610bc0578063d184859a14610be0576103c2565b80638c9cfded1161016f578063b2e801b711610149578063b2e801b714610b2b578063c0c53b8b14610b4b578063c193dd5f14610b6b578063cc8d383a14610b8b576103c2565b80638c9cfded14610a605780638da5cb5b14610a80578063af45ba1e14610a9e576103c2565b80637afc66fc116101ab5780637afc66fc146109bd578063811f7faf146109dd57806381ff56a4146109fd578063837e929d14610a1b576103c2565b806372f8fb5c1461096a57806374665c771461097d57806378c30f4d1461099d576103c2565b806341f00310116102ab5780636125f238116102495780636bc73adf116102235780636bc73adf146108dd5780636bf62a66146109155780636e98a04e14610935578063715018a614610955576103c2565b80636125f238146108375780636181a7eb146108575780636202a6761461089a576103c2565b80634fe88929116102855780634fe889291461079c5780635646c34b146107cc5780635abec138146107df5780635ac91ced146107ff576103c2565b806341f003101461072c57806345f7612b1461074c5780634746e4c11461077c576103c2565b8063292b843f1161031857806336c013e6116102f257806336c013e6146105d75780633964ad72146106715780633aecd0e3146106c757806341a327f4146106e7576103c2565b8063292b843f1461058157806329fc7bd8146105a15780632f40d5e9146105b7576103c2565b806317d5bf071161035457806317d5bf0714610494578063198d2d64146104ff57806326463eb014610521578063277e2ab614610541576103c2565b806309b8042f146104015780630b7aeb411461043e5780631696092314610462576103c2565b366103c25760405162461bcd60e51b8152602060048201526013602482015272149958d95a5d99481b9bdd08185b1b1bddd959606a1b60448201526064015b60405180910390fd5b60405162461bcd60e51b815260206004820152601460248201527311985b1b189858dac81b9bdd08185b1b1bddd95960621b60448201526064016103b9565b34801561040d57600080fd5b5060a254610421906001600160a01b031681565b6040516001600160a01b0390911681526020015b60405180910390f35b34801561044a57600080fd5b50610454609c5481565b604051908152602001610435565b34801561046e57600080fd5b50609d5461047f9063ffffffff1681565b60405163ffffffff9091168152602001610435565b3480156104a057600080fd5b506104ea6104af366004614506565b6001600160a01b0392909216600090815260a66020908152604080832093835292815282822093825292909252902080546001909101549091565b60408051928352602083019190915201610435565b34801561050b57600080fd5b5061051f61051a36600461454c565b610d85565b005b34801561052d57600080fd5b5061051f61053c366004614634565b610e9e565b34801561054d57600080fd5b5061057161055c36600461472e565b60a16020526000908152604090205460ff1681565b6040519015158152602001610435565b34801561058d57600080fd5b5061045461059c36600461472e565b611354565b3480156105ad57600080fd5b5061045461271081565b3480156105c357600080fd5b5061051f6105d2366004614747565b611435565b3480156105e357600080fd5b506106366105f236600461472e565b609e6020526000908152604090208054600182015460028301546003909301546001600160a01b03928316939183169291821691811690600160a01b900460ff1685565b604080516001600160a01b0396871681529486166020860152928516928401929092529092166060820152901515608082015260a001610435565b34801561067d57600080fd5b506104ea61068c366004614506565b6001600160a01b0392909216600090815260a56020908152604080832093835292815282822093825292909252902080546001909101549091565b3480156106d357600080fd5b506104546106e2366004614773565b6114e8565b3480156106f357600080fd5b506104ea610702366004614506565b60a66020908152600093845260408085208252928452828420905282529020805460019091015482565b34801561073857600080fd5b5061051f610747366004614790565b611568565b34801561075857600080fd5b5061045461076736600461472e565b6000908152609f602052604090206003015490565b34801561078857600080fd5b5061051f6107973660046147b6565b61161b565b3480156107a857600080fd5b506104546107b736600461472e565b6000908152609f602052604090206002015490565b61051f6107da3660046147fe565b6116ff565b3480156107eb57600080fd5b5061051f6107fa3660046147b6565b611b17565b34801561080b57600080fd5b5061045461081a366004614747565b60a460209081526000928352604080842090915290825290205481565b34801561084357600080fd5b5061051f610852366004614820565b611bfb565b34801561086357600080fd5b50610454610872366004614747565b6001600160a01b0391909116600090815260a460209081526040808320938352929052205490565b3480156108a657600080fd5b506104546108b5366004614747565b6001600160a01b0391909116600090815260a360209081526040808320938352929052205490565b3480156108e957600080fd5b506104546108f8366004614747565b60a360209081526000928352604080842090915290825290205481565b34801561092157600080fd5b5061051f610930366004614773565b611cb9565b34801561094157600080fd5b5061045461095036600461472e565b611d72565b34801561096157600080fd5b5061051f611e6f565b61051f6109783660046147fe565b611ea5565b34801561098957600080fd5b5061045461099836600461472e565b6122b4565b3480156109a957600080fd5b5061051f6109b8366004614857565b612302565b3480156109c957600080fd5b506104546109d83660046147fe565b612462565b3480156109e957600080fd5b5061051f6109f83660046147fe565b6125fd565b348015610a0957600080fd5b5060a2546001600160a01b0316610421565b348015610a2757600080fd5b506104ea610a36366004614506565b60a56020908152600093845260408085208252928452828420905282529020805460019091015482565b348015610a6c57600080fd5b50609a54610421906001600160a01b031681565b348015610a8c57600080fd5b506033546001600160a01b0316610421565b348015610aaa57600080fd5b50610af7610ab936600461472e565b609f60205260009081526040902080546001820154600283015460038401546004909401549293919290919061ffff81169062010000900460ff1686565b60408051968752602087019590955293850192909252606084015261ffff16608083015260ff1660a082015260c001610435565b348015610b3757600080fd5b50610454610b4636600461472e565b612a18565b348015610b5757600080fd5b5061051f610b66366004614899565b612a6b565b348015610b7757600080fd5b5061051f610b8636600461472e565b612b2f565b348015610b9757600080fd5b50609854610421906001600160a01b031681565b348015610bb757600080fd5b50610454612ce6565b348015610bcc57600080fd5b50609754610421906001600160a01b031681565b348015610bec57600080fd5b50610454610bfb36600461472e565b612dd0565b348015610c0c57600080fd5b50610454610c1b36600461472e565b612e07565b348015610c2c57600080fd5b5061051f610c3b3660046147fe565b612e82565b348015610c4c57600080fd5b5061051f610c5b366004614899565b612f4c565b348015610c6c57600080fd5b50609b54610421906001600160a01b031681565b348015610c8c57600080fd5b506104546301e187e081565b348015610ca457600080fd5b5061051f610cb33660046147fe565b613035565b348015610cc457600080fd5b5061051f610cd3366004614857565b61343c565b348015610ce457600080fd5b50610454610cf3366004614773565b60a06020526000908152604090205481565b348015610d1157600080fd5b5061051f610d20366004614773565b6136c7565b348015610d3157600080fd5b50609954610421906001600160a01b031681565b348015610d5157600080fd5b5061051f610d603660046148d9565b613762565b348015610d7157600080fd5b5061051f610d803660046148fe565b613819565b609754604051630935e01b60e21b81523360048201526001600160a01b03909116906324d7806c9060240160206040518083038186803b158015610dc857600080fd5b505afa158015610ddc573d6000803e3d6000fd5b505050506040513d601f19601f82011682018060405250810190610e00919061492c565b610e1c5760405162461bcd60e51b81526004016103b990614949565b60128160ff161115610e705760405162461bcd60e51b815260206004820152601960248201527f4a596561726e3a20746f6f206d616e7920646563696d616c730000000000000060448201526064016103b9565b6000918252609f6020526040909120600401805460ff909216620100000262ff000019909216919091179055565b609754604051630935e01b60e21b81523360048201526001600160a01b03909116906324d7806c9060240160206040518083038186803b158015610ee157600080fd5b505afa158015610ef5573d6000803e3d6000fd5b505050506040513d601f19601f82011682018060405250810190610f19919061492c565b610f355760405162461bcd60e51b81526004016103b990614949565b60026065541415610f585760405162461bcd60e51b81526004016103b990614977565b60026065556099546001600160a01b0316610fb55760405162461bcd60e51b815260206004820181905260248201527f4a596561726e3a20736574207472616e63686520657468206465706c6f79657260448201526064016103b9565b609c80546000908152609e602052604080822080546001600160a01b03199081166001600160a01b038f8116919091179092558454845282842060010180549091168d83161790558354835291819020600301805460ff60a01b1916600160a01b8c15150217905560995492549051639ad4239960e01b81529290911691639ad4239991611049918a918a91600401614a06565b602060405180830381600087803b15801561106357600080fd5b505af1158015611077573d6000803e3d6000fd5b505050506040513d601f19601f8201168201806040525081019061109b9190614a3c565b609c80546000908152609e60205260409081902060020180546001600160a01b0319166001600160a01b039485161790556099549154905163d93c178360e01b8152919092169163d93c1783916110f9918891889190600401614a06565b602060405180830381600087803b15801561111357600080fd5b505af1158015611127573d6000803e3d6000fd5b505050506040513d601f19601f8201168201806040525081019061114b9190614a3c565b609c80546000908152609e6020818152604080842060030180546001600160a01b0319166001600160a01b0397881617905584548452609f82528084206004908101805462ff000019166201000060ff8b16021790558554855281852089905585548552818520426001919091015585548552818520670de0b6b3a7640000600291820155865486528286208201805461271061ffff19909116179055609754965486529390925292839020909101549151637048027560e01b815291841690820152911690637048027590602401600060405180830381600087803b15801561123457600080fd5b505af1158015611248573d6000803e3d6000fd5b5050609754609c546000908152609e602052604090819020600301549051637048027560e01b81526001600160a01b0391821660048201529116925063704802759150602401600060405180830381600087803b1580156112a857600080fd5b505af11580156112bc573d6000803e3d6000fd5b505050506112cb609c546122b4565b50609c546000818152609e6020908152604091829020600281015460039091015483519485526001600160a01b03918216928501929092521682820152517f90c97ca7d521ad09559475598e9202d092b7388790513e364cdac53a45d8ce4a9181900360600190a1609c5461134190600161394a565b609c555050600160655550505050505050565b6000818152609e60209081526040808320600101548151631df1ee3f60e21b8152915184936001600160a01b03909216926377c7b8fc926004808301939192829003018186803b1580156113a757600080fd5b505afa1580156113bb573d6000803e3d6000fd5b505050506040513d601f19601f820116820180604052508101906113df9190614a59565b6000848152609f602052604090206004015490915062010000900460ff16601281101561142e57600061141360128361395d565b905061142a61142382600a614b6c565b8490613969565b9250505b5092915050565b609754604051630935e01b60e21b81523360048201526001600160a01b03909116906324d7806c9060240160206040518083038186803b15801561147857600080fd5b505afa15801561148c573d6000803e3d6000fd5b505050506040513d601f19601f820116820180604052508101906114b0919061492c565b6114cc5760405162461bcd60e51b81526004016103b990614949565b6098546114e49083906001600160a01b031683613975565b5050565b6040516370a0823160e01b81523060048201526000906001600160a01b038316906370a082319060240160206040518083038186803b15801561152a57600080fd5b505afa15801561153e573d6000803e3d6000fd5b505050506040513d601f19601f820116820180604052508101906115629190614a59565b92915050565b609754604051630935e01b60e21b81523360048201526001600160a01b03909116906324d7806c9060240160206040518083038186803b1580156115ab57600080fd5b505afa1580156115bf573d6000803e3d6000fd5b505050506040513d601f19601f820116820180604052508101906115e3919061492c565b6115ff5760405162461bcd60e51b81526004016103b990614949565b609d805463ffffffff191663ffffffff92909216919091179055565b609754604051630935e01b60e21b81523360048201526001600160a01b03909116906324d7806c9060240160206040518083038186803b15801561165e57600080fd5b505afa158015611672573d6000803e3d6000fd5b505050506040513d601f19601f82011682018060405250810190611696919061492c565b6116b25760405162461bcd60e51b81526004016103b990614949565b6001600160a01b03909316600081815260a360209081526040808320888452825280832086905592825260a581528282209682529586528181209381529290945292902090815560010155565b600260655414156117225760405162461bcd60e51b81526004016103b990614977565b6002606555600082815260a1602052604090205460ff166117855760405162461bcd60e51b815260206004820181905260248201527f4a596561726e3a207472616e636865206465706f7369742064697361626c656460448201526064016103b9565b6000828152609e60205260408120600101546117a9906001600160a01b03166114e8565b6000848152609e602052604090819020549051636eb1769f60e11b81523360048201523060248201529192506001600160a01b0316908390829063dd62ed3e9060440160206040518083038186803b15801561180457600080fd5b505afa158015611818573d6000803e3d6000fd5b505050506040513d601f19601f8201168201806040525081019061183c9190614a59565b101561189c5760405162461bcd60e51b815260206004820152602960248201527f4a596561726e3a20616c6c6f77616e6365206661696c656420627579696e67206044820152687472616e636865204160b81b60648201526084016103b9565b6118a8813330866139dd565b6118b28484613a15565b6000848152609e60205260408120600101546118d6906001600160a01b03166114e8565b90506118e185613b16565b50600083821115611a4d576000868152609f60205260408120600401546119139060129062010000900460ff1661395d565b9050600061192c61192583600a614b6c565b8890613969565b6000898152609f602052604090206002015490915061195d9061195783670de0b6b3a7640000613969565b90613ba3565b60a25460008a8152609e6020526040908190206002015490516399953dbf60e01b81523360048201526001600160a01b03918216602482015292955016906399953dbf90604401600060405180830381600087803b1580156119be57600080fd5b505af11580156119d2573d6000803e3d6000fd5b5050506000898152609e6020526040908190206002015490516340c10f1960e01b8152336004820152602481018690526001600160a01b0390911691506340c10f1990604401600060405180830381600087803b158015611a3257600080fd5b505af1158015611a46573d6000803e3d6000fd5b5050505050505b33600090815260a360209081526040808320898452909152902054611a7390600161394a565b33600081815260a3602090815260408083208b8452825280832085905583835260a582528083208b845282528083209483529381528382204281556001810186905583835260a082529184902043905583518a815290810192909252918101879052606081018390527f19f1e132571edb9da814c6ef6b15cfc69db767393405221724bf323db24459b89060800160405180910390a1505060016065555050505050565b609754604051630935e01b60e21b81523360048201526001600160a01b03909116906324d7806c9060240160206040518083038186803b158015611b5a57600080fd5b505afa158015611b6e573d6000803e3d6000fd5b505050506040513d601f19601f82011682018060405250810190611b92919061492c565b611bae5760405162461bcd60e51b81526004016103b990614949565b6001600160a01b03909316600081815260a460209081526040808320888452825280832086905592825260a681528282209682529586528181209381529290945292902090815560010155565b609754604051630935e01b60e21b81523360048201526001600160a01b03909116906324d7806c9060240160206040518083038186803b158015611c3e57600080fd5b505afa158015611c52573d6000803e3d6000fd5b505050506040513d601f19601f82011682018060405250810190611c76919061492c565b611c925760405162461bcd60e51b81526004016103b990614949565b6000918252609f6020526040909120600401805461ffff191661ffff909216919091179055565b609754604051630935e01b60e21b81523360048201526001600160a01b03909116906324d7806c9060240160206040518083038186803b158015611cfc57600080fd5b505afa158015611d10573d6000803e3d6000fd5b505050506040513d601f19601f82011682018060405250810190611d34919061492c565b611d505760405162461bcd60e51b81526004016103b990614949565b60a280546001600160a01b0319166001600160a01b0392909216919091179055565b6000818152609e602090815260408083206002015481516318160ddd60e01b8152915184936001600160a01b03909216926318160ddd926004808301939192829003018186803b158015611dc557600080fd5b505afa158015611dd9573d6000803e3d6000fd5b505050506040513d601f19601f82011682018060405250810190611dfd9190614a59565b6000848152609f602052604081206004015491925090611e289060129062010000900460ff1661395d565b9050611e67611e3882600a614b6c565b611957670de0b6b3a7640000611957611e60896000908152609f602052604090206002015490565b8790613969565b949350505050565b6033546001600160a01b03163314611e995760405162461bcd60e51b81526004016103b990614b78565b611ea36000613baf565b565b60026065541415611ec85760405162461bcd60e51b81526004016103b990614977565b6002606555600082815260a1602052604090205460ff16611f2b5760405162461bcd60e51b815260206004820181905260248201527f4a596561726e3a207472616e636865206465706f7369742064697361626c656460448201526064016103b9565b611f3482613b16565b506000828152609f6020526040812060040154611f5c9060129062010000900460ff1661395d565b90506000611f6e61142383600a614b6c565b90506000611f91611f7f8686612462565b61195784670de0b6b3a7640000613969565b6000868152609e602052604081206001015491925090611fb9906001600160a01b03166114e8565b6000878152609e602052604090819020549051636eb1769f60e11b81523360048201523060248201529192506001600160a01b0316908690829063dd62ed3e9060440160206040518083038186803b15801561201457600080fd5b505afa158015612028573d6000803e3d6000fd5b505050506040513d601f19601f8201168201806040525081019061204c9190614a59565b10156120ac5760405162461bcd60e51b815260206004820152602960248201527f4a596561726e3a20616c6c6f77616e6365206661696c656420627579696e67206044820152683a3930b731b432902160b91b60648201526084016103b9565b6120b8813330896139dd565b6120c28787613a15565b6000878152609e60205260408120600101546120e6906001600160a01b03166114e8565b9050828111156121e35760a2546000898152609e60205260409081902060030154905160016242337160e11b031981523360048201526001600160a01b03918216602482015291169063ff7b991e90604401600060405180830381600087803b15801561215257600080fd5b505af1158015612166573d6000803e3d6000fd5b5050506000898152609e6020526040908190206003015490516340c10f1960e01b8152336004820152602481018790526001600160a01b0390911691506340c10f1990604401600060405180830381600087803b1580156121c657600080fd5b505af11580156121da573d6000803e3d6000fd5b505050506121e8565b600093505b33600090815260a4602090815260408083208b845290915290205461220e90600161394a565b33600081815260a4602090815260408083208d8452825280832085905583835260a682528083208d845282528083209483529381528382204281556001810189905583835260a082529184902043905583518c815290810192909252918101899052606081018690527ff08a1bcb4ad0b6bbcc3885d1221ff0ebc1fb9a7b8abc59447a94e305cc2491e19060800160405180910390a15050600160655550505050505050565b6000818152609f6020526040812080546002909101546122e991670de0b6b3a764000091611957916301e187e0918391613969565b6000928352609f60205260409092206003018290555090565b609754604051630935e01b60e21b81523360048201526001600160a01b03909116906324d7806c9060240160206040518083038186803b15801561234557600080fd5b505afa158015612359573d6000803e3d6000fd5b505050506040513d601f19601f8201168201806040525081019061237d919061492c565b6123995760405162461bcd60e51b81526004016103b990614949565b609c5483106123ea5760405162461bcd60e51b815260206004820152601f60248201527f4a596561726e3a207472616e636865206e756d62657220746f6f20686967680060448201526064016103b9565b6001600160a01b0382166124105760405162461bcd60e51b81526004016103b990614bad565b6000928352609e60205260409092206001810180546001600160a01b039093166001600160a01b0319909316929092179091556003018054911515600160a01b0260ff60a01b19909216919091179055565b6000828152609e602090815260408083206003015481516318160ddd60e01b81529151849384936001600160a01b03909316926318160ddd9260048083019392829003018186803b1580156124b657600080fd5b505afa1580156124ca573d6000803e3d6000fd5b505050506040513d601f19601f820116820180604052508101906124ee9190614a59565b6000868152609f602052604090206004015490915062010000900460ff168460128210156125325761252f61252460128461395d565b611e6090600a614b6c565b90505b600061253e848361394a565b905060006125558861254f8b612e07565b9061394a565b905060006125628a611d72565b905080821061257c57612575828261395d565b9650612581565b600096505b6012851080156125915750600087115b156125b2576125af6125a460128761395d565b61192590600a614b6c565b96505b6000871180156125c25750600083115b156125e4576125dd8361195789670de0b6b3a7640000613969565b97506125f0565b670de0b6b3a764000097505b5050505050505092915050565b600260655414156126205760405162461bcd60e51b81526004016103b990614977565b6002606555609d5433600090815260a0602052604090205463ffffffff9182169161264d91439161395d16565b10156126b35760405162461bcd60e51b815260206004820152602f60248201527f4a596561726e3a2072656465656d2074696d656f7574206e6f7420657870697260448201526e6564206f6e207472616e636865204160881b60648201526084016103b9565b6000828152609e602052604090819020600201549051636eb1769f60e11b815233600482015230602482015282916001600160a01b03169063dd62ed3e9060440160206040518083038186803b15801561270c57600080fd5b505afa158015612720573d6000803e3d6000fd5b505050506040513d601f19601f820116820180604052508101906127449190614a59565b10156127a75760405162461bcd60e51b815260206004820152602c60248201527f4a596561726e3a20616c6c6f77616e6365206661696c65642072656465656d6960448201526b6e67207472616e636865204160a01b60648201526084016103b9565b6000828152609e60205260409020600201546127ce906001600160a01b03163330846139dd565b6127d782613b16565b506000828152609e60205260408120546001600160a01b031690806127ff8386866001613c01565b909250905081801561283d5782821161282e5761281d843384613975565b612827818361395d565b905061283d565b612839843385613975565b5060005b6000612849848461395d565b905060008211801561285b5750600081115b1561289c578181116128845760985461287f9086906001600160a01b031683613975565b61289c565b60985461289c9086906001600160a01b031684613975565b60a254604051632cd6c9c560e01b81523360048201526000916001600160a01b031690632cd6c9c590602401602060405180830381600087803b1580156128e257600080fd5b505af11580156128f6573d6000803e3d6000fd5b505050506040513d601f19601f8201168201806040525081019061291a919061492c565b90508080156129295750600087115b15612938576129388888613d91565b6000888152609e602052604090819020600201549051630852cd8d60e31b8152600481018990526001600160a01b03909116906342966c6890602401600060405180830381600087803b15801561298e57600080fd5b505af11580156129a2573d6000803e3d6000fd5b505033600081815260a0602081815260409283902043905582518e8152908101939093529082018b905260608201889052608082018690527f34d60a41478d47b695f40c0225fdee00c6c598107d7ab9475382a02520cc564993500190505b60405180910390a150506001606555505050505050565b6000818152609e60209081526040808320600101548151634ca9858360e11b8152915184936001600160a01b03909216926399530b06926004808301939192829003018186803b1580156113a757600080fd5b600054610100900460ff1680612a84575060005460ff16155b612aa05760405162461bcd60e51b81526004016103b990614bef565b600054610100900460ff16158015612ac2576000805461ffff19166101011790555b612aca613e4a565b609780546001600160a01b038087166001600160a01b031992831617909255609880548684169083161790556099805492851692909116919091179055609d805463ffffffff191660031790558015612b29576000805461ff00191690555b50505050565b609a546001600160a01b031615801590612b535750609b546001600160a01b031615155b612b9f5760405162461bcd60e51b815260206004820152601f60248201527f4a596561726e3a206e6f742076616c696420594649206164647265737365730060448201526064016103b9565b609a546040516370a0823160e01b81523060048201526000916001600160a01b0316906370a082319060240160206040518083038186803b158015612be357600080fd5b505afa158015612bf7573d6000803e3d6000fd5b505050506040513d601f19601f82011682018060405250810190612c1b9190614a59565b905060008111612c845760405162461bcd60e51b815260206004820152602e60248201527f4a596561726e3a206e6f7420656e6f7567682059464920746f6b656e7320746f60448201526d20636c61696d207265776172647360901b60648201526084016103b9565b609b5460405163379607f560e01b8152600481018490526001600160a01b039091169063379607f590602401600060405180830381600087803b158015612cca57600080fd5b505af1158015612cde573d6000803e3d6000fd5b505050505050565b609b546000906001600160a01b0316612d505760405162461bcd60e51b815260206004820152602660248201527f4a596561726e3a206e6f7420612076616c69642059464920726577617264206160448201526564647265737360d01b60648201526084016103b9565b609b5460405163402914f560e01b81523060048201526001600160a01b039091169063402914f59060240160206040518083038186803b158015612d9357600080fd5b505afa158015612da7573d6000803e3d6000fd5b505050506040513d601f19601f82011682018060405250810190612dcb9190614a59565b905090565b600080612ddc83612e07565b90506000612de984611d72565b905080821115612dfd57611e67828261395d565b5060009392505050565b6000818152609e60205260408120600301548190600160a01b900460ff1615612e3a57612e3383612a18565b9050612e46565b612e4383611354565b90505b6000838152609e6020526040812060010154612e6a906001600160a01b03166114e8565b9050611e67670de0b6b3a76400006119578385613969565b609754604051630935e01b60e21b81523360048201526001600160a01b03909116906324d7806c9060240160206040518083038186803b158015612ec557600080fd5b505afa158015612ed9573d6000803e3d6000fd5b505050506040513d601f19601f82011682018060405250810190612efd919061492c565b612f195760405162461bcd60e51b81526004016103b990614949565b6000828152609f60205260409020819055612f3382613b16565b6000928352609f60205260409092206002019190915550565b6033546001600160a01b03163314612f765760405162461bcd60e51b81526004016103b990614b78565b6001600160a01b03831615801590612f9657506001600160a01b03821615155b8015612faa57506001600160a01b03811615155b612ff65760405162461bcd60e51b815260206004820152601760248201527f4a596561726e3a20636865636b2061646472657373657300000000000000000060448201526064016103b9565b609780546001600160a01b039485166001600160a01b031991821617909155609880549385169382169390931790925560998054919093169116179055565b600260655414156130585760405162461bcd60e51b81526004016103b990614977565b6002606555609d5433600090815260a0602052604090205463ffffffff9182169161308591439161395d16565b10156130eb5760405162461bcd60e51b815260206004820152602f60248201527f4a596561726e3a2072656465656d2074696d656f7574206e6f7420657870697260448201526e32b21037b7103a3930b731b432902160891b60648201526084016103b9565b6000828152609e602052604090819020600301549051636eb1769f60e11b815233600482015230602482015282916001600160a01b03169063dd62ed3e9060440160206040518083038186803b15801561314457600080fd5b505afa158015613158573d6000803e3d6000fd5b505050506040513d601f19601f8201168201806040525081019061317c9190614a59565b10156131df5760405162461bcd60e51b815260206004820152602c60248201527f4a596561726e3a20616c6c6f77616e6365206661696c65642072656465656d6960448201526b3733903a3930b731b432902160a11b60648201526084016103b9565b6000828152609e6020526040902060030154613206906001600160a01b03163330846139dd565b61320f82613b16565b506000828152609e60205260408120546001600160a01b0316908061323683868684613c01565b90925090508180156132745782821161326557613254843384613975565b61325e818361395d565b9050613274565b613270843385613975565b5060005b6000613280848461395d565b90506000821180156132925750600081115b156132d3578181116132bb576098546132b69086906001600160a01b031683613975565b6132d3565b6098546132d39086906001600160a01b031684613975565b60a254604051632cd6c9c560e01b81523360048201526000916001600160a01b031690632cd6c9c590602401602060405180830381600087803b15801561331957600080fd5b505af115801561332d573d6000803e3d6000fd5b505050506040513d601f19601f82011682018060405250810190613351919061492c565b90508080156133605750600087115b1561336f5761336f8888613ec5565b6000888152609e602052604090819020600301549051630852cd8d60e31b8152600481018990526001600160a01b03909116906342966c6890602401600060405180830381600087803b1580156133c557600080fd5b505af11580156133d9573d6000803e3d6000fd5b505033600081815260a0602081815260409283902043905582518e8152908101939093529082018b905260608201889052608082018690527f9c8ce079d38dc08e2831c9fa769dff19e30a8b2d69c4924a73129038eee8fcab9350019050612a01565b609754604051630935e01b60e21b81523360048201526001600160a01b03909116906324d7806c9060240160206040518083038186803b15801561347f57600080fd5b505afa158015613493573d6000803e3d6000fd5b505050506040513d601f19601f820116820180604052508101906134b7919061492c565b6134d35760405162461bcd60e51b81526004016103b990614949565b609c5483106135245760405162461bcd60e51b815260206004820152601f60248201527f4a596561726e3a207472616e636865206e756d62657220746f6f20686967680060448201526064016103b9565b6001600160a01b03821661354a5760405162461bcd60e51b81526004016103b990614bad565b6000838152609e602052604081206001015461356e906001600160a01b03166114e8565b905061357a8482613f77565b506000848152609e602052604081206001810180546001600160a01b0319166001600160a01b038781169190911790915560038201805460ff60a01b1916600160a01b8715150217905590546135d091166114e8565b6000868152609e60205260409081902054905163095ea7b360e01b81526001600160a01b0387811660048301526024820184905292935091169063095ea7b390604401602060405180830381600087803b15801561362d57600080fd5b505af1158015613641573d6000803e3d6000fd5b505050506040513d601f19601f82011682018060405250810190613665919061492c565b5060405163b6b55f2560e01b8152600481018290526001600160a01b0385169063b6b55f2590602401600060405180830381600087803b1580156136a857600080fd5b505af11580156136bc573d6000803e3d6000fd5b505050505050505050565b6033546001600160a01b031633146136f15760405162461bcd60e51b81526004016103b990614b78565b6001600160a01b0381166137565760405162461bcd60e51b815260206004820152602660248201527f4f776e61626c653a206e6577206f776e657220697320746865207a65726f206160448201526564647265737360d01b60648201526084016103b9565b61375f81613baf565b50565b609754604051630935e01b60e21b81523360048201526001600160a01b03909116906324d7806c9060240160206040518083038186803b1580156137a557600080fd5b505afa1580156137b9573d6000803e3d6000fd5b505050506040513d601f19601f820116820180604052508101906137dd919061492c565b6137f95760405162461bcd60e51b81526004016103b990614949565b600091825260a16020526040909120805460ff1916911515919091179055565b609754604051630935e01b60e21b81523360048201526001600160a01b03909116906324d7806c9060240160206040518083038186803b15801561385c57600080fd5b505afa158015613870573d6000803e3d6000fd5b505050506040513d601f19601f82011682018060405250810190613894919061492c565b6138b05760405162461bcd60e51b81526004016103b990614949565b6001600160a01b038216158015906138d057506001600160a01b03811615155b61391c5760405162461bcd60e51b815260206004820152601f60248201527f4a596561726e3a206e6f742076616c696420594649206164647265737365730060448201526064016103b9565b609a80546001600160a01b039384166001600160a01b031991821617909155609b8054929093169116179055565b60006139568284614c3d565b9392505050565b60006139568284614c55565b60006139568284614c6c565b6040516001600160a01b0383166024820152604481018290526139d890849063a9059cbb60e01b906064015b60408051601f198184030181529190526020810180516001600160e01b03166001600160e01b0319909316929092179091526140e8565b505050565b6040516001600160a01b0380851660248301528316604482015260648101829052612b299085906323b872dd60e01b906084016139a1565b6000828152609e6020526040908190208054600190910154915163095ea7b360e01b81526001600160a01b039283166004820181905260248201859052929091169190829063095ea7b390604401602060405180830381600087803b158015613a7d57600080fd5b505af1158015613a91573d6000803e3d6000fd5b505050506040513d601f19601f82011682018060405250810190613ab5919061492c565b5060405163b6b55f2560e01b8152600481018490526001600160a01b0382169063b6b55f2590602401600060405180830381600087803b158015613af857600080fd5b505af1158015613b0c573d6000803e3d6000fd5b5050505050505050565b6000613b21826122b4565b506000828152609f6020526040812060010154613b3f90429061395d565b6000848152609f602052604081206003015491925090613b5f9083613969565b6000858152609f6020526040902060020154909150613b7e908261394a565b6000948552609f60205260409094206002810185905542600190910155509192915050565b60006139568284614c8b565b603380546001600160a01b038381166001600160a01b0319831681179093556040519116919082907f8be0079c531659141344cd1fd0a4f28419497f9722a3daafe3b4186f6b6457e090600090a35050565b6040516370a0823160e01b8152306004820152600090819081906001600160a01b038816906370a082319060240160206040518083038186803b158015613c4757600080fd5b505afa158015613c5b573d6000803e3d6000fd5b505050506040513d601f19601f82011682018060405250810190613c7f9190614a59565b905060008415613c9c57613c95878760016141ba565b9050613cab565b613ca8878760006141ba565b90505b6000613cb78883613f77565b90506000808215613d56576040516370a0823160e01b81523060048201526001600160a01b038c16906370a082319060240160206040518083038186803b158015613d0157600080fd5b505afa158015613d15573d6000803e3d6000fd5b505050506040513d601f19601f82011682018060405250810190613d399190614a59565b9150848210613d5357613d4c828661395d565b9050613d56565b50805b60008a8152609f602052604081206004015461ffff1690613d7d6127106119578585613969565b929d929c50919a5050505050505050505050565b33600090815260a3602090815260408083208584529091529020548160015b828111613e435733600090815260a56020908152604080832088845282528083208484529091529020600181015415613e255782816001015411613e0c576001810154613dfe90849061395d565b600060018301559250613e25565b6001810154613e1b908461395d565b6001820155600092505b82613e305750613e43565b5080613e3b81614cad565b915050613db0565b5050505050565b600054610100900460ff1680613e63575060005460ff16155b613e7f5760405162461bcd60e51b81526004016103b990614bef565b600054610100900460ff16158015613ea1576000805461ffff19166101011790555b613ea961430c565b613eb1614376565b801561375f576000805461ff001916905550565b33600090815260a4602090815260408083208584529091529020548160015b828111613e435733600090815260a66020908152604080832088845282528083208484529091529020600181015415613f595782816001015411613f40576001810154613f3290849061395d565b600060018301559250613f59565b6001810154613f4f908461395d565b6001820155600092505b82613f645750613e43565b5080613f6f81614cad565b915050613ee4565b6000828152609e60205260408082206001015490516370a0823160e01b81523060048201526001600160a01b039091169081906370a082319060240160206040518083038186803b158015613fcb57600080fd5b505afa158015613fdf573d6000803e3d6000fd5b505050506040513d601f19601f820116820180604052508101906140039190614a59565b831115614084576040516370a0823160e01b81523060048201526001600160a01b038216906370a082319060240160206040518083038186803b15801561404957600080fd5b505afa15801561405d573d6000803e3d6000fd5b505050506040513d601f19601f820116820180604052508101906140819190614a59565b92505b604051632e1a7d4d60e01b8152600481018490526001600160a01b03821690632e1a7d4d90602401600060405180830381600087803b1580156140c657600080fd5b505af11580156140da573d6000803e3d6000fd5b506001979650505050505050565b600061413d826040518060400160405280602081526020017f5361666545524332303a206c6f772d6c6576656c2063616c6c206661696c6564815250856001600160a01b03166143d69092919063ffffffff16565b8051909150156139d8578080602001905181019061415b919061492c565b6139d85760405162461bcd60e51b815260206004820152602a60248201527f5361666545524332303a204552433230206f7065726174696f6e20646964206e6044820152691bdd081cdd58d8d9595960b21b60648201526084016103b9565b60008082156141f5576000858152609f60205260409020600201546141ee90670de0b6b3a764000090611957908790613969565b9050614212565b61420f670de0b6b3a7640000611957611e60886000612462565b90505b6000858152609f6020526040812060040154829060126201000090910460ff161015614279576000878152609f602052604090206004015461425f9060129062010000900460ff1661395d565b915061427661426f83600a614b6c565b8490613ba3565b90505b600085156142915761428a88611d72565b905061429d565b61429a88612dd0565b90505b808211156142a9578091505b6000888152609e6020526040812060030154600160a01b900460ff16156142da576142d389612a18565b90506142e6565b6142e389611354565b90505b60006142fe8261195786670de0b6b3a7640000613969565b9a9950505050505050505050565b600054610100900460ff1680614325575060005460ff16155b6143415760405162461bcd60e51b81526004016103b990614bef565b600054610100900460ff16158015613eb1576000805461ffff1916610101179055801561375f576000805461ff001916905550565b600054610100900460ff168061438f575060005460ff16155b6143ab5760405162461bcd60e51b81526004016103b990614bef565b600054610100900460ff161580156143cd576000805461ffff19166101011790555b613eb133613baf565b6060611e67848460008585843b61442f5760405162461bcd60e51b815260206004820152601d60248201527f416464726573733a2063616c6c20746f206e6f6e2d636f6e747261637400000060448201526064016103b9565b600080866001600160a01b0316858760405161444b9190614cc8565b60006040518083038185875af1925050503d8060008114614488576040519150601f19603f3d011682016040523d82523d6000602084013e61448d565b606091505b509150915061449d8282866144a8565b979650505050505050565b606083156144b7575081613956565b8251156144c75782518084602001fd5b8160405162461bcd60e51b81526004016103b99190614ce4565b6001600160a01b038116811461375f57600080fd5b8035614501816144e1565b919050565b60008060006060848603121561451b57600080fd5b8335614526816144e1565b95602085013595506040909401359392505050565b803560ff8116811461450157600080fd5b6000806040838503121561455f57600080fd5b8235915061456f6020840161453b565b90509250929050565b801515811461375f57600080fd5b803561450181614578565b634e487b7160e01b600052604160045260246000fd5b600082601f8301126145b857600080fd5b813567ffffffffffffffff808211156145d3576145d3614591565b604051601f8301601f19908116603f011681019082821181831017156145fb576145fb614591565b8160405283815286602085880101111561461457600080fd5b836020870160208301376000602085830101528094505050505092915050565b60008060008060008060008060006101208a8c03121561465357600080fd5b61465c8a6144f6565b985061466a60208b016144f6565b975061467860408b01614586565b965060608a013567ffffffffffffffff8082111561469557600080fd5b6146a18d838e016145a7565b975060808c01359150808211156146b757600080fd5b6146c38d838e016145a7565b965060a08c01359150808211156146d957600080fd5b6146e58d838e016145a7565b955060c08c01359150808211156146fb57600080fd5b506147088c828d016145a7565b93505060e08a0135915061471f6101008b0161453b565b90509295985092959850929598565b60006020828403121561474057600080fd5b5035919050565b6000806040838503121561475a57600080fd5b8235614765816144e1565b946020939093013593505050565b60006020828403121561478557600080fd5b8135613956816144e1565b6000602082840312156147a257600080fd5b813563ffffffff8116811461395657600080fd5b600080600080600060a086880312156147ce57600080fd5b8535945060208601356147e0816144e1565b94979496505050506040830135926060810135926080909101359150565b6000806040838503121561481157600080fd5b50508035926020909101359150565b6000806040838503121561483357600080fd5b82359150602083013561ffff8116811461484c57600080fd5b809150509250929050565b60008060006060848603121561486c57600080fd5b83359250602084013561487e816144e1565b9150604084013561488e81614578565b809150509250925092565b6000806000606084860312156148ae57600080fd5b83356148b9816144e1565b925060208401356148c9816144e1565b9150604084013561488e816144e1565b600080604083850312156148ec57600080fd5b82359150602083013561484c81614578565b6000806040838503121561491157600080fd5b823561491c816144e1565b9150602083013561484c816144e1565b60006020828403121561493e57600080fd5b815161395681614578565b602080825260149082015273252cb2b0b9371d103737ba1030b71020b236b4b760611b604082015260600190565b6020808252601f908201527f5265656e7472616e637947756172643a207265656e7472616e742063616c6c00604082015260600190565b60005b838110156149c95781810151838201526020016149b1565b83811115612b295750506000910152565b600081518084526149f28160208601602086016149ae565b601f01601f19169290920160200192915050565b606081526000614a1960608301866149da565b8281036020840152614a2b81866149da565b915050826040830152949350505050565b600060208284031215614a4e57600080fd5b8151613956816144e1565b600060208284031215614a6b57600080fd5b5051919050565b634e487b7160e01b600052601160045260246000fd5b600181815b80851115614ac3578160001904821115614aa957614aa9614a72565b80851615614ab657918102915b93841c9390800290614a8d565b509250929050565b600082614ada57506001611562565b81614ae757506000611562565b8160018114614afd5760028114614b0757614b23565b6001915050611562565b60ff841115614b1857614b18614a72565b50506001821b611562565b5060208310610133831016604e8410600b8410161715614b46575081810a611562565b614b508383614a88565b8060001904821115614b6457614b64614a72565b029392505050565b60006139568383614acb565b6020808252818101527f4f776e61626c653a2063616c6c6572206973206e6f7420746865206f776e6572604082015260600190565b60208082526022908201527f4a596561726e3a2079546f6b656e2061646472657373206e6f7420616c6c6f77604082015261195960f21b606082015260800190565b6020808252602e908201527f496e697469616c697a61626c653a20636f6e747261637420697320616c72656160408201526d191e481a5b9a5d1a585b1a5e995960921b606082015260800190565b60008219821115614c5057614c50614a72565b500190565b600082821015614c6757614c67614a72565b500390565b6000816000190483118215151615614c8657614c86614a72565b500290565b600082614ca857634e487b7160e01b600052601260045260246000fd5b500490565b6000600019821415614cc157614cc1614a72565b5060010190565b60008251614cda8184602087016149ae565b9190910192915050565b60208152600061395660208301846149da56fea2646970667358221220f2ef5575e47799242e24f0d97d11648fb820607d2587027d32132e835debd5e564736f6c63430008080033",
  "immutableReferences": {},
  "source": "// SPDX-License-Identifier: MIT\n/**\n * Created on 2021-02-11\n * @summary: Jibrel Aave Tranche Protocol\n * @author: Jibrel Team\n */\npragma solidity ^0.8.0;\n\n\nimport \"@openzeppelin/contracts-upgradeable/token/ERC20/utils/SafeERC20Upgradeable.sol\";\nimport \"@openzeppelin/contracts-upgradeable/security/ReentrancyGuardUpgradeable.sol\";\nimport \"@openzeppelin/contracts-upgradeable/utils/math/SafeMathUpgradeable.sol\";\nimport \"./interfaces/IJAdminTools.sol\";\nimport \"./interfaces/IJTrancheTokens.sol\";\nimport \"./interfaces/IJTranchesDeployer.sol\";\nimport \"./JYearnStorage.sol\";\nimport \"./interfaces/IJYearn.sol\";\nimport \"./interfaces/IWETHGateway.sol\";\nimport \"./interfaces/IIncentivesController.sol\";\nimport \"./interfaces/IYToken.sol\";\nimport \"./interfaces/IYearnRewards.sol\";\n\n\ncontract JYearn is OwnableUpgradeable, ReentrancyGuardUpgradeable, JYearnStorage, IJYearn {\n    using SafeMathUpgradeable for uint256;\n\n    /**\n     * @dev contract initializer\n     * @param _adminTools price oracle address\n     * @param _feesCollector fees collector contract address\n     * @param _tranchesDepl tranches deployer contract address\n     */\n    function initialize(address _adminTools, \n            address _feesCollector, \n            address _tranchesDepl) external initializer() {\n        OwnableUpgradeable.__Ownable_init();\n        adminToolsAddress = _adminTools;\n        feesCollectorAddress = _feesCollector;\n        tranchesDeployerAddress = _tranchesDepl;\n        redeemTimeout = 3; //default\n    }\n\n    /**\n     * @dev admins modifiers\n     */\n    modifier onlyAdmins() {\n        require(IJAdminTools(adminToolsAddress).isAdmin(msg.sender), \"JYearn: not an Admin\");\n        _;\n    }\n\n    fallback() external payable {\n        revert('Fallback not allowed');\n    }\n    receive() external payable {\n        revert('Receive not allowed');\n    }\n\n    /**\n     * @dev set new addresses for price oracle, fees collector and tranche deployer \n     * @param _adminTools price oracle address\n     * @param _feesCollector fees collector contract address\n     * @param _tranchesDepl tranches deployer contract address\n     */\n    function setNewEnvironment(address _adminTools, \n            address _feesCollector, \n            address _tranchesDepl) external onlyOwner{\n        require((_adminTools != address(0)) && (_feesCollector != address(0)) && (_tranchesDepl != address(0)), \"JYearn: check addresses\");\n        adminToolsAddress = _adminTools;\n        feesCollectorAddress = _feesCollector;\n        tranchesDeployerAddress = _tranchesDepl;\n    }\n\n    /**\n     * @dev set incentive rewards address\n     * @param _incentivesController incentives controller contract address\n     */\n    function setincentivesControllerAddress(address _incentivesController) external onlyAdmins {\n        incentivesControllerAddress = _incentivesController;\n    }\n\n    /**\n     * @dev get incentive rewards address\n     */\n    function getSirControllerAddress() external view override returns (address) {\n        return incentivesControllerAddress;\n    }\n\n    /**\n     * @dev set YFI token and rewards on the specific blockchain\n     * on Ethereum blockchain:\n     * YFI_TOKEN_ADDRESS = 0x0bc529c00C6401aEF6D220BE8C6Ea1667F6Ad93e;\n     * YFI_REWARDS_ADDRESS = 0xcc9EFea3ac5Df6AD6A656235Ef955fBfEF65B862;\n     * @param _yfiToken YFI token address\n     * @param _yfiRewards YFI rewards address\n     */\n    function setYFIAddresses(address _yfiToken, address _yfiRewards) external onlyAdmins {\n        require(_yfiToken != address(0) && _yfiRewards != address(0), \"JYearn: not valid YFI addresses\");\n        yfiTokenAddress = _yfiToken;\n        yfiRewardsAddress = _yfiRewards;\n    }\n\n    /**\n     * @dev set decimals on the underlying token of a tranche\n     * @param _trancheNum tranche number\n     * @param _underlyingDec underlying token decimals\n     */\n    function setDecimals(uint256 _trancheNum, uint8 _underlyingDec) external onlyAdmins {\n        require(_underlyingDec <= 18, \"JYearn: too many decimals\");\n        trancheParameters[_trancheNum].underlyingDecimals = _underlyingDec;\n    }\n\n    /**\n     * @dev set tranche redemption percentage\n     * @param _trancheNum tranche number\n     * @param _redeemPercent user redemption percent\n     */\n    function setTrancheRedemptionPercentage(uint256 _trancheNum, uint16 _redeemPercent) external onlyAdmins {\n        trancheParameters[_trancheNum].redemptionPercentage = _redeemPercent;\n    }\n\n    /**\n     * @dev set redemption timeout\n     * @param _blockNum timeout (in block numbers)\n     */\n    function setRedemptionTimeout(uint32 _blockNum) external onlyAdmins {\n        redeemTimeout = _blockNum;\n    }\n\n    /**\n     * @dev set redemption timeout\n     * @param _trancheNum tranche number\n     * @param _yTokenAddress yToken or yVault address\n     * @param _isVault vault or token\n     */\n    function setNewYToken(uint256 _trancheNum, address _yTokenAddress, bool _isVault) external onlyAdmins {\n        require(_trancheNum < tranchePairsCounter, \"JYearn: tranche number too high\");\n        require(_yTokenAddress != address(0), \"JYearn: yToken address not allowed\");\n        trancheAddresses[_trancheNum].yTokenAddress = _yTokenAddress;\n        trancheAddresses[_trancheNum].isVault = _isVault;\n    }\n\n    /**\n     * @dev set redemption timeout\n     * @param _trancheNum tranche number\n     * @param _newYTokenAddress yToken or yVault address\n     * @param _isVault vault or token\n     */\n    function migrateYTranche(uint256 _trancheNum, address _newYTokenAddress, bool _isVault) external onlyAdmins {\n        require(_trancheNum < tranchePairsCounter, \"JYearn: tranche number too high\");\n        require(_newYTokenAddress != address(0), \"JYearn: yToken address not allowed\");\n        uint256 totProtSupply = getTokenBalance(trancheAddresses[_trancheNum].yTokenAddress);\n        yearnWithdraw(_trancheNum, totProtSupply);\n        trancheAddresses[_trancheNum].yTokenAddress = _newYTokenAddress;\n        trancheAddresses[_trancheNum].isVault = _isVault;\n        uint256 totUnderBalance = getTokenBalance(trancheAddresses[_trancheNum].buyerCoinAddress);\n        IERC20Upgradeable(trancheAddresses[_trancheNum].buyerCoinAddress).approve(_newYTokenAddress, totUnderBalance);\n        IYToken(_newYTokenAddress).deposit(totUnderBalance);\n    }\n\n    /**\n     * @dev set tranche redemption percentage scaled by 1e18\n     * @param _trancheNum tranche number\n     * @param _newTrAPercentage new tranche A RPB\n     */\n    function setTrancheAFixedPercentage(uint256 _trancheNum, uint256 _newTrAPercentage) external onlyAdmins {\n        trancheParameters[_trancheNum].trancheAFixedPercentage = _newTrAPercentage;\n        trancheParameters[_trancheNum].storedTrancheAPrice = setTrancheAExchangeRate(_trancheNum);\n    }\n\n    function addTrancheToProtocol(address _buyerCoinAddress, \n            address _yTokenAddress, \n            bool _isVault,\n            string memory _nameA, \n            string memory _symbolA, \n            string memory _nameB, \n            string memory _symbolB, \n            uint256 _fixedRpb, \n            uint8 _underlyingDec) external onlyAdmins nonReentrant {\n        require(tranchesDeployerAddress != address(0), \"JYearn: set tranche eth deployer\");\n\n        trancheAddresses[tranchePairsCounter].buyerCoinAddress = _buyerCoinAddress;\n        trancheAddresses[tranchePairsCounter].yTokenAddress = _yTokenAddress;\n        trancheAddresses[tranchePairsCounter].isVault = _isVault;\n        trancheAddresses[tranchePairsCounter].ATrancheAddress = \n                IJTranchesDeployer(tranchesDeployerAddress).deployNewTrancheATokens(_nameA, _symbolA, tranchePairsCounter);\n        trancheAddresses[tranchePairsCounter].BTrancheAddress = \n                IJTranchesDeployer(tranchesDeployerAddress).deployNewTrancheBTokens(_nameB, _symbolB, tranchePairsCounter); \n        \n        trancheParameters[tranchePairsCounter].underlyingDecimals = _underlyingDec;\n        trancheParameters[tranchePairsCounter].trancheAFixedPercentage = _fixedRpb;\n        trancheParameters[tranchePairsCounter].trancheALastActionTime = block.timestamp;\n\n        trancheParameters[tranchePairsCounter].storedTrancheAPrice = uint256(1e18);\n\n        trancheParameters[tranchePairsCounter].redemptionPercentage = 10000;  //default value 100%, no fees\n\n        // add tokens in adminTools contracts so they can change staking details\n        IJAdminTools(adminToolsAddress).addAdmin(trancheAddresses[tranchePairsCounter].ATrancheAddress);\n        IJAdminTools(adminToolsAddress).addAdmin(trancheAddresses[tranchePairsCounter].BTrancheAddress);\n\n        calcRPSFromPercentage(tranchePairsCounter); // initialize tranche A RPB\n\n        emit TrancheAddedToProtocol(tranchePairsCounter, trancheAddresses[tranchePairsCounter].ATrancheAddress, trancheAddresses[tranchePairsCounter].BTrancheAddress);\n\n        tranchePairsCounter = tranchePairsCounter.add(1);\n    } \n\n    /**\n     * @dev enables or disables tranche deposit (default: disabled)\n     * @param _trancheNum tranche number\n     * @param _enable true or false\n     */\n    function setTrancheDeposit(uint256 _trancheNum, bool _enable) external onlyAdmins {\n        trancheDepositEnabled[_trancheNum] = _enable;\n    }\n\n    /**\n     * @dev deposit in yearn tokens\n     * @param _trNum tranche number\n     * @param _amount amount of token to be deposited in yearn token or vault\n     */\n    function yearnDeposit(uint256 _trNum, uint256 _amount) internal {\n        address origToken = trancheAddresses[_trNum].buyerCoinAddress;\n        address yToken = trancheAddresses[_trNum].yTokenAddress;\n\n        IERC20Upgradeable(origToken).approve(yToken, _amount);\n\n        IYToken(yToken).deposit(_amount);\n    }\n\n    /**\n     * @dev withdraw from yearn tokens\n     * @param _trNum tranche number\n     * @param _yAmount amount of ytokens to be redeemed from yearn token or vault\n     */\n    function yearnWithdraw(uint256 _trNum, uint256 _yAmount) internal returns (bool) {\n        address yToken = trancheAddresses[_trNum].yTokenAddress;\n\n        if (_yAmount > IYToken(yToken).balanceOf(address(this)))\n            _yAmount = IYToken(yToken).balanceOf(address(this));\n\n        IYToken(yToken).withdraw(_yAmount);\n\n        return true;\n    }\n    \n    /**\n     * @dev set Tranche A exchange rate\n     * @param _trancheNum tranche number\n     * @return tranche A token current price\n     */\n    function setTrancheAExchangeRate(uint256 _trancheNum) internal returns (uint256) {\n        calcRPSFromPercentage(_trancheNum);\n        uint256 deltaTime = (block.timestamp).sub(trancheParameters[_trancheNum].trancheALastActionTime);\n        uint256 deltaPrice = (trancheParameters[_trancheNum].trancheACurrentRPS).mul(deltaTime);\n        trancheParameters[_trancheNum].storedTrancheAPrice = (trancheParameters[_trancheNum].storedTrancheAPrice).add(deltaPrice);\n        trancheParameters[_trancheNum].trancheALastActionTime = block.timestamp;\n        return trancheParameters[_trancheNum].storedTrancheAPrice;\n    }\n\n    /**\n     * @dev get Tranche A exchange rate\n     * @param _trancheNum tranche number\n     * @return tranche A token current price\n     */\n    function getTrancheAExchangeRate(uint256 _trancheNum) public view returns (uint256) {\n        return trancheParameters[_trancheNum].storedTrancheAPrice;\n    }\n\n    /**\n     * @dev get RPB for a given percentage (expressed in 1e18)\n     * @param _trancheNum tranche number\n     * @return RPB for a fixed percentage\n     */\n    function getTrancheACurrentRPS(uint256 _trancheNum) external view returns (uint256) {\n        return trancheParameters[_trancheNum].trancheACurrentRPS;\n    }\n\n    /**\n     * @dev get Tranche A exchange rate per seconds (tokens with 18 decimals)\n     * @param _trancheNum tranche number\n     * @return tranche A token current price\n     */\n    function calcRPSFromPercentage(uint256 _trancheNum) public returns (uint256) {\n        // if normalized price in tranche A price, everything should be scaled to 1e18 \n        trancheParameters[_trancheNum].trancheACurrentRPS = trancheParameters[_trancheNum].storedTrancheAPrice\n                        .mul(trancheParameters[_trancheNum].trancheAFixedPercentage).div(SECONDS_PER_YEAR).div(1e18);\n        return trancheParameters[_trancheNum].trancheACurrentRPS;\n    }\n\n    /**\n     * @dev get price for yTokens\n     * @param _trancheNum tranche number\n     * @return yToken price\n     */\n    function getYTokenNormPrice(uint256 _trancheNum) public view returns (uint256){\n        uint256 tmpPrice = IYToken(trancheAddresses[_trancheNum].yTokenAddress).getPricePerFullShare();\n        uint256 underDecs = trancheParameters[_trancheNum].underlyingDecimals;\n        if (underDecs < 18) {\n            uint256 diffDecs = uint256(18).sub(underDecs);\n            tmpPrice = tmpPrice.mul(10 ** diffDecs);\n        }\n        return tmpPrice;\n    }\n\n    /**\n     * @dev get price for yVaults\n     * @param _trancheNum tranche number\n     * @return yVault price\n     */\n    function getYVaultNormPrice(uint256 _trancheNum) public view returns (uint256){\n       uint256 tmpPrice = IYToken(trancheAddresses[_trancheNum].yTokenAddress).pricePerShare();\n       uint256 underDecs = trancheParameters[_trancheNum].underlyingDecimals;\n        if (underDecs < 18) {\n            uint256 diffDecs = uint256(18).sub(underDecs);\n            tmpPrice = tmpPrice.mul(10 ** diffDecs);\n        }\n        return tmpPrice;\n    }\n\n    /**\n     * @dev get Tranche A value in underlying tokens\n     * @param _trancheNum tranche number\n     * @return trANormValue tranche A value in underlying tokens\n     */\n    function getTrAValue(uint256 _trancheNum) public view returns (uint256 trANormValue) {\n        uint256 totASupply = IERC20Upgradeable(trancheAddresses[_trancheNum].ATrancheAddress).totalSupply();\n        uint256 diffDec = uint256(18).sub(uint256(trancheParameters[_trancheNum].underlyingDecimals));\n        trANormValue = totASupply.mul(getTrancheAExchangeRate(_trancheNum)).div(1e18).div(10 ** diffDec);\n        return trANormValue;\n    }\n\n    /**\n     * @dev get Tranche B value in underlying tokens\n     * @param _trancheNum tranche number\n     * @return tranche B value in underlying tokens\n     */\n    function getTrBValue(uint256 _trancheNum) public view returns (uint256) {\n        uint256 totProtValue = getTotalValue(_trancheNum);\n        uint256 totTrAValue = getTrAValue(_trancheNum);\n        if (totProtValue > totTrAValue) {\n            return totProtValue.sub(totTrAValue);\n        } else\n            return 0;\n    }\n\n    /**\n     * @dev get Tranche total value in underlying tokens\n     * @param _trancheNum tranche number\n     * @return tranche total value in underlying tokens\n     */\n    function getTotalValue(uint256 _trancheNum) public view returns (uint256) {\n        uint256 yPrice;\n        if (trancheAddresses[_trancheNum].isVault)\n            yPrice = getYVaultNormPrice(_trancheNum);\n        else\n            yPrice = getYTokenNormPrice(_trancheNum);\n\n        uint256 totProtSupply = getTokenBalance(trancheAddresses[_trancheNum].yTokenAddress);\n\n        return totProtSupply.mul(yPrice).div(1e18);\n    }\n\n    /**\n     * @dev get Tranche B exchange rate\n     * @param _trancheNum tranche number\n     * @param _newAmount new amount entering tranche B (underlying token decimals)\n     * @return tbPrice tranche B token current price\n     */\n    function getTrancheBExchangeRate(uint256 _trancheNum, uint256 _newAmount) public view returns (uint256 tbPrice) {\n        // set amount of tokens to be minted via taToken price\n        // Current tbDai price = ((aDai-(aSupply X taPrice)) / bSupply)\n        // where: aDai = How much aDai we hold in the protocol\n        // aSupply = Total number of taDai in protocol\n        // taPrice = taDai / Dai price\n        // bSupply = Total number of tbDai in protocol\n        uint256 totTrBValue;\n\n        uint256 totBSupply = IERC20Upgradeable(trancheAddresses[_trancheNum].BTrancheAddress).totalSupply(); // 18 decimals\n        // if normalized price in tranche A price, everything should be scaled to 1e18 \n        uint256 underlyingDec = uint256(trancheParameters[_trancheNum].underlyingDecimals);\n        uint256 normAmount = _newAmount;\n        if (underlyingDec < 18)\n            normAmount = _newAmount.mul(10 ** uint256(18).sub(underlyingDec));\n        uint256 newBSupply = totBSupply.add(normAmount); // 18 decimals\n\n        uint256 totProtValue = getTotalValue(_trancheNum).add(_newAmount); //underlying token decimals\n        uint256 totTrAValue = getTrAValue(_trancheNum); //underlying token decimals\n        if (totProtValue >= totTrAValue)\n            totTrBValue = totProtValue.sub(totTrAValue); //underlying token decimals\n        else\n            totTrBValue = 0;\n        // if normalized price in tranche A price, everything should be scaled to 1e18 \n        if (underlyingDec < 18 && totTrBValue > 0) {\n            totTrBValue = totTrBValue.mul(10 ** (uint256(18).sub(underlyingDec)));\n        }\n\n        if (totTrBValue > 0 && newBSupply > 0) {\n            // if normalized price in tranche A price, everything should be scaled to 1e18 \n            tbPrice = totTrBValue.mul(1e18).div(newBSupply);\n        } else\n            // if normalized price in tranche A price, everything should be scaled to 1e18 \n            tbPrice = uint256(1e18);\n\n        return tbPrice;\n    }\n \n    /**\n     * @dev set staking details for tranche A holders, with number, amount and time\n     * @param _trancheNum tranche number\n     * @param _account user's account\n     * @param _stkNum staking detail counter\n     * @param _amount amount of tranche A tokens\n     * @param _time time to be considered the deposit\n     */\n    function setTrAStakingDetails(uint256 _trancheNum, address _account, uint256 _stkNum, uint256 _amount, uint256 _time) external override onlyAdmins {\n        stakeCounterTrA[_account][_trancheNum] = _stkNum;\n        StakingDetails storage details = stakingDetailsTrancheA[_account][_trancheNum][_stkNum];\n        details.startTime = _time;\n        details.amount = _amount;\n    }\n\n    /**\n     * @dev when redemption occurs on tranche A, removing tranche A tokens from staking information (FIFO logic)\n     * @param _trancheNum tranche number\n     * @param _amount amount of redeemed tokens\n     */\n    function decreaseTrancheATokenFromStake(uint256 _trancheNum, uint256 _amount) internal {\n        uint256 senderCounter = stakeCounterTrA[msg.sender][_trancheNum];\n        uint256 tmpAmount = _amount;\n        for (uint i = 1; i <= senderCounter; i++) {\n            StakingDetails storage details = stakingDetailsTrancheA[msg.sender][_trancheNum][i];\n            if (details.amount > 0) {\n                if (details.amount <= tmpAmount) {\n                    tmpAmount = tmpAmount.sub(details.amount);\n                    details.amount = 0;\n                } else {\n                    details.amount = details.amount.sub(tmpAmount);\n                    tmpAmount = 0;\n                }\n            }\n            if (tmpAmount == 0)\n                break;\n        }\n    }\n\n    function getSingleTrancheUserStakeCounterTrA(address _user, uint256 _trancheNum) external view override returns (uint256) {\n        return stakeCounterTrA[_user][_trancheNum];\n    }\n\n    function getSingleTrancheUserSingleStakeDetailsTrA(address _user, uint256 _trancheNum, uint256 _num) external view override returns (uint256, uint256) {\n        return (stakingDetailsTrancheA[_user][_trancheNum][_num].startTime, stakingDetailsTrancheA[_user][_trancheNum][_num].amount);\n    }\n\n    /**\n     * @dev set staking details for tranche B holders, with number, amount and time\n     * @param _trancheNum tranche number\n     * @param _account user's account\n     * @param _stkNum staking detail counter\n     * @param _amount amount of tranche B tokens\n     * @param _time time to be considered the deposit\n     */\n    function setTrBStakingDetails(uint256 _trancheNum, address _account, uint256 _stkNum, uint256 _amount, uint256 _time) external override onlyAdmins {\n        stakeCounterTrB[_account][_trancheNum] = _stkNum;\n        StakingDetails storage details = stakingDetailsTrancheB[_account][_trancheNum][_stkNum];\n        details.startTime = _time;\n        details.amount = _amount; \n    }\n    \n    /**\n     * @dev when redemption occurs on tranche B, removing tranche B tokens from staking information (FIFO logic)\n     * @param _trancheNum tranche number\n     * @param _amount amount of redeemed tokens\n     */\n    function decreaseTrancheBTokenFromStake(uint256 _trancheNum, uint256 _amount) internal {\n        uint256 senderCounter = stakeCounterTrB[msg.sender][_trancheNum];\n        uint256 tmpAmount = _amount;\n        for (uint i = 1; i <= senderCounter; i++) {\n            StakingDetails storage details = stakingDetailsTrancheB[msg.sender][_trancheNum][i];\n            if (details.amount > 0) {\n                if (details.amount <= tmpAmount) {\n                    tmpAmount = tmpAmount.sub(details.amount);\n                    details.amount = 0;\n                } else {\n                    details.amount = details.amount.sub(tmpAmount);\n                    tmpAmount = 0;\n                }\n            }\n            if (tmpAmount == 0)\n                break;\n        }\n    }\n\n    function getSingleTrancheUserStakeCounterTrB(address _user, uint256 _trancheNum) external view override returns (uint256) {\n        return stakeCounterTrB[_user][_trancheNum];\n    }\n\n    function getSingleTrancheUserSingleStakeDetailsTrB(address _user, uint256 _trancheNum, uint256 _num) external view override returns (uint256, uint256) {\n        return (stakingDetailsTrancheB[_user][_trancheNum][_num].startTime, stakingDetailsTrancheB[_user][_trancheNum][_num].amount);\n    }\n\n    /**\n     * @dev buy Tranche A Tokens\n     * @param _trancheNum tranche number\n     * @param _amount amount of stable coins sent by buyer\n     */\n    function buyTrancheAToken(uint256 _trancheNum, uint256 _amount) external payable nonReentrant {\n        require(trancheDepositEnabled[_trancheNum], \"JYearn: tranche deposit disabled\");\n        uint256 prevYTokenBalance = getTokenBalance(trancheAddresses[_trancheNum].yTokenAddress);\n        address _tokenAddr = trancheAddresses[_trancheNum].buyerCoinAddress;\n        // check approve\n        require(IERC20Upgradeable(_tokenAddr).allowance(msg.sender, address(this)) >= _amount, \"JYearn: allowance failed buying tranche A\");\n        SafeERC20Upgradeable.safeTransferFrom(IERC20Upgradeable(_tokenAddr), msg.sender, address(this), _amount);\n        yearnDeposit(_trancheNum, _amount);\n\n        uint256 newYTokenBalance = getTokenBalance(trancheAddresses[_trancheNum].yTokenAddress);\n        setTrancheAExchangeRate(_trancheNum);\n        uint256 taAmount;\n        if (newYTokenBalance > prevYTokenBalance) {\n            // set amount of tokens to be minted calculate taToken amount via taToken price\n            // if normalized price in tranche A price, everything should be scaled to 1e18 \n            uint256 diffDec = uint256(18).sub(uint256(trancheParameters[_trancheNum].underlyingDecimals));\n            uint256 normAmount = _amount.mul(10 ** diffDec);\n            taAmount = normAmount.mul(1e18).div(trancheParameters[_trancheNum].storedTrancheAPrice);\n            //Mint trancheA tokens and send them to msg.sender and notify to incentive controller BEFORE totalSupply updates\n            IIncentivesController(incentivesControllerAddress).trancheANewEnter(msg.sender, trancheAddresses[_trancheNum].ATrancheAddress);\n            IJTrancheTokens(trancheAddresses[_trancheNum].ATrancheAddress).mint(msg.sender, taAmount);\n        }\n\n        stakeCounterTrA[msg.sender][_trancheNum] = stakeCounterTrA[msg.sender][_trancheNum].add(1);\n        StakingDetails storage details = stakingDetailsTrancheA[msg.sender][_trancheNum][stakeCounterTrA[msg.sender][_trancheNum]];\n        details.startTime = block.timestamp;\n        details.amount = taAmount;\n\n        lastActivity[msg.sender] = block.number;\n        emit TrancheATokenMinted(_trancheNum, msg.sender, _amount, taAmount);\n    }\n\n    function redeemYTokens(uint256 _trancheNum, uint256 _amount, bool isTrancheA) internal view returns (uint256) {\n        uint256 tokVal;\n        if (isTrancheA) \n            tokVal = _amount.mul(trancheParameters[_trancheNum].storedTrancheAPrice).div(1e18);\n        else\n            tokVal = _amount.mul(getTrancheBExchangeRate(_trancheNum, 0)).div(1e18);\n        // everything should be scaled to 1e18 \n        uint256 diffDec;\n        uint256 normAmount = tokVal;\n        if (trancheParameters[_trancheNum].underlyingDecimals < 18) {\n            diffDec = uint256(18).sub(uint256(trancheParameters[_trancheNum].underlyingDecimals));\n            normAmount = tokVal.div(10 ** diffDec);\n        }\n        // not sure about this, but it should be checked\n        uint256 trTotAmount;\n        if (isTrancheA)\n            trTotAmount = getTrAValue(_trancheNum);\n        else\n            trTotAmount = getTrBValue(_trancheNum);\n        if (normAmount > trTotAmount)\n            normAmount = trTotAmount;\n\n        uint256 tempYPrice;\n        if (trancheAddresses[_trancheNum].isVault)\n            tempYPrice = getYVaultNormPrice(_trancheNum);  // price per full share\n        else\n            tempYPrice = getYTokenNormPrice(_trancheNum);\n        uint256 redeemAmount = (normAmount.mul(1e18).div(tempYPrice));\n        return redeemAmount;\n    }\n\n    function getUserAmount(address origToken, uint256 _trancheNum, uint256 _amount, bool _isTrancheA) internal returns(uint256, uint256){\n        uint256 startBal = IERC20Upgradeable(origToken).balanceOf(address(this));\n        uint256 tokensToRedeem;\n        if (_isTrancheA)\n            tokensToRedeem = redeemYTokens(_trancheNum, _amount, true);\n        else\n            tokensToRedeem = redeemYTokens(_trancheNum, _amount, false);\n        bool ret = yearnWithdraw(_trancheNum, tokensToRedeem);\n        uint256 endBal;\n        uint256 diffBal;\n        if (ret) {\n            endBal = IERC20Upgradeable(origToken).balanceOf(address(this));\n            \n            if(endBal >= startBal) {\n                diffBal = endBal.sub(startBal);\n            } else {\n                diffBal = endBal;\n            }\n        }\n        uint256 redemptionPercent = uint256(trancheParameters[_trancheNum].redemptionPercentage);\n        uint256 userAmount = diffBal.mul(redemptionPercent).div(PERCENT_DIVIDER);\n        return (diffBal, userAmount);\n    }\n\n    /**\n     * @dev redeem Tranche A Tokens\n     * @param _trancheNum tranche number\n     * @param _amount amount of stable coins sent by buyer\n     */\n    function redeemTrancheAToken(uint256 _trancheNum, uint256 _amount) external nonReentrant {\n        require((block.number).sub(lastActivity[msg.sender]) >= redeemTimeout, \"JYearn: redeem timeout not expired on tranche A\");\n        // check approve\n        require(IERC20Upgradeable(trancheAddresses[_trancheNum].ATrancheAddress).allowance(msg.sender, address(this)) >= _amount, \n                \"JYearn: allowance failed redeeming tranche A\");\n        SafeERC20Upgradeable.safeTransferFrom(IERC20Upgradeable(trancheAddresses[_trancheNum].ATrancheAddress), msg.sender, address(this), _amount);\n\n        setTrancheAExchangeRate(_trancheNum);\n\n        address origToken = trancheAddresses[_trancheNum].buyerCoinAddress;\n\n        (uint256 diffBal, uint256 userAmount) = getUserAmount(origToken, _trancheNum, _amount, true);\n        uint256 tmpBal = diffBal;\n\n        if (diffBal > 0) {\n            if(userAmount <= diffBal) {\n                SafeERC20Upgradeable.safeTransfer(IERC20Upgradeable(origToken), msg.sender, userAmount);\n                tmpBal = tmpBal.sub(userAmount);\n            } else {\n                SafeERC20Upgradeable.safeTransfer(IERC20Upgradeable(origToken), msg.sender, diffBal);\n                tmpBal = 0;\n            }\n        }\n\n        uint256 feesAmount = diffBal.sub(userAmount);\n        if (tmpBal > 0 && feesAmount > 0) {\n            if (feesAmount <= tmpBal)\n                SafeERC20Upgradeable.safeTransfer(IERC20Upgradeable(origToken), feesCollectorAddress, feesAmount);\n            else\n                SafeERC20Upgradeable.safeTransfer(IERC20Upgradeable(origToken), feesCollectorAddress, tmpBal);\n        }\n       \n        // claim and transfer rewards to msg.sender. Be sure to wait for this function to be completed! \n        bool rewClaimCompleted = IIncentivesController(incentivesControllerAddress).claimRewardsAllMarkets(msg.sender);\n\n        // decrease tokens after claiming rewards\n        if (rewClaimCompleted && _amount > 0)\n            decreaseTrancheATokenFromStake(_trancheNum, _amount);\n\n        IJTrancheTokens(trancheAddresses[_trancheNum].ATrancheAddress).burn(_amount);\n        lastActivity[msg.sender] = block.number;\n        emit TrancheATokenRedemption(_trancheNum, msg.sender, _amount, userAmount, feesAmount);\n    }\n\n    /**\n     * @dev buy Tranche B Tokens\n     * @param _trancheNum tranche number\n     * @param _amount amount of stable coins sent by buyer\n     */\n    function buyTrancheBToken(uint256 _trancheNum, uint256 _amount) external payable nonReentrant {\n        require(trancheDepositEnabled[_trancheNum], \"JYearn: tranche deposit disabled\");\n        // refresh value for tranche A\n        setTrancheAExchangeRate(_trancheNum);\n        // get tranche B exchange rate\n        // if normalized price in tranche B price, everything should be scaled to 1e18 \n        uint256 diffDec = uint256(18).sub(uint256(trancheParameters[_trancheNum].underlyingDecimals));\n        uint256 normAmount = _amount.mul(10 ** diffDec);\n        uint256 tbAmount = normAmount.mul(1e18).div(getTrancheBExchangeRate(_trancheNum, _amount));\n        uint256 prevYTokenBalance = getTokenBalance(trancheAddresses[_trancheNum].yTokenAddress);\n        address _tokenAddr = trancheAddresses[_trancheNum].buyerCoinAddress;\n        // check approve\n        require(IERC20Upgradeable(_tokenAddr).allowance(msg.sender, address(this)) >= _amount, \"JYearn: allowance failed buying tranche B\");\n        SafeERC20Upgradeable.safeTransferFrom(IERC20Upgradeable(_tokenAddr), msg.sender, address(this), _amount);\n        yearnDeposit(_trancheNum, _amount);\n\n        uint256 newYTokenBalance = getTokenBalance(trancheAddresses[_trancheNum].yTokenAddress);\n        if (newYTokenBalance > prevYTokenBalance) {\n            //Mint trancheB tokens and send them to msg.sender and notify to incentive controller BEFORE totalSupply updates\n            IIncentivesController(incentivesControllerAddress).trancheBNewEnter(msg.sender, trancheAddresses[_trancheNum].BTrancheAddress);\n            IJTrancheTokens(trancheAddresses[_trancheNum].BTrancheAddress).mint(msg.sender, tbAmount);\n        } else \n            tbAmount = 0;\n\n        stakeCounterTrB[msg.sender][_trancheNum] = stakeCounterTrB[msg.sender][_trancheNum].add(1);\n        StakingDetails storage details = stakingDetailsTrancheB[msg.sender][_trancheNum][stakeCounterTrB[msg.sender][_trancheNum]];\n        details.startTime = block.timestamp;\n        details.amount = tbAmount; \n\n        lastActivity[msg.sender] = block.number;\n        emit TrancheBTokenMinted(_trancheNum, msg.sender, _amount, tbAmount);\n    }\n\n    /**\n     * @dev redeem Tranche B Tokens\n     * @param _trancheNum tranche number\n     * @param _amount amount of stable coins sent by buyer\n     */\n    function redeemTrancheBToken(uint256 _trancheNum, uint256 _amount) external nonReentrant {\n        require((block.number).sub(lastActivity[msg.sender]) >= redeemTimeout, \"JYearn: redeem timeout not expired on tranche B\");\n        // check approve\n        require(IERC20Upgradeable(trancheAddresses[_trancheNum].BTrancheAddress).allowance(msg.sender, address(this)) >= _amount, \n                \"JYearn: allowance failed redeeming tranche B\");\n\n        SafeERC20Upgradeable.safeTransferFrom(IERC20Upgradeable(trancheAddresses[_trancheNum].BTrancheAddress), msg.sender, address(this), _amount);\n\n        setTrancheAExchangeRate(_trancheNum);\n\n        address origToken = trancheAddresses[_trancheNum].buyerCoinAddress;\n\n        (uint256 diffBal, uint256 userAmount) = getUserAmount(origToken, _trancheNum, _amount, false);\n        uint256 tmpBal = diffBal;\n\n        if (diffBal > 0) {\n            if(userAmount <= diffBal) {\n                SafeERC20Upgradeable.safeTransfer(IERC20Upgradeable(origToken), msg.sender, userAmount);\n                tmpBal = tmpBal.sub(userAmount);\n            } else {\n                SafeERC20Upgradeable.safeTransfer(IERC20Upgradeable(origToken), msg.sender, diffBal);\n                tmpBal = 0;\n            }\n        }\n\n        uint256 feesAmount = diffBal.sub(userAmount);\n        if (tmpBal > 0 && feesAmount > 0) {\n            if (feesAmount <= tmpBal)\n                SafeERC20Upgradeable.safeTransfer(IERC20Upgradeable(origToken), feesCollectorAddress, feesAmount);\n            else\n                SafeERC20Upgradeable.safeTransfer(IERC20Upgradeable(origToken), feesCollectorAddress, tmpBal);\n        }\n\n        // claim and transfer rewards to msg.sender. Be sure to wait for this function to be completed! \n        bool rewClaimCompleted = IIncentivesController(incentivesControllerAddress).claimRewardsAllMarkets(msg.sender);\n\n        // decrease tokens after claiming rewards\n        if (rewClaimCompleted && _amount > 0)\n            decreaseTrancheBTokenFromStake(_trancheNum, _amount);\n\n        IJTrancheTokens(trancheAddresses[_trancheNum].BTrancheAddress).burn(_amount);\n        lastActivity[msg.sender] = block.number;\n        emit TrancheBTokenRedemption(_trancheNum, msg.sender, _amount, userAmount, feesAmount);\n    }\n\n    /**\n     * @dev get every token balance in this contract\n     * @param _tokenContract token contract address\n     */\n    function getTokenBalance(address _tokenContract) public view returns (uint256) {\n        return IERC20Upgradeable(_tokenContract).balanceOf(address(this));\n    }\n\n    /**\n     * @dev transfer tokens in this contract to fees collector contract\n     * @param _tokenContract token contract address\n     * @param _amount token amount to be transferred \n     */\n    function transferTokenToFeesCollector(address _tokenContract, uint256 _amount) external onlyAdmins {\n        SafeERC20Upgradeable.safeTransfer(IERC20Upgradeable(_tokenContract), feesCollectorAddress, _amount);\n    }\n    \n    /**\n     * @dev get token rewards amount (only if some YFI token are inside contract)\n     * @return amount of unclaimed tokens\n     */\n    function getYFIUnclaimedRewardShares() public view returns(uint256) {\n        require(yfiRewardsAddress != address(0), \"JYearn: not a valid YFI reward address\");\n        return IYearnRewards(yfiRewardsAddress).claimable(address(this));\n    }\n\n    /**\n     * @dev claim token rewards if YFI tokens are staked into this contract, exchanging YFI token for adai tokens\n     * @param _amount amount of YFI token to requested rewards on it\n     */\n    function claimYearnRewards(uint256 _amount) external {\n        require(yfiTokenAddress != address(0) && yfiRewardsAddress != address(0), \"JYearn: not valid YFI addresses\");\n        uint256 yfiBalance = IERC20Upgradeable(yfiTokenAddress).balanceOf(address(this));\n        require(yfiBalance > 0, \"JYearn: not enough YFI tokens to claim rewards\");\n\n        IYearnRewards(yfiRewardsAddress).claim(_amount);\n    }\n\n}",
  "sourcePath": "/Users/himanshugoyal/Documents/DeFi/tranche-yearn-protocol/contracts/JYearn.sol",
  "compiler": {
    "name": "solc",
    "version": "0.8.8+commit.dddeac2f.Emscripten.clang"
  },
  "schemaVersion": "3.2.4",
  "updatedAt": "2022-02-17T06:09:14.190Z",
  "devdoc": {
    "kind": "dev",
    "methods": {
      "buyTrancheAToken(uint256,uint256)": {
        "details": "buy Tranche A Tokens",
        "params": {
          "_amount": "amount of stable coins sent by buyer",
          "_trancheNum": "tranche number"
        }
      },
      "buyTrancheBToken(uint256,uint256)": {
        "details": "buy Tranche B Tokens",
        "params": {
          "_amount": "amount of stable coins sent by buyer",
          "_trancheNum": "tranche number"
        }
      },
      "calcRPSFromPercentage(uint256)": {
        "details": "get Tranche A exchange rate per seconds (tokens with 18 decimals)",
        "params": {
          "_trancheNum": "tranche number"
        },
        "returns": {
          "_0": "tranche A token current price"
        }
      },
      "claimYearnRewards(uint256)": {
        "details": "claim token rewards if YFI tokens are staked into this contract, exchanging YFI token for adai tokens",
        "params": {
          "_amount": "amount of YFI token to requested rewards on it"
        }
      },
      "getSirControllerAddress()": {
        "details": "get incentive rewards address"
      },
      "getTokenBalance(address)": {
        "details": "get every token balance in this contract",
        "params": {
          "_tokenContract": "token contract address"
        }
      },
      "getTotalValue(uint256)": {
        "details": "get Tranche total value in underlying tokens",
        "params": {
          "_trancheNum": "tranche number"
        },
        "returns": {
          "_0": "tranche total value in underlying tokens"
        }
      },
      "getTrAValue(uint256)": {
        "details": "get Tranche A value in underlying tokens",
        "params": {
          "_trancheNum": "tranche number"
        },
        "returns": {
          "trANormValue": "tranche A value in underlying tokens"
        }
      },
      "getTrBValue(uint256)": {
        "details": "get Tranche B value in underlying tokens",
        "params": {
          "_trancheNum": "tranche number"
        },
        "returns": {
          "_0": "tranche B value in underlying tokens"
        }
      },
      "getTrancheACurrentRPS(uint256)": {
        "details": "get RPB for a given percentage (expressed in 1e18)",
        "params": {
          "_trancheNum": "tranche number"
        },
        "returns": {
          "_0": "RPB for a fixed percentage"
        }
      },
      "getTrancheAExchangeRate(uint256)": {
        "details": "get Tranche A exchange rate",
        "params": {
          "_trancheNum": "tranche number"
        },
        "returns": {
          "_0": "tranche A token current price"
        }
      },
      "getTrancheBExchangeRate(uint256,uint256)": {
        "details": "get Tranche B exchange rate",
        "params": {
          "_newAmount": "new amount entering tranche B (underlying token decimals)",
          "_trancheNum": "tranche number"
        },
        "returns": {
          "tbPrice": "tranche B token current price"
        }
      },
      "getYFIUnclaimedRewardShares()": {
        "details": "get token rewards amount (only if some YFI token are inside contract)",
        "returns": {
          "_0": "amount of unclaimed tokens"
        }
      },
      "getYTokenNormPrice(uint256)": {
        "details": "get price for yTokens",
        "params": {
          "_trancheNum": "tranche number"
        },
        "returns": {
          "_0": "yToken price"
        }
      },
      "getYVaultNormPrice(uint256)": {
        "details": "get price for yVaults",
        "params": {
          "_trancheNum": "tranche number"
        },
        "returns": {
          "_0": "yVault price"
        }
      },
      "initialize(address,address,address)": {
        "details": "contract initializer",
        "params": {
          "_adminTools": "price oracle address",
          "_feesCollector": "fees collector contract address",
          "_tranchesDepl": "tranches deployer contract address"
        }
      },
      "migrateYTranche(uint256,address,bool)": {
        "details": "set redemption timeout",
        "params": {
          "_isVault": "vault or token",
          "_newYTokenAddress": "yToken or yVault address",
          "_trancheNum": "tranche number"
        }
      },
      "owner()": {
        "details": "Returns the address of the current owner."
      },
      "redeemTrancheAToken(uint256,uint256)": {
        "details": "redeem Tranche A Tokens",
        "params": {
          "_amount": "amount of stable coins sent by buyer",
          "_trancheNum": "tranche number"
        }
      },
      "redeemTrancheBToken(uint256,uint256)": {
        "details": "redeem Tranche B Tokens",
        "params": {
          "_amount": "amount of stable coins sent by buyer",
          "_trancheNum": "tranche number"
        }
      },
      "renounceOwnership()": {
        "details": "Leaves the contract without owner. It will not be possible to call `onlyOwner` functions anymore. Can only be called by the current owner. NOTE: Renouncing ownership will leave the contract without an owner, thereby removing any functionality that is only available to the owner."
      },
      "setDecimals(uint256,uint8)": {
        "details": "set decimals on the underlying token of a tranche",
        "params": {
          "_trancheNum": "tranche number",
          "_underlyingDec": "underlying token decimals"
        }
      },
      "setNewEnvironment(address,address,address)": {
        "details": "set new addresses for price oracle, fees collector and tranche deployer ",
        "params": {
          "_adminTools": "price oracle address",
          "_feesCollector": "fees collector contract address",
          "_tranchesDepl": "tranches deployer contract address"
        }
      },
      "setNewYToken(uint256,address,bool)": {
        "details": "set redemption timeout",
        "params": {
          "_isVault": "vault or token",
          "_trancheNum": "tranche number",
          "_yTokenAddress": "yToken or yVault address"
        }
      },
      "setRedemptionTimeout(uint32)": {
        "details": "set redemption timeout",
        "params": {
          "_blockNum": "timeout (in block numbers)"
        }
      },
      "setTrAStakingDetails(uint256,address,uint256,uint256,uint256)": {
        "details": "set staking details for tranche A holders, with number, amount and time",
        "params": {
          "_account": "user's account",
          "_amount": "amount of tranche A tokens",
          "_stkNum": "staking detail counter",
          "_time": "time to be considered the deposit",
          "_trancheNum": "tranche number"
        }
      },
      "setTrBStakingDetails(uint256,address,uint256,uint256,uint256)": {
        "details": "set staking details for tranche B holders, with number, amount and time",
        "params": {
          "_account": "user's account",
          "_amount": "amount of tranche B tokens",
          "_stkNum": "staking detail counter",
          "_time": "time to be considered the deposit",
          "_trancheNum": "tranche number"
        }
      },
      "setTrancheAFixedPercentage(uint256,uint256)": {
        "details": "set tranche redemption percentage scaled by 1e18",
        "params": {
          "_newTrAPercentage": "new tranche A RPB",
          "_trancheNum": "tranche number"
        }
      },
      "setTrancheDeposit(uint256,bool)": {
        "details": "enables or disables tranche deposit (default: disabled)",
        "params": {
          "_enable": "true or false",
          "_trancheNum": "tranche number"
        }
      },
      "setTrancheRedemptionPercentage(uint256,uint16)": {
        "details": "set tranche redemption percentage",
        "params": {
          "_redeemPercent": "user redemption percent",
          "_trancheNum": "tranche number"
        }
      },
      "setYFIAddresses(address,address)": {
        "details": "set YFI token and rewards on the specific blockchain on Ethereum blockchain: YFI_TOKEN_ADDRESS = 0x0bc529c00C6401aEF6D220BE8C6Ea1667F6Ad93e; YFI_REWARDS_ADDRESS = 0xcc9EFea3ac5Df6AD6A656235Ef955fBfEF65B862;",
        "params": {
          "_yfiRewards": "YFI rewards address",
          "_yfiToken": "YFI token address"
        }
      },
      "setincentivesControllerAddress(address)": {
        "details": "set incentive rewards address",
        "params": {
          "_incentivesController": "incentives controller contract address"
        }
      },
      "transferOwnership(address)": {
        "details": "Transfers ownership of the contract to a new account (`newOwner`). Can only be called by the current owner."
      },
      "transferTokenToFeesCollector(address,uint256)": {
        "details": "transfer tokens in this contract to fees collector contract",
        "params": {
          "_amount": "token amount to be transferred ",
          "_tokenContract": "token contract address"
        }
      }
    },
    "version": 1
  },
  "userdoc": {
    "kind": "user",
    "methods": {},
    "version": 1
  }
}